{
  "contractName": "BasicNFT",
  "abi": [
    {
      "inputs": [
        {
          "internalType": "string",
          "name": "_name",
          "type": "string"
        },
        {
          "internalType": "string",
          "name": "_symbol",
          "type": "string"
        }
      ],
      "stateMutability": "nonpayable",
      "type": "constructor"
    },
    {
      "anonymous": false,
      "inputs": [
        {
          "indexed": true,
          "internalType": "address",
          "name": "owner",
          "type": "address"
        },
        {
          "indexed": true,
          "internalType": "address",
          "name": "approved",
          "type": "address"
        },
        {
          "indexed": true,
          "internalType": "uint256",
          "name": "tokenId",
          "type": "uint256"
        }
      ],
      "name": "Approval",
      "type": "event"
    },
    {
      "anonymous": false,
      "inputs": [
        {
          "indexed": true,
          "internalType": "address",
          "name": "owner",
          "type": "address"
        },
        {
          "indexed": true,
          "internalType": "address",
          "name": "operator",
          "type": "address"
        },
        {
          "indexed": false,
          "internalType": "bool",
          "name": "approved",
          "type": "bool"
        }
      ],
      "name": "ApprovalForAll",
      "type": "event"
    },
    {
      "anonymous": false,
      "inputs": [
        {
          "indexed": true,
          "internalType": "address",
          "name": "previousOwner",
          "type": "address"
        },
        {
          "indexed": true,
          "internalType": "address",
          "name": "newOwner",
          "type": "address"
        }
      ],
      "name": "OwnershipTransferred",
      "type": "event"
    },
    {
      "anonymous": false,
      "inputs": [
        {
          "indexed": false,
          "internalType": "address",
          "name": "account",
          "type": "address"
        }
      ],
      "name": "Paused",
      "type": "event"
    },
    {
      "anonymous": false,
      "inputs": [
        {
          "indexed": true,
          "internalType": "bytes32",
          "name": "role",
          "type": "bytes32"
        },
        {
          "indexed": true,
          "internalType": "bytes32",
          "name": "previousAdminRole",
          "type": "bytes32"
        },
        {
          "indexed": true,
          "internalType": "bytes32",
          "name": "newAdminRole",
          "type": "bytes32"
        }
      ],
      "name": "RoleAdminChanged",
      "type": "event"
    },
    {
      "anonymous": false,
      "inputs": [
        {
          "indexed": true,
          "internalType": "bytes32",
          "name": "role",
          "type": "bytes32"
        },
        {
          "indexed": true,
          "internalType": "address",
          "name": "account",
          "type": "address"
        },
        {
          "indexed": true,
          "internalType": "address",
          "name": "sender",
          "type": "address"
        }
      ],
      "name": "RoleGranted",
      "type": "event"
    },
    {
      "anonymous": false,
      "inputs": [
        {
          "indexed": true,
          "internalType": "bytes32",
          "name": "role",
          "type": "bytes32"
        },
        {
          "indexed": true,
          "internalType": "address",
          "name": "account",
          "type": "address"
        },
        {
          "indexed": true,
          "internalType": "address",
          "name": "sender",
          "type": "address"
        }
      ],
      "name": "RoleRevoked",
      "type": "event"
    },
    {
      "anonymous": false,
      "inputs": [
        {
          "indexed": true,
          "internalType": "address",
          "name": "from",
          "type": "address"
        },
        {
          "indexed": true,
          "internalType": "address",
          "name": "to",
          "type": "address"
        },
        {
          "indexed": true,
          "internalType": "uint256",
          "name": "tokenId",
          "type": "uint256"
        }
      ],
      "name": "Transfer",
      "type": "event"
    },
    {
      "anonymous": false,
      "inputs": [
        {
          "indexed": false,
          "internalType": "address",
          "name": "account",
          "type": "address"
        }
      ],
      "name": "Unpaused",
      "type": "event"
    },
    {
      "inputs": [],
      "name": "BURNER_ROLE",
      "outputs": [
        {
          "internalType": "bytes32",
          "name": "",
          "type": "bytes32"
        }
      ],
      "stateMutability": "view",
      "type": "function"
    },
    {
      "inputs": [],
      "name": "DEFAULT_ADMIN_ROLE",
      "outputs": [
        {
          "internalType": "bytes32",
          "name": "",
          "type": "bytes32"
        }
      ],
      "stateMutability": "view",
      "type": "function"
    },
    {
      "inputs": [],
      "name": "MINTER_ROLE",
      "outputs": [
        {
          "internalType": "bytes32",
          "name": "",
          "type": "bytes32"
        }
      ],
      "stateMutability": "view",
      "type": "function"
    },
    {
      "inputs": [],
      "name": "PAUSER_ROLE",
      "outputs": [
        {
          "internalType": "bytes32",
          "name": "",
          "type": "bytes32"
        }
      ],
      "stateMutability": "view",
      "type": "function"
    },
    {
      "inputs": [
        {
          "internalType": "address",
          "name": "to",
          "type": "address"
        },
        {
          "internalType": "uint256",
          "name": "tokenId",
          "type": "uint256"
        }
      ],
      "name": "approve",
      "outputs": [],
      "stateMutability": "nonpayable",
      "type": "function"
    },
    {
      "inputs": [
        {
          "internalType": "address",
          "name": "owner",
          "type": "address"
        }
      ],
      "name": "balanceOf",
      "outputs": [
        {
          "internalType": "uint256",
          "name": "",
          "type": "uint256"
        }
      ],
      "stateMutability": "view",
      "type": "function"
    },
    {
      "inputs": [
        {
          "internalType": "uint256",
          "name": "tokenId",
          "type": "uint256"
        }
      ],
      "name": "getApproved",
      "outputs": [
        {
          "internalType": "address",
          "name": "",
          "type": "address"
        }
      ],
      "stateMutability": "view",
      "type": "function"
    },
    {
      "inputs": [
        {
          "internalType": "bytes32",
          "name": "role",
          "type": "bytes32"
        }
      ],
      "name": "getRoleAdmin",
      "outputs": [
        {
          "internalType": "bytes32",
          "name": "",
          "type": "bytes32"
        }
      ],
      "stateMutability": "view",
      "type": "function"
    },
    {
      "inputs": [
        {
          "internalType": "bytes32",
          "name": "role",
          "type": "bytes32"
        },
        {
          "internalType": "address",
          "name": "account",
          "type": "address"
        }
      ],
      "name": "grantRole",
      "outputs": [],
      "stateMutability": "nonpayable",
      "type": "function"
    },
    {
      "inputs": [
        {
          "internalType": "bytes32",
          "name": "role",
          "type": "bytes32"
        },
        {
          "internalType": "address",
          "name": "account",
          "type": "address"
        }
      ],
      "name": "hasRole",
      "outputs": [
        {
          "internalType": "bool",
          "name": "",
          "type": "bool"
        }
      ],
      "stateMutability": "view",
      "type": "function"
    },
    {
      "inputs": [
        {
          "internalType": "address",
          "name": "owner",
          "type": "address"
        },
        {
          "internalType": "address",
          "name": "operator",
          "type": "address"
        }
      ],
      "name": "isApprovedForAll",
      "outputs": [
        {
          "internalType": "bool",
          "name": "",
          "type": "bool"
        }
      ],
      "stateMutability": "view",
      "type": "function"
    },
    {
      "inputs": [],
      "name": "name",
      "outputs": [
        {
          "internalType": "string",
          "name": "",
          "type": "string"
        }
      ],
      "stateMutability": "view",
      "type": "function"
    },
    {
      "inputs": [],
      "name": "owner",
      "outputs": [
        {
          "internalType": "address",
          "name": "",
          "type": "address"
        }
      ],
      "stateMutability": "view",
      "type": "function"
    },
    {
      "inputs": [
        {
          "internalType": "uint256",
          "name": "tokenId",
          "type": "uint256"
        }
      ],
      "name": "ownerOf",
      "outputs": [
        {
          "internalType": "address",
          "name": "",
          "type": "address"
        }
      ],
      "stateMutability": "view",
      "type": "function"
    },
    {
      "inputs": [],
      "name": "paused",
      "outputs": [
        {
          "internalType": "bool",
          "name": "",
          "type": "bool"
        }
      ],
      "stateMutability": "view",
      "type": "function"
    },
    {
      "inputs": [],
      "name": "renounceOwnership",
      "outputs": [],
      "stateMutability": "nonpayable",
      "type": "function"
    },
    {
      "inputs": [
        {
          "internalType": "bytes32",
          "name": "role",
          "type": "bytes32"
        },
        {
          "internalType": "address",
          "name": "account",
          "type": "address"
        }
      ],
      "name": "renounceRole",
      "outputs": [],
      "stateMutability": "nonpayable",
      "type": "function"
    },
    {
      "inputs": [
        {
          "internalType": "bytes32",
          "name": "role",
          "type": "bytes32"
        },
        {
          "internalType": "address",
          "name": "account",
          "type": "address"
        }
      ],
      "name": "revokeRole",
      "outputs": [],
      "stateMutability": "nonpayable",
      "type": "function"
    },
    {
      "inputs": [
        {
          "internalType": "address",
          "name": "from",
          "type": "address"
        },
        {
          "internalType": "address",
          "name": "to",
          "type": "address"
        },
        {
          "internalType": "uint256",
          "name": "tokenId",
          "type": "uint256"
        }
      ],
      "name": "safeTransferFrom",
      "outputs": [],
      "stateMutability": "nonpayable",
      "type": "function"
    },
    {
      "inputs": [
        {
          "internalType": "address",
          "name": "from",
          "type": "address"
        },
        {
          "internalType": "address",
          "name": "to",
          "type": "address"
        },
        {
          "internalType": "uint256",
          "name": "tokenId",
          "type": "uint256"
        },
        {
          "internalType": "bytes",
          "name": "_data",
          "type": "bytes"
        }
      ],
      "name": "safeTransferFrom",
      "outputs": [],
      "stateMutability": "nonpayable",
      "type": "function"
    },
    {
      "inputs": [
        {
          "internalType": "address",
          "name": "operator",
          "type": "address"
        },
        {
          "internalType": "bool",
          "name": "approved",
          "type": "bool"
        }
      ],
      "name": "setApprovalForAll",
      "outputs": [],
      "stateMutability": "nonpayable",
      "type": "function"
    },
    {
      "inputs": [],
      "name": "symbol",
      "outputs": [
        {
          "internalType": "string",
          "name": "",
          "type": "string"
        }
      ],
      "stateMutability": "view",
      "type": "function"
    },
    {
      "inputs": [
        {
          "internalType": "uint256",
          "name": "tokenId",
          "type": "uint256"
        }
      ],
      "name": "tokenURI",
      "outputs": [
        {
          "internalType": "string",
          "name": "",
          "type": "string"
        }
      ],
      "stateMutability": "view",
      "type": "function"
    },
    {
      "inputs": [
        {
          "internalType": "address",
          "name": "from",
          "type": "address"
        },
        {
          "internalType": "address",
          "name": "to",
          "type": "address"
        },
        {
          "internalType": "uint256",
          "name": "tokenId",
          "type": "uint256"
        }
      ],
      "name": "transferFrom",
      "outputs": [],
      "stateMutability": "nonpayable",
      "type": "function"
    },
    {
      "inputs": [
        {
          "internalType": "address",
          "name": "newOwner",
          "type": "address"
        }
      ],
      "name": "transferOwnership",
      "outputs": [],
      "stateMutability": "nonpayable",
      "type": "function"
    },
    {
      "inputs": [],
      "name": "pause",
      "outputs": [],
      "stateMutability": "nonpayable",
      "type": "function"
    },
    {
      "inputs": [],
      "name": "unpause",
      "outputs": [],
      "stateMutability": "nonpayable",
      "type": "function"
    },
    {
      "inputs": [
        {
          "internalType": "address",
          "name": "to",
          "type": "address"
        },
        {
          "internalType": "string",
          "name": "metadataURI",
          "type": "string"
        }
      ],
      "name": "mintWithTokenURI",
      "outputs": [
        {
          "internalType": "bool",
          "name": "",
          "type": "bool"
        }
      ],
      "stateMutability": "nonpayable",
      "type": "function"
    },
    {
      "inputs": [
        {
          "internalType": "address",
          "name": "minter",
          "type": "address"
        }
      ],
      "name": "addMinter",
      "outputs": [],
      "stateMutability": "nonpayable",
      "type": "function"
    },
    {
      "inputs": [
        {
          "internalType": "address",
          "name": "burner",
          "type": "address"
        }
      ],
      "name": "addBurner",
      "outputs": [],
      "stateMutability": "nonpayable",
      "type": "function"
    },
    {
      "inputs": [
        {
          "internalType": "address",
          "name": "pauser",
          "type": "address"
        }
      ],
      "name": "addPauser",
      "outputs": [],
      "stateMutability": "nonpayable",
      "type": "function"
    },
    {
      "inputs": [],
      "name": "renounceMinter",
      "outputs": [],
      "stateMutability": "nonpayable",
      "type": "function"
    },
    {
      "inputs": [],
      "name": "renounceBurner",
      "outputs": [],
      "stateMutability": "nonpayable",
      "type": "function"
    },
    {
      "inputs": [],
      "name": "renouncePauser",
      "outputs": [],
      "stateMutability": "nonpayable",
      "type": "function"
    },
    {
      "inputs": [
        {
          "internalType": "uint256",
          "name": "_tokenId",
          "type": "uint256"
        }
      ],
      "name": "burn",
      "outputs": [],
      "stateMutability": "nonpayable",
      "type": "function"
    },
    {
      "inputs": [],
      "name": "contractURI",
      "outputs": [
        {
          "internalType": "string",
          "name": "",
          "type": "string"
        }
      ],
      "stateMutability": "view",
      "type": "function"
    },
    {
      "inputs": [
        {
          "internalType": "string",
          "name": "metadataURI",
          "type": "string"
        }
      ],
      "name": "setContractURI",
      "outputs": [],
      "stateMutability": "nonpayable",
      "type": "function"
    },
    {
      "inputs": [
        {
          "internalType": "bytes4",
          "name": "interfaceId",
          "type": "bytes4"
        }
      ],
      "name": "supportsInterface",
      "outputs": [
        {
          "internalType": "bool",
          "name": "",
          "type": "bool"
        }
      ],
      "stateMutability": "view",
      "type": "function"
    }
  ],
  "bytecode": "0x60806040523480156200001157600080fd5b5060405162004c5e38038062004c5e8339818101604052810190620000379190620004a8565b818181600090805190602001906200005192919062000386565b5080600190805190602001906200006a92919062000386565b5050506000600860006101000a81548160ff021916908315150217905550620000a86200009c6200015b60201b60201c565b6200016360201b60201c565b620000bd6000801b336200022960201b60201c565b620000ef7f9f2df0fed2c77648de5860a4cc508cd0818c85b8b8a1ab4ceeef8d981c8956a6336200022960201b60201c565b620001217f3c11d16cbaffd01df69ce1c404f6340ee057498f5f00246190ea54220576a848336200022960201b60201c565b620001537f65d7a28e3265b37a6474929f336521b332c1681b933f6cb9f3376673440d862a336200022960201b60201c565b50506200068b565b600033905090565b6000600860019054906101000a900473ffffffffffffffffffffffffffffffffffffffff16905081600860016101000a81548173ffffffffffffffffffffffffffffffffffffffff021916908373ffffffffffffffffffffffffffffffffffffffff1602179055508173ffffffffffffffffffffffffffffffffffffffff168173ffffffffffffffffffffffffffffffffffffffff167f8be0079c531659141344cd1fd0a4f28419497f9722a3daafe3b4186f6b6457e060405160405180910390a35050565b6200023b82826200031b60201b60201c565b620003175760016007600084815260200190815260200160002060000160008373ffffffffffffffffffffffffffffffffffffffff1673ffffffffffffffffffffffffffffffffffffffff16815260200190815260200160002060006101000a81548160ff021916908315150217905550620002bc6200015b60201b60201c565b73ffffffffffffffffffffffffffffffffffffffff168173ffffffffffffffffffffffffffffffffffffffff16837f2f8788117e7eff1d82e926ec794901d17c78024a50270940304540a733656f0d60405160405180910390a45b5050565b60006007600084815260200190815260200160002060000160008373ffffffffffffffffffffffffffffffffffffffff1673ffffffffffffffffffffffffffffffffffffffff16815260200190815260200160002060009054906101000a900460ff16905092915050565b8280546200039490620005b0565b90600052602060002090601f016020900481019282620003b8576000855562000404565b82601f10620003d357805160ff191683800117855562000404565b8280016001018555821562000404579182015b8281111562000403578251825591602001919060010190620003e6565b5b50905062000413919062000417565b5090565b5b808211156200043257600081600090555060010162000418565b5090565b60006200044d620004478462000544565b6200051b565b9050828152602081018484840111156200046657600080fd5b620004738482856200057a565b509392505050565b600082601f8301126200048d57600080fd5b81516200049f84826020860162000436565b91505092915050565b60008060408385031215620004bc57600080fd5b600083015167ffffffffffffffff811115620004d757600080fd5b620004e5858286016200047b565b925050602083015167ffffffffffffffff8111156200050357600080fd5b62000511858286016200047b565b9150509250929050565b6000620005276200053a565b9050620005358282620005e6565b919050565b6000604051905090565b600067ffffffffffffffff8211156200056257620005616200064b565b5b6200056d826200067a565b9050602081019050919050565b60005b838110156200059a5780820151818401526020810190506200057d565b83811115620005aa576000848401525b50505050565b60006002820490506001821680620005c957607f821691505b60208210811415620005e057620005df6200061c565b5b50919050565b620005f1826200067a565b810181811067ffffffffffffffff821117156200061357620006126200064b565b5b80604052505050565b7f4e487b7100000000000000000000000000000000000000000000000000000000600052602260045260246000fd5b7f4e487b7100000000000000000000000000000000000000000000000000000000600052604160045260246000fd5b6000601f19601f8301169050919050565b6145c3806200069b6000396000f3fe608060405234801561001057600080fd5b50600436106102325760003560e01c80638456cb5911610130578063b88d4fde116100b8578063e8a3d4851161007c578063e8a3d48514610629578063e985e9c514610647578063e9ec9e8b14610677578063f2fde38b14610681578063f44637ba1461069d57610232565b8063b88d4fde14610585578063c87b56dd146105a1578063d5391393146105d1578063d547741f146105ef578063e63ab1e91461060b57610232565b806395d89b41116100ff57806395d89b4114610507578063983b2d56146105255780639865027514610541578063a217fddf1461054b578063a22cb4651461056957610232565b80638456cb59146104935780638da5cb5b1461049d57806391d14854146104bb578063938e3d7b146104eb57610232565b80633f4ba83a116101be5780636352211e116101825780636352211e146104035780636ef8d66d1461043357806370a082311461043d578063715018a61461046d57806382dc1ec41461047757610232565b80633f4ba83a1461037357806342842e0e1461037d57806342966c681461039957806345c17782146103b55780635c975abb146103e557610232565b806323b872dd1161020557806323b872dd146102d1578063248a9ca3146102ed578063282c51f31461031d5780632f2ff15d1461033b57806336568abe1461035757610232565b806301ffc9a71461023757806306fdde0314610267578063081812fc14610285578063095ea7b3146102b5575b600080fd5b610251600480360381019061024c91906131ba565b6106b9565b60405161025e9190613762565b60405180910390f35b61026f6106cb565b60405161027c9190613798565b60405180910390f35b61029f600480360381019061029a919061324d565b61075d565b6040516102ac91906136fb565b60405180910390f35b6102cf60048036038101906102ca9190613119565b6107e2565b005b6102eb60048036038101906102e69190612fbf565b6108fa565b005b61030760048036038101906103029190613155565b61095a565b604051610314919061377d565b60405180910390f35b61032561097a565b604051610332919061377d565b60405180910390f35b6103556004803603810190610350919061317e565b61099e565b005b610371600480360381019061036c919061317e565b6109bf565b005b61037b610a42565b005b61039760048036038101906103929190612fbf565b610a77565b005b6103b360048036038101906103ae919061324d565b610a97565b005b6103cf60048036038101906103ca91906130c5565b610ace565b6040516103dc9190613762565b60405180910390f35b6103ed610b32565b6040516103fa9190613762565b60405180910390f35b61041d6004803603810190610418919061324d565b610b49565b60405161042a91906136fb565b60405180910390f35b61043b610bfb565b005b61045760048036038101906104529190612f5a565b610c52565b6040516104649190613a7a565b60405180910390f35b610475610d0a565b005b610491600480360381019061048c9190612f5a565b610d92565b005b61049b610dcd565b005b6104a5610e02565b6040516104b291906136fb565b60405180910390f35b6104d560048036038101906104d0919061317e565b610e2c565b6040516104e29190613762565b60405180910390f35b6105056004803603810190610500919061320c565b610e97565b005b61050f610ebf565b60405161051c9190613798565b60405180910390f35b61053f600480360381019061053a9190612f5a565b610f51565b005b610549610f8c565b005b610553610fe3565b604051610560919061377d565b60405180910390f35b610583600480360381019061057e9190613089565b610fea565b005b61059f600480360381019061059a919061300e565b611000565b005b6105bb60048036038101906105b6919061324d565b611062565b6040516105c89190613798565b60405180910390f35b6105d96111b4565b6040516105e6919061377d565b60405180910390f35b6106096004803603810190610604919061317e565b6111d8565b005b6106136111f9565b604051610620919061377d565b60405180910390f35b61063161121d565b60405161063e9190613798565b60405180910390f35b610661600480360381019061065c9190612f83565b6112af565b60405161066e9190613762565b60405180910390f35b61067f611343565b005b61069b60048036038101906106969190612f5a565b61139a565b005b6106b760048036038101906106b29190612f5a565b611492565b005b60006106c4826114cd565b9050919050565b6060600080546106da90613d5e565b80601f016020809104026020016040519081016040528092919081815260200182805461070690613d5e565b80156107535780601f1061072857610100808354040283529160200191610753565b820191906000526020600020905b81548152906001019060200180831161073657829003601f168201915b5050505050905090565b600061076882611547565b6107a7576040517f08c379a000000000000000000000000000000000000000000000000000000000815260040161079e906139ba565b60405180910390fd5b6004600083815260200190815260200160002060009054906101000a900473ffffffffffffffffffffffffffffffffffffffff169050919050565b60006107ed82610b49565b90508073ffffffffffffffffffffffffffffffffffffffff168373ffffffffffffffffffffffffffffffffffffffff16141561085e576040517f08c379a000000000000000000000000000000000000000000000000000000000815260040161085590613a1a565b60405180910390fd5b8073ffffffffffffffffffffffffffffffffffffffff1661087d6115b3565b73ffffffffffffffffffffffffffffffffffffffff1614806108ac57506108ab816108a66115b3565b6112af565b5b6108eb576040517f08c379a00000000000000000000000000000000000000000000000000000000081526004016108e2906138fa565b60405180910390fd5b6108f583836115bb565b505050565b61090b6109056115b3565b82611674565b61094a576040517f08c379a000000000000000000000000000000000000000000000000000000000815260040161094190613a3a565b60405180910390fd5b610955838383611752565b505050565b600060076000838152602001908152602001600020600101549050919050565b7f3c11d16cbaffd01df69ce1c404f6340ee057498f5f00246190ea54220576a84881565b6109a78261095a565b6109b0816119b9565b6109ba83836119cd565b505050565b6109c76115b3565b73ffffffffffffffffffffffffffffffffffffffff168173ffffffffffffffffffffffffffffffffffffffff1614610a34576040517f08c379a0000000000000000000000000000000000000000000000000000000008152600401610a2b90613a5a565b60405180910390fd5b610a3e8282611aae565b5050565b7f65d7a28e3265b37a6474929f336521b332c1681b933f6cb9f3376673440d862a610a6c816119b9565b610a74611b90565b50565b610a9283838360405180602001604052806000815250611000565b505050565b7f3c11d16cbaffd01df69ce1c404f6340ee057498f5f00246190ea54220576a848610ac1816119b9565b610aca82611c32565b5050565b60007f9f2df0fed2c77648de5860a4cc508cd0818c85b8b8a1ab4ceeef8d981c8956a6610afa816119b9565b6000610b066009611c85565b9050610b126009611c93565b610b1c8582611ca9565b610b268185611cc7565b60019250505092915050565b6000600860009054906101000a900460ff16905090565b6000806002600084815260200190815260200160002060009054906101000a900473ffffffffffffffffffffffffffffffffffffffff169050600073ffffffffffffffffffffffffffffffffffffffff168173ffffffffffffffffffffffffffffffffffffffff161415610bf2576040517f08c379a0000000000000000000000000000000000000000000000000000000008152600401610be99061393a565b60405180910390fd5b80915050919050565b7f65d7a28e3265b37a6474929f336521b332c1681b933f6cb9f3376673440d862a610c25816119b9565b610c4f7f65d7a28e3265b37a6474929f336521b332c1681b933f6cb9f3376673440d862a33611aae565b50565b60008073ffffffffffffffffffffffffffffffffffffffff168273ffffffffffffffffffffffffffffffffffffffff161415610cc3576040517f08c379a0000000000000000000000000000000000000000000000000000000008152600401610cba9061391a565b60405180910390fd5b600360008373ffffffffffffffffffffffffffffffffffffffff1673ffffffffffffffffffffffffffffffffffffffff168152602001908152602001600020549050919050565b610d126115b3565b73ffffffffffffffffffffffffffffffffffffffff16610d30610e02565b73ffffffffffffffffffffffffffffffffffffffff1614610d86576040517f08c379a0000000000000000000000000000000000000000000000000000000008152600401610d7d906139da565b60405180910390fd5b610d906000611d3b565b565b6000801b610d9f816119b9565b610dc97f3c11d16cbaffd01df69ce1c404f6340ee057498f5f00246190ea54220576a848836119cd565b5050565b7f65d7a28e3265b37a6474929f336521b332c1681b933f6cb9f3376673440d862a610df7816119b9565b610dff611e01565b50565b6000600860019054906101000a900473ffffffffffffffffffffffffffffffffffffffff16905090565b60006007600084815260200190815260200160002060000160008373ffffffffffffffffffffffffffffffffffffffff1673ffffffffffffffffffffffffffffffffffffffff16815260200190815260200160002060009054906101000a900460ff16905092915050565b6000801b610ea4816119b9565b81600a9080519060200190610eba929190612d29565b505050565b606060018054610ece90613d5e565b80601f0160208091040260200160405190810160405280929190818152602001828054610efa90613d5e565b8015610f475780601f10610f1c57610100808354040283529160200191610f47565b820191906000526020600020905b815481529060010190602001808311610f2a57829003601f168201915b5050505050905090565b6000801b610f5e816119b9565b610f887f9f2df0fed2c77648de5860a4cc508cd0818c85b8b8a1ab4ceeef8d981c8956a6836119cd565b5050565b7f9f2df0fed2c77648de5860a4cc508cd0818c85b8b8a1ab4ceeef8d981c8956a6610fb6816119b9565b610fe07f9f2df0fed2c77648de5860a4cc508cd0818c85b8b8a1ab4ceeef8d981c8956a633611aae565b50565b6000801b81565b610ffc610ff56115b3565b8383611ea4565b5050565b61101161100b6115b3565b83611674565b611050576040517f08c379a000000000000000000000000000000000000000000000000000000000815260040161104790613a3a565b60405180910390fd5b61105c84848484612011565b50505050565b606061106d82611547565b6110ac576040517f08c379a00000000000000000000000000000000000000000000000000000000081526004016110a39061399a565b60405180910390fd5b60006006600084815260200190815260200160002080546110cc90613d5e565b80601f01602080910402602001604051908101604052809291908181526020018280546110f890613d5e565b80156111455780601f1061111a57610100808354040283529160200191611145565b820191906000526020600020905b81548152906001019060200180831161112857829003601f168201915b50505050509050600061115661206d565b905060008151141561116c5781925050506111af565b6000825111156111a157808260405160200161118992919061369d565b604051602081830303815290604052925050506111af565b6111aa84612084565b925050505b919050565b7f9f2df0fed2c77648de5860a4cc508cd0818c85b8b8a1ab4ceeef8d981c8956a681565b6111e18261095a565b6111ea816119b9565b6111f48383611aae565b505050565b7f65d7a28e3265b37a6474929f336521b332c1681b933f6cb9f3376673440d862a81565b6060600a805461122c90613d5e565b80601f016020809104026020016040519081016040528092919081815260200182805461125890613d5e565b80156112a55780601f1061127a576101008083540402835291602001916112a5565b820191906000526020600020905b81548152906001019060200180831161128857829003601f168201915b5050505050905090565b6000600560008473ffffffffffffffffffffffffffffffffffffffff1673ffffffffffffffffffffffffffffffffffffffff16815260200190815260200160002060008373ffffffffffffffffffffffffffffffffffffffff1673ffffffffffffffffffffffffffffffffffffffff16815260200190815260200160002060009054906101000a900460ff16905092915050565b7f3c11d16cbaffd01df69ce1c404f6340ee057498f5f00246190ea54220576a84861136d816119b9565b6113977f3c11d16cbaffd01df69ce1c404f6340ee057498f5f00246190ea54220576a84833611aae565b50565b6113a26115b3565b73ffffffffffffffffffffffffffffffffffffffff166113c0610e02565b73ffffffffffffffffffffffffffffffffffffffff1614611416576040517f08c379a000000000000000000000000000000000000000000000000000000000815260040161140d906139da565b60405180910390fd5b600073ffffffffffffffffffffffffffffffffffffffff168173ffffffffffffffffffffffffffffffffffffffff161415611486576040517f08c379a000000000000000000000000000000000000000000000000000000000815260040161147d9061381a565b60405180910390fd5b61148f81611d3b565b50565b6000801b61149f816119b9565b6114c97f3c11d16cbaffd01df69ce1c404f6340ee057498f5f00246190ea54220576a848836119cd565b5050565b60007f7965db0b000000000000000000000000000000000000000000000000000000007bffffffffffffffffffffffffffffffffffffffffffffffffffffffff1916827bffffffffffffffffffffffffffffffffffffffffffffffffffffffff19161480611540575061153f8261212b565b5b9050919050565b60008073ffffffffffffffffffffffffffffffffffffffff166002600084815260200190815260200160002060009054906101000a900473ffffffffffffffffffffffffffffffffffffffff1673ffffffffffffffffffffffffffffffffffffffff1614159050919050565b600033905090565b816004600083815260200190815260200160002060006101000a81548173ffffffffffffffffffffffffffffffffffffffff021916908373ffffffffffffffffffffffffffffffffffffffff160217905550808273ffffffffffffffffffffffffffffffffffffffff1661162e83610b49565b73ffffffffffffffffffffffffffffffffffffffff167f8c5be1e5ebec7d5bd14f71427d1e84f3dd0314c0f7b2291e5b200ac8c7c3b92560405160405180910390a45050565b600061167f82611547565b6116be576040517f08c379a00000000000000000000000000000000000000000000000000000000081526004016116b5906138ba565b60405180910390fd5b60006116c983610b49565b90508073ffffffffffffffffffffffffffffffffffffffff168473ffffffffffffffffffffffffffffffffffffffff16148061170b575061170a81856112af565b5b8061174957508373ffffffffffffffffffffffffffffffffffffffff166117318461075d565b73ffffffffffffffffffffffffffffffffffffffff16145b91505092915050565b8273ffffffffffffffffffffffffffffffffffffffff1661177282610b49565b73ffffffffffffffffffffffffffffffffffffffff16146117c8576040517f08c379a00000000000000000000000000000000000000000000000000000000081526004016117bf9061383a565b60405180910390fd5b600073ffffffffffffffffffffffffffffffffffffffff168273ffffffffffffffffffffffffffffffffffffffff161415611838576040517f08c379a000000000000000000000000000000000000000000000000000000000815260040161182f9061387a565b60405180910390fd5b61184383838361220d565b61184e6000826115bb565b6001600360008573ffffffffffffffffffffffffffffffffffffffff1673ffffffffffffffffffffffffffffffffffffffff168152602001908152602001600020600082825461189e9190613c40565b925050819055506001600360008473ffffffffffffffffffffffffffffffffffffffff1673ffffffffffffffffffffffffffffffffffffffff16815260200190815260200160002060008282546118f59190613b5f565b92505081905550816002600083815260200190815260200160002060006101000a81548173ffffffffffffffffffffffffffffffffffffffff021916908373ffffffffffffffffffffffffffffffffffffffff160217905550808273ffffffffffffffffffffffffffffffffffffffff168473ffffffffffffffffffffffffffffffffffffffff167fddf252ad1be2c89b69c2b068fc378daa952ba7f163c4a11628f55a4df523b3ef60405160405180910390a46119b4838383612265565b505050565b6119ca816119c56115b3565b61226a565b50565b6119d78282610e2c565b611aaa5760016007600084815260200190815260200160002060000160008373ffffffffffffffffffffffffffffffffffffffff1673ffffffffffffffffffffffffffffffffffffffff16815260200190815260200160002060006101000a81548160ff021916908315150217905550611a4f6115b3565b73ffffffffffffffffffffffffffffffffffffffff168173ffffffffffffffffffffffffffffffffffffffff16837f2f8788117e7eff1d82e926ec794901d17c78024a50270940304540a733656f0d60405160405180910390a45b5050565b611ab88282610e2c565b15611b8c5760006007600084815260200190815260200160002060000160008373ffffffffffffffffffffffffffffffffffffffff1673ffffffffffffffffffffffffffffffffffffffff16815260200190815260200160002060006101000a81548160ff021916908315150217905550611b316115b3565b73ffffffffffffffffffffffffffffffffffffffff168173ffffffffffffffffffffffffffffffffffffffff16837ff6391f5c32d9c69d2a47ea670b442974b53935d1edc7fd64eb21e047a839171b60405160405180910390a45b5050565b611b98610b32565b611bd7576040517f08c379a0000000000000000000000000000000000000000000000000000000008152600401611bce906137da565b60405180910390fd5b6000600860006101000a81548160ff0219169083151502179055507f5db9ee0a495bf2e6ff9c91a7834c1ba4fdd244a5e8aa4e537bd38aeae4b073aa611c1b6115b3565b604051611c2891906136fb565b60405180910390a1565b611c3b81612307565b6000600660008381526020019081526020016000208054611c5b90613d5e565b905014611c8257600660008281526020019081526020016000206000611c819190612daf565b5b50565b600081600001549050919050565b6001816000016000828254019250508190555050565b611cc3828260405180602001604052806000815250612424565b5050565b611cd082611547565b611d0f576040517f08c379a0000000000000000000000000000000000000000000000000000000008152600401611d069061395a565b60405180910390fd5b80600660008481526020019081526020016000209080519060200190611d36929190612d29565b505050565b6000600860019054906101000a900473ffffffffffffffffffffffffffffffffffffffff16905081600860016101000a81548173ffffffffffffffffffffffffffffffffffffffff021916908373ffffffffffffffffffffffffffffffffffffffff1602179055508173ffffffffffffffffffffffffffffffffffffffff168173ffffffffffffffffffffffffffffffffffffffff167f8be0079c531659141344cd1fd0a4f28419497f9722a3daafe3b4186f6b6457e060405160405180910390a35050565b611e09610b32565b15611e49576040517f08c379a0000000000000000000000000000000000000000000000000000000008152600401611e40906138da565b60405180910390fd5b6001600860006101000a81548160ff0219169083151502179055507f62e78cea01bee320cd4e420270b5ea74000d11b0c9f74754ebdbfc544b05a258611e8d6115b3565b604051611e9a91906136fb565b60405180910390a1565b8173ffffffffffffffffffffffffffffffffffffffff168373ffffffffffffffffffffffffffffffffffffffff161415611f13576040517f08c379a0000000000000000000000000000000000000000000000000000000008152600401611f0a9061389a565b60405180910390fd5b80600560008573ffffffffffffffffffffffffffffffffffffffff1673ffffffffffffffffffffffffffffffffffffffff16815260200190815260200160002060008473ffffffffffffffffffffffffffffffffffffffff1673ffffffffffffffffffffffffffffffffffffffff16815260200190815260200160002060006101000a81548160ff0219169083151502179055508173ffffffffffffffffffffffffffffffffffffffff168373ffffffffffffffffffffffffffffffffffffffff167f17307eab39ab6107e8899845ad3d59bd9653f200f220920489ca2b5937696c31836040516120049190613762565b60405180910390a3505050565b61201c848484611752565b6120288484848461247f565b612067576040517f08c379a000000000000000000000000000000000000000000000000000000000815260040161205e906137fa565b60405180910390fd5b50505050565b606060405180602001604052806000815250905090565b606061208f82611547565b6120ce576040517f08c379a00000000000000000000000000000000000000000000000000000000081526004016120c5906139fa565b60405180910390fd5b60006120d861206d565b905060008151116120f85760405180602001604052806000815250612123565b8061210284612616565b60405160200161211392919061369d565b6040516020818303038152906040525b915050919050565b60007f80ac58cd000000000000000000000000000000000000000000000000000000007bffffffffffffffffffffffffffffffffffffffffffffffffffffffff1916827bffffffffffffffffffffffffffffffffffffffffffffffffffffffff191614806121f657507f5b5e139f000000000000000000000000000000000000000000000000000000007bffffffffffffffffffffffffffffffffffffffffffffffffffffffff1916827bffffffffffffffffffffffffffffffffffffffffffffffffffffffff1916145b806122065750612205826127c3565b5b9050919050565b612215610b32565b15612255576040517f08c379a000000000000000000000000000000000000000000000000000000000815260040161224c906138da565b60405180910390fd5b61226083838361282d565b505050565b505050565b6122748282610e2c565b612303576122998173ffffffffffffffffffffffffffffffffffffffff166014612832565b6122a78360001c6020612832565b6040516020016122b89291906136c1565b6040516020818303038152906040526040517f08c379a00000000000000000000000000000000000000000000000000000000081526004016122fa9190613798565b60405180910390fd5b5050565b600061231282610b49565b90506123208160008461220d565b61232b6000836115bb565b6001600360008373ffffffffffffffffffffffffffffffffffffffff1673ffffffffffffffffffffffffffffffffffffffff168152602001908152602001600020600082825461237b9190613c40565b925050819055506002600083815260200190815260200160002060006101000a81549073ffffffffffffffffffffffffffffffffffffffff021916905581600073ffffffffffffffffffffffffffffffffffffffff168273ffffffffffffffffffffffffffffffffffffffff167fddf252ad1be2c89b69c2b068fc378daa952ba7f163c4a11628f55a4df523b3ef60405160405180910390a461242081600084612265565b5050565b61242e8383612b2c565b61243b600084848461247f565b61247a576040517f08c379a0000000000000000000000000000000000000000000000000000000008152600401612471906137fa565b60405180910390fd5b505050565b60006124a08473ffffffffffffffffffffffffffffffffffffffff16612d06565b15612609578373ffffffffffffffffffffffffffffffffffffffff1663150b7a026124c96115b3565b8786866040518563ffffffff1660e01b81526004016124eb9493929190613716565b602060405180830381600087803b15801561250557600080fd5b505af192505050801561253657506040513d601f19601f8201168201806040525081019061253391906131e3565b60015b6125b9573d8060008114612566576040519150601f19603f3d011682016040523d82523d6000602084013e61256b565b606091505b506000815114156125b1576040517f08c379a00000000000000000000000000000000000000000000000000000000081526004016125a8906137fa565b60405180910390fd5b805181602001fd5b63150b7a0260e01b7bffffffffffffffffffffffffffffffffffffffffffffffffffffffff1916817bffffffffffffffffffffffffffffffffffffffffffffffffffffffff19161491505061260e565b600190505b949350505050565b6060600082141561265e576040518060400160405280600181526020017f300000000000000000000000000000000000000000000000000000000000000081525090506127be565b600082905060005b6000821461269057808061267990613dc1565b915050600a826126899190613bb5565b9150612666565b60008167ffffffffffffffff8111156126d2577f4e487b7100000000000000000000000000000000000000000000000000000000600052604160045260246000fd5b6040519080825280601f01601f1916602001820160405280156127045781602001600182028036833780820191505090505b5090505b600085146127b75760018261271d9190613c40565b9150600a8561272c9190613e0a565b60306127389190613b5f565b60f81b818381518110612774577f4e487b7100000000000000000000000000000000000000000000000000000000600052603260045260246000fd5b60200101907effffffffffffffffffffffffffffffffffffffffffffffffffffffffffffff1916908160001a905350600a856127b09190613bb5565b9450612708565b8093505050505b919050565b60007f01ffc9a7000000000000000000000000000000000000000000000000000000007bffffffffffffffffffffffffffffffffffffffffffffffffffffffff1916827bffffffffffffffffffffffffffffffffffffffffffffffffffffffff1916149050919050565b505050565b6060600060028360026128459190613be6565b61284f9190613b5f565b67ffffffffffffffff81111561288e577f4e487b7100000000000000000000000000000000000000000000000000000000600052604160045260246000fd5b6040519080825280601f01601f1916602001820160405280156128c05781602001600182028036833780820191505090505b5090507f30000000000000000000000000000000000000000000000000000000000000008160008151811061291e577f4e487b7100000000000000000000000000000000000000000000000000000000600052603260045260246000fd5b60200101907effffffffffffffffffffffffffffffffffffffffffffffffffffffffffffff1916908160001a9053507f7800000000000000000000000000000000000000000000000000000000000000816001815181106129a8577f4e487b7100000000000000000000000000000000000000000000000000000000600052603260045260246000fd5b60200101907effffffffffffffffffffffffffffffffffffffffffffffffffffffffffffff1916908160001a905350600060018460026129e89190613be6565b6129f29190613b5f565b90505b6001811115612ade577f3031323334353637383961626364656600000000000000000000000000000000600f861660108110612a5a577f4e487b7100000000000000000000000000000000000000000000000000000000600052603260045260246000fd5b1a60f81b828281518110612a97577f4e487b7100000000000000000000000000000000000000000000000000000000600052603260045260246000fd5b60200101907effffffffffffffffffffffffffffffffffffffffffffffffffffffffffffff1916908160001a905350600485901c945080612ad790613d34565b90506129f5565b5060008414612b22576040517f08c379a0000000000000000000000000000000000000000000000000000000008152600401612b19906137ba565b60405180910390fd5b8091505092915050565b600073ffffffffffffffffffffffffffffffffffffffff168273ffffffffffffffffffffffffffffffffffffffff161415612b9c576040517f08c379a0000000000000000000000000000000000000000000000000000000008152600401612b939061397a565b60405180910390fd5b612ba581611547565b15612be5576040517f08c379a0000000000000000000000000000000000000000000000000000000008152600401612bdc9061385a565b60405180910390fd5b612bf16000838361220d565b6001600360008473ffffffffffffffffffffffffffffffffffffffff1673ffffffffffffffffffffffffffffffffffffffff1681526020019081526020016000206000828254612c419190613b5f565b92505081905550816002600083815260200190815260200160002060006101000a81548173ffffffffffffffffffffffffffffffffffffffff021916908373ffffffffffffffffffffffffffffffffffffffff160217905550808273ffffffffffffffffffffffffffffffffffffffff16600073ffffffffffffffffffffffffffffffffffffffff167fddf252ad1be2c89b69c2b068fc378daa952ba7f163c4a11628f55a4df523b3ef60405160405180910390a4612d0260008383612265565b5050565b6000808273ffffffffffffffffffffffffffffffffffffffff163b119050919050565b828054612d3590613d5e565b90600052602060002090601f016020900481019282612d575760008555612d9e565b82601f10612d7057805160ff1916838001178555612d9e565b82800160010185558215612d9e579182015b82811115612d9d578251825591602001919060010190612d82565b5b509050612dab9190612def565b5090565b508054612dbb90613d5e565b6000825580601f10612dcd5750612dec565b601f016020900490600052602060002090810190612deb9190612def565b5b50565b5b80821115612e08576000816000905550600101612df0565b5090565b6000612e1f612e1a84613aba565b613a95565b905082815260208101848484011115612e3757600080fd5b612e42848285613cf2565b509392505050565b6000612e5d612e5884613aeb565b613a95565b905082815260208101848484011115612e7557600080fd5b612e80848285613cf2565b509392505050565b600081359050612e978161451a565b92915050565b600081359050612eac81614531565b92915050565b600081359050612ec181614548565b92915050565b600081359050612ed68161455f565b92915050565b600081519050612eeb8161455f565b92915050565b600082601f830112612f0257600080fd5b8135612f12848260208601612e0c565b91505092915050565b600082601f830112612f2c57600080fd5b8135612f3c848260208601612e4a565b91505092915050565b600081359050612f5481614576565b92915050565b600060208284031215612f6c57600080fd5b6000612f7a84828501612e88565b91505092915050565b60008060408385031215612f9657600080fd5b6000612fa485828601612e88565b9250506020612fb585828601612e88565b9150509250929050565b600080600060608486031215612fd457600080fd5b6000612fe286828701612e88565b9350506020612ff386828701612e88565b925050604061300486828701612f45565b9150509250925092565b6000806000806080858703121561302457600080fd5b600061303287828801612e88565b945050602061304387828801612e88565b935050604061305487828801612f45565b925050606085013567ffffffffffffffff81111561307157600080fd5b61307d87828801612ef1565b91505092959194509250565b6000806040838503121561309c57600080fd5b60006130aa85828601612e88565b92505060206130bb85828601612e9d565b9150509250929050565b600080604083850312156130d857600080fd5b60006130e685828601612e88565b925050602083013567ffffffffffffffff81111561310357600080fd5b61310f85828601612f1b565b9150509250929050565b6000806040838503121561312c57600080fd5b600061313a85828601612e88565b925050602061314b85828601612f45565b9150509250929050565b60006020828403121561316757600080fd5b600061317584828501612eb2565b91505092915050565b6000806040838503121561319157600080fd5b600061319f85828601612eb2565b92505060206131b085828601612e88565b9150509250929050565b6000602082840312156131cc57600080fd5b60006131da84828501612ec7565b91505092915050565b6000602082840312156131f557600080fd5b600061320384828501612edc565b91505092915050565b60006020828403121561321e57600080fd5b600082013567ffffffffffffffff81111561323857600080fd5b61324484828501612f1b565b91505092915050565b60006020828403121561325f57600080fd5b600061326d84828501612f45565b91505092915050565b61327f81613c74565b82525050565b61328e81613c86565b82525050565b61329d81613c92565b82525050565b60006132ae82613b1c565b6132b88185613b32565b93506132c8818560208601613d01565b6132d181613ef7565b840191505092915050565b60006132e782613b27565b6132f18185613b43565b9350613301818560208601613d01565b61330a81613ef7565b840191505092915050565b600061332082613b27565b61332a8185613b54565b935061333a818560208601613d01565b80840191505092915050565b6000613353602083613b43565b915061335e82613f08565b602082019050919050565b6000613376601483613b43565b915061338182613f31565b602082019050919050565b6000613399603283613b43565b91506133a482613f5a565b604082019050919050565b60006133bc602683613b43565b91506133c782613fa9565b604082019050919050565b60006133df602583613b43565b91506133ea82613ff8565b604082019050919050565b6000613402601c83613b43565b915061340d82614047565b602082019050919050565b6000613425602483613b43565b915061343082614070565b604082019050919050565b6000613448601983613b43565b9150613453826140bf565b602082019050919050565b600061346b602c83613b43565b9150613476826140e8565b604082019050919050565b600061348e601083613b43565b915061349982614137565b602082019050919050565b60006134b1603883613b43565b91506134bc82614160565b604082019050919050565b60006134d4602a83613b43565b91506134df826141af565b604082019050919050565b60006134f7602983613b43565b9150613502826141fe565b604082019050919050565b600061351a602e83613b43565b91506135258261424d565b604082019050919050565b600061353d602083613b43565b91506135488261429c565b602082019050919050565b6000613560603183613b43565b915061356b826142c5565b604082019050919050565b6000613583602c83613b43565b915061358e82614314565b604082019050919050565b60006135a6602083613b43565b91506135b182614363565b602082019050919050565b60006135c9602f83613b43565b91506135d48261438c565b604082019050919050565b60006135ec602183613b43565b91506135f7826143db565b604082019050919050565b600061360f603183613b43565b915061361a8261442a565b604082019050919050565b6000613632601783613b54565b915061363d82614479565b601782019050919050565b6000613655601183613b54565b9150613660826144a2565b601182019050919050565b6000613678602f83613b43565b9150613683826144cb565b604082019050919050565b61369781613ce8565b82525050565b60006136a98285613315565b91506136b58284613315565b91508190509392505050565b60006136cc82613625565b91506136d88285613315565b91506136e382613648565b91506136ef8284613315565b91508190509392505050565b60006020820190506137106000830184613276565b92915050565b600060808201905061372b6000830187613276565b6137386020830186613276565b613745604083018561368e565b818103606083015261375781846132a3565b905095945050505050565b60006020820190506137776000830184613285565b92915050565b60006020820190506137926000830184613294565b92915050565b600060208201905081810360008301526137b281846132dc565b905092915050565b600060208201905081810360008301526137d381613346565b9050919050565b600060208201905081810360008301526137f381613369565b9050919050565b600060208201905081810360008301526138138161338c565b9050919050565b60006020820190508181036000830152613833816133af565b9050919050565b60006020820190508181036000830152613853816133d2565b9050919050565b60006020820190508181036000830152613873816133f5565b9050919050565b6000602082019050818103600083015261389381613418565b9050919050565b600060208201905081810360008301526138b38161343b565b9050919050565b600060208201905081810360008301526138d38161345e565b9050919050565b600060208201905081810360008301526138f381613481565b9050919050565b60006020820190508181036000830152613913816134a4565b9050919050565b60006020820190508181036000830152613933816134c7565b9050919050565b60006020820190508181036000830152613953816134ea565b9050919050565b600060208201905081810360008301526139738161350d565b9050919050565b6000602082019050818103600083015261399381613530565b9050919050565b600060208201905081810360008301526139b381613553565b9050919050565b600060208201905081810360008301526139d381613576565b9050919050565b600060208201905081810360008301526139f381613599565b9050919050565b60006020820190508181036000830152613a13816135bc565b9050919050565b60006020820190508181036000830152613a33816135df565b9050919050565b60006020820190508181036000830152613a5381613602565b9050919050565b60006020820190508181036000830152613a738161366b565b9050919050565b6000602082019050613a8f600083018461368e565b92915050565b6000613a9f613ab0565b9050613aab8282613d90565b919050565b6000604051905090565b600067ffffffffffffffff821115613ad557613ad4613ec8565b5b613ade82613ef7565b9050602081019050919050565b600067ffffffffffffffff821115613b0657613b05613ec8565b5b613b0f82613ef7565b9050602081019050919050565b600081519050919050565b600081519050919050565b600082825260208201905092915050565b600082825260208201905092915050565b600081905092915050565b6000613b6a82613ce8565b9150613b7583613ce8565b9250827fffffffffffffffffffffffffffffffffffffffffffffffffffffffffffffffff03821115613baa57613ba9613e3b565b5b828201905092915050565b6000613bc082613ce8565b9150613bcb83613ce8565b925082613bdb57613bda613e6a565b5b828204905092915050565b6000613bf182613ce8565b9150613bfc83613ce8565b9250817fffffffffffffffffffffffffffffffffffffffffffffffffffffffffffffffff0483118215151615613c3557613c34613e3b565b5b828202905092915050565b6000613c4b82613ce8565b9150613c5683613ce8565b925082821015613c6957613c68613e3b565b5b828203905092915050565b6000613c7f82613cc8565b9050919050565b60008115159050919050565b6000819050919050565b60007fffffffff0000000000000000000000000000000000000000000000000000000082169050919050565b600073ffffffffffffffffffffffffffffffffffffffff82169050919050565b6000819050919050565b82818337600083830152505050565b60005b83811015613d1f578082015181840152602081019050613d04565b83811115613d2e576000848401525b50505050565b6000613d3f82613ce8565b91506000821415613d5357613d52613e3b565b5b600182039050919050565b60006002820490506001821680613d7657607f821691505b60208210811415613d8a57613d89613e99565b5b50919050565b613d9982613ef7565b810181811067ffffffffffffffff82111715613db857613db7613ec8565b5b80604052505050565b6000613dcc82613ce8565b91507fffffffffffffffffffffffffffffffffffffffffffffffffffffffffffffffff821415613dff57613dfe613e3b565b5b600182019050919050565b6000613e1582613ce8565b9150613e2083613ce8565b925082613e3057613e2f613e6a565b5b828206905092915050565b7f4e487b7100000000000000000000000000000000000000000000000000000000600052601160045260246000fd5b7f4e487b7100000000000000000000000000000000000000000000000000000000600052601260045260246000fd5b7f4e487b7100000000000000000000000000000000000000000000000000000000600052602260045260246000fd5b7f4e487b7100000000000000000000000000000000000000000000000000000000600052604160045260246000fd5b6000601f19601f8301169050919050565b7f537472696e67733a20686578206c656e67746820696e73756666696369656e74600082015250565b7f5061757361626c653a206e6f7420706175736564000000000000000000000000600082015250565b7f4552433732313a207472616e7366657220746f206e6f6e20455243373231526560008201527f63656976657220696d706c656d656e7465720000000000000000000000000000602082015250565b7f4f776e61626c653a206e6577206f776e657220697320746865207a65726f206160008201527f6464726573730000000000000000000000000000000000000000000000000000602082015250565b7f4552433732313a207472616e736665722066726f6d20696e636f72726563742060008201527f6f776e6572000000000000000000000000000000000000000000000000000000602082015250565b7f4552433732313a20746f6b656e20616c7265616479206d696e74656400000000600082015250565b7f4552433732313a207472616e7366657220746f20746865207a65726f2061646460008201527f7265737300000000000000000000000000000000000000000000000000000000602082015250565b7f4552433732313a20617070726f766520746f2063616c6c657200000000000000600082015250565b7f4552433732313a206f70657261746f7220717565727920666f72206e6f6e657860008201527f697374656e7420746f6b656e0000000000000000000000000000000000000000602082015250565b7f5061757361626c653a2070617573656400000000000000000000000000000000600082015250565b7f4552433732313a20617070726f76652063616c6c6572206973206e6f74206f7760008201527f6e6572206e6f7220617070726f76656420666f7220616c6c0000000000000000602082015250565b7f4552433732313a2062616c616e636520717565727920666f7220746865207a6560008201527f726f206164647265737300000000000000000000000000000000000000000000602082015250565b7f4552433732313a206f776e657220717565727920666f72206e6f6e657869737460008201527f656e7420746f6b656e0000000000000000000000000000000000000000000000602082015250565b7f45524337323155524953746f726167653a2055524920736574206f66206e6f6e60008201527f6578697374656e7420746f6b656e000000000000000000000000000000000000602082015250565b7f4552433732313a206d696e7420746f20746865207a65726f2061646472657373600082015250565b7f45524337323155524953746f726167653a2055524920717565727920666f722060008201527f6e6f6e6578697374656e7420746f6b656e000000000000000000000000000000602082015250565b7f4552433732313a20617070726f76656420717565727920666f72206e6f6e657860008201527f697374656e7420746f6b656e0000000000000000000000000000000000000000602082015250565b7f4f776e61626c653a2063616c6c6572206973206e6f7420746865206f776e6572600082015250565b7f4552433732314d657461646174613a2055524920717565727920666f72206e6f60008201527f6e6578697374656e7420746f6b656e0000000000000000000000000000000000602082015250565b7f4552433732313a20617070726f76616c20746f2063757272656e74206f776e6560008201527f7200000000000000000000000000000000000000000000000000000000000000602082015250565b7f4552433732313a207472616e736665722063616c6c6572206973206e6f74206f60008201527f776e6572206e6f7220617070726f766564000000000000000000000000000000602082015250565b7f416363657373436f6e74726f6c3a206163636f756e7420000000000000000000600082015250565b7f206973206d697373696e6720726f6c6520000000000000000000000000000000600082015250565b7f416363657373436f6e74726f6c3a2063616e206f6e6c792072656e6f756e636560008201527f20726f6c657320666f722073656c660000000000000000000000000000000000602082015250565b61452381613c74565b811461452e57600080fd5b50565b61453a81613c86565b811461454557600080fd5b50565b61455181613c92565b811461455c57600080fd5b50565b61456881613c9c565b811461457357600080fd5b50565b61457f81613ce8565b811461458a57600080fd5b5056fea264697066735822122005eb5d9a3b9349f5162222621ba0b7e7ceab6c5018b7e4647f0a48041bcb295964736f6c63430008010033",
  "immutableReferences": {},
  "source": "// SPDX-License-Identifier: MIT\npragma solidity ^0.8.1;\n\nimport \"@openzeppelin/contracts/access/AccessControl.sol\";\nimport \"@openzeppelin/contracts/access/Ownable.sol\";\nimport \"@openzeppelin/contracts/security/Pausable.sol\";\nimport \"@openzeppelin/contracts/token/ERC721/extensions/ERC721URIStorage.sol\";\nimport \"@openzeppelin/contracts/utils/Counters.sol\";\n\ncontract BasicNFT is ERC721URIStorage, AccessControl, Pausable, Ownable {\n    using Counters for Counters.Counter;\n    /// @dev Counter auto-incrementating NFT tokenIds, default: 0\n    Counters.Counter private _tokenIdCounter;\n    string private _contractMetadataURI;\n\n    bytes32 public constant MINTER_ROLE = keccak256(\"MINTER_ROLE\");\n    bytes32 public constant BURNER_ROLE = keccak256(\"BURNER_ROLE\");\n    bytes32 public constant PAUSER_ROLE = keccak256(\"PAUSER_ROLE\");\n\n    /// @notice Contract initiation:\n    /// @notice The account deploying the contract will have the minter role and will be able to grand other accounts\n    /// @notice The contract is built with only a name & a symbol as metadata. Each NFT metadata will be given at mint time\n    constructor(string memory _name, string memory _symbol) ERC721(_name, _symbol) {\n        _grantRole(DEFAULT_ADMIN_ROLE, msg.sender);\n        _grantRole(MINTER_ROLE, msg.sender);\n        _grantRole(BURNER_ROLE, msg.sender);\n        _grantRole(PAUSER_ROLE, msg.sender);\n    }\n\n    function pause() public onlyRole(PAUSER_ROLE) {\n        _pause();\n    }\n\n    function unpause() public onlyRole(PAUSER_ROLE) {\n        _unpause();\n    }\n\n    /// @notice NFT minting with metadata i.e tokenURI\n    /// @notice Each mint will increment the tokenId, starting from 0\n    function mintWithTokenURI(address to, string memory metadataURI) public onlyRole(MINTER_ROLE) returns (bool) {\n        uint256 tokenId = _tokenIdCounter.current();\n        _tokenIdCounter.increment();\n        _safeMint(to, tokenId);\n        _setTokenURI(tokenId, metadataURI);\n        return true;\n    }\n\n    function _beforeTokenTransfer(address from, address to, uint256 tokenId)\n        internal\n        whenNotPaused\n        override\n    {\n        super._beforeTokenTransfer(from, to, tokenId);\n    }\n\n    function addMinter(address minter) public onlyRole(DEFAULT_ADMIN_ROLE) {\n        _grantRole(MINTER_ROLE, minter);\n    }\n\n    function addBurner(address burner) public onlyRole(DEFAULT_ADMIN_ROLE) {\n        _grantRole(BURNER_ROLE, burner);\n    }\n\n    function addPauser(address pauser) public onlyRole(DEFAULT_ADMIN_ROLE) {\n        _grantRole(BURNER_ROLE, pauser);\n    }\n\n    function renounceMinter() public onlyRole(MINTER_ROLE) {\n        _revokeRole(MINTER_ROLE, msg.sender);\n    }\n\n    function renounceBurner() public onlyRole(BURNER_ROLE) {\n        _revokeRole(BURNER_ROLE, msg.sender);\n    }\n\n    function renouncePauser() public onlyRole(PAUSER_ROLE) {\n        _revokeRole(PAUSER_ROLE, msg.sender);\n    }\n\n    function burn(uint256 _tokenId) external onlyRole(BURNER_ROLE) {\n        _burn(_tokenId);\n    }\n\n    function contractURI() public view returns (string memory) {\n        return _contractMetadataURI;\n    }\n\n    function setContractURI(string memory metadataURI) public onlyRole(DEFAULT_ADMIN_ROLE) {\n        _contractMetadataURI = metadataURI;\n    }\n\n    function supportsInterface(bytes4 interfaceId) public view override(ERC721, AccessControl) returns (bool) {\n        return super.supportsInterface(interfaceId);\n    }\n}\n",
  "sourcePath": "/Users/fermincarranza/consensys/sdk-contracts/contracts/BasicNFT.sol",
  "compiler": {
    "name": "solc",
    "version": "0.8.1+commit.df193b15.Emscripten.clang"
  },
  "schemaVersion": "3.4.7",
  "updatedAt": "2022-05-12T22:42:16.135Z",
  "devdoc": {
    "kind": "dev",
    "methods": {
      "approve(address,uint256)": {
        "details": "See {IERC721-approve}."
      },
      "balanceOf(address)": {
        "details": "See {IERC721-balanceOf}."
      },
      "getApproved(uint256)": {
        "details": "See {IERC721-getApproved}."
      },
      "getRoleAdmin(bytes32)": {
        "details": "Returns the admin role that controls `role`. See {grantRole} and {revokeRole}. To change a role's admin, use {_setRoleAdmin}."
      },
      "grantRole(bytes32,address)": {
        "details": "Grants `role` to `account`. If `account` had not been already granted `role`, emits a {RoleGranted} event. Requirements: - the caller must have ``role``'s admin role."
      },
      "hasRole(bytes32,address)": {
        "details": "Returns `true` if `account` has been granted `role`."
      },
      "isApprovedForAll(address,address)": {
        "details": "See {IERC721-isApprovedForAll}."
      },
      "name()": {
        "details": "See {IERC721Metadata-name}."
      },
      "owner()": {
        "details": "Returns the address of the current owner."
      },
      "ownerOf(uint256)": {
        "details": "See {IERC721-ownerOf}."
      },
      "paused()": {
        "details": "Returns true if the contract is paused, and false otherwise."
      },
      "renounceOwnership()": {
        "details": "Leaves the contract without owner. It will not be possible to call `onlyOwner` functions anymore. Can only be called by the current owner. NOTE: Renouncing ownership will leave the contract without an owner, thereby removing any functionality that is only available to the owner."
      },
      "renounceRole(bytes32,address)": {
        "details": "Revokes `role` from the calling account. Roles are often managed via {grantRole} and {revokeRole}: this function's purpose is to provide a mechanism for accounts to lose their privileges if they are compromised (such as when a trusted device is misplaced). If the calling account had been revoked `role`, emits a {RoleRevoked} event. Requirements: - the caller must be `account`."
      },
      "revokeRole(bytes32,address)": {
        "details": "Revokes `role` from `account`. If `account` had been granted `role`, emits a {RoleRevoked} event. Requirements: - the caller must have ``role``'s admin role."
      },
      "safeTransferFrom(address,address,uint256)": {
        "details": "See {IERC721-safeTransferFrom}."
      },
      "safeTransferFrom(address,address,uint256,bytes)": {
        "details": "See {IERC721-safeTransferFrom}."
      },
      "setApprovalForAll(address,bool)": {
        "details": "See {IERC721-setApprovalForAll}."
      },
      "symbol()": {
        "details": "See {IERC721Metadata-symbol}."
      },
      "tokenURI(uint256)": {
        "details": "See {IERC721Metadata-tokenURI}."
      },
      "transferFrom(address,address,uint256)": {
        "details": "See {IERC721-transferFrom}."
      },
      "transferOwnership(address)": {
        "details": "Transfers ownership of the contract to a new account (`newOwner`). Can only be called by the current owner."
      }
    },
    "stateVariables": {
      "_tokenIdCounter": {
        "details": "Counter auto-incrementating NFT tokenIds, default: 0"
      }
    },
    "version": 1
  },
  "userdoc": {
    "kind": "user",
    "methods": {
      "constructor": {
        "notice": "Contract initiation:The account deploying the contract will have the minter role and will be able to grand other accountsThe contract is built with only a name & a symbol as metadata. Each NFT metadata will be given at mint time"
      },
      "mintWithTokenURI(address,string)": {
        "notice": "NFT minting with metadata i.e tokenURIEach mint will increment the tokenId, starting from 0"
      }
    },
    "version": 1
  }
}