{
  "contractName": "ERC721UserMintable",
  "abi": [
    {
      "inputs": [
        {
          "internalType": "string",
          "name": "name_",
          "type": "string"
        },
        {
          "internalType": "string",
          "name": "symbol_",
          "type": "string"
        },
        {
          "internalType": "string",
          "name": "baseURI_",
          "type": "string"
        },
        {
          "internalType": "uint256",
          "name": "maxSupply_",
          "type": "uint256"
        },
        {
          "internalType": "uint256",
          "name": "price_",
          "type": "uint256"
        }
      ],
      "stateMutability": "nonpayable",
      "type": "constructor"
    },
    {
      "inputs": [],
      "name": "BaseURIIsEmpty",
      "type": "error"
    },
    {
      "inputs": [],
      "name": "NameIsEmpty",
      "type": "error"
    },
    {
      "anonymous": false,
      "inputs": [
        {
          "indexed": true,
          "internalType": "address",
          "name": "owner",
          "type": "address"
        },
        {
          "indexed": true,
          "internalType": "address",
          "name": "approved",
          "type": "address"
        },
        {
          "indexed": true,
          "internalType": "uint256",
          "name": "tokenId",
          "type": "uint256"
        }
      ],
      "name": "Approval",
      "type": "event"
    },
    {
      "anonymous": false,
      "inputs": [
        {
          "indexed": true,
          "internalType": "address",
          "name": "owner",
          "type": "address"
        },
        {
          "indexed": true,
          "internalType": "address",
          "name": "operator",
          "type": "address"
        },
        {
          "indexed": false,
          "internalType": "bool",
          "name": "approved",
          "type": "bool"
        }
      ],
      "name": "ApprovalForAll",
      "type": "event"
    },
    {
      "anonymous": false,
      "inputs": [
        {
          "indexed": false,
          "internalType": "address",
          "name": "contractAddress_",
          "type": "address"
        }
      ],
      "name": "ContractDeployed",
      "type": "event"
    },
    {
      "anonymous": false,
      "inputs": [
        {
          "indexed": true,
          "internalType": "address",
          "name": "previousOwner",
          "type": "address"
        },
        {
          "indexed": true,
          "internalType": "address",
          "name": "newOwner",
          "type": "address"
        }
      ],
      "name": "OwnershipTransferred",
      "type": "event"
    },
    {
      "anonymous": false,
      "inputs": [
        {
          "indexed": true,
          "internalType": "address",
          "name": "from",
          "type": "address"
        },
        {
          "indexed": true,
          "internalType": "address",
          "name": "to",
          "type": "address"
        },
        {
          "indexed": true,
          "internalType": "uint256",
          "name": "tokenId",
          "type": "uint256"
        }
      ],
      "name": "Transfer",
      "type": "event"
    },
    {
      "inputs": [],
      "name": "_defaultRoyaltyInfo",
      "outputs": [
        {
          "internalType": "address",
          "name": "receiver",
          "type": "address"
        },
        {
          "internalType": "uint96",
          "name": "royaltyFraction",
          "type": "uint96"
        }
      ],
      "stateMutability": "view",
      "type": "function"
    },
    {
      "inputs": [
        {
          "internalType": "address",
          "name": "to",
          "type": "address"
        },
        {
          "internalType": "uint256",
          "name": "tokenId",
          "type": "uint256"
        }
      ],
      "name": "approve",
      "outputs": [],
      "stateMutability": "nonpayable",
      "type": "function"
    },
    {
      "inputs": [
        {
          "internalType": "address",
          "name": "owner",
          "type": "address"
        }
      ],
      "name": "balanceOf",
      "outputs": [
        {
          "internalType": "uint256",
          "name": "",
          "type": "uint256"
        }
      ],
      "stateMutability": "view",
      "type": "function"
    },
    {
      "inputs": [
        {
          "internalType": "uint256",
          "name": "tokenId",
          "type": "uint256"
        }
      ],
      "name": "getApproved",
      "outputs": [
        {
          "internalType": "address",
          "name": "",
          "type": "address"
        }
      ],
      "stateMutability": "view",
      "type": "function"
    },
    {
      "inputs": [
        {
          "internalType": "address",
          "name": "owner",
          "type": "address"
        },
        {
          "internalType": "address",
          "name": "operator",
          "type": "address"
        }
      ],
      "name": "isApprovedForAll",
      "outputs": [
        {
          "internalType": "bool",
          "name": "",
          "type": "bool"
        }
      ],
      "stateMutability": "view",
      "type": "function"
    },
    {
      "inputs": [],
      "name": "name",
      "outputs": [
        {
          "internalType": "string",
          "name": "",
          "type": "string"
        }
      ],
      "stateMutability": "view",
      "type": "function"
    },
    {
      "inputs": [],
      "name": "owner",
      "outputs": [
        {
          "internalType": "address",
          "name": "",
          "type": "address"
        }
      ],
      "stateMutability": "view",
      "type": "function"
    },
    {
      "inputs": [
        {
          "internalType": "uint256",
          "name": "tokenId",
          "type": "uint256"
        }
      ],
      "name": "ownerOf",
      "outputs": [
        {
          "internalType": "address",
          "name": "",
          "type": "address"
        }
      ],
      "stateMutability": "view",
      "type": "function"
    },
    {
      "inputs": [],
      "name": "renounceOwnership",
      "outputs": [],
      "stateMutability": "nonpayable",
      "type": "function"
    },
    {
      "inputs": [
        {
          "internalType": "uint256",
          "name": "_tokenId",
          "type": "uint256"
        },
        {
          "internalType": "uint256",
          "name": "_salePrice",
          "type": "uint256"
        }
      ],
      "name": "royaltyInfo",
      "outputs": [
        {
          "internalType": "address",
          "name": "",
          "type": "address"
        },
        {
          "internalType": "uint256",
          "name": "",
          "type": "uint256"
        }
      ],
      "stateMutability": "view",
      "type": "function"
    },
    {
      "inputs": [
        {
          "internalType": "address",
          "name": "from",
          "type": "address"
        },
        {
          "internalType": "address",
          "name": "to",
          "type": "address"
        },
        {
          "internalType": "uint256",
          "name": "tokenId",
          "type": "uint256"
        }
      ],
      "name": "safeTransferFrom",
      "outputs": [],
      "stateMutability": "nonpayable",
      "type": "function"
    },
    {
      "inputs": [
        {
          "internalType": "address",
          "name": "from",
          "type": "address"
        },
        {
          "internalType": "address",
          "name": "to",
          "type": "address"
        },
        {
          "internalType": "uint256",
          "name": "tokenId",
          "type": "uint256"
        },
        {
          "internalType": "bytes",
          "name": "_data",
          "type": "bytes"
        }
      ],
      "name": "safeTransferFrom",
      "outputs": [],
      "stateMutability": "nonpayable",
      "type": "function"
    },
    {
      "inputs": [
        {
          "internalType": "address",
          "name": "operator",
          "type": "address"
        },
        {
          "internalType": "bool",
          "name": "approved",
          "type": "bool"
        }
      ],
      "name": "setApprovalForAll",
      "outputs": [],
      "stateMutability": "nonpayable",
      "type": "function"
    },
    {
      "inputs": [],
      "name": "symbol",
      "outputs": [
        {
          "internalType": "string",
          "name": "",
          "type": "string"
        }
      ],
      "stateMutability": "view",
      "type": "function"
    },
    {
      "inputs": [
        {
          "internalType": "uint256",
          "name": "tokenId",
          "type": "uint256"
        }
      ],
      "name": "tokenURI",
      "outputs": [
        {
          "internalType": "string",
          "name": "",
          "type": "string"
        }
      ],
      "stateMutability": "view",
      "type": "function"
    },
    {
      "inputs": [
        {
          "internalType": "address",
          "name": "from",
          "type": "address"
        },
        {
          "internalType": "address",
          "name": "to",
          "type": "address"
        },
        {
          "internalType": "uint256",
          "name": "tokenId",
          "type": "uint256"
        }
      ],
      "name": "transferFrom",
      "outputs": [],
      "stateMutability": "nonpayable",
      "type": "function"
    },
    {
      "inputs": [
        {
          "internalType": "address",
          "name": "newOwner",
          "type": "address"
        }
      ],
      "name": "transferOwnership",
      "outputs": [],
      "stateMutability": "nonpayable",
      "type": "function"
    },
    {
      "inputs": [],
      "name": "mint",
      "outputs": [],
      "stateMutability": "payable",
      "type": "function"
    },
    {
      "inputs": [
        {
          "internalType": "string",
          "name": "baseURI_",
          "type": "string"
        }
      ],
      "name": "reveal",
      "outputs": [],
      "stateMutability": "nonpayable",
      "type": "function"
    },
    {
      "inputs": [],
      "name": "toggleSale",
      "outputs": [],
      "stateMutability": "nonpayable",
      "type": "function"
    },
    {
      "inputs": [
        {
          "internalType": "string",
          "name": "baseURI_",
          "type": "string"
        }
      ],
      "name": "setBaseURI",
      "outputs": [],
      "stateMutability": "nonpayable",
      "type": "function"
    },
    {
      "inputs": [
        {
          "internalType": "uint256",
          "name": "price_",
          "type": "uint256"
        }
      ],
      "name": "setPrice",
      "outputs": [],
      "stateMutability": "nonpayable",
      "type": "function"
    },
    {
      "inputs": [
        {
          "internalType": "address",
          "name": "receiver_",
          "type": "address"
        },
        {
          "internalType": "uint96",
          "name": "feeNumerator_",
          "type": "uint96"
        }
      ],
      "name": "setRoyalties",
      "outputs": [],
      "stateMutability": "nonpayable",
      "type": "function"
    },
    {
      "inputs": [],
      "name": "withdraw",
      "outputs": [],
      "stateMutability": "nonpayable",
      "type": "function"
    },
    {
      "inputs": [
        {
          "internalType": "bytes4",
          "name": "interfaceId_",
          "type": "bytes4"
        }
      ],
      "name": "supportsInterface",
      "outputs": [
        {
          "internalType": "bool",
          "name": "",
          "type": "bool"
        }
      ],
      "stateMutability": "view",
      "type": "function"
    }
  ],
  "bytecode": "0x60806040523480156200001157600080fd5b506040516200452c3803806200452c83398181016040528101906200003791906200048a565b848481600090805190602001906200005192919062000202565b5080600190805190602001906200006a92919062000202565b5050506200008d620000816200013460201b60201c565b6200013c60201b60201c565b6001855111620000c9576040517fbeafaea000000000000000000000000000000000000000000000000000000000815260040160405180910390fd5b82600b9080519060200190620000e192919062000202565b5081600a8190555080600c819055507f8ffcdc15a283d706d38281f500270d8b5a656918f555de0913d7455e3e6bc1bf30604051620001219190620005b4565b60405180910390a1505050505062000635565b600033905090565b6000600860009054906101000a900473ffffffffffffffffffffffffffffffffffffffff16905081600860006101000a81548173ffffffffffffffffffffffffffffffffffffffff021916908373ffffffffffffffffffffffffffffffffffffffff1602179055508173ffffffffffffffffffffffffffffffffffffffff168173ffffffffffffffffffffffffffffffffffffffff167f8be0079c531659141344cd1fd0a4f28419497f9722a3daafe3b4186f6b6457e060405160405180910390a35050565b828054620002109062000600565b90600052602060002090601f01602090048101928262000234576000855562000280565b82601f106200024f57805160ff191683800117855562000280565b8280016001018555821562000280579182015b828111156200027f57825182559160200191906001019062000262565b5b5090506200028f919062000293565b5090565b5b80821115620002ae57600081600090555060010162000294565b5090565b6000604051905090565b600080fd5b600080fd5b600080fd5b600080fd5b6000601f19601f8301169050919050565b7f4e487b7100000000000000000000000000000000000000000000000000000000600052604160045260246000fd5b6200031b82620002d0565b810181811067ffffffffffffffff821117156200033d576200033c620002e1565b5b80604052505050565b600062000352620002b2565b905062000360828262000310565b919050565b600067ffffffffffffffff821115620003835762000382620002e1565b5b6200038e82620002d0565b9050602081019050919050565b60005b83811015620003bb5780820151818401526020810190506200039e565b83811115620003cb576000848401525b50505050565b6000620003e8620003e28462000365565b62000346565b905082815260208101848484011115620004075762000406620002cb565b5b620004148482856200039b565b509392505050565b600082601f830112620004345762000433620002c6565b5b815162000446848260208601620003d1565b91505092915050565b6000819050919050565b62000464816200044f565b81146200047057600080fd5b50565b600081519050620004848162000459565b92915050565b600080600080600060a08688031215620004a957620004a8620002bc565b5b600086015167ffffffffffffffff811115620004ca57620004c9620002c1565b5b620004d8888289016200041c565b955050602086015167ffffffffffffffff811115620004fc57620004fb620002c1565b5b6200050a888289016200041c565b945050604086015167ffffffffffffffff8111156200052e576200052d620002c1565b5b6200053c888289016200041c565b93505060606200054f8882890162000473565b9250506080620005628882890162000473565b9150509295509295909350565b600073ffffffffffffffffffffffffffffffffffffffff82169050919050565b60006200059c826200056f565b9050919050565b620005ae816200058f565b82525050565b6000602082019050620005cb6000830184620005a3565b92915050565b7f4e487b7100000000000000000000000000000000000000000000000000000000600052602260045260246000fd5b600060028204905060018216806200061957607f821691505b6020821081036200062f576200062e620005d1565b5b50919050565b613ee780620006456000396000f3fe6080604052600436106101665760003560e01c80636f69ec34116100d157806395d89b411161008a578063c21b471b11610064578063c21b471b146104e1578063c87b56dd1461050a578063e985e9c514610547578063f2fde38b1461058457610166565b806395d89b4114610464578063a22cb4651461048f578063b88d4fde146104b857610166565b80636f69ec341461037957806370a08231146103a5578063715018a6146103e25780637d8966e4146103f95780638da5cb5b1461041057806391b7f5ed1461043b57610166565b80632a55205a116101235780632a55205a1461026c5780633ccfd60b146102aa57806342842e0e146102c15780634c261247146102ea57806355f804b3146103135780636352211e1461033c57610166565b806301ffc9a71461016b57806306fdde03146101a8578063081812fc146101d3578063095ea7b3146102105780631249c58b1461023957806323b872dd14610243575b600080fd5b34801561017757600080fd5b50610192600480360381019061018d9190612759565b6105ad565b60405161019f91906127a1565b60405180910390f35b3480156101b457600080fd5b506101bd6105bf565b6040516101ca9190612855565b60405180910390f35b3480156101df57600080fd5b506101fa60048036038101906101f591906128ad565b610651565b604051610207919061291b565b60405180910390f35b34801561021c57600080fd5b5061023760048036038101906102329190612962565b6106d6565b005b6102416107ed565b005b34801561024f57600080fd5b5061026a600480360381019061026591906129a2565b6108ad565b005b34801561027857600080fd5b50610293600480360381019061028e91906129f5565b61090d565b6040516102a1929190612a44565b60405180910390f35b3480156102b657600080fd5b506102bf610af7565b005b3480156102cd57600080fd5b506102e860048036038101906102e391906129a2565b610b8c565b005b3480156102f657600080fd5b50610311600480360381019061030c9190612ba2565b610bac565b005b34801561031f57600080fd5b5061033a60048036038101906103359190612ba2565b610cad565b005b34801561034857600080fd5b50610363600480360381019061035e91906128ad565b610d7e565b604051610370919061291b565b60405180910390f35b34801561038557600080fd5b5061038e610e2f565b60405161039c929190612c12565b60405180910390f35b3480156103b157600080fd5b506103cc60048036038101906103c79190612c3b565b610e79565b6040516103d99190612c68565b60405180910390f35b3480156103ee57600080fd5b506103f7610f30565b005b34801561040557600080fd5b5061040e610fb8565b005b34801561041c57600080fd5b50610425611060565b604051610432919061291b565b60405180910390f35b34801561044757600080fd5b50610462600480360381019061045d91906128ad565b61108a565b005b34801561047057600080fd5b50610479611110565b6040516104869190612855565b60405180910390f35b34801561049b57600080fd5b506104b660048036038101906104b19190612caf565b6111a2565b005b3480156104c457600080fd5b506104df60048036038101906104da9190612d90565b6111b8565b005b3480156104ed57600080fd5b5061050860048036038101906105039190612e3f565b61121a565b005b34801561051657600080fd5b50610531600480360381019061052c91906128ad565b6112a4565b60405161053e9190612855565b60405180910390f35b34801561055357600080fd5b5061056e60048036038101906105699190612e7f565b61134b565b60405161057b91906127a1565b60405180910390f35b34801561059057600080fd5b506105ab60048036038101906105a69190612c3b565b6113df565b005b60006105b8826114d6565b9050919050565b6060600080546105ce90612eee565b80601f01602080910402602001604051908101604052809291908181526020018280546105fa90612eee565b80156106475780601f1061061c57610100808354040283529160200191610647565b820191906000526020600020905b81548152906001019060200180831161062a57829003601f168201915b5050505050905090565b600061065c82611550565b61069b576040517f08c379a000000000000000000000000000000000000000000000000000000000815260040161069290612f91565b60405180910390fd5b6004600083815260200190815260200160002060009054906101000a900473ffffffffffffffffffffffffffffffffffffffff169050919050565b60006106e182610d7e565b90508073ffffffffffffffffffffffffffffffffffffffff168373ffffffffffffffffffffffffffffffffffffffff1603610751576040517f08c379a000000000000000000000000000000000000000000000000000000000815260040161074890613023565b60405180910390fd5b8073ffffffffffffffffffffffffffffffffffffffff166107706115bc565b73ffffffffffffffffffffffffffffffffffffffff16148061079f575061079e816107996115bc565b61134b565b5b6107de576040517f08c379a00000000000000000000000000000000000000000000000000000000081526004016107d5906130b5565b60405180910390fd5b6107e883836115c4565b505050565b600d60019054906101000a900460ff1661083c576040517f08c379a000000000000000000000000000000000000000000000000000000000815260040161083390613121565b60405180910390fd5b600c54341015610881576040517f08c379a0000000000000000000000000000000000000000000000000000000008152600401610878906131b3565b60405180910390fd5b600061088d600961167d565b9050610899600961168b565b6108aa6108a46115bc565b826116a1565b50565b6108be6108b86115bc565b826116bf565b6108fd576040517f08c379a00000000000000000000000000000000000000000000000000000000081526004016108f490613245565b60405180910390fd5b61090883838361179d565b505050565b6000806000600760008681526020019081526020016000206040518060400160405290816000820160009054906101000a900473ffffffffffffffffffffffffffffffffffffffff1673ffffffffffffffffffffffffffffffffffffffff1673ffffffffffffffffffffffffffffffffffffffff1681526020016000820160149054906101000a90046bffffffffffffffffffffffff166bffffffffffffffffffffffff166bffffffffffffffffffffffff16815250509050600073ffffffffffffffffffffffffffffffffffffffff16816000015173ffffffffffffffffffffffffffffffffffffffff1603610aa25760066040518060400160405290816000820160009054906101000a900473ffffffffffffffffffffffffffffffffffffffff1673ffffffffffffffffffffffffffffffffffffffff1673ffffffffffffffffffffffffffffffffffffffff1681526020016000820160149054906101000a90046bffffffffffffffffffffffff166bffffffffffffffffffffffff166bffffffffffffffffffffffff168152505090505b6000610aac611a03565b6bffffffffffffffffffffffff1682602001516bffffffffffffffffffffffff1686610ad89190613294565b610ae2919061331d565b90508160000151819350935050509250929050565b610aff6115bc565b73ffffffffffffffffffffffffffffffffffffffff16610b1d611060565b73ffffffffffffffffffffffffffffffffffffffff1614610b73576040517f08c379a0000000000000000000000000000000000000000000000000000000008152600401610b6a9061339a565b60405180910390fd5b6000479050610b89610b836115bc565b82611a0d565b50565b610ba7838383604051806020016040528060008152506111b8565b505050565b610bb46115bc565b73ffffffffffffffffffffffffffffffffffffffff16610bd2611060565b73ffffffffffffffffffffffffffffffffffffffff1614610c28576040517f08c379a0000000000000000000000000000000000000000000000000000000008152600401610c1f9061339a565b60405180910390fd5b600d60009054906101000a900460ff1615610c78576040517f08c379a0000000000000000000000000000000000000000000000000000000008152600401610c6f90613406565b60405180910390fd5b80600b9080519060200190610c8e92919061264a565b506001600d60006101000a81548160ff02191690831515021790555050565b610cb56115bc565b73ffffffffffffffffffffffffffffffffffffffff16610cd3611060565b73ffffffffffffffffffffffffffffffffffffffff1614610d29576040517f08c379a0000000000000000000000000000000000000000000000000000000008152600401610d209061339a565b60405180910390fd5b6001815111610d64576040517f51a4769e00000000000000000000000000000000000000000000000000000000815260040160405180910390fd5b80600b9080519060200190610d7a92919061264a565b5050565b6000806002600084815260200190815260200160002060009054906101000a900473ffffffffffffffffffffffffffffffffffffffff169050600073ffffffffffffffffffffffffffffffffffffffff168173ffffffffffffffffffffffffffffffffffffffff1603610e26576040517f08c379a0000000000000000000000000000000000000000000000000000000008152600401610e1d90613498565b60405180910390fd5b80915050919050565b60068060000160009054906101000a900473ffffffffffffffffffffffffffffffffffffffff16908060000160149054906101000a90046bffffffffffffffffffffffff16905082565b60008073ffffffffffffffffffffffffffffffffffffffff168273ffffffffffffffffffffffffffffffffffffffff1603610ee9576040517f08c379a0000000000000000000000000000000000000000000000000000000008152600401610ee09061352a565b60405180910390fd5b600360008373ffffffffffffffffffffffffffffffffffffffff1673ffffffffffffffffffffffffffffffffffffffff168152602001908152602001600020549050919050565b610f386115bc565b73ffffffffffffffffffffffffffffffffffffffff16610f56611060565b73ffffffffffffffffffffffffffffffffffffffff1614610fac576040517f08c379a0000000000000000000000000000000000000000000000000000000008152600401610fa39061339a565b60405180910390fd5b610fb66000611b01565b565b610fc06115bc565b73ffffffffffffffffffffffffffffffffffffffff16610fde611060565b73ffffffffffffffffffffffffffffffffffffffff1614611034576040517f08c379a000000000000000000000000000000000000000000000000000000000815260040161102b9061339a565b60405180910390fd5b600d60019054906101000a900460ff1615600d60016101000a81548160ff021916908315150217905550565b6000600860009054906101000a900473ffffffffffffffffffffffffffffffffffffffff16905090565b6110926115bc565b73ffffffffffffffffffffffffffffffffffffffff166110b0611060565b73ffffffffffffffffffffffffffffffffffffffff1614611106576040517f08c379a00000000000000000000000000000000000000000000000000000000081526004016110fd9061339a565b60405180910390fd5b80600c8190555050565b60606001805461111f90612eee565b80601f016020809104026020016040519081016040528092919081815260200182805461114b90612eee565b80156111985780601f1061116d57610100808354040283529160200191611198565b820191906000526020600020905b81548152906001019060200180831161117b57829003601f168201915b5050505050905090565b6111b46111ad6115bc565b8383611bc7565b5050565b6111c96111c36115bc565b836116bf565b611208576040517f08c379a00000000000000000000000000000000000000000000000000000000081526004016111ff90613245565b60405180910390fd5b61121484848484611d33565b50505050565b6112226115bc565b73ffffffffffffffffffffffffffffffffffffffff16611240611060565b73ffffffffffffffffffffffffffffffffffffffff1614611296576040517f08c379a000000000000000000000000000000000000000000000000000000000815260040161128d9061339a565b60405180910390fd5b6112a08282611d8f565b5050565b60606112af82611550565b6112ee576040517f08c379a00000000000000000000000000000000000000000000000000000000081526004016112e5906135bc565b60405180910390fd5b60006112f8611f24565b905060008151116113185760405180602001604052806000815250611343565b8061132284611fb6565b604051602001611333929190613618565b6040516020818303038152906040525b915050919050565b6000600560008473ffffffffffffffffffffffffffffffffffffffff1673ffffffffffffffffffffffffffffffffffffffff16815260200190815260200160002060008373ffffffffffffffffffffffffffffffffffffffff1673ffffffffffffffffffffffffffffffffffffffff16815260200190815260200160002060009054906101000a900460ff16905092915050565b6113e76115bc565b73ffffffffffffffffffffffffffffffffffffffff16611405611060565b73ffffffffffffffffffffffffffffffffffffffff161461145b576040517f08c379a00000000000000000000000000000000000000000000000000000000081526004016114529061339a565b60405180910390fd5b600073ffffffffffffffffffffffffffffffffffffffff168173ffffffffffffffffffffffffffffffffffffffff16036114ca576040517f08c379a00000000000000000000000000000000000000000000000000000000081526004016114c1906136ae565b60405180910390fd5b6114d381611b01565b50565b60007f2a55205a000000000000000000000000000000000000000000000000000000007bffffffffffffffffffffffffffffffffffffffffffffffffffffffff1916827bffffffffffffffffffffffffffffffffffffffffffffffffffffffff19161480611549575061154882612116565b5b9050919050565b60008073ffffffffffffffffffffffffffffffffffffffff166002600084815260200190815260200160002060009054906101000a900473ffffffffffffffffffffffffffffffffffffffff1673ffffffffffffffffffffffffffffffffffffffff1614159050919050565b600033905090565b816004600083815260200190815260200160002060006101000a81548173ffffffffffffffffffffffffffffffffffffffff021916908373ffffffffffffffffffffffffffffffffffffffff160217905550808273ffffffffffffffffffffffffffffffffffffffff1661163783610d7e565b73ffffffffffffffffffffffffffffffffffffffff167f8c5be1e5ebec7d5bd14f71427d1e84f3dd0314c0f7b2291e5b200ac8c7c3b92560405160405180910390a45050565b600081600001549050919050565b6001816000016000828254019250508190555050565b6116bb8282604051806020016040528060008152506121f8565b5050565b60006116ca82611550565b611709576040517f08c379a000000000000000000000000000000000000000000000000000000000815260040161170090613740565b60405180910390fd5b600061171483610d7e565b90508073ffffffffffffffffffffffffffffffffffffffff168473ffffffffffffffffffffffffffffffffffffffff1614806117565750611755818561134b565b5b8061179457508373ffffffffffffffffffffffffffffffffffffffff1661177c84610651565b73ffffffffffffffffffffffffffffffffffffffff16145b91505092915050565b8273ffffffffffffffffffffffffffffffffffffffff166117bd82610d7e565b73ffffffffffffffffffffffffffffffffffffffff1614611813576040517f08c379a000000000000000000000000000000000000000000000000000000000815260040161180a906137d2565b60405180910390fd5b600073ffffffffffffffffffffffffffffffffffffffff168273ffffffffffffffffffffffffffffffffffffffff1603611882576040517f08c379a000000000000000000000000000000000000000000000000000000000815260040161187990613864565b60405180910390fd5b61188d838383612253565b6118986000826115c4565b6001600360008573ffffffffffffffffffffffffffffffffffffffff1673ffffffffffffffffffffffffffffffffffffffff16815260200190815260200160002060008282546118e89190613884565b925050819055506001600360008473ffffffffffffffffffffffffffffffffffffffff1673ffffffffffffffffffffffffffffffffffffffff168152602001908152602001600020600082825461193f91906138b8565b92505081905550816002600083815260200190815260200160002060006101000a81548173ffffffffffffffffffffffffffffffffffffffff021916908373ffffffffffffffffffffffffffffffffffffffff160217905550808273ffffffffffffffffffffffffffffffffffffffff168473ffffffffffffffffffffffffffffffffffffffff167fddf252ad1be2c89b69c2b068fc378daa952ba7f163c4a11628f55a4df523b3ef60405160405180910390a46119fe838383612258565b505050565b6000612710905090565b80471015611a50576040517f08c379a0000000000000000000000000000000000000000000000000000000008152600401611a479061395a565b60405180910390fd5b60008273ffffffffffffffffffffffffffffffffffffffff1682604051611a76906139ab565b60006040518083038185875af1925050503d8060008114611ab3576040519150601f19603f3d011682016040523d82523d6000602084013e611ab8565b606091505b5050905080611afc576040517f08c379a0000000000000000000000000000000000000000000000000000000008152600401611af390613a32565b60405180910390fd5b505050565b6000600860009054906101000a900473ffffffffffffffffffffffffffffffffffffffff16905081600860006101000a81548173ffffffffffffffffffffffffffffffffffffffff021916908373ffffffffffffffffffffffffffffffffffffffff1602179055508173ffffffffffffffffffffffffffffffffffffffff168173ffffffffffffffffffffffffffffffffffffffff167f8be0079c531659141344cd1fd0a4f28419497f9722a3daafe3b4186f6b6457e060405160405180910390a35050565b8173ffffffffffffffffffffffffffffffffffffffff168373ffffffffffffffffffffffffffffffffffffffff1603611c35576040517f08c379a0000000000000000000000000000000000000000000000000000000008152600401611c2c90613a9e565b60405180910390fd5b80600560008573ffffffffffffffffffffffffffffffffffffffff1673ffffffffffffffffffffffffffffffffffffffff16815260200190815260200160002060008473ffffffffffffffffffffffffffffffffffffffff1673ffffffffffffffffffffffffffffffffffffffff16815260200190815260200160002060006101000a81548160ff0219169083151502179055508173ffffffffffffffffffffffffffffffffffffffff168373ffffffffffffffffffffffffffffffffffffffff167f17307eab39ab6107e8899845ad3d59bd9653f200f220920489ca2b5937696c3183604051611d2691906127a1565b60405180910390a3505050565b611d3e84848461179d565b611d4a8484848461225d565b611d89576040517f08c379a0000000000000000000000000000000000000000000000000000000008152600401611d8090613b30565b60405180910390fd5b50505050565b611d97611a03565b6bffffffffffffffffffffffff16816bffffffffffffffffffffffff161115611df5576040517f08c379a0000000000000000000000000000000000000000000000000000000008152600401611dec90613bc2565b60405180910390fd5b600073ffffffffffffffffffffffffffffffffffffffff168273ffffffffffffffffffffffffffffffffffffffff1603611e64576040517f08c379a0000000000000000000000000000000000000000000000000000000008152600401611e5b90613c2e565b60405180910390fd5b60405180604001604052808373ffffffffffffffffffffffffffffffffffffffff168152602001826bffffffffffffffffffffffff16815250600660008201518160000160006101000a81548173ffffffffffffffffffffffffffffffffffffffff021916908373ffffffffffffffffffffffffffffffffffffffff16021790555060208201518160000160146101000a8154816bffffffffffffffffffffffff02191690836bffffffffffffffffffffffff1602179055509050505050565b6060600b8054611f3390612eee565b80601f0160208091040260200160405190810160405280929190818152602001828054611f5f90612eee565b8015611fac5780601f10611f8157610100808354040283529160200191611fac565b820191906000526020600020905b815481529060010190602001808311611f8f57829003601f168201915b5050505050905090565b606060008203611ffd576040518060400160405280600181526020017f30000000000000000000000000000000000000000000000000000000000000008152509050612111565b600082905060005b6000821461202f57808061201890613c4e565b915050600a82612028919061331d565b9150612005565b60008167ffffffffffffffff81111561204b5761204a612a77565b5b6040519080825280601f01601f19166020018201604052801561207d5781602001600182028036833780820191505090505b5090505b6000851461210a576001826120969190613884565b9150600a856120a59190613c96565b60306120b191906138b8565b60f81b8183815181106120c7576120c6613cc7565b5b60200101907effffffffffffffffffffffffffffffffffffffffffffffffffffffffffffff1916908160001a905350600a85612103919061331d565b9450612081565b8093505050505b919050565b60007f80ac58cd000000000000000000000000000000000000000000000000000000007bffffffffffffffffffffffffffffffffffffffffffffffffffffffff1916827bffffffffffffffffffffffffffffffffffffffffffffffffffffffff191614806121e157507f5b5e139f000000000000000000000000000000000000000000000000000000007bffffffffffffffffffffffffffffffffffffffffffffffffffffffff1916827bffffffffffffffffffffffffffffffffffffffffffffffffffffffff1916145b806121f157506121f0826123e4565b5b9050919050565b612202838361244e565b61220f600084848461225d565b61224e576040517f08c379a000000000000000000000000000000000000000000000000000000000815260040161224590613b30565b60405180910390fd5b505050565b505050565b505050565b600061227e8473ffffffffffffffffffffffffffffffffffffffff16612627565b156123d7578373ffffffffffffffffffffffffffffffffffffffff1663150b7a026122a76115bc565b8786866040518563ffffffff1660e01b81526004016122c99493929190613d4b565b6020604051808303816000875af192505050801561230557506040513d601f19601f820116820180604052508101906123029190613dac565b60015b612387573d8060008114612335576040519150601f19603f3d011682016040523d82523d6000602084013e61233a565b606091505b50600081510361237f576040517f08c379a000000000000000000000000000000000000000000000000000000000815260040161237690613b30565b60405180910390fd5b805181602001fd5b63150b7a0260e01b7bffffffffffffffffffffffffffffffffffffffffffffffffffffffff1916817bffffffffffffffffffffffffffffffffffffffffffffffffffffffff1916149150506123dc565b600190505b949350505050565b60007f01ffc9a7000000000000000000000000000000000000000000000000000000007bffffffffffffffffffffffffffffffffffffffffffffffffffffffff1916827bffffffffffffffffffffffffffffffffffffffffffffffffffffffff1916149050919050565b600073ffffffffffffffffffffffffffffffffffffffff168273ffffffffffffffffffffffffffffffffffffffff16036124bd576040517f08c379a00000000000000000000000000000000000000000000000000000000081526004016124b490613e25565b60405180910390fd5b6124c681611550565b15612506576040517f08c379a00000000000000000000000000000000000000000000000000000000081526004016124fd90613e91565b60405180910390fd5b61251260008383612253565b6001600360008473ffffffffffffffffffffffffffffffffffffffff1673ffffffffffffffffffffffffffffffffffffffff168152602001908152602001600020600082825461256291906138b8565b92505081905550816002600083815260200190815260200160002060006101000a81548173ffffffffffffffffffffffffffffffffffffffff021916908373ffffffffffffffffffffffffffffffffffffffff160217905550808273ffffffffffffffffffffffffffffffffffffffff16600073ffffffffffffffffffffffffffffffffffffffff167fddf252ad1be2c89b69c2b068fc378daa952ba7f163c4a11628f55a4df523b3ef60405160405180910390a461262360008383612258565b5050565b6000808273ffffffffffffffffffffffffffffffffffffffff163b119050919050565b82805461265690612eee565b90600052602060002090601f01602090048101928261267857600085556126bf565b82601f1061269157805160ff19168380011785556126bf565b828001600101855582156126bf579182015b828111156126be5782518255916020019190600101906126a3565b5b5090506126cc91906126d0565b5090565b5b808211156126e95760008160009055506001016126d1565b5090565b6000604051905090565b600080fd5b600080fd5b60007fffffffff0000000000000000000000000000000000000000000000000000000082169050919050565b61273681612701565b811461274157600080fd5b50565b6000813590506127538161272d565b92915050565b60006020828403121561276f5761276e6126f7565b5b600061277d84828501612744565b91505092915050565b60008115159050919050565b61279b81612786565b82525050565b60006020820190506127b66000830184612792565b92915050565b600081519050919050565b600082825260208201905092915050565b60005b838110156127f65780820151818401526020810190506127db565b83811115612805576000848401525b50505050565b6000601f19601f8301169050919050565b6000612827826127bc565b61283181856127c7565b93506128418185602086016127d8565b61284a8161280b565b840191505092915050565b6000602082019050818103600083015261286f818461281c565b905092915050565b6000819050919050565b61288a81612877565b811461289557600080fd5b50565b6000813590506128a781612881565b92915050565b6000602082840312156128c3576128c26126f7565b5b60006128d184828501612898565b91505092915050565b600073ffffffffffffffffffffffffffffffffffffffff82169050919050565b6000612905826128da565b9050919050565b612915816128fa565b82525050565b6000602082019050612930600083018461290c565b92915050565b61293f816128fa565b811461294a57600080fd5b50565b60008135905061295c81612936565b92915050565b60008060408385031215612979576129786126f7565b5b60006129878582860161294d565b925050602061299885828601612898565b9150509250929050565b6000806000606084860312156129bb576129ba6126f7565b5b60006129c98682870161294d565b93505060206129da8682870161294d565b92505060406129eb86828701612898565b9150509250925092565b60008060408385031215612a0c57612a0b6126f7565b5b6000612a1a85828601612898565b9250506020612a2b85828601612898565b9150509250929050565b612a3e81612877565b82525050565b6000604082019050612a59600083018561290c565b612a666020830184612a35565b9392505050565b600080fd5b600080fd5b7f4e487b7100000000000000000000000000000000000000000000000000000000600052604160045260246000fd5b612aaf8261280b565b810181811067ffffffffffffffff82111715612ace57612acd612a77565b5b80604052505050565b6000612ae16126ed565b9050612aed8282612aa6565b919050565b600067ffffffffffffffff821115612b0d57612b0c612a77565b5b612b168261280b565b9050602081019050919050565b82818337600083830152505050565b6000612b45612b4084612af2565b612ad7565b905082815260208101848484011115612b6157612b60612a72565b5b612b6c848285612b23565b509392505050565b600082601f830112612b8957612b88612a6d565b5b8135612b99848260208601612b32565b91505092915050565b600060208284031215612bb857612bb76126f7565b5b600082013567ffffffffffffffff811115612bd657612bd56126fc565b5b612be284828501612b74565b91505092915050565b60006bffffffffffffffffffffffff82169050919050565b612c0c81612beb565b82525050565b6000604082019050612c27600083018561290c565b612c346020830184612c03565b9392505050565b600060208284031215612c5157612c506126f7565b5b6000612c5f8482850161294d565b91505092915050565b6000602082019050612c7d6000830184612a35565b92915050565b612c8c81612786565b8114612c9757600080fd5b50565b600081359050612ca981612c83565b92915050565b60008060408385031215612cc657612cc56126f7565b5b6000612cd48582860161294d565b9250506020612ce585828601612c9a565b9150509250929050565b600067ffffffffffffffff821115612d0a57612d09612a77565b5b612d138261280b565b9050602081019050919050565b6000612d33612d2e84612cef565b612ad7565b905082815260208101848484011115612d4f57612d4e612a72565b5b612d5a848285612b23565b509392505050565b600082601f830112612d7757612d76612a6d565b5b8135612d87848260208601612d20565b91505092915050565b60008060008060808587031215612daa57612da96126f7565b5b6000612db88782880161294d565b9450506020612dc98782880161294d565b9350506040612dda87828801612898565b925050606085013567ffffffffffffffff811115612dfb57612dfa6126fc565b5b612e0787828801612d62565b91505092959194509250565b612e1c81612beb565b8114612e2757600080fd5b50565b600081359050612e3981612e13565b92915050565b60008060408385031215612e5657612e556126f7565b5b6000612e648582860161294d565b9250506020612e7585828601612e2a565b9150509250929050565b60008060408385031215612e9657612e956126f7565b5b6000612ea48582860161294d565b9250506020612eb58582860161294d565b9150509250929050565b7f4e487b7100000000000000000000000000000000000000000000000000000000600052602260045260246000fd5b60006002820490506001821680612f0657607f821691505b602082108103612f1957612f18612ebf565b5b50919050565b7f4552433732313a20617070726f76656420717565727920666f72206e6f6e657860008201527f697374656e7420746f6b656e0000000000000000000000000000000000000000602082015250565b6000612f7b602c836127c7565b9150612f8682612f1f565b604082019050919050565b60006020820190508181036000830152612faa81612f6e565b9050919050565b7f4552433732313a20617070726f76616c20746f2063757272656e74206f776e6560008201527f7200000000000000000000000000000000000000000000000000000000000000602082015250565b600061300d6021836127c7565b915061301882612fb1565b604082019050919050565b6000602082019050818103600083015261303c81613000565b9050919050565b7f4552433732313a20617070726f76652063616c6c6572206973206e6f74206f7760008201527f6e6572206e6f7220617070726f76656420666f7220616c6c0000000000000000602082015250565b600061309f6038836127c7565b91506130aa82613043565b604082019050919050565b600060208201905081810360008301526130ce81613092565b9050919050565b7f4d696e74206973206e6f742061637469766520617420746869732074696d652e600082015250565b600061310b6020836127c7565b9150613116826130d5565b602082019050919050565b6000602082019050818103600083015261313a816130fe565b9050919050565b7f4e65656420746f2073656e64206174206c6561737420616d6f756e74206f662060008201527f6d696e7420707269636500000000000000000000000000000000000000000000602082015250565b600061319d602a836127c7565b91506131a882613141565b604082019050919050565b600060208201905081810360008301526131cc81613190565b9050919050565b7f4552433732313a207472616e736665722063616c6c6572206973206e6f74206f60008201527f776e6572206e6f7220617070726f766564000000000000000000000000000000602082015250565b600061322f6031836127c7565b915061323a826131d3565b604082019050919050565b6000602082019050818103600083015261325e81613222565b9050919050565b7f4e487b7100000000000000000000000000000000000000000000000000000000600052601160045260246000fd5b600061329f82612877565b91506132aa83612877565b9250817fffffffffffffffffffffffffffffffffffffffffffffffffffffffffffffffff04831182151516156132e3576132e2613265565b5b828202905092915050565b7f4e487b7100000000000000000000000000000000000000000000000000000000600052601260045260246000fd5b600061332882612877565b915061333383612877565b925082613343576133426132ee565b5b828204905092915050565b7f4f776e61626c653a2063616c6c6572206973206e6f7420746865206f776e6572600082015250565b60006133846020836127c7565b915061338f8261334e565b602082019050919050565b600060208201905081810360008301526133b381613377565b9050919050565b7f5552492068617320616c7265616479206265656e2072657665616c6564000000600082015250565b60006133f0601d836127c7565b91506133fb826133ba565b602082019050919050565b6000602082019050818103600083015261341f816133e3565b9050919050565b7f4552433732313a206f776e657220717565727920666f72206e6f6e657869737460008201527f656e7420746f6b656e0000000000000000000000000000000000000000000000602082015250565b60006134826029836127c7565b915061348d82613426565b604082019050919050565b600060208201905081810360008301526134b181613475565b9050919050565b7f4552433732313a2062616c616e636520717565727920666f7220746865207a6560008201527f726f206164647265737300000000000000000000000000000000000000000000602082015250565b6000613514602a836127c7565b915061351f826134b8565b604082019050919050565b6000602082019050818103600083015261354381613507565b9050919050565b7f4552433732314d657461646174613a2055524920717565727920666f72206e6f60008201527f6e6578697374656e7420746f6b656e0000000000000000000000000000000000602082015250565b60006135a6602f836127c7565b91506135b18261354a565b604082019050919050565b600060208201905081810360008301526135d581613599565b9050919050565b600081905092915050565b60006135f2826127bc565b6135fc81856135dc565b935061360c8185602086016127d8565b80840191505092915050565b600061362482856135e7565b915061363082846135e7565b91508190509392505050565b7f4f776e61626c653a206e6577206f776e657220697320746865207a65726f206160008201527f6464726573730000000000000000000000000000000000000000000000000000602082015250565b60006136986026836127c7565b91506136a38261363c565b604082019050919050565b600060208201905081810360008301526136c78161368b565b9050919050565b7f4552433732313a206f70657261746f7220717565727920666f72206e6f6e657860008201527f697374656e7420746f6b656e0000000000000000000000000000000000000000602082015250565b600061372a602c836127c7565b9150613735826136ce565b604082019050919050565b600060208201905081810360008301526137598161371d565b9050919050565b7f4552433732313a207472616e736665722066726f6d20696e636f72726563742060008201527f6f776e6572000000000000000000000000000000000000000000000000000000602082015250565b60006137bc6025836127c7565b91506137c782613760565b604082019050919050565b600060208201905081810360008301526137eb816137af565b9050919050565b7f4552433732313a207472616e7366657220746f20746865207a65726f2061646460008201527f7265737300000000000000000000000000000000000000000000000000000000602082015250565b600061384e6024836127c7565b9150613859826137f2565b604082019050919050565b6000602082019050818103600083015261387d81613841565b9050919050565b600061388f82612877565b915061389a83612877565b9250828210156138ad576138ac613265565b5b828203905092915050565b60006138c382612877565b91506138ce83612877565b9250827fffffffffffffffffffffffffffffffffffffffffffffffffffffffffffffffff0382111561390357613902613265565b5b828201905092915050565b7f416464726573733a20696e73756666696369656e742062616c616e6365000000600082015250565b6000613944601d836127c7565b915061394f8261390e565b602082019050919050565b6000602082019050818103600083015261397381613937565b9050919050565b600081905092915050565b50565b600061399560008361397a565b91506139a082613985565b600082019050919050565b60006139b682613988565b9150819050919050565b7f416464726573733a20756e61626c6520746f2073656e642076616c75652c207260008201527f6563697069656e74206d61792068617665207265766572746564000000000000602082015250565b6000613a1c603a836127c7565b9150613a27826139c0565b604082019050919050565b60006020820190508181036000830152613a4b81613a0f565b9050919050565b7f4552433732313a20617070726f766520746f2063616c6c657200000000000000600082015250565b6000613a886019836127c7565b9150613a9382613a52565b602082019050919050565b60006020820190508181036000830152613ab781613a7b565b9050919050565b7f4552433732313a207472616e7366657220746f206e6f6e20455243373231526560008201527f63656976657220696d706c656d656e7465720000000000000000000000000000602082015250565b6000613b1a6032836127c7565b9150613b2582613abe565b604082019050919050565b60006020820190508181036000830152613b4981613b0d565b9050919050565b7f455243323938313a20726f79616c7479206665652077696c6c2065786365656460008201527f2073616c65507269636500000000000000000000000000000000000000000000602082015250565b6000613bac602a836127c7565b9150613bb782613b50565b604082019050919050565b60006020820190508181036000830152613bdb81613b9f565b9050919050565b7f455243323938313a20696e76616c696420726563656976657200000000000000600082015250565b6000613c186019836127c7565b9150613c2382613be2565b602082019050919050565b60006020820190508181036000830152613c4781613c0b565b9050919050565b6000613c5982612877565b91507fffffffffffffffffffffffffffffffffffffffffffffffffffffffffffffffff8203613c8b57613c8a613265565b5b600182019050919050565b6000613ca182612877565b9150613cac83612877565b925082613cbc57613cbb6132ee565b5b828206905092915050565b7f4e487b7100000000000000000000000000000000000000000000000000000000600052603260045260246000fd5b600081519050919050565b600082825260208201905092915050565b6000613d1d82613cf6565b613d278185613d01565b9350613d378185602086016127d8565b613d408161280b565b840191505092915050565b6000608082019050613d60600083018761290c565b613d6d602083018661290c565b613d7a6040830185612a35565b8181036060830152613d8c8184613d12565b905095945050505050565b600081519050613da68161272d565b92915050565b600060208284031215613dc257613dc16126f7565b5b6000613dd084828501613d97565b91505092915050565b7f4552433732313a206d696e7420746f20746865207a65726f2061646472657373600082015250565b6000613e0f6020836127c7565b9150613e1a82613dd9565b602082019050919050565b60006020820190508181036000830152613e3e81613e02565b9050919050565b7f4552433732313a20746f6b656e20616c7265616479206d696e74656400000000600082015250565b6000613e7b601c836127c7565b9150613e8682613e45565b602082019050919050565b60006020820190508181036000830152613eaa81613e6e565b905091905056fea264697066735822122007a0a4dd743032f09f2121efedda3a046116927c0afe18231488309401544f7764736f6c634300080d0033",
  "immutableReferences": {},
  "source": "// SPDX-License-Identifier: MIT\npragma solidity 0.8.13;\n\nimport \"@openzeppelin/contracts/access/Ownable.sol\";\nimport \"@openzeppelin/contracts/token/common/ERC2981.sol\";\nimport \"@openzeppelin/contracts/token/ERC721/ERC721.sol\";\nimport \"@openzeppelin/contracts/utils/Address.sol\";\nimport \"@openzeppelin/contracts/utils/Counters.sol\";\n\n/// Name of contract cannot be empty.\nerror NameIsEmpty();\n/// Base URI of tokens to be minted cannot be empty.\nerror BaseURIIsEmpty();\n\ncontract ERC721UserMintable is ERC721, ERC2981, Ownable {\n    using Address for address;\n    using Counters for Counters.Counter;\n    /// @dev Counter auto-incrementating NFT tokenIds, default: 0\n    Counters.Counter private _tokenIdCounter;\n\n    uint256 private _maxSupply;\n    string private _tokenBaseURI;\n    uint256 private _price;\n    bool private _isRevealed;\n    bool private _saleIsActive;\n\n    event ContractDeployed(address contractAddress_);\n\n    constructor(\n        string memory name_,\n        string memory symbol_,\n        string memory baseURI_,\n        uint256 maxSupply_,\n        uint256 price_\n    ) ERC721(name_, symbol_) {\n        if (!(bytes(name_).length > 1)) {\n            revert NameIsEmpty();\n        }\n        _tokenBaseURI = baseURI_;\n        _maxSupply = maxSupply_;\n        _price = price_;\n\n        emit ContractDeployed(address(this));\n    }\n\n    function mint() public payable {\n        require(_saleIsActive, \"Mint is not active at this time.\");\n        require(\n            msg.value >= _price,\n            \"Need to send at least amount of mint price\"\n        );\n        uint256 tokenId = _tokenIdCounter.current();\n        _tokenIdCounter.increment();\n        _safeMint(_msgSender(), tokenId);\n    }\n\n    function reveal(string memory baseURI_) external onlyOwner {\n        require(!_isRevealed, \"URI has already been revealed\");\n        _tokenBaseURI = baseURI_;\n        _isRevealed = true;\n    }\n\n    function toggleSale() external onlyOwner {\n        _saleIsActive = !_saleIsActive;\n    }\n\n    function setBaseURI(string memory baseURI_) external onlyOwner {\n        if (!(bytes(baseURI_).length > 1)) {\n            revert BaseURIIsEmpty();\n        }\n        _tokenBaseURI = baseURI_;\n    }\n\n    function setPrice(uint256 price_) external onlyOwner {\n        _price = price_;\n    }\n\n    function setRoyalties(address receiver_, uint96 feeNumerator_)\n        external\n        onlyOwner\n    {\n        _setDefaultRoyalty(receiver_, feeNumerator_);\n    }\n\n    function withdraw() public onlyOwner {\n        uint256 balance = address(this).balance;\n        Address.sendValue(payable(_msgSender()), balance);\n    }\n\n    function _baseURI() internal view override(ERC721) returns (string memory) {\n        return _tokenBaseURI;\n    }\n\n    function supportsInterface(bytes4 interfaceId_)\n        public\n        view\n        override(ERC721, ERC2981)\n        returns (bool)\n    {\n        return super.supportsInterface(interfaceId_);\n    }\n}\n",
  "sourcePath": "/Users/fermincarranza/consensys/sdk-contracts/contracts/ERC721UserMintable.sol",
  "compiler": {
    "name": "solc",
    "version": "0.8.13+commit.abaa5c0e.Emscripten.clang"
  },
  "schemaVersion": "3.4.7",
  "updatedAt": "2022-05-31T12:39:17.425Z",
  "devdoc": {
    "kind": "dev",
    "methods": {
      "approve(address,uint256)": {
        "details": "See {IERC721-approve}."
      },
      "balanceOf(address)": {
        "details": "See {IERC721-balanceOf}."
      },
      "getApproved(uint256)": {
        "details": "See {IERC721-getApproved}."
      },
      "isApprovedForAll(address,address)": {
        "details": "See {IERC721-isApprovedForAll}."
      },
      "name()": {
        "details": "See {IERC721Metadata-name}."
      },
      "owner()": {
        "details": "Returns the address of the current owner."
      },
      "ownerOf(uint256)": {
        "details": "See {IERC721-ownerOf}."
      },
      "renounceOwnership()": {
        "details": "Leaves the contract without owner. It will not be possible to call `onlyOwner` functions anymore. Can only be called by the current owner. NOTE: Renouncing ownership will leave the contract without an owner, thereby removing any functionality that is only available to the owner."
      },
      "royaltyInfo(uint256,uint256)": {
        "details": "Returns how much royalty is owed and to whom, based on a sale price that may be denominated in any unit of exchange. The royalty amount is denominated and should be paid in that same unit of exchange."
      },
      "safeTransferFrom(address,address,uint256)": {
        "details": "See {IERC721-safeTransferFrom}."
      },
      "safeTransferFrom(address,address,uint256,bytes)": {
        "details": "See {IERC721-safeTransferFrom}."
      },
      "setApprovalForAll(address,bool)": {
        "details": "See {IERC721-setApprovalForAll}."
      },
      "symbol()": {
        "details": "See {IERC721Metadata-symbol}."
      },
      "tokenURI(uint256)": {
        "details": "See {IERC721Metadata-tokenURI}."
      },
      "transferFrom(address,address,uint256)": {
        "details": "See {IERC721-transferFrom}."
      },
      "transferOwnership(address)": {
        "details": "Transfers ownership of the contract to a new account (`newOwner`). Can only be called by the current owner."
      }
    },
    "stateVariables": {
      "_tokenIdCounter": {
        "details": "Counter auto-incrementating NFT tokenIds, default: 0"
      }
    },
    "version": 1
  },
  "userdoc": {
    "errors": {
      "BaseURIIsEmpty()": [
        {
          "notice": "Base URI of tokens to be minted cannot be empty."
        }
      ],
      "NameIsEmpty()": [
        {
          "notice": "Name of contract cannot be empty."
        }
      ]
    },
    "kind": "user",
    "methods": {},
    "version": 1
  }
}