{
  "contractName": "ERC721Mintable",
  "abi": [
    {
      "inputs": [
        {
          "internalType": "string",
          "name": "name_",
          "type": "string"
        },
        {
          "internalType": "string",
          "name": "symbol_",
          "type": "string"
        },
        {
          "internalType": "string",
          "name": "contractURI_",
          "type": "string"
        }
      ],
      "stateMutability": "nonpayable",
      "type": "constructor"
    },
    {
      "inputs": [],
      "name": "ContractURIIsEmpty",
      "type": "error"
    },
    {
      "inputs": [],
      "name": "NameIsEmpty",
      "type": "error"
    },
    {
      "inputs": [],
      "name": "TokenURIIsEmpty",
      "type": "error"
    },
    {
      "anonymous": false,
      "inputs": [
        {
          "indexed": true,
          "internalType": "address",
          "name": "owner",
          "type": "address"
        },
        {
          "indexed": true,
          "internalType": "address",
          "name": "approved",
          "type": "address"
        },
        {
          "indexed": true,
          "internalType": "uint256",
          "name": "tokenId",
          "type": "uint256"
        }
      ],
      "name": "Approval",
      "type": "event"
    },
    {
      "anonymous": false,
      "inputs": [
        {
          "indexed": true,
          "internalType": "address",
          "name": "owner",
          "type": "address"
        },
        {
          "indexed": true,
          "internalType": "address",
          "name": "operator",
          "type": "address"
        },
        {
          "indexed": false,
          "internalType": "bool",
          "name": "approved",
          "type": "bool"
        }
      ],
      "name": "ApprovalForAll",
      "type": "event"
    },
    {
      "anonymous": false,
      "inputs": [
        {
          "indexed": false,
          "internalType": "address",
          "name": "contractAddress_",
          "type": "address"
        }
      ],
      "name": "ContractDeployed",
      "type": "event"
    },
    {
      "anonymous": false,
      "inputs": [
        {
          "indexed": true,
          "internalType": "address",
          "name": "previousOwner",
          "type": "address"
        },
        {
          "indexed": true,
          "internalType": "address",
          "name": "newOwner",
          "type": "address"
        }
      ],
      "name": "OwnershipTransferred",
      "type": "event"
    },
    {
      "anonymous": false,
      "inputs": [
        {
          "indexed": true,
          "internalType": "bytes32",
          "name": "role",
          "type": "bytes32"
        },
        {
          "indexed": true,
          "internalType": "bytes32",
          "name": "previousAdminRole",
          "type": "bytes32"
        },
        {
          "indexed": true,
          "internalType": "bytes32",
          "name": "newAdminRole",
          "type": "bytes32"
        }
      ],
      "name": "RoleAdminChanged",
      "type": "event"
    },
    {
      "anonymous": false,
      "inputs": [
        {
          "indexed": true,
          "internalType": "bytes32",
          "name": "role",
          "type": "bytes32"
        },
        {
          "indexed": true,
          "internalType": "address",
          "name": "account",
          "type": "address"
        },
        {
          "indexed": true,
          "internalType": "address",
          "name": "sender",
          "type": "address"
        }
      ],
      "name": "RoleGranted",
      "type": "event"
    },
    {
      "anonymous": false,
      "inputs": [
        {
          "indexed": true,
          "internalType": "bytes32",
          "name": "role",
          "type": "bytes32"
        },
        {
          "indexed": true,
          "internalType": "address",
          "name": "account",
          "type": "address"
        },
        {
          "indexed": true,
          "internalType": "address",
          "name": "sender",
          "type": "address"
        }
      ],
      "name": "RoleRevoked",
      "type": "event"
    },
    {
      "anonymous": false,
      "inputs": [
        {
          "indexed": true,
          "internalType": "address",
          "name": "from",
          "type": "address"
        },
        {
          "indexed": true,
          "internalType": "address",
          "name": "to",
          "type": "address"
        },
        {
          "indexed": true,
          "internalType": "uint256",
          "name": "tokenId",
          "type": "uint256"
        }
      ],
      "name": "Transfer",
      "type": "event"
    },
    {
      "inputs": [],
      "name": "DEFAULT_ADMIN_ROLE",
      "outputs": [
        {
          "internalType": "bytes32",
          "name": "",
          "type": "bytes32"
        }
      ],
      "stateMutability": "view",
      "type": "function"
    },
    {
      "inputs": [],
      "name": "MINTER_ROLE",
      "outputs": [
        {
          "internalType": "bytes32",
          "name": "",
          "type": "bytes32"
        }
      ],
      "stateMutability": "view",
      "type": "function"
    },
    {
      "inputs": [
        {
          "internalType": "address",
          "name": "to",
          "type": "address"
        },
        {
          "internalType": "uint256",
          "name": "tokenId",
          "type": "uint256"
        }
      ],
      "name": "approve",
      "outputs": [],
      "stateMutability": "nonpayable",
      "type": "function"
    },
    {
      "inputs": [
        {
          "internalType": "address",
          "name": "owner",
          "type": "address"
        }
      ],
      "name": "balanceOf",
      "outputs": [
        {
          "internalType": "uint256",
          "name": "",
          "type": "uint256"
        }
      ],
      "stateMutability": "view",
      "type": "function"
    },
    {
      "inputs": [
        {
          "internalType": "uint256",
          "name": "tokenId",
          "type": "uint256"
        }
      ],
      "name": "getApproved",
      "outputs": [
        {
          "internalType": "address",
          "name": "",
          "type": "address"
        }
      ],
      "stateMutability": "view",
      "type": "function"
    },
    {
      "inputs": [
        {
          "internalType": "bytes32",
          "name": "role",
          "type": "bytes32"
        }
      ],
      "name": "getRoleAdmin",
      "outputs": [
        {
          "internalType": "bytes32",
          "name": "",
          "type": "bytes32"
        }
      ],
      "stateMutability": "view",
      "type": "function"
    },
    {
      "inputs": [
        {
          "internalType": "bytes32",
          "name": "role",
          "type": "bytes32"
        },
        {
          "internalType": "address",
          "name": "account",
          "type": "address"
        }
      ],
      "name": "grantRole",
      "outputs": [],
      "stateMutability": "nonpayable",
      "type": "function"
    },
    {
      "inputs": [
        {
          "internalType": "bytes32",
          "name": "role",
          "type": "bytes32"
        },
        {
          "internalType": "address",
          "name": "account",
          "type": "address"
        }
      ],
      "name": "hasRole",
      "outputs": [
        {
          "internalType": "bool",
          "name": "",
          "type": "bool"
        }
      ],
      "stateMutability": "view",
      "type": "function"
    },
    {
      "inputs": [
        {
          "internalType": "address",
          "name": "owner",
          "type": "address"
        },
        {
          "internalType": "address",
          "name": "operator",
          "type": "address"
        }
      ],
      "name": "isApprovedForAll",
      "outputs": [
        {
          "internalType": "bool",
          "name": "",
          "type": "bool"
        }
      ],
      "stateMutability": "view",
      "type": "function"
    },
    {
      "inputs": [],
      "name": "name",
      "outputs": [
        {
          "internalType": "string",
          "name": "",
          "type": "string"
        }
      ],
      "stateMutability": "view",
      "type": "function"
    },
    {
      "inputs": [],
      "name": "owner",
      "outputs": [
        {
          "internalType": "address",
          "name": "",
          "type": "address"
        }
      ],
      "stateMutability": "view",
      "type": "function"
    },
    {
      "inputs": [
        {
          "internalType": "uint256",
          "name": "tokenId",
          "type": "uint256"
        }
      ],
      "name": "ownerOf",
      "outputs": [
        {
          "internalType": "address",
          "name": "",
          "type": "address"
        }
      ],
      "stateMutability": "view",
      "type": "function"
    },
    {
      "inputs": [],
      "name": "renounceOwnership",
      "outputs": [],
      "stateMutability": "nonpayable",
      "type": "function"
    },
    {
      "inputs": [
        {
          "internalType": "bytes32",
          "name": "role",
          "type": "bytes32"
        },
        {
          "internalType": "address",
          "name": "account",
          "type": "address"
        }
      ],
      "name": "renounceRole",
      "outputs": [],
      "stateMutability": "nonpayable",
      "type": "function"
    },
    {
      "inputs": [
        {
          "internalType": "bytes32",
          "name": "role",
          "type": "bytes32"
        },
        {
          "internalType": "address",
          "name": "account",
          "type": "address"
        }
      ],
      "name": "revokeRole",
      "outputs": [],
      "stateMutability": "nonpayable",
      "type": "function"
    },
    {
      "inputs": [
        {
          "internalType": "uint256",
          "name": "_tokenId",
          "type": "uint256"
        },
        {
          "internalType": "uint256",
          "name": "_salePrice",
          "type": "uint256"
        }
      ],
      "name": "royaltyInfo",
      "outputs": [
        {
          "internalType": "address",
          "name": "",
          "type": "address"
        },
        {
          "internalType": "uint256",
          "name": "",
          "type": "uint256"
        }
      ],
      "stateMutability": "view",
      "type": "function"
    },
    {
      "inputs": [
        {
          "internalType": "address",
          "name": "from",
          "type": "address"
        },
        {
          "internalType": "address",
          "name": "to",
          "type": "address"
        },
        {
          "internalType": "uint256",
          "name": "tokenId",
          "type": "uint256"
        }
      ],
      "name": "safeTransferFrom",
      "outputs": [],
      "stateMutability": "nonpayable",
      "type": "function"
    },
    {
      "inputs": [
        {
          "internalType": "address",
          "name": "from",
          "type": "address"
        },
        {
          "internalType": "address",
          "name": "to",
          "type": "address"
        },
        {
          "internalType": "uint256",
          "name": "tokenId",
          "type": "uint256"
        },
        {
          "internalType": "bytes",
          "name": "_data",
          "type": "bytes"
        }
      ],
      "name": "safeTransferFrom",
      "outputs": [],
      "stateMutability": "nonpayable",
      "type": "function"
    },
    {
      "inputs": [
        {
          "internalType": "address",
          "name": "operator",
          "type": "address"
        },
        {
          "internalType": "bool",
          "name": "approved",
          "type": "bool"
        }
      ],
      "name": "setApprovalForAll",
      "outputs": [],
      "stateMutability": "nonpayable",
      "type": "function"
    },
    {
      "inputs": [],
      "name": "symbol",
      "outputs": [
        {
          "internalType": "string",
          "name": "",
          "type": "string"
        }
      ],
      "stateMutability": "view",
      "type": "function"
    },
    {
      "inputs": [
        {
          "internalType": "uint256",
          "name": "tokenId",
          "type": "uint256"
        }
      ],
      "name": "tokenURI",
      "outputs": [
        {
          "internalType": "string",
          "name": "",
          "type": "string"
        }
      ],
      "stateMutability": "view",
      "type": "function"
    },
    {
      "inputs": [
        {
          "internalType": "address",
          "name": "from",
          "type": "address"
        },
        {
          "internalType": "address",
          "name": "to",
          "type": "address"
        },
        {
          "internalType": "uint256",
          "name": "tokenId",
          "type": "uint256"
        }
      ],
      "name": "transferFrom",
      "outputs": [],
      "stateMutability": "nonpayable",
      "type": "function"
    },
    {
      "inputs": [
        {
          "internalType": "address",
          "name": "newOwner",
          "type": "address"
        }
      ],
      "name": "transferOwnership",
      "outputs": [],
      "stateMutability": "nonpayable",
      "type": "function"
    },
    {
      "inputs": [
        {
          "internalType": "address",
          "name": "to_",
          "type": "address"
        },
        {
          "internalType": "string",
          "name": "tokenURI_",
          "type": "string"
        }
      ],
      "name": "mintWithTokenURI",
      "outputs": [
        {
          "internalType": "bool",
          "name": "",
          "type": "bool"
        }
      ],
      "stateMutability": "nonpayable",
      "type": "function"
    },
    {
      "inputs": [
        {
          "internalType": "address",
          "name": "receiver_",
          "type": "address"
        },
        {
          "internalType": "uint96",
          "name": "feeNumerator_",
          "type": "uint96"
        }
      ],
      "name": "setRoyalties",
      "outputs": [],
      "stateMutability": "nonpayable",
      "type": "function"
    },
    {
      "inputs": [],
      "name": "contractURI",
      "outputs": [
        {
          "internalType": "string",
          "name": "",
          "type": "string"
        }
      ],
      "stateMutability": "view",
      "type": "function"
    },
    {
      "inputs": [
        {
          "internalType": "string",
          "name": "contractURI_",
          "type": "string"
        }
      ],
      "name": "setContractURI",
      "outputs": [],
      "stateMutability": "nonpayable",
      "type": "function"
    },
    {
      "inputs": [
        {
          "internalType": "bytes4",
          "name": "interfaceId_",
          "type": "bytes4"
        }
      ],
      "name": "supportsInterface",
      "outputs": [
        {
          "internalType": "bool",
          "name": "",
          "type": "bool"
        }
      ],
      "stateMutability": "view",
      "type": "function"
    }
  ],
  "bytecode": "0x60806040523480156200001157600080fd5b5060405162004acf38038062004acf833981810160405281019062000037919062000601565b8282816000908051906020019062000051929190620003b4565b5080600190805190602001906200006a929190620003b4565b5050506200008d620000816200018960201b60201c565b6200019160201b60201c565b6001835111620000c9576040517fbeafaea000000000000000000000000000000000000000000000000000000000815260040160405180910390fd5b80600c9080519060200190620000e1929190620003b4565b50620001066000801b620000fa6200018960201b60201c565b6200025760201b60201c565b620001477f9f2df0fed2c77648de5860a4cc508cd0818c85b8b8a1ab4ceeef8d981c8956a66200013b6200018960201b60201c565b6200025760201b60201c565b7f8ffcdc15a283d706d38281f500270d8b5a656918f555de0913d7455e3e6bc1bf30604051620001789190620006ff565b60405180910390a150505062000780565b600033905090565b6000600a60009054906101000a900473ffffffffffffffffffffffffffffffffffffffff16905081600a60006101000a81548173ffffffffffffffffffffffffffffffffffffffff021916908373ffffffffffffffffffffffffffffffffffffffff1602179055508173ffffffffffffffffffffffffffffffffffffffff168173ffffffffffffffffffffffffffffffffffffffff167f8be0079c531659141344cd1fd0a4f28419497f9722a3daafe3b4186f6b6457e060405160405180910390a35050565b6200026982826200034960201b60201c565b620003455760016009600084815260200190815260200160002060000160008373ffffffffffffffffffffffffffffffffffffffff1673ffffffffffffffffffffffffffffffffffffffff16815260200190815260200160002060006101000a81548160ff021916908315150217905550620002ea6200018960201b60201c565b73ffffffffffffffffffffffffffffffffffffffff168173ffffffffffffffffffffffffffffffffffffffff16837f2f8788117e7eff1d82e926ec794901d17c78024a50270940304540a733656f0d60405160405180910390a45b5050565b60006009600084815260200190815260200160002060000160008373ffffffffffffffffffffffffffffffffffffffff1673ffffffffffffffffffffffffffffffffffffffff16815260200190815260200160002060009054906101000a900460ff16905092915050565b828054620003c2906200074b565b90600052602060002090601f016020900481019282620003e6576000855562000432565b82601f106200040157805160ff191683800117855562000432565b8280016001018555821562000432579182015b828111156200043157825182559160200191906001019062000414565b5b50905062000441919062000445565b5090565b5b808211156200046057600081600090555060010162000446565b5090565b6000604051905090565b600080fd5b600080fd5b600080fd5b600080fd5b6000601f19601f8301169050919050565b7f4e487b7100000000000000000000000000000000000000000000000000000000600052604160045260246000fd5b620004cd8262000482565b810181811067ffffffffffffffff82111715620004ef57620004ee62000493565b5b80604052505050565b60006200050462000464565b9050620005128282620004c2565b919050565b600067ffffffffffffffff82111562000535576200053462000493565b5b620005408262000482565b9050602081019050919050565b60005b838110156200056d57808201518184015260208101905062000550565b838111156200057d576000848401525b50505050565b60006200059a620005948462000517565b620004f8565b905082815260208101848484011115620005b957620005b86200047d565b5b620005c68482856200054d565b509392505050565b600082601f830112620005e657620005e562000478565b5b8151620005f884826020860162000583565b91505092915050565b6000806000606084860312156200061d576200061c6200046e565b5b600084015167ffffffffffffffff8111156200063e576200063d62000473565b5b6200064c86828701620005ce565b935050602084015167ffffffffffffffff81111562000670576200066f62000473565b5b6200067e86828701620005ce565b925050604084015167ffffffffffffffff811115620006a257620006a162000473565b5b620006b086828701620005ce565b9150509250925092565b600073ffffffffffffffffffffffffffffffffffffffff82169050919050565b6000620006e782620006ba565b9050919050565b620006f981620006da565b82525050565b6000602082019050620007166000830184620006ee565b92915050565b7f4e487b7100000000000000000000000000000000000000000000000000000000600052602260045260246000fd5b600060028204905060018216806200076457607f821691505b6020821081036200077a57620007796200071c565b5b50919050565b61433f80620007906000396000f3fe608060405234801561001057600080fd5b50600436106101c45760003560e01c80638da5cb5b116100f9578063c21b471b11610097578063d547741f11610071578063d547741f14610516578063e8a3d48514610532578063e985e9c514610550578063f2fde38b14610580576101c4565b8063c21b471b146104ac578063c87b56dd146104c8578063d5391393146104f8576101c4565b806395d89b41116100d357806395d89b4114610438578063a217fddf14610456578063a22cb46514610474578063b88d4fde14610490576101c4565b80638da5cb5b146103ce57806391d14854146103ec578063938e3d7b1461041c576101c4565b80632f2ff15d1161016657806345c177821161014057806345c17782146103345780636352211e1461036457806370a0823114610394578063715018a6146103c4576101c4565b80632f2ff15d146102e057806336568abe146102fc57806342842e0e14610318576101c4565b8063095ea7b3116101a2578063095ea7b31461024757806323b872dd14610263578063248a9ca31461027f5780632a55205a146102af576101c4565b806301ffc9a7146101c957806306fdde03146101f9578063081812fc14610217575b600080fd5b6101e360048036038101906101de9190612a51565b61059c565b6040516101f09190612a99565b60405180910390f35b6102016105ae565b60405161020e9190612b4d565b60405180910390f35b610231600480360381019061022c9190612ba5565b610640565b60405161023e9190612c13565b60405180910390f35b610261600480360381019061025c9190612c5a565b6106c5565b005b61027d60048036038101906102789190612c9a565b6107dc565b005b61029960048036038101906102949190612d23565b61083c565b6040516102a69190612d5f565b60405180910390f35b6102c960048036038101906102c49190612d7a565b61085c565b6040516102d7929190612dc9565b60405180910390f35b6102fa60048036038101906102f59190612df2565b610a46565b005b61031660048036038101906103119190612df2565b610a67565b005b610332600480360381019061032d9190612c9a565b610aea565b005b61034e60048036038101906103499190612f67565b610b0a565b60405161035b9190612a99565b60405180910390f35b61037e60048036038101906103799190612ba5565b610ba9565b60405161038b9190612c13565b60405180910390f35b6103ae60048036038101906103a99190612fc3565b610c5a565b6040516103bb9190612ff0565b60405180910390f35b6103cc610d11565b005b6103d6610d99565b6040516103e39190612c13565b60405180910390f35b61040660048036038101906104019190612df2565b610dc3565b6040516104139190612a99565b60405180910390f35b6104366004803603810190610431919061300b565b610e2e565b005b610440610e91565b60405161044d9190612b4d565b60405180910390f35b61045e610f23565b60405161046b9190612d5f565b60405180910390f35b61048e60048036038101906104899190613080565b610f2a565b005b6104aa60048036038101906104a59190613161565b610f40565b005b6104c660048036038101906104c19190613228565b610fa2565b005b6104e260048036038101906104dd9190612ba5565b610fbe565b6040516104ef9190612b4d565b60405180910390f35b61050061110f565b60405161050d9190612d5f565b60405180910390f35b610530600480360381019061052b9190612df2565b611133565b005b61053a611154565b6040516105479190612b4d565b60405180910390f35b61056a60048036038101906105659190613268565b6111e6565b6040516105779190612a99565b60405180910390f35b61059a60048036038101906105959190612fc3565b61127a565b005b60006105a782611371565b9050919050565b6060600080546105bd906132d7565b80601f01602080910402602001604051908101604052809291908181526020018280546105e9906132d7565b80156106365780601f1061060b57610100808354040283529160200191610636565b820191906000526020600020905b81548152906001019060200180831161061957829003601f168201915b5050505050905090565b600061064b826113eb565b61068a576040517f08c379a00000000000000000000000000000000000000000000000000000000081526004016106819061337a565b60405180910390fd5b6004600083815260200190815260200160002060009054906101000a900473ffffffffffffffffffffffffffffffffffffffff169050919050565b60006106d082610ba9565b90508073ffffffffffffffffffffffffffffffffffffffff168373ffffffffffffffffffffffffffffffffffffffff1603610740576040517f08c379a00000000000000000000000000000000000000000000000000000000081526004016107379061340c565b60405180910390fd5b8073ffffffffffffffffffffffffffffffffffffffff1661075f611457565b73ffffffffffffffffffffffffffffffffffffffff16148061078e575061078d81610788611457565b6111e6565b5b6107cd576040517f08c379a00000000000000000000000000000000000000000000000000000000081526004016107c49061349e565b60405180910390fd5b6107d7838361145f565b505050565b6107ed6107e7611457565b82611518565b61082c576040517f08c379a000000000000000000000000000000000000000000000000000000000815260040161082390613530565b60405180910390fd5b6108378383836115f6565b505050565b600060096000838152602001908152602001600020600101549050919050565b6000806000600860008681526020019081526020016000206040518060400160405290816000820160009054906101000a900473ffffffffffffffffffffffffffffffffffffffff1673ffffffffffffffffffffffffffffffffffffffff1673ffffffffffffffffffffffffffffffffffffffff1681526020016000820160149054906101000a90046bffffffffffffffffffffffff166bffffffffffffffffffffffff166bffffffffffffffffffffffff16815250509050600073ffffffffffffffffffffffffffffffffffffffff16816000015173ffffffffffffffffffffffffffffffffffffffff16036109f15760076040518060400160405290816000820160009054906101000a900473ffffffffffffffffffffffffffffffffffffffff1673ffffffffffffffffffffffffffffffffffffffff1673ffffffffffffffffffffffffffffffffffffffff1681526020016000820160149054906101000a90046bffffffffffffffffffffffff166bffffffffffffffffffffffff166bffffffffffffffffffffffff168152505090505b60006109fb61185c565b6bffffffffffffffffffffffff1682602001516bffffffffffffffffffffffff1686610a27919061357f565b610a319190613608565b90508160000151819350935050509250929050565b610a4f8261083c565b610a5881611866565b610a62838361187a565b505050565b610a6f611457565b73ffffffffffffffffffffffffffffffffffffffff168173ffffffffffffffffffffffffffffffffffffffff1614610adc576040517f08c379a0000000000000000000000000000000000000000000000000000000008152600401610ad3906136ab565b60405180910390fd5b610ae6828261195b565b5050565b610b0583838360405180602001604052806000815250610f40565b505050565b60007f9f2df0fed2c77648de5860a4cc508cd0818c85b8b8a1ab4ceeef8d981c8956a6610b3681611866565b6001835111610b71576040517ff2364a6b00000000000000000000000000000000000000000000000000000000815260040160405180910390fd5b6000610b7d600b611a3d565b9050610b89600b611a4b565b610b938582611a61565b610b9d8185611c3a565b60019250505092915050565b6000806002600084815260200190815260200160002060009054906101000a900473ffffffffffffffffffffffffffffffffffffffff169050600073ffffffffffffffffffffffffffffffffffffffff168173ffffffffffffffffffffffffffffffffffffffff1603610c51576040517f08c379a0000000000000000000000000000000000000000000000000000000008152600401610c489061373d565b60405180910390fd5b80915050919050565b60008073ffffffffffffffffffffffffffffffffffffffff168273ffffffffffffffffffffffffffffffffffffffff1603610cca576040517f08c379a0000000000000000000000000000000000000000000000000000000008152600401610cc1906137cf565b60405180910390fd5b600360008373ffffffffffffffffffffffffffffffffffffffff1673ffffffffffffffffffffffffffffffffffffffff168152602001908152602001600020549050919050565b610d19611457565b73ffffffffffffffffffffffffffffffffffffffff16610d37610d99565b73ffffffffffffffffffffffffffffffffffffffff1614610d8d576040517f08c379a0000000000000000000000000000000000000000000000000000000008152600401610d849061383b565b60405180910390fd5b610d976000611cae565b565b6000600a60009054906101000a900473ffffffffffffffffffffffffffffffffffffffff16905090565b60006009600084815260200190815260200160002060000160008373ffffffffffffffffffffffffffffffffffffffff1673ffffffffffffffffffffffffffffffffffffffff16815260200190815260200160002060009054906101000a900460ff16905092915050565b6000801b610e3b81611866565b6001825111610e76576040517f542ea76200000000000000000000000000000000000000000000000000000000815260040160405180910390fd5b81600c9080519060200190610e8c929190612942565b505050565b606060018054610ea0906132d7565b80601f0160208091040260200160405190810160405280929190818152602001828054610ecc906132d7565b8015610f195780601f10610eee57610100808354040283529160200191610f19565b820191906000526020600020905b815481529060010190602001808311610efc57829003601f168201915b5050505050905090565b6000801b81565b610f3c610f35611457565b8383611d74565b5050565b610f51610f4b611457565b83611518565b610f90576040517f08c379a0000000000000000000000000000000000000000000000000000000008152600401610f8790613530565b60405180910390fd5b610f9c84848484611ee0565b50505050565b6000801b610faf81611866565b610fb98383611f3c565b505050565b6060610fc9826113eb565b611008576040517f08c379a0000000000000000000000000000000000000000000000000000000008152600401610fff906138cd565b60405180910390fd5b6000600660008481526020019081526020016000208054611028906132d7565b80601f0160208091040260200160405190810160405280929190818152602001828054611054906132d7565b80156110a15780601f10611076576101008083540402835291602001916110a1565b820191906000526020600020905b81548152906001019060200180831161108457829003601f168201915b5050505050905060006110b26120d1565b905060008151036110c757819250505061110a565b6000825111156110fc5780826040516020016110e4929190613929565b6040516020818303038152906040529250505061110a565b611105846120e8565b925050505b919050565b7f9f2df0fed2c77648de5860a4cc508cd0818c85b8b8a1ab4ceeef8d981c8956a681565b61113c8261083c565b61114581611866565b61114f838361195b565b505050565b6060600c8054611163906132d7565b80601f016020809104026020016040519081016040528092919081815260200182805461118f906132d7565b80156111dc5780601f106111b1576101008083540402835291602001916111dc565b820191906000526020600020905b8154815290600101906020018083116111bf57829003601f168201915b5050505050905090565b6000600560008473ffffffffffffffffffffffffffffffffffffffff1673ffffffffffffffffffffffffffffffffffffffff16815260200190815260200160002060008373ffffffffffffffffffffffffffffffffffffffff1673ffffffffffffffffffffffffffffffffffffffff16815260200190815260200160002060009054906101000a900460ff16905092915050565b611282611457565b73ffffffffffffffffffffffffffffffffffffffff166112a0610d99565b73ffffffffffffffffffffffffffffffffffffffff16146112f6576040517f08c379a00000000000000000000000000000000000000000000000000000000081526004016112ed9061383b565b60405180910390fd5b600073ffffffffffffffffffffffffffffffffffffffff168173ffffffffffffffffffffffffffffffffffffffff1603611365576040517f08c379a000000000000000000000000000000000000000000000000000000000815260040161135c906139bf565b60405180910390fd5b61136e81611cae565b50565b60007f7965db0b000000000000000000000000000000000000000000000000000000007bffffffffffffffffffffffffffffffffffffffffffffffffffffffff1916827bffffffffffffffffffffffffffffffffffffffffffffffffffffffff191614806113e457506113e38261218f565b5b9050919050565b60008073ffffffffffffffffffffffffffffffffffffffff166002600084815260200190815260200160002060009054906101000a900473ffffffffffffffffffffffffffffffffffffffff1673ffffffffffffffffffffffffffffffffffffffff1614159050919050565b600033905090565b816004600083815260200190815260200160002060006101000a81548173ffffffffffffffffffffffffffffffffffffffff021916908373ffffffffffffffffffffffffffffffffffffffff160217905550808273ffffffffffffffffffffffffffffffffffffffff166114d283610ba9565b73ffffffffffffffffffffffffffffffffffffffff167f8c5be1e5ebec7d5bd14f71427d1e84f3dd0314c0f7b2291e5b200ac8c7c3b92560405160405180910390a45050565b6000611523826113eb565b611562576040517f08c379a000000000000000000000000000000000000000000000000000000000815260040161155990613a51565b60405180910390fd5b600061156d83610ba9565b90508073ffffffffffffffffffffffffffffffffffffffff168473ffffffffffffffffffffffffffffffffffffffff1614806115af57506115ae81856111e6565b5b806115ed57508373ffffffffffffffffffffffffffffffffffffffff166115d584610640565b73ffffffffffffffffffffffffffffffffffffffff16145b91505092915050565b8273ffffffffffffffffffffffffffffffffffffffff1661161682610ba9565b73ffffffffffffffffffffffffffffffffffffffff161461166c576040517f08c379a000000000000000000000000000000000000000000000000000000000815260040161166390613ae3565b60405180910390fd5b600073ffffffffffffffffffffffffffffffffffffffff168273ffffffffffffffffffffffffffffffffffffffff16036116db576040517f08c379a00000000000000000000000000000000000000000000000000000000081526004016116d290613b75565b60405180910390fd5b6116e6838383612209565b6116f160008261145f565b6001600360008573ffffffffffffffffffffffffffffffffffffffff1673ffffffffffffffffffffffffffffffffffffffff16815260200190815260200160002060008282546117419190613b95565b925050819055506001600360008473ffffffffffffffffffffffffffffffffffffffff1673ffffffffffffffffffffffffffffffffffffffff16815260200190815260200160002060008282546117989190613bc9565b92505081905550816002600083815260200190815260200160002060006101000a81548173ffffffffffffffffffffffffffffffffffffffff021916908373ffffffffffffffffffffffffffffffffffffffff160217905550808273ffffffffffffffffffffffffffffffffffffffff168473ffffffffffffffffffffffffffffffffffffffff167fddf252ad1be2c89b69c2b068fc378daa952ba7f163c4a11628f55a4df523b3ef60405160405180910390a461185783838361220e565b505050565b6000612710905090565b61187781611872611457565b612213565b50565b6118848282610dc3565b6119575760016009600084815260200190815260200160002060000160008373ffffffffffffffffffffffffffffffffffffffff1673ffffffffffffffffffffffffffffffffffffffff16815260200190815260200160002060006101000a81548160ff0219169083151502179055506118fc611457565b73ffffffffffffffffffffffffffffffffffffffff168173ffffffffffffffffffffffffffffffffffffffff16837f2f8788117e7eff1d82e926ec794901d17c78024a50270940304540a733656f0d60405160405180910390a45b5050565b6119658282610dc3565b15611a395760006009600084815260200190815260200160002060000160008373ffffffffffffffffffffffffffffffffffffffff1673ffffffffffffffffffffffffffffffffffffffff16815260200190815260200160002060006101000a81548160ff0219169083151502179055506119de611457565b73ffffffffffffffffffffffffffffffffffffffff168173ffffffffffffffffffffffffffffffffffffffff16837ff6391f5c32d9c69d2a47ea670b442974b53935d1edc7fd64eb21e047a839171b60405160405180910390a45b5050565b600081600001549050919050565b6001816000016000828254019250508190555050565b600073ffffffffffffffffffffffffffffffffffffffff168273ffffffffffffffffffffffffffffffffffffffff1603611ad0576040517f08c379a0000000000000000000000000000000000000000000000000000000008152600401611ac790613c6b565b60405180910390fd5b611ad9816113eb565b15611b19576040517f08c379a0000000000000000000000000000000000000000000000000000000008152600401611b1090613cd7565b60405180910390fd5b611b2560008383612209565b6001600360008473ffffffffffffffffffffffffffffffffffffffff1673ffffffffffffffffffffffffffffffffffffffff1681526020019081526020016000206000828254611b759190613bc9565b92505081905550816002600083815260200190815260200160002060006101000a81548173ffffffffffffffffffffffffffffffffffffffff021916908373ffffffffffffffffffffffffffffffffffffffff160217905550808273ffffffffffffffffffffffffffffffffffffffff16600073ffffffffffffffffffffffffffffffffffffffff167fddf252ad1be2c89b69c2b068fc378daa952ba7f163c4a11628f55a4df523b3ef60405160405180910390a4611c366000838361220e565b5050565b611c43826113eb565b611c82576040517f08c379a0000000000000000000000000000000000000000000000000000000008152600401611c7990613d69565b60405180910390fd5b80600660008481526020019081526020016000209080519060200190611ca9929190612942565b505050565b6000600a60009054906101000a900473ffffffffffffffffffffffffffffffffffffffff16905081600a60006101000a81548173ffffffffffffffffffffffffffffffffffffffff021916908373ffffffffffffffffffffffffffffffffffffffff1602179055508173ffffffffffffffffffffffffffffffffffffffff168173ffffffffffffffffffffffffffffffffffffffff167f8be0079c531659141344cd1fd0a4f28419497f9722a3daafe3b4186f6b6457e060405160405180910390a35050565b8173ffffffffffffffffffffffffffffffffffffffff168373ffffffffffffffffffffffffffffffffffffffff1603611de2576040517f08c379a0000000000000000000000000000000000000000000000000000000008152600401611dd990613dd5565b60405180910390fd5b80600560008573ffffffffffffffffffffffffffffffffffffffff1673ffffffffffffffffffffffffffffffffffffffff16815260200190815260200160002060008473ffffffffffffffffffffffffffffffffffffffff1673ffffffffffffffffffffffffffffffffffffffff16815260200190815260200160002060006101000a81548160ff0219169083151502179055508173ffffffffffffffffffffffffffffffffffffffff168373ffffffffffffffffffffffffffffffffffffffff167f17307eab39ab6107e8899845ad3d59bd9653f200f220920489ca2b5937696c3183604051611ed39190612a99565b60405180910390a3505050565b611eeb8484846115f6565b611ef7848484846122b0565b611f36576040517f08c379a0000000000000000000000000000000000000000000000000000000008152600401611f2d90613e67565b60405180910390fd5b50505050565b611f4461185c565b6bffffffffffffffffffffffff16816bffffffffffffffffffffffff161115611fa2576040517f08c379a0000000000000000000000000000000000000000000000000000000008152600401611f9990613ef9565b60405180910390fd5b600073ffffffffffffffffffffffffffffffffffffffff168273ffffffffffffffffffffffffffffffffffffffff1603612011576040517f08c379a000000000000000000000000000000000000000000000000000000000815260040161200890613f65565b60405180910390fd5b60405180604001604052808373ffffffffffffffffffffffffffffffffffffffff168152602001826bffffffffffffffffffffffff16815250600760008201518160000160006101000a81548173ffffffffffffffffffffffffffffffffffffffff021916908373ffffffffffffffffffffffffffffffffffffffff16021790555060208201518160000160146101000a8154816bffffffffffffffffffffffff02191690836bffffffffffffffffffffffff1602179055509050505050565b606060405180602001604052806000815250905090565b60606120f3826113eb565b612132576040517f08c379a000000000000000000000000000000000000000000000000000000000815260040161212990613ff7565b60405180910390fd5b600061213c6120d1565b9050600081511161215c5760405180602001604052806000815250612187565b8061216684612437565b604051602001612177929190613929565b6040516020818303038152906040525b915050919050565b60007f2a55205a000000000000000000000000000000000000000000000000000000007bffffffffffffffffffffffffffffffffffffffffffffffffffffffff1916827bffffffffffffffffffffffffffffffffffffffffffffffffffffffff19161480612202575061220182612597565b5b9050919050565b505050565b505050565b61221d8282610dc3565b6122ac576122428173ffffffffffffffffffffffffffffffffffffffff166014612679565b6122508360001c6020612679565b6040516020016122619291906140af565b6040516020818303038152906040526040517f08c379a00000000000000000000000000000000000000000000000000000000081526004016122a39190612b4d565b60405180910390fd5b5050565b60006122d18473ffffffffffffffffffffffffffffffffffffffff166128b5565b1561242a578373ffffffffffffffffffffffffffffffffffffffff1663150b7a026122fa611457565b8786866040518563ffffffff1660e01b815260040161231c949392919061413e565b6020604051808303816000875af192505050801561235857506040513d601f19601f82011682018060405250810190612355919061419f565b60015b6123da573d8060008114612388576040519150601f19603f3d011682016040523d82523d6000602084013e61238d565b606091505b5060008151036123d2576040517f08c379a00000000000000000000000000000000000000000000000000000000081526004016123c990613e67565b60405180910390fd5b805181602001fd5b63150b7a0260e01b7bffffffffffffffffffffffffffffffffffffffffffffffffffffffff1916817bffffffffffffffffffffffffffffffffffffffffffffffffffffffff19161491505061242f565b600190505b949350505050565b60606000820361247e576040518060400160405280600181526020017f30000000000000000000000000000000000000000000000000000000000000008152509050612592565b600082905060005b600082146124b0578080612499906141cc565b915050600a826124a99190613608565b9150612486565b60008167ffffffffffffffff8111156124cc576124cb612e3c565b5b6040519080825280601f01601f1916602001820160405280156124fe5781602001600182028036833780820191505090505b5090505b6000851461258b576001826125179190613b95565b9150600a856125269190614214565b60306125329190613bc9565b60f81b81838151811061254857612547614245565b5b60200101907effffffffffffffffffffffffffffffffffffffffffffffffffffffffffffff1916908160001a905350600a856125849190613608565b9450612502565b8093505050505b919050565b60007f80ac58cd000000000000000000000000000000000000000000000000000000007bffffffffffffffffffffffffffffffffffffffffffffffffffffffff1916827bffffffffffffffffffffffffffffffffffffffffffffffffffffffff1916148061266257507f5b5e139f000000000000000000000000000000000000000000000000000000007bffffffffffffffffffffffffffffffffffffffffffffffffffffffff1916827bffffffffffffffffffffffffffffffffffffffffffffffffffffffff1916145b806126725750612671826128d8565b5b9050919050565b60606000600283600261268c919061357f565b6126969190613bc9565b67ffffffffffffffff8111156126af576126ae612e3c565b5b6040519080825280601f01601f1916602001820160405280156126e15781602001600182028036833780820191505090505b5090507f30000000000000000000000000000000000000000000000000000000000000008160008151811061271957612718614245565b5b60200101907effffffffffffffffffffffffffffffffffffffffffffffffffffffffffffff1916908160001a9053507f78000000000000000000000000000000000000000000000000000000000000008160018151811061277d5761277c614245565b5b60200101907effffffffffffffffffffffffffffffffffffffffffffffffffffffffffffff1916908160001a905350600060018460026127bd919061357f565b6127c79190613bc9565b90505b6001811115612867577f3031323334353637383961626364656600000000000000000000000000000000600f86166010811061280957612808614245565b5b1a60f81b8282815181106128205761281f614245565b5b60200101907effffffffffffffffffffffffffffffffffffffffffffffffffffffffffffff1916908160001a905350600485901c94508061286090614274565b90506127ca565b50600084146128ab576040517f08c379a00000000000000000000000000000000000000000000000000000000081526004016128a2906142e9565b60405180910390fd5b8091505092915050565b6000808273ffffffffffffffffffffffffffffffffffffffff163b119050919050565b60007f01ffc9a7000000000000000000000000000000000000000000000000000000007bffffffffffffffffffffffffffffffffffffffffffffffffffffffff1916827bffffffffffffffffffffffffffffffffffffffffffffffffffffffff1916149050919050565b82805461294e906132d7565b90600052602060002090601f01602090048101928261297057600085556129b7565b82601f1061298957805160ff19168380011785556129b7565b828001600101855582156129b7579182015b828111156129b657825182559160200191906001019061299b565b5b5090506129c491906129c8565b5090565b5b808211156129e15760008160009055506001016129c9565b5090565b6000604051905090565b600080fd5b600080fd5b60007fffffffff0000000000000000000000000000000000000000000000000000000082169050919050565b612a2e816129f9565b8114612a3957600080fd5b50565b600081359050612a4b81612a25565b92915050565b600060208284031215612a6757612a666129ef565b5b6000612a7584828501612a3c565b91505092915050565b60008115159050919050565b612a9381612a7e565b82525050565b6000602082019050612aae6000830184612a8a565b92915050565b600081519050919050565b600082825260208201905092915050565b60005b83811015612aee578082015181840152602081019050612ad3565b83811115612afd576000848401525b50505050565b6000601f19601f8301169050919050565b6000612b1f82612ab4565b612b298185612abf565b9350612b39818560208601612ad0565b612b4281612b03565b840191505092915050565b60006020820190508181036000830152612b678184612b14565b905092915050565b6000819050919050565b612b8281612b6f565b8114612b8d57600080fd5b50565b600081359050612b9f81612b79565b92915050565b600060208284031215612bbb57612bba6129ef565b5b6000612bc984828501612b90565b91505092915050565b600073ffffffffffffffffffffffffffffffffffffffff82169050919050565b6000612bfd82612bd2565b9050919050565b612c0d81612bf2565b82525050565b6000602082019050612c286000830184612c04565b92915050565b612c3781612bf2565b8114612c4257600080fd5b50565b600081359050612c5481612c2e565b92915050565b60008060408385031215612c7157612c706129ef565b5b6000612c7f85828601612c45565b9250506020612c9085828601612b90565b9150509250929050565b600080600060608486031215612cb357612cb26129ef565b5b6000612cc186828701612c45565b9350506020612cd286828701612c45565b9250506040612ce386828701612b90565b9150509250925092565b6000819050919050565b612d0081612ced565b8114612d0b57600080fd5b50565b600081359050612d1d81612cf7565b92915050565b600060208284031215612d3957612d386129ef565b5b6000612d4784828501612d0e565b91505092915050565b612d5981612ced565b82525050565b6000602082019050612d746000830184612d50565b92915050565b60008060408385031215612d9157612d906129ef565b5b6000612d9f85828601612b90565b9250506020612db085828601612b90565b9150509250929050565b612dc381612b6f565b82525050565b6000604082019050612dde6000830185612c04565b612deb6020830184612dba565b9392505050565b60008060408385031215612e0957612e086129ef565b5b6000612e1785828601612d0e565b9250506020612e2885828601612c45565b9150509250929050565b600080fd5b600080fd5b7f4e487b7100000000000000000000000000000000000000000000000000000000600052604160045260246000fd5b612e7482612b03565b810181811067ffffffffffffffff82111715612e9357612e92612e3c565b5b80604052505050565b6000612ea66129e5565b9050612eb28282612e6b565b919050565b600067ffffffffffffffff821115612ed257612ed1612e3c565b5b612edb82612b03565b9050602081019050919050565b82818337600083830152505050565b6000612f0a612f0584612eb7565b612e9c565b905082815260208101848484011115612f2657612f25612e37565b5b612f31848285612ee8565b509392505050565b600082601f830112612f4e57612f4d612e32565b5b8135612f5e848260208601612ef7565b91505092915050565b60008060408385031215612f7e57612f7d6129ef565b5b6000612f8c85828601612c45565b925050602083013567ffffffffffffffff811115612fad57612fac6129f4565b5b612fb985828601612f39565b9150509250929050565b600060208284031215612fd957612fd86129ef565b5b6000612fe784828501612c45565b91505092915050565b60006020820190506130056000830184612dba565b92915050565b600060208284031215613021576130206129ef565b5b600082013567ffffffffffffffff81111561303f5761303e6129f4565b5b61304b84828501612f39565b91505092915050565b61305d81612a7e565b811461306857600080fd5b50565b60008135905061307a81613054565b92915050565b60008060408385031215613097576130966129ef565b5b60006130a585828601612c45565b92505060206130b68582860161306b565b9150509250929050565b600067ffffffffffffffff8211156130db576130da612e3c565b5b6130e482612b03565b9050602081019050919050565b60006131046130ff846130c0565b612e9c565b9050828152602081018484840111156131205761311f612e37565b5b61312b848285612ee8565b509392505050565b600082601f83011261314857613147612e32565b5b81356131588482602086016130f1565b91505092915050565b6000806000806080858703121561317b5761317a6129ef565b5b600061318987828801612c45565b945050602061319a87828801612c45565b93505060406131ab87828801612b90565b925050606085013567ffffffffffffffff8111156131cc576131cb6129f4565b5b6131d887828801613133565b91505092959194509250565b60006bffffffffffffffffffffffff82169050919050565b613205816131e4565b811461321057600080fd5b50565b600081359050613222816131fc565b92915050565b6000806040838503121561323f5761323e6129ef565b5b600061324d85828601612c45565b925050602061325e85828601613213565b9150509250929050565b6000806040838503121561327f5761327e6129ef565b5b600061328d85828601612c45565b925050602061329e85828601612c45565b9150509250929050565b7f4e487b7100000000000000000000000000000000000000000000000000000000600052602260045260246000fd5b600060028204905060018216806132ef57607f821691505b602082108103613302576133016132a8565b5b50919050565b7f4552433732313a20617070726f76656420717565727920666f72206e6f6e657860008201527f697374656e7420746f6b656e0000000000000000000000000000000000000000602082015250565b6000613364602c83612abf565b915061336f82613308565b604082019050919050565b6000602082019050818103600083015261339381613357565b9050919050565b7f4552433732313a20617070726f76616c20746f2063757272656e74206f776e6560008201527f7200000000000000000000000000000000000000000000000000000000000000602082015250565b60006133f6602183612abf565b91506134018261339a565b604082019050919050565b60006020820190508181036000830152613425816133e9565b9050919050565b7f4552433732313a20617070726f76652063616c6c6572206973206e6f74206f7760008201527f6e6572206e6f7220617070726f76656420666f7220616c6c0000000000000000602082015250565b6000613488603883612abf565b91506134938261342c565b604082019050919050565b600060208201905081810360008301526134b78161347b565b9050919050565b7f4552433732313a207472616e736665722063616c6c6572206973206e6f74206f60008201527f776e6572206e6f7220617070726f766564000000000000000000000000000000602082015250565b600061351a603183612abf565b9150613525826134be565b604082019050919050565b600060208201905081810360008301526135498161350d565b9050919050565b7f4e487b7100000000000000000000000000000000000000000000000000000000600052601160045260246000fd5b600061358a82612b6f565b915061359583612b6f565b9250817fffffffffffffffffffffffffffffffffffffffffffffffffffffffffffffffff04831182151516156135ce576135cd613550565b5b828202905092915050565b7f4e487b7100000000000000000000000000000000000000000000000000000000600052601260045260246000fd5b600061361382612b6f565b915061361e83612b6f565b92508261362e5761362d6135d9565b5b828204905092915050565b7f416363657373436f6e74726f6c3a2063616e206f6e6c792072656e6f756e636560008201527f20726f6c657320666f722073656c660000000000000000000000000000000000602082015250565b6000613695602f83612abf565b91506136a082613639565b604082019050919050565b600060208201905081810360008301526136c481613688565b9050919050565b7f4552433732313a206f776e657220717565727920666f72206e6f6e657869737460008201527f656e7420746f6b656e0000000000000000000000000000000000000000000000602082015250565b6000613727602983612abf565b9150613732826136cb565b604082019050919050565b600060208201905081810360008301526137568161371a565b9050919050565b7f4552433732313a2062616c616e636520717565727920666f7220746865207a6560008201527f726f206164647265737300000000000000000000000000000000000000000000602082015250565b60006137b9602a83612abf565b91506137c48261375d565b604082019050919050565b600060208201905081810360008301526137e8816137ac565b9050919050565b7f4f776e61626c653a2063616c6c6572206973206e6f7420746865206f776e6572600082015250565b6000613825602083612abf565b9150613830826137ef565b602082019050919050565b6000602082019050818103600083015261385481613818565b9050919050565b7f45524337323155524953746f726167653a2055524920717565727920666f722060008201527f6e6f6e6578697374656e7420746f6b656e000000000000000000000000000000602082015250565b60006138b7603183612abf565b91506138c28261385b565b604082019050919050565b600060208201905081810360008301526138e6816138aa565b9050919050565b600081905092915050565b600061390382612ab4565b61390d81856138ed565b935061391d818560208601612ad0565b80840191505092915050565b600061393582856138f8565b915061394182846138f8565b91508190509392505050565b7f4f776e61626c653a206e6577206f776e657220697320746865207a65726f206160008201527f6464726573730000000000000000000000000000000000000000000000000000602082015250565b60006139a9602683612abf565b91506139b48261394d565b604082019050919050565b600060208201905081810360008301526139d88161399c565b9050919050565b7f4552433732313a206f70657261746f7220717565727920666f72206e6f6e657860008201527f697374656e7420746f6b656e0000000000000000000000000000000000000000602082015250565b6000613a3b602c83612abf565b9150613a46826139df565b604082019050919050565b60006020820190508181036000830152613a6a81613a2e565b9050919050565b7f4552433732313a207472616e736665722066726f6d20696e636f72726563742060008201527f6f776e6572000000000000000000000000000000000000000000000000000000602082015250565b6000613acd602583612abf565b9150613ad882613a71565b604082019050919050565b60006020820190508181036000830152613afc81613ac0565b9050919050565b7f4552433732313a207472616e7366657220746f20746865207a65726f2061646460008201527f7265737300000000000000000000000000000000000000000000000000000000602082015250565b6000613b5f602483612abf565b9150613b6a82613b03565b604082019050919050565b60006020820190508181036000830152613b8e81613b52565b9050919050565b6000613ba082612b6f565b9150613bab83612b6f565b925082821015613bbe57613bbd613550565b5b828203905092915050565b6000613bd482612b6f565b9150613bdf83612b6f565b9250827fffffffffffffffffffffffffffffffffffffffffffffffffffffffffffffffff03821115613c1457613c13613550565b5b828201905092915050565b7f4552433732313a206d696e7420746f20746865207a65726f2061646472657373600082015250565b6000613c55602083612abf565b9150613c6082613c1f565b602082019050919050565b60006020820190508181036000830152613c8481613c48565b9050919050565b7f4552433732313a20746f6b656e20616c7265616479206d696e74656400000000600082015250565b6000613cc1601c83612abf565b9150613ccc82613c8b565b602082019050919050565b60006020820190508181036000830152613cf081613cb4565b9050919050565b7f45524337323155524953746f726167653a2055524920736574206f66206e6f6e60008201527f6578697374656e7420746f6b656e000000000000000000000000000000000000602082015250565b6000613d53602e83612abf565b9150613d5e82613cf7565b604082019050919050565b60006020820190508181036000830152613d8281613d46565b9050919050565b7f4552433732313a20617070726f766520746f2063616c6c657200000000000000600082015250565b6000613dbf601983612abf565b9150613dca82613d89565b602082019050919050565b60006020820190508181036000830152613dee81613db2565b9050919050565b7f4552433732313a207472616e7366657220746f206e6f6e20455243373231526560008201527f63656976657220696d706c656d656e7465720000000000000000000000000000602082015250565b6000613e51603283612abf565b9150613e5c82613df5565b604082019050919050565b60006020820190508181036000830152613e8081613e44565b9050919050565b7f455243323938313a20726f79616c7479206665652077696c6c2065786365656460008201527f2073616c65507269636500000000000000000000000000000000000000000000602082015250565b6000613ee3602a83612abf565b9150613eee82613e87565b604082019050919050565b60006020820190508181036000830152613f1281613ed6565b9050919050565b7f455243323938313a20696e76616c696420726563656976657200000000000000600082015250565b6000613f4f601983612abf565b9150613f5a82613f19565b602082019050919050565b60006020820190508181036000830152613f7e81613f42565b9050919050565b7f4552433732314d657461646174613a2055524920717565727920666f72206e6f60008201527f6e6578697374656e7420746f6b656e0000000000000000000000000000000000602082015250565b6000613fe1602f83612abf565b9150613fec82613f85565b604082019050919050565b6000602082019050818103600083015261401081613fd4565b9050919050565b7f416363657373436f6e74726f6c3a206163636f756e7420000000000000000000600082015250565b600061404d6017836138ed565b915061405882614017565b601782019050919050565b7f206973206d697373696e6720726f6c6520000000000000000000000000000000600082015250565b60006140996011836138ed565b91506140a482614063565b601182019050919050565b60006140ba82614040565b91506140c682856138f8565b91506140d18261408c565b91506140dd82846138f8565b91508190509392505050565b600081519050919050565b600082825260208201905092915050565b6000614110826140e9565b61411a81856140f4565b935061412a818560208601612ad0565b61413381612b03565b840191505092915050565b60006080820190506141536000830187612c04565b6141606020830186612c04565b61416d6040830185612dba565b818103606083015261417f8184614105565b905095945050505050565b60008151905061419981612a25565b92915050565b6000602082840312156141b5576141b46129ef565b5b60006141c38482850161418a565b91505092915050565b60006141d782612b6f565b91507fffffffffffffffffffffffffffffffffffffffffffffffffffffffffffffffff820361420957614208613550565b5b600182019050919050565b600061421f82612b6f565b915061422a83612b6f565b92508261423a576142396135d9565b5b828206905092915050565b7f4e487b7100000000000000000000000000000000000000000000000000000000600052603260045260246000fd5b600061427f82612b6f565b91506000820361429257614291613550565b5b600182039050919050565b7f537472696e67733a20686578206c656e67746820696e73756666696369656e74600082015250565b60006142d3602083612abf565b91506142de8261429d565b602082019050919050565b60006020820190508181036000830152614302816142c6565b905091905056fea2646970667358221220a2ba1bc227a83451cccde502e66c2ce097ac705f50cce000b214e6f7e06f489064736f6c634300080d0033",
  "immutableReferences": {},
  "source": "// SPDX-License-Identifier: MIT\npragma solidity 0.8.13;\n\nimport \"@openzeppelin/contracts/access/AccessControl.sol\";\nimport \"@openzeppelin/contracts/access/Ownable.sol\";\nimport \"@openzeppelin/contracts/token/ERC721/extensions/ERC721URIStorage.sol\";\nimport \"@openzeppelin/contracts/token/common/ERC2981.sol\";\nimport \"@openzeppelin/contracts/utils/Counters.sol\";\n\n/// Name of contract cannot be empty.\nerror NameIsEmpty();\n/// Token URI of token to be minted cannot be empty.\nerror TokenURIIsEmpty();\n/// ContractURI cannot be empty;\nerror ContractURIIsEmpty();\n\ncontract ERC721Mintable is ERC721URIStorage, ERC2981, AccessControl, Ownable {\n    using Counters for Counters.Counter;\n    /// @dev Counter auto-incrementating NFT tokenIds, default: 0\n    Counters.Counter private _tokenIdCounter;\n    string private _contractURI;\n\n    bytes32 public constant MINTER_ROLE = keccak256(\"MINTER_ROLE\");\n\n    event ContractDeployed(address contractAddress_);\n\n    /// @notice The account deploying the contract will have the minter role and will be able to grand other accounts.\n    /// @notice The contract is built with only a name & a symbol as metadata. Each NFT metadata will be given at mint time.\n    constructor(\n        string memory name_,\n        string memory symbol_,\n        string memory contractURI_\n    ) ERC721(name_, symbol_) {\n        if (!(bytes(name_).length > 1)) {\n            revert NameIsEmpty();\n        }\n        _contractURI = contractURI_;\n        _grantRole(DEFAULT_ADMIN_ROLE, _msgSender());\n        _grantRole(MINTER_ROLE, _msgSender());\n\n        emit ContractDeployed(address(this));\n    }\n\n    /// @notice NFT minting with metadata i.e tokenURI\n    /// @notice Each mint will increment the tokenId, starting from 0\n    ///#if_succeeds old(balanceOf(to_)) + 1 == balanceOf(to_);\n    function mintWithTokenURI(address to_, string memory tokenURI_)\n        public\n        onlyRole(MINTER_ROLE)\n        returns (bool)\n    {\n        if (!(bytes(tokenURI_).length > 1)) {\n            revert TokenURIIsEmpty();\n        }\n        uint256 tokenId = _tokenIdCounter.current();\n        _tokenIdCounter.increment();\n        _mint(to_, tokenId);\n        _setTokenURI(tokenId, tokenURI_);\n        return true;\n    }\n\n    ///#if_succeeds let receiver, _ := royaltyInfo(0, 10000) in receiver == receiver_;\n    function setRoyalties(address receiver_, uint96 feeNumerator_)\n        external\n        onlyRole(DEFAULT_ADMIN_ROLE)\n    {\n        _setDefaultRoyalty(receiver_, feeNumerator_);\n    }\n\n    function contractURI() public view returns (string memory) {\n        return _contractURI;\n    }\n\n    ///#if_succeeds (keccak256(abi.encodePacked((_contractURI))) == keccak256(abi.encodePacked((contractURI_))));\n    function setContractURI(string memory contractURI_)\n        public\n        onlyRole(DEFAULT_ADMIN_ROLE)\n    {\n        if (!(bytes(contractURI_).length > 1)) {\n            revert ContractURIIsEmpty();\n        }\n        _contractURI = contractURI_;\n    }\n\n    // Overrides\n\n    function supportsInterface(bytes4 interfaceId_)\n        public\n        view\n        override(ERC721, ERC2981, AccessControl)\n        returns (bool)\n    {\n        return super.supportsInterface(interfaceId_);\n    }\n}\n",
  "sourcePath": "/Users/fermincarranza/consensys/sdk-contracts/contracts/ERC721Mintable.sol",
  "compiler": {
    "name": "solc",
    "version": "0.8.13+commit.abaa5c0e.Emscripten.clang"
  },
  "schemaVersion": "3.4.7",
  "updatedAt": "2022-11-02T11:55:39.234Z",
  "devdoc": {
    "kind": "dev",
    "methods": {
      "approve(address,uint256)": {
        "details": "See {IERC721-approve}."
      },
      "balanceOf(address)": {
        "details": "See {IERC721-balanceOf}."
      },
      "getApproved(uint256)": {
        "details": "See {IERC721-getApproved}."
      },
      "getRoleAdmin(bytes32)": {
        "details": "Returns the admin role that controls `role`. See {grantRole} and {revokeRole}. To change a role's admin, use {_setRoleAdmin}."
      },
      "grantRole(bytes32,address)": {
        "details": "Grants `role` to `account`. If `account` had not been already granted `role`, emits a {RoleGranted} event. Requirements: - the caller must have ``role``'s admin role."
      },
      "hasRole(bytes32,address)": {
        "details": "Returns `true` if `account` has been granted `role`."
      },
      "isApprovedForAll(address,address)": {
        "details": "See {IERC721-isApprovedForAll}."
      },
      "name()": {
        "details": "See {IERC721Metadata-name}."
      },
      "owner()": {
        "details": "Returns the address of the current owner."
      },
      "ownerOf(uint256)": {
        "details": "See {IERC721-ownerOf}."
      },
      "renounceOwnership()": {
        "details": "Leaves the contract without owner. It will not be possible to call `onlyOwner` functions anymore. Can only be called by the current owner. NOTE: Renouncing ownership will leave the contract without an owner, thereby removing any functionality that is only available to the owner."
      },
      "renounceRole(bytes32,address)": {
        "details": "Revokes `role` from the calling account. Roles are often managed via {grantRole} and {revokeRole}: this function's purpose is to provide a mechanism for accounts to lose their privileges if they are compromised (such as when a trusted device is misplaced). If the calling account had been revoked `role`, emits a {RoleRevoked} event. Requirements: - the caller must be `account`."
      },
      "revokeRole(bytes32,address)": {
        "details": "Revokes `role` from `account`. If `account` had been granted `role`, emits a {RoleRevoked} event. Requirements: - the caller must have ``role``'s admin role."
      },
      "royaltyInfo(uint256,uint256)": {
        "details": "Returns how much royalty is owed and to whom, based on a sale price that may be denominated in any unit of exchange. The royalty amount is denominated and should be paid in that same unit of exchange."
      },
      "safeTransferFrom(address,address,uint256)": {
        "details": "See {IERC721-safeTransferFrom}."
      },
      "safeTransferFrom(address,address,uint256,bytes)": {
        "details": "See {IERC721-safeTransferFrom}."
      },
      "setApprovalForAll(address,bool)": {
        "details": "See {IERC721-setApprovalForAll}."
      },
      "symbol()": {
        "details": "See {IERC721Metadata-symbol}."
      },
      "tokenURI(uint256)": {
        "details": "See {IERC721Metadata-tokenURI}."
      },
      "transferFrom(address,address,uint256)": {
        "details": "See {IERC721-transferFrom}."
      },
      "transferOwnership(address)": {
        "details": "Transfers ownership of the contract to a new account (`newOwner`). Can only be called by the current owner."
      }
    },
    "stateVariables": {
      "_tokenIdCounter": {
        "details": "Counter auto-incrementating NFT tokenIds, default: 0"
      }
    },
    "version": 1
  },
  "userdoc": {
    "errors": {
      "ContractURIIsEmpty()": [
        {
          "notice": "ContractURI cannot be empty;"
        }
      ],
      "NameIsEmpty()": [
        {
          "notice": "Name of contract cannot be empty."
        }
      ],
      "TokenURIIsEmpty()": [
        {
          "notice": "Token URI of token to be minted cannot be empty."
        }
      ]
    },
    "kind": "user",
    "methods": {
      "constructor": {
        "notice": "The account deploying the contract will have the minter role and will be able to grand other accounts.The contract is built with only a name & a symbol as metadata. Each NFT metadata will be given at mint time."
      },
      "mintWithTokenURI(address,string)": {
        "notice": "NFT minting with metadata i.e tokenURIEach mint will increment the tokenId, starting from 0 #if_succeeds old(balanceOf(to_)) + 1 == balanceOf(to_);"
      },
      "setContractURI(string)": {
        "notice": "#if_succeeds (keccak256(abi.encodePacked((_contractURI))) == keccak256(abi.encodePacked((contractURI_))));"
      },
      "setRoyalties(address,uint96)": {
        "notice": "#if_succeeds let receiver, _ := royaltyInfo(0, 10000) in receiver == receiver_;"
      }
    },
    "version": 1
  },
  "db": {
    "callBytecode": {
      "id": "0x083d775e8a2ce2b14313288679f7a9064a915a20429b0a6cbb670b165c16fb28"
    },
    "createBytecode": {
      "id": "0xa083f9c1c7b3b4b2316a4b028763afa6cb41e9c6ac75894e80057ad50646a478"
    },
    "contract": {
      "id": "0xe8297fb7301821678913677f38d938e350e687e308f247b3058cc1e902c6b8bb"
    }
  }
}