{
  "contractName": "ERC721UserMintable",
  "abi": [
    {
      "inputs": [
        {
          "internalType": "string",
          "name": "name_",
          "type": "string"
        },
        {
          "internalType": "string",
          "name": "symbol_",
          "type": "string"
        },
        {
          "internalType": "string",
          "name": "baseURI_",
          "type": "string"
        },
        {
          "internalType": "uint256",
          "name": "maxSupply_",
          "type": "uint256"
        },
        {
          "internalType": "uint256",
          "name": "price_",
          "type": "uint256"
        },
        {
          "internalType": "uint8",
          "name": "maxTokenRequest_",
          "type": "uint8"
        }
      ],
      "stateMutability": "nonpayable",
      "type": "constructor"
    },
    {
      "inputs": [],
      "name": "BaseURIIsEmpty",
      "type": "error"
    },
    {
      "inputs": [],
      "name": "InactiveSale",
      "type": "error"
    },
    {
      "inputs": [
        {
          "internalType": "uint256",
          "name": "sent",
          "type": "uint256"
        },
        {
          "internalType": "uint256",
          "name": "required",
          "type": "uint256"
        }
      ],
      "name": "InsufficientFunds",
      "type": "error"
    },
    {
      "inputs": [
        {
          "internalType": "uint256",
          "name": "maxSupply",
          "type": "uint256"
        },
        {
          "internalType": "uint8",
          "name": "maxTokenRequest",
          "type": "uint8"
        }
      ],
      "name": "InvalidMaxSupply",
      "type": "error"
    },
    {
      "inputs": [
        {
          "internalType": "uint256",
          "name": "quantity",
          "type": "uint256"
        },
        {
          "internalType": "uint256",
          "name": "maxSupply",
          "type": "uint256"
        }
      ],
      "name": "MaxSupplyExceeded",
      "type": "error"
    },
    {
      "inputs": [
        {
          "internalType": "uint256",
          "name": "quantity",
          "type": "uint256"
        },
        {
          "internalType": "uint256",
          "name": "maxTokenPurchase",
          "type": "uint256"
        }
      ],
      "name": "MaxTokenRequestExceeded",
      "type": "error"
    },
    {
      "inputs": [],
      "name": "NameIsEmpty",
      "type": "error"
    },
    {
      "anonymous": false,
      "inputs": [
        {
          "indexed": true,
          "internalType": "address",
          "name": "owner",
          "type": "address"
        },
        {
          "indexed": true,
          "internalType": "address",
          "name": "approved",
          "type": "address"
        },
        {
          "indexed": true,
          "internalType": "uint256",
          "name": "tokenId",
          "type": "uint256"
        }
      ],
      "name": "Approval",
      "type": "event"
    },
    {
      "anonymous": false,
      "inputs": [
        {
          "indexed": true,
          "internalType": "address",
          "name": "owner",
          "type": "address"
        },
        {
          "indexed": true,
          "internalType": "address",
          "name": "operator",
          "type": "address"
        },
        {
          "indexed": false,
          "internalType": "bool",
          "name": "approved",
          "type": "bool"
        }
      ],
      "name": "ApprovalForAll",
      "type": "event"
    },
    {
      "anonymous": false,
      "inputs": [
        {
          "indexed": true,
          "internalType": "address",
          "name": "previousOwner",
          "type": "address"
        },
        {
          "indexed": true,
          "internalType": "address",
          "name": "newOwner",
          "type": "address"
        }
      ],
      "name": "OwnershipTransferred",
      "type": "event"
    },
    {
      "anonymous": false,
      "inputs": [
        {
          "indexed": true,
          "internalType": "bytes32",
          "name": "role",
          "type": "bytes32"
        },
        {
          "indexed": true,
          "internalType": "bytes32",
          "name": "previousAdminRole",
          "type": "bytes32"
        },
        {
          "indexed": true,
          "internalType": "bytes32",
          "name": "newAdminRole",
          "type": "bytes32"
        }
      ],
      "name": "RoleAdminChanged",
      "type": "event"
    },
    {
      "anonymous": false,
      "inputs": [
        {
          "indexed": true,
          "internalType": "bytes32",
          "name": "role",
          "type": "bytes32"
        },
        {
          "indexed": true,
          "internalType": "address",
          "name": "account",
          "type": "address"
        },
        {
          "indexed": true,
          "internalType": "address",
          "name": "sender",
          "type": "address"
        }
      ],
      "name": "RoleGranted",
      "type": "event"
    },
    {
      "anonymous": false,
      "inputs": [
        {
          "indexed": true,
          "internalType": "bytes32",
          "name": "role",
          "type": "bytes32"
        },
        {
          "indexed": true,
          "internalType": "address",
          "name": "account",
          "type": "address"
        },
        {
          "indexed": true,
          "internalType": "address",
          "name": "sender",
          "type": "address"
        }
      ],
      "name": "RoleRevoked",
      "type": "event"
    },
    {
      "anonymous": false,
      "inputs": [
        {
          "indexed": true,
          "internalType": "address",
          "name": "from",
          "type": "address"
        },
        {
          "indexed": true,
          "internalType": "address",
          "name": "to",
          "type": "address"
        },
        {
          "indexed": true,
          "internalType": "uint256",
          "name": "tokenId",
          "type": "uint256"
        }
      ],
      "name": "Transfer",
      "type": "event"
    },
    {
      "inputs": [],
      "name": "DEFAULT_ADMIN_ROLE",
      "outputs": [
        {
          "internalType": "bytes32",
          "name": "",
          "type": "bytes32"
        }
      ],
      "stateMutability": "view",
      "type": "function"
    },
    {
      "inputs": [
        {
          "internalType": "address",
          "name": "to",
          "type": "address"
        },
        {
          "internalType": "uint256",
          "name": "tokenId",
          "type": "uint256"
        }
      ],
      "name": "approve",
      "outputs": [],
      "stateMutability": "nonpayable",
      "type": "function"
    },
    {
      "inputs": [
        {
          "internalType": "address",
          "name": "owner",
          "type": "address"
        }
      ],
      "name": "balanceOf",
      "outputs": [
        {
          "internalType": "uint256",
          "name": "",
          "type": "uint256"
        }
      ],
      "stateMutability": "view",
      "type": "function"
    },
    {
      "inputs": [
        {
          "internalType": "uint256",
          "name": "tokenId",
          "type": "uint256"
        }
      ],
      "name": "getApproved",
      "outputs": [
        {
          "internalType": "address",
          "name": "",
          "type": "address"
        }
      ],
      "stateMutability": "view",
      "type": "function"
    },
    {
      "inputs": [
        {
          "internalType": "bytes32",
          "name": "role",
          "type": "bytes32"
        }
      ],
      "name": "getRoleAdmin",
      "outputs": [
        {
          "internalType": "bytes32",
          "name": "",
          "type": "bytes32"
        }
      ],
      "stateMutability": "view",
      "type": "function"
    },
    {
      "inputs": [
        {
          "internalType": "bytes32",
          "name": "role",
          "type": "bytes32"
        },
        {
          "internalType": "address",
          "name": "account",
          "type": "address"
        }
      ],
      "name": "grantRole",
      "outputs": [],
      "stateMutability": "nonpayable",
      "type": "function"
    },
    {
      "inputs": [
        {
          "internalType": "bytes32",
          "name": "role",
          "type": "bytes32"
        },
        {
          "internalType": "address",
          "name": "account",
          "type": "address"
        }
      ],
      "name": "hasRole",
      "outputs": [
        {
          "internalType": "bool",
          "name": "",
          "type": "bool"
        }
      ],
      "stateMutability": "view",
      "type": "function"
    },
    {
      "inputs": [
        {
          "internalType": "address",
          "name": "owner",
          "type": "address"
        },
        {
          "internalType": "address",
          "name": "operator",
          "type": "address"
        }
      ],
      "name": "isApprovedForAll",
      "outputs": [
        {
          "internalType": "bool",
          "name": "",
          "type": "bool"
        }
      ],
      "stateMutability": "view",
      "type": "function"
    },
    {
      "inputs": [],
      "name": "name",
      "outputs": [
        {
          "internalType": "string",
          "name": "",
          "type": "string"
        }
      ],
      "stateMutability": "view",
      "type": "function"
    },
    {
      "inputs": [],
      "name": "owner",
      "outputs": [
        {
          "internalType": "address",
          "name": "",
          "type": "address"
        }
      ],
      "stateMutability": "view",
      "type": "function"
    },
    {
      "inputs": [
        {
          "internalType": "uint256",
          "name": "tokenId",
          "type": "uint256"
        }
      ],
      "name": "ownerOf",
      "outputs": [
        {
          "internalType": "address",
          "name": "",
          "type": "address"
        }
      ],
      "stateMutability": "view",
      "type": "function"
    },
    {
      "inputs": [],
      "name": "renounceOwnership",
      "outputs": [],
      "stateMutability": "nonpayable",
      "type": "function"
    },
    {
      "inputs": [
        {
          "internalType": "bytes32",
          "name": "role",
          "type": "bytes32"
        },
        {
          "internalType": "address",
          "name": "account",
          "type": "address"
        }
      ],
      "name": "renounceRole",
      "outputs": [],
      "stateMutability": "nonpayable",
      "type": "function"
    },
    {
      "inputs": [
        {
          "internalType": "bytes32",
          "name": "role",
          "type": "bytes32"
        },
        {
          "internalType": "address",
          "name": "account",
          "type": "address"
        }
      ],
      "name": "revokeRole",
      "outputs": [],
      "stateMutability": "nonpayable",
      "type": "function"
    },
    {
      "inputs": [
        {
          "internalType": "uint256",
          "name": "_tokenId",
          "type": "uint256"
        },
        {
          "internalType": "uint256",
          "name": "_salePrice",
          "type": "uint256"
        }
      ],
      "name": "royaltyInfo",
      "outputs": [
        {
          "internalType": "address",
          "name": "",
          "type": "address"
        },
        {
          "internalType": "uint256",
          "name": "",
          "type": "uint256"
        }
      ],
      "stateMutability": "view",
      "type": "function"
    },
    {
      "inputs": [
        {
          "internalType": "address",
          "name": "from",
          "type": "address"
        },
        {
          "internalType": "address",
          "name": "to",
          "type": "address"
        },
        {
          "internalType": "uint256",
          "name": "tokenId",
          "type": "uint256"
        }
      ],
      "name": "safeTransferFrom",
      "outputs": [],
      "stateMutability": "nonpayable",
      "type": "function"
    },
    {
      "inputs": [
        {
          "internalType": "address",
          "name": "from",
          "type": "address"
        },
        {
          "internalType": "address",
          "name": "to",
          "type": "address"
        },
        {
          "internalType": "uint256",
          "name": "tokenId",
          "type": "uint256"
        },
        {
          "internalType": "bytes",
          "name": "_data",
          "type": "bytes"
        }
      ],
      "name": "safeTransferFrom",
      "outputs": [],
      "stateMutability": "nonpayable",
      "type": "function"
    },
    {
      "inputs": [
        {
          "internalType": "address",
          "name": "operator",
          "type": "address"
        },
        {
          "internalType": "bool",
          "name": "approved",
          "type": "bool"
        }
      ],
      "name": "setApprovalForAll",
      "outputs": [],
      "stateMutability": "nonpayable",
      "type": "function"
    },
    {
      "inputs": [],
      "name": "symbol",
      "outputs": [
        {
          "internalType": "string",
          "name": "",
          "type": "string"
        }
      ],
      "stateMutability": "view",
      "type": "function"
    },
    {
      "inputs": [
        {
          "internalType": "uint256",
          "name": "tokenId",
          "type": "uint256"
        }
      ],
      "name": "tokenURI",
      "outputs": [
        {
          "internalType": "string",
          "name": "",
          "type": "string"
        }
      ],
      "stateMutability": "view",
      "type": "function"
    },
    {
      "inputs": [
        {
          "internalType": "address",
          "name": "from",
          "type": "address"
        },
        {
          "internalType": "address",
          "name": "to",
          "type": "address"
        },
        {
          "internalType": "uint256",
          "name": "tokenId",
          "type": "uint256"
        }
      ],
      "name": "transferFrom",
      "outputs": [],
      "stateMutability": "nonpayable",
      "type": "function"
    },
    {
      "inputs": [
        {
          "internalType": "address",
          "name": "newOwner",
          "type": "address"
        }
      ],
      "name": "transferOwnership",
      "outputs": [],
      "stateMutability": "nonpayable",
      "type": "function"
    },
    {
      "inputs": [
        {
          "internalType": "uint256",
          "name": "quantity_",
          "type": "uint256"
        }
      ],
      "name": "reserve",
      "outputs": [],
      "stateMutability": "nonpayable",
      "type": "function"
    },
    {
      "inputs": [
        {
          "internalType": "uint256",
          "name": "quantity_",
          "type": "uint256"
        }
      ],
      "name": "mint",
      "outputs": [],
      "stateMutability": "payable",
      "type": "function"
    },
    {
      "inputs": [],
      "name": "contractURI",
      "outputs": [
        {
          "internalType": "string",
          "name": "",
          "type": "string"
        }
      ],
      "stateMutability": "view",
      "type": "function"
    },
    {
      "inputs": [],
      "name": "isSaleActive",
      "outputs": [
        {
          "internalType": "bool",
          "name": "",
          "type": "bool"
        }
      ],
      "stateMutability": "view",
      "type": "function"
    },
    {
      "inputs": [],
      "name": "maxSupply",
      "outputs": [
        {
          "internalType": "uint256",
          "name": "",
          "type": "uint256"
        }
      ],
      "stateMutability": "view",
      "type": "function"
    },
    {
      "inputs": [],
      "name": "maxTokenRequest",
      "outputs": [
        {
          "internalType": "uint8",
          "name": "",
          "type": "uint8"
        }
      ],
      "stateMutability": "view",
      "type": "function"
    },
    {
      "inputs": [],
      "name": "price",
      "outputs": [
        {
          "internalType": "uint256",
          "name": "",
          "type": "uint256"
        }
      ],
      "stateMutability": "view",
      "type": "function"
    },
    {
      "inputs": [
        {
          "internalType": "string",
          "name": "baseURI_",
          "type": "string"
        }
      ],
      "name": "reveal",
      "outputs": [],
      "stateMutability": "nonpayable",
      "type": "function"
    },
    {
      "inputs": [
        {
          "internalType": "string",
          "name": "baseURI_",
          "type": "string"
        }
      ],
      "name": "setBaseURI",
      "outputs": [],
      "stateMutability": "nonpayable",
      "type": "function"
    },
    {
      "inputs": [
        {
          "internalType": "uint8",
          "name": "maxTokenRequest_",
          "type": "uint8"
        }
      ],
      "name": "setMaxTokenRequest",
      "outputs": [],
      "stateMutability": "nonpayable",
      "type": "function"
    },
    {
      "inputs": [
        {
          "internalType": "uint256",
          "name": "price_",
          "type": "uint256"
        }
      ],
      "name": "setPrice",
      "outputs": [],
      "stateMutability": "nonpayable",
      "type": "function"
    },
    {
      "inputs": [
        {
          "internalType": "address",
          "name": "receiver_",
          "type": "address"
        },
        {
          "internalType": "uint96",
          "name": "feeNumerator_",
          "type": "uint96"
        }
      ],
      "name": "setRoyalties",
      "outputs": [],
      "stateMutability": "nonpayable",
      "type": "function"
    },
    {
      "inputs": [],
      "name": "toggleSale",
      "outputs": [],
      "stateMutability": "nonpayable",
      "type": "function"
    },
    {
      "inputs": [],
      "name": "totalSupply",
      "outputs": [
        {
          "internalType": "uint256",
          "name": "",
          "type": "uint256"
        }
      ],
      "stateMutability": "view",
      "type": "function"
    },
    {
      "inputs": [],
      "name": "withdraw",
      "outputs": [],
      "stateMutability": "nonpayable",
      "type": "function"
    },
    {
      "inputs": [
        {
          "internalType": "bytes4",
          "name": "interfaceId_",
          "type": "bytes4"
        }
      ],
      "name": "supportsInterface",
      "outputs": [
        {
          "internalType": "bool",
          "name": "",
          "type": "bool"
        }
      ],
      "stateMutability": "view",
      "type": "function"
    }
  ],
  "bytecode": "0x60a06040523480156200001157600080fd5b506040516200559838038062005598833981810160405281019062000037919062000673565b8585816000908051906020019062000051929190620003ad565b5080600190805190602001906200006a929190620003ad565b5050506200008d620000816200018260201b60201c565b6200018a60201b60201c565b6001600a819055506001865111620000d1576040517fbeafaea000000000000000000000000000000000000000000000000000000000815260040160405180910390fd5b8060ff168310156200011e5782816040517f030e873f000000000000000000000000000000000000000000000000000000008152600401620001159291906200078e565b60405180910390fd5b83600e908051906020019062000136929190620003ad565b50826080818152505080600c60026101000a81548160ff021916908360ff16021790555081600d81905550620001766000801b336200025060201b60201c565b5050505050506200081f565b600033905090565b6000600960009054906101000a900473ffffffffffffffffffffffffffffffffffffffff16905081600960006101000a81548173ffffffffffffffffffffffffffffffffffffffff021916908373ffffffffffffffffffffffffffffffffffffffff1602179055508173ffffffffffffffffffffffffffffffffffffffff168173ffffffffffffffffffffffffffffffffffffffff167f8be0079c531659141344cd1fd0a4f28419497f9722a3daafe3b4186f6b6457e060405160405180910390a35050565b6200026282826200034260201b60201c565b6200033e5760016008600084815260200190815260200160002060000160008373ffffffffffffffffffffffffffffffffffffffff1673ffffffffffffffffffffffffffffffffffffffff16815260200190815260200160002060006101000a81548160ff021916908315150217905550620002e36200018260201b60201c565b73ffffffffffffffffffffffffffffffffffffffff168173ffffffffffffffffffffffffffffffffffffffff16837f2f8788117e7eff1d82e926ec794901d17c78024a50270940304540a733656f0d60405160405180910390a45b5050565b60006008600084815260200190815260200160002060000160008373ffffffffffffffffffffffffffffffffffffffff1673ffffffffffffffffffffffffffffffffffffffff16815260200190815260200160002060009054906101000a900460ff16905092915050565b828054620003bb90620007ea565b90600052602060002090601f016020900481019282620003df57600085556200042b565b82601f10620003fa57805160ff19168380011785556200042b565b828001600101855582156200042b579182015b828111156200042a5782518255916020019190600101906200040d565b5b5090506200043a91906200043e565b5090565b5b80821115620004595760008160009055506001016200043f565b5090565b6000604051905090565b600080fd5b600080fd5b600080fd5b600080fd5b6000601f19601f8301169050919050565b7f4e487b7100000000000000000000000000000000000000000000000000000000600052604160045260246000fd5b620004c6826200047b565b810181811067ffffffffffffffff82111715620004e857620004e76200048c565b5b80604052505050565b6000620004fd6200045d565b90506200050b8282620004bb565b919050565b600067ffffffffffffffff8211156200052e576200052d6200048c565b5b62000539826200047b565b9050602081019050919050565b60005b838110156200056657808201518184015260208101905062000549565b8381111562000576576000848401525b50505050565b6000620005936200058d8462000510565b620004f1565b905082815260208101848484011115620005b257620005b162000476565b5b620005bf84828562000546565b509392505050565b600082601f830112620005df57620005de62000471565b5b8151620005f18482602086016200057c565b91505092915050565b6000819050919050565b6200060f81620005fa565b81146200061b57600080fd5b50565b6000815190506200062f8162000604565b92915050565b600060ff82169050919050565b6200064d8162000635565b81146200065957600080fd5b50565b6000815190506200066d8162000642565b92915050565b60008060008060008060c0878903121562000693576200069262000467565b5b600087015167ffffffffffffffff811115620006b457620006b36200046c565b5b620006c289828a01620005c7565b965050602087015167ffffffffffffffff811115620006e657620006e56200046c565b5b620006f489828a01620005c7565b955050604087015167ffffffffffffffff8111156200071857620007176200046c565b5b6200072689828a01620005c7565b94505060606200073989828a016200061e565b93505060806200074c89828a016200061e565b92505060a06200075f89828a016200065c565b9150509295509295509295565b6200077781620005fa565b82525050565b620007888162000635565b82525050565b6000604082019050620007a560008301856200076c565b620007b460208301846200077d565b9392505050565b7f4e487b7100000000000000000000000000000000000000000000000000000000600052602260045260246000fd5b600060028204905060018216806200080357607f821691505b602082108103620008195762000818620007bb565b5b50919050565b608051614d5d6200083b60003960006118c80152614d5d6000f3fe6080604052600436106102255760003560e01c80637d8966e411610123578063a217fddf116100ab578063d547741f1161006f578063d547741f146107e1578063d5abeb011461080a578063e8a3d48514610835578063e985e9c514610860578063f2fde38b1461089d57610225565b8063a217fddf146106fe578063a22cb46514610729578063b88d4fde14610752578063c21b471b1461077b578063c87b56dd146107a457610225565b806391b7f5ed116100f257806391b7f5ed1461062657806391d148541461064f57806395d89b411461068c578063a035b1fe146106b7578063a0712d68146106e257610225565b80637d8966e414610590578063819b25ba146105a75780638da5cb5b146105d05780638dd94904146105fb57610225565b806336568abe116101b157806355f804b31161017557806355f804b3146104ab578063564566a8146104d45780636352211e146104ff57806370a082311461053c578063715018a61461057957610225565b806336568abe146103f05780633ccfd60b1461041957806342842e0e1461043057806344be295e146104595780634c2612471461048257610225565b806318160ddd116101f857806318160ddd146102f857806323b872dd14610323578063248a9ca31461034c5780632a55205a146103895780632f2ff15d146103c757610225565b806301ffc9a71461022a57806306fdde0314610267578063081812fc14610292578063095ea7b3146102cf575b600080fd5b34801561023657600080fd5b50610251600480360381019061024c91906132b6565b6108c6565b60405161025e91906132fe565b60405180910390f35b34801561027357600080fd5b5061027c6108d8565b60405161028991906133b2565b60405180910390f35b34801561029e57600080fd5b506102b960048036038101906102b4919061340a565b61096a565b6040516102c69190613478565b60405180910390f35b3480156102db57600080fd5b506102f660048036038101906102f191906134bf565b6109ef565b005b34801561030457600080fd5b5061030d610b06565b60405161031a919061350e565b60405180910390f35b34801561032f57600080fd5b5061034a60048036038101906103459190613529565b610b17565b005b34801561035857600080fd5b50610373600480360381019061036e91906135b2565b610b77565b60405161038091906135ee565b60405180910390f35b34801561039557600080fd5b506103b060048036038101906103ab9190613609565b610b97565b6040516103be929190613649565b60405180910390f35b3480156103d357600080fd5b506103ee60048036038101906103e99190613672565b610d81565b005b3480156103fc57600080fd5b5061041760048036038101906104129190613672565b610da2565b005b34801561042557600080fd5b5061042e610e25565b005b34801561043c57600080fd5b5061045760048036038101906104529190613529565b610e45565b005b34801561046557600080fd5b50610480600480360381019061047b91906136eb565b610e65565b005b34801561048e57600080fd5b506104a960048036038101906104a4919061384d565b610e91565b005b3480156104b757600080fd5b506104d260048036038101906104cd919061384d565b610f5f565b005b3480156104e057600080fd5b506104e9610fc2565b6040516104f691906132fe565b60405180910390f35b34801561050b57600080fd5b506105266004803603810190610521919061340a565b610fd9565b6040516105339190613478565b60405180910390f35b34801561054857600080fd5b50610563600480360381019061055e9190613896565b61108a565b604051610570919061350e565b60405180910390f35b34801561058557600080fd5b5061058e611141565b005b34801561059c57600080fd5b506105a56111c9565b005b3480156105b357600080fd5b506105ce60048036038101906105c9919061340a565b611203565b005b3480156105dc57600080fd5b506105e561136a565b6040516105f29190613478565b60405180910390f35b34801561060757600080fd5b50610610611394565b60405161061d91906138d2565b60405180910390f35b34801561063257600080fd5b5061064d6004803603810190610648919061340a565b6113ab565b005b34801561065b57600080fd5b5061067660048036038101906106719190613672565b6113c3565b60405161068391906132fe565b60405180910390f35b34801561069857600080fd5b506106a161142e565b6040516106ae91906133b2565b60405180910390f35b3480156106c357600080fd5b506106cc6114c0565b6040516106d9919061350e565b60405180910390f35b6106fc60048036038101906106f7919061340a565b6114ca565b005b34801561070a57600080fd5b50610713611761565b60405161072091906135ee565b60405180910390f35b34801561073557600080fd5b50610750600480360381019061074b9190613919565b611768565b005b34801561075e57600080fd5b50610779600480360381019061077491906139fa565b61177e565b005b34801561078757600080fd5b506107a2600480360381019061079d9190613ac1565b6117e0565b005b3480156107b057600080fd5b506107cb60048036038101906107c6919061340a565b6117fc565b6040516107d891906133b2565b60405180910390f35b3480156107ed57600080fd5b5061080860048036038101906108039190613672565b6118a3565b005b34801561081657600080fd5b5061081f6118c4565b60405161082c919061350e565b60405180910390f35b34801561084157600080fd5b5061084a6118ec565b60405161085791906133b2565b60405180910390f35b34801561086c57600080fd5b5061088760048036038101906108829190613b01565b61197e565b60405161089491906132fe565b60405180910390f35b3480156108a957600080fd5b506108c460048036038101906108bf9190613896565b611a12565b005b60006108d182611b09565b9050919050565b6060600080546108e790613b70565b80601f016020809104026020016040519081016040528092919081815260200182805461091390613b70565b80156109605780601f1061093557610100808354040283529160200191610960565b820191906000526020600020905b81548152906001019060200180831161094357829003601f168201915b5050505050905090565b600061097582611b83565b6109b4576040517f08c379a00000000000000000000000000000000000000000000000000000000081526004016109ab90613c13565b60405180910390fd5b6004600083815260200190815260200160002060009054906101000a900473ffffffffffffffffffffffffffffffffffffffff169050919050565b60006109fa82610fd9565b90508073ffffffffffffffffffffffffffffffffffffffff168373ffffffffffffffffffffffffffffffffffffffff1603610a6a576040517f08c379a0000000000000000000000000000000000000000000000000000000008152600401610a6190613ca5565b60405180910390fd5b8073ffffffffffffffffffffffffffffffffffffffff16610a89611bef565b73ffffffffffffffffffffffffffffffffffffffff161480610ab85750610ab781610ab2611bef565b61197e565b5b610af7576040517f08c379a0000000000000000000000000000000000000000000000000000000008152600401610aee90613d37565b60405180910390fd5b610b018383611bf7565b505050565b6000610b12600b611cb0565b905090565b610b28610b22611bef565b82611cbe565b610b67576040517f08c379a0000000000000000000000000000000000000000000000000000000008152600401610b5e90613dc9565b60405180910390fd5b610b72838383611d9c565b505050565b600060086000838152602001908152602001600020600101549050919050565b6000806000600760008681526020019081526020016000206040518060400160405290816000820160009054906101000a900473ffffffffffffffffffffffffffffffffffffffff1673ffffffffffffffffffffffffffffffffffffffff1673ffffffffffffffffffffffffffffffffffffffff1681526020016000820160149054906101000a90046bffffffffffffffffffffffff166bffffffffffffffffffffffff166bffffffffffffffffffffffff16815250509050600073ffffffffffffffffffffffffffffffffffffffff16816000015173ffffffffffffffffffffffffffffffffffffffff1603610d2c5760066040518060400160405290816000820160009054906101000a900473ffffffffffffffffffffffffffffffffffffffff1673ffffffffffffffffffffffffffffffffffffffff1673ffffffffffffffffffffffffffffffffffffffff1681526020016000820160149054906101000a90046bffffffffffffffffffffffff166bffffffffffffffffffffffff166bffffffffffffffffffffffff168152505090505b6000610d36612002565b6bffffffffffffffffffffffff1682602001516bffffffffffffffffffffffff1686610d629190613e18565b610d6c9190613ea1565b90508160000151819350935050509250929050565b610d8a82610b77565b610d938161200c565b610d9d8383612020565b505050565b610daa611bef565b73ffffffffffffffffffffffffffffffffffffffff168173ffffffffffffffffffffffffffffffffffffffff1614610e17576040517f08c379a0000000000000000000000000000000000000000000000000000000008152600401610e0e90613f44565b60405180910390fd5b610e218282612101565b5050565b6000801b610e328161200c565b6000479050610e4133826121e3565b5050565b610e608383836040518060200160405280600081525061177e565b505050565b6000801b610e728161200c565b81600c60026101000a81548160ff021916908360ff1602179055505050565b6000801b610e9e8161200c565b600c60009054906101000a900460ff1615610eee576040517f08c379a0000000000000000000000000000000000000000000000000000000008152600401610ee590613fb0565b60405180910390fd5b6001825111610f29576040517f51a4769e00000000000000000000000000000000000000000000000000000000815260040160405180910390fd5b81600e9080519060200190610f3f9291906131a7565b506001600c60006101000a81548160ff0219169083151502179055505050565b6000801b610f6c8161200c565b6001825111610fa7576040517f51a4769e00000000000000000000000000000000000000000000000000000000815260040160405180910390fd5b81600e9080519060200190610fbd9291906131a7565b505050565b6000600c60019054906101000a900460ff16905090565b6000806002600084815260200190815260200160002060009054906101000a900473ffffffffffffffffffffffffffffffffffffffff169050600073ffffffffffffffffffffffffffffffffffffffff168173ffffffffffffffffffffffffffffffffffffffff1603611081576040517f08c379a000000000000000000000000000000000000000000000000000000000815260040161107890614042565b60405180910390fd5b80915050919050565b60008073ffffffffffffffffffffffffffffffffffffffff168273ffffffffffffffffffffffffffffffffffffffff16036110fa576040517f08c379a00000000000000000000000000000000000000000000000000000000081526004016110f1906140d4565b60405180910390fd5b600360008373ffffffffffffffffffffffffffffffffffffffff1673ffffffffffffffffffffffffffffffffffffffff168152602001908152602001600020549050919050565b611149611bef565b73ffffffffffffffffffffffffffffffffffffffff1661116761136a565b73ffffffffffffffffffffffffffffffffffffffff16146111bd576040517f08c379a00000000000000000000000000000000000000000000000000000000081526004016111b490614140565b60405180910390fd5b6111c760006122d7565b565b6000801b6111d68161200c565b600c60019054906101000a900460ff1615600c60016101000a81548160ff02191690831515021790555050565b6000801b6112108161200c565b6002600a5403611255576040517f08c379a000000000000000000000000000000000000000000000000000000000815260040161124c906141ac565b60405180910390fd5b6002600a81905550611265611394565b60ff168211156112b55781611278611394565b6040517f6f4d333f0000000000000000000000000000000000000000000000000000000081526004016112ac929190614207565b60405180910390fd5b6112bd6118c4565b826112c6610b06565b6112d09190614230565b111561131c57816112df6118c4565b6040517fea058246000000000000000000000000000000000000000000000000000000008152600401611313929190614286565b60405180910390fd5b60005b8281101561135d576000611333600b611cb0565b905061133f600b61239d565b61134933826123b3565b508080611355906142af565b91505061131f565b506001600a819055505050565b6000600960009054906101000a900473ffffffffffffffffffffffffffffffffffffffff16905090565b6000600c60029054906101000a900460ff16905090565b6000801b6113b88161200c565b81600d819055505050565b60006008600084815260200190815260200160002060000160008373ffffffffffffffffffffffffffffffffffffffff1673ffffffffffffffffffffffffffffffffffffffff16815260200190815260200160002060009054906101000a900460ff16905092915050565b60606001805461143d90613b70565b80601f016020809104026020016040519081016040528092919081815260200182805461146990613b70565b80156114b65780601f1061148b576101008083540402835291602001916114b6565b820191906000526020600020905b81548152906001019060200180831161149957829003601f168201915b5050505050905090565b6000600d54905090565b6002600a540361150f576040517f08c379a0000000000000000000000000000000000000000000000000000000008152600401611506906141ac565b60405180910390fd5b6002600a81905550600c60019054906101000a900460ff1661155d576040517f84b3602400000000000000000000000000000000000000000000000000000000815260040160405180910390fd5b611565611394565b60ff168111156115b55780611578611394565b6040517f6f4d333f0000000000000000000000000000000000000000000000000000000081526004016115ac929190614207565b60405180910390fd5b6115bd6118c4565b816115c6610b06565b6115d09190614230565b111561161c57806115df6118c4565b6040517fea058246000000000000000000000000000000000000000000000000000000008152600401611613929190614286565b60405180910390fd5b6000816116276114c0565b6116319190613e18565b90508034101561168c5734826116456114c0565b61164f9190613e18565b6040517f03eb8b54000000000000000000000000000000000000000000000000000000008152600401611683929190614286565b60405180910390fd5b60005b828110156116cd5760006116a3600b611cb0565b90506116af600b61239d565b6116b933826123b3565b5080806116c5906142af565b91505061168f565b508034111561175557600081346116e491906142f7565b905060003373ffffffffffffffffffffffffffffffffffffffff168260405161170c9061435c565b60006040518083038185875af1925050503d8060008114611749576040519150601f19603f3d011682016040523d82523d6000602084013e61174e565b606091505b5050905050505b506001600a8190555050565b6000801b81565b61177a611773611bef565b83836123d1565b5050565b61178f611789611bef565b83611cbe565b6117ce576040517f08c379a00000000000000000000000000000000000000000000000000000000081526004016117c590613dc9565b60405180910390fd5b6117da8484848461253d565b50505050565b6000801b6117ed8161200c565b6117f78383612599565b505050565b606061180782611b83565b611846576040517f08c379a000000000000000000000000000000000000000000000000000000000815260040161183d906143e3565b60405180910390fd5b600061185061272e565b90506000815111611870576040518060200160405280600081525061189b565b8061187a846127c0565b60405160200161188b92919061443f565b6040516020818303038152906040525b915050919050565b6118ac82610b77565b6118b58161200c565b6118bf8383612101565b505050565b60007f0000000000000000000000000000000000000000000000000000000000000000905090565b6060600e80546118fb90613b70565b80601f016020809104026020016040519081016040528092919081815260200182805461192790613b70565b80156119745780601f1061194957610100808354040283529160200191611974565b820191906000526020600020905b81548152906001019060200180831161195757829003601f168201915b5050505050905090565b6000600560008473ffffffffffffffffffffffffffffffffffffffff1673ffffffffffffffffffffffffffffffffffffffff16815260200190815260200160002060008373ffffffffffffffffffffffffffffffffffffffff1673ffffffffffffffffffffffffffffffffffffffff16815260200190815260200160002060009054906101000a900460ff16905092915050565b611a1a611bef565b73ffffffffffffffffffffffffffffffffffffffff16611a3861136a565b73ffffffffffffffffffffffffffffffffffffffff1614611a8e576040517f08c379a0000000000000000000000000000000000000000000000000000000008152600401611a8590614140565b60405180910390fd5b600073ffffffffffffffffffffffffffffffffffffffff168173ffffffffffffffffffffffffffffffffffffffff1603611afd576040517f08c379a0000000000000000000000000000000000000000000000000000000008152600401611af4906144d5565b60405180910390fd5b611b06816122d7565b50565b60007f7965db0b000000000000000000000000000000000000000000000000000000007bffffffffffffffffffffffffffffffffffffffffffffffffffffffff1916827bffffffffffffffffffffffffffffffffffffffffffffffffffffffff19161480611b7c5750611b7b82612920565b5b9050919050565b60008073ffffffffffffffffffffffffffffffffffffffff166002600084815260200190815260200160002060009054906101000a900473ffffffffffffffffffffffffffffffffffffffff1673ffffffffffffffffffffffffffffffffffffffff1614159050919050565b600033905090565b816004600083815260200190815260200160002060006101000a81548173ffffffffffffffffffffffffffffffffffffffff021916908373ffffffffffffffffffffffffffffffffffffffff160217905550808273ffffffffffffffffffffffffffffffffffffffff16611c6a83610fd9565b73ffffffffffffffffffffffffffffffffffffffff167f8c5be1e5ebec7d5bd14f71427d1e84f3dd0314c0f7b2291e5b200ac8c7c3b92560405160405180910390a45050565b600081600001549050919050565b6000611cc982611b83565b611d08576040517f08c379a0000000000000000000000000000000000000000000000000000000008152600401611cff90614567565b60405180910390fd5b6000611d1383610fd9565b90508073ffffffffffffffffffffffffffffffffffffffff168473ffffffffffffffffffffffffffffffffffffffff161480611d555750611d54818561197e565b5b80611d9357508373ffffffffffffffffffffffffffffffffffffffff16611d7b8461096a565b73ffffffffffffffffffffffffffffffffffffffff16145b91505092915050565b8273ffffffffffffffffffffffffffffffffffffffff16611dbc82610fd9565b73ffffffffffffffffffffffffffffffffffffffff1614611e12576040517f08c379a0000000000000000000000000000000000000000000000000000000008152600401611e09906145f9565b60405180910390fd5b600073ffffffffffffffffffffffffffffffffffffffff168273ffffffffffffffffffffffffffffffffffffffff1603611e81576040517f08c379a0000000000000000000000000000000000000000000000000000000008152600401611e789061468b565b60405180910390fd5b611e8c83838361299a565b611e97600082611bf7565b6001600360008573ffffffffffffffffffffffffffffffffffffffff1673ffffffffffffffffffffffffffffffffffffffff1681526020019081526020016000206000828254611ee791906142f7565b925050819055506001600360008473ffffffffffffffffffffffffffffffffffffffff1673ffffffffffffffffffffffffffffffffffffffff1681526020019081526020016000206000828254611f3e9190614230565b92505081905550816002600083815260200190815260200160002060006101000a81548173ffffffffffffffffffffffffffffffffffffffff021916908373ffffffffffffffffffffffffffffffffffffffff160217905550808273ffffffffffffffffffffffffffffffffffffffff168473ffffffffffffffffffffffffffffffffffffffff167fddf252ad1be2c89b69c2b068fc378daa952ba7f163c4a11628f55a4df523b3ef60405160405180910390a4611ffd83838361299f565b505050565b6000612710905090565b61201d81612018611bef565b6129a4565b50565b61202a82826113c3565b6120fd5760016008600084815260200190815260200160002060000160008373ffffffffffffffffffffffffffffffffffffffff1673ffffffffffffffffffffffffffffffffffffffff16815260200190815260200160002060006101000a81548160ff0219169083151502179055506120a2611bef565b73ffffffffffffffffffffffffffffffffffffffff168173ffffffffffffffffffffffffffffffffffffffff16837f2f8788117e7eff1d82e926ec794901d17c78024a50270940304540a733656f0d60405160405180910390a45b5050565b61210b82826113c3565b156121df5760006008600084815260200190815260200160002060000160008373ffffffffffffffffffffffffffffffffffffffff1673ffffffffffffffffffffffffffffffffffffffff16815260200190815260200160002060006101000a81548160ff021916908315150217905550612184611bef565b73ffffffffffffffffffffffffffffffffffffffff168173ffffffffffffffffffffffffffffffffffffffff16837ff6391f5c32d9c69d2a47ea670b442974b53935d1edc7fd64eb21e047a839171b60405160405180910390a45b5050565b80471015612226576040517f08c379a000000000000000000000000000000000000000000000000000000000815260040161221d906146f7565b60405180910390fd5b60008273ffffffffffffffffffffffffffffffffffffffff168260405161224c9061435c565b60006040518083038185875af1925050503d8060008114612289576040519150601f19603f3d011682016040523d82523d6000602084013e61228e565b606091505b50509050806122d2576040517f08c379a00000000000000000000000000000000000000000000000000000000081526004016122c990614789565b60405180910390fd5b505050565b6000600960009054906101000a900473ffffffffffffffffffffffffffffffffffffffff16905081600960006101000a81548173ffffffffffffffffffffffffffffffffffffffff021916908373ffffffffffffffffffffffffffffffffffffffff1602179055508173ffffffffffffffffffffffffffffffffffffffff168173ffffffffffffffffffffffffffffffffffffffff167f8be0079c531659141344cd1fd0a4f28419497f9722a3daafe3b4186f6b6457e060405160405180910390a35050565b6001816000016000828254019250508190555050565b6123cd828260405180602001604052806000815250612a41565b5050565b8173ffffffffffffffffffffffffffffffffffffffff168373ffffffffffffffffffffffffffffffffffffffff160361243f576040517f08c379a0000000000000000000000000000000000000000000000000000000008152600401612436906147f5565b60405180910390fd5b80600560008573ffffffffffffffffffffffffffffffffffffffff1673ffffffffffffffffffffffffffffffffffffffff16815260200190815260200160002060008473ffffffffffffffffffffffffffffffffffffffff1673ffffffffffffffffffffffffffffffffffffffff16815260200190815260200160002060006101000a81548160ff0219169083151502179055508173ffffffffffffffffffffffffffffffffffffffff168373ffffffffffffffffffffffffffffffffffffffff167f17307eab39ab6107e8899845ad3d59bd9653f200f220920489ca2b5937696c318360405161253091906132fe565b60405180910390a3505050565b612548848484611d9c565b61255484848484612a9c565b612593576040517f08c379a000000000000000000000000000000000000000000000000000000000815260040161258a90614887565b60405180910390fd5b50505050565b6125a1612002565b6bffffffffffffffffffffffff16816bffffffffffffffffffffffff1611156125ff576040517f08c379a00000000000000000000000000000000000000000000000000000000081526004016125f690614919565b60405180910390fd5b600073ffffffffffffffffffffffffffffffffffffffff168273ffffffffffffffffffffffffffffffffffffffff160361266e576040517f08c379a000000000000000000000000000000000000000000000000000000000815260040161266590614985565b60405180910390fd5b60405180604001604052808373ffffffffffffffffffffffffffffffffffffffff168152602001826bffffffffffffffffffffffff16815250600660008201518160000160006101000a81548173ffffffffffffffffffffffffffffffffffffffff021916908373ffffffffffffffffffffffffffffffffffffffff16021790555060208201518160000160146101000a8154816bffffffffffffffffffffffff02191690836bffffffffffffffffffffffff1602179055509050505050565b6060600e805461273d90613b70565b80601f016020809104026020016040519081016040528092919081815260200182805461276990613b70565b80156127b65780601f1061278b576101008083540402835291602001916127b6565b820191906000526020600020905b81548152906001019060200180831161279957829003601f168201915b5050505050905090565b606060008203612807576040518060400160405280600181526020017f3000000000000000000000000000000000000000000000000000000000000000815250905061291b565b600082905060005b60008214612839578080612822906142af565b915050600a826128329190613ea1565b915061280f565b60008167ffffffffffffffff81111561285557612854613722565b5b6040519080825280601f01601f1916602001820160405280156128875781602001600182028036833780820191505090505b5090505b60008514612914576001826128a091906142f7565b9150600a856128af91906149a5565b60306128bb9190614230565b60f81b8183815181106128d1576128d06149d6565b5b60200101907effffffffffffffffffffffffffffffffffffffffffffffffffffffffffffff1916908160001a905350600a8561290d9190613ea1565b945061288b565b8093505050505b919050565b60007f2a55205a000000000000000000000000000000000000000000000000000000007bffffffffffffffffffffffffffffffffffffffffffffffffffffffff1916827bffffffffffffffffffffffffffffffffffffffffffffffffffffffff19161480612993575061299282612c23565b5b9050919050565b505050565b505050565b6129ae82826113c3565b612a3d576129d38173ffffffffffffffffffffffffffffffffffffffff166014612d05565b6129e18360001c6020612d05565b6040516020016129f2929190614a9d565b6040516020818303038152906040526040517f08c379a0000000000000000000000000000000000000000000000000000000008152600401612a3491906133b2565b60405180910390fd5b5050565b612a4b8383612f41565b612a586000848484612a9c565b612a97576040517f08c379a0000000000000000000000000000000000000000000000000000000008152600401612a8e90614887565b60405180910390fd5b505050565b6000612abd8473ffffffffffffffffffffffffffffffffffffffff1661311a565b15612c16578373ffffffffffffffffffffffffffffffffffffffff1663150b7a02612ae6611bef565b8786866040518563ffffffff1660e01b8152600401612b089493929190614b2c565b6020604051808303816000875af1925050508015612b4457506040513d601f19601f82011682018060405250810190612b419190614b8d565b60015b612bc6573d8060008114612b74576040519150601f19603f3d011682016040523d82523d6000602084013e612b79565b606091505b506000815103612bbe576040517f08c379a0000000000000000000000000000000000000000000000000000000008152600401612bb590614887565b60405180910390fd5b805181602001fd5b63150b7a0260e01b7bffffffffffffffffffffffffffffffffffffffffffffffffffffffff1916817bffffffffffffffffffffffffffffffffffffffffffffffffffffffff191614915050612c1b565b600190505b949350505050565b60007f80ac58cd000000000000000000000000000000000000000000000000000000007bffffffffffffffffffffffffffffffffffffffffffffffffffffffff1916827bffffffffffffffffffffffffffffffffffffffffffffffffffffffff19161480612cee57507f5b5e139f000000000000000000000000000000000000000000000000000000007bffffffffffffffffffffffffffffffffffffffffffffffffffffffff1916827bffffffffffffffffffffffffffffffffffffffffffffffffffffffff1916145b80612cfe5750612cfd8261313d565b5b9050919050565b606060006002836002612d189190613e18565b612d229190614230565b67ffffffffffffffff811115612d3b57612d3a613722565b5b6040519080825280601f01601f191660200182016040528015612d6d5781602001600182028036833780820191505090505b5090507f300000000000000000000000000000000000000000000000000000000000000081600081518110612da557612da46149d6565b5b60200101907effffffffffffffffffffffffffffffffffffffffffffffffffffffffffffff1916908160001a9053507f780000000000000000000000000000000000000000000000000000000000000081600181518110612e0957612e086149d6565b5b60200101907effffffffffffffffffffffffffffffffffffffffffffffffffffffffffffff1916908160001a90535060006001846002612e499190613e18565b612e539190614230565b90505b6001811115612ef3577f3031323334353637383961626364656600000000000000000000000000000000600f861660108110612e9557612e946149d6565b5b1a60f81b828281518110612eac57612eab6149d6565b5b60200101907effffffffffffffffffffffffffffffffffffffffffffffffffffffffffffff1916908160001a905350600485901c945080612eec90614bba565b9050612e56565b5060008414612f37576040517f08c379a0000000000000000000000000000000000000000000000000000000008152600401612f2e90614c2f565b60405180910390fd5b8091505092915050565b600073ffffffffffffffffffffffffffffffffffffffff168273ffffffffffffffffffffffffffffffffffffffff1603612fb0576040517f08c379a0000000000000000000000000000000000000000000000000000000008152600401612fa790614c9b565b60405180910390fd5b612fb981611b83565b15612ff9576040517f08c379a0000000000000000000000000000000000000000000000000000000008152600401612ff090614d07565b60405180910390fd5b6130056000838361299a565b6001600360008473ffffffffffffffffffffffffffffffffffffffff1673ffffffffffffffffffffffffffffffffffffffff16815260200190815260200160002060008282546130559190614230565b92505081905550816002600083815260200190815260200160002060006101000a81548173ffffffffffffffffffffffffffffffffffffffff021916908373ffffffffffffffffffffffffffffffffffffffff160217905550808273ffffffffffffffffffffffffffffffffffffffff16600073ffffffffffffffffffffffffffffffffffffffff167fddf252ad1be2c89b69c2b068fc378daa952ba7f163c4a11628f55a4df523b3ef60405160405180910390a46131166000838361299f565b5050565b6000808273ffffffffffffffffffffffffffffffffffffffff163b119050919050565b60007f01ffc9a7000000000000000000000000000000000000000000000000000000007bffffffffffffffffffffffffffffffffffffffffffffffffffffffff1916827bffffffffffffffffffffffffffffffffffffffffffffffffffffffff1916149050919050565b8280546131b390613b70565b90600052602060002090601f0160209004810192826131d5576000855561321c565b82601f106131ee57805160ff191683800117855561321c565b8280016001018555821561321c579182015b8281111561321b578251825591602001919060010190613200565b5b509050613229919061322d565b5090565b5b8082111561324657600081600090555060010161322e565b5090565b6000604051905090565b600080fd5b600080fd5b60007fffffffff0000000000000000000000000000000000000000000000000000000082169050919050565b6132938161325e565b811461329e57600080fd5b50565b6000813590506132b08161328a565b92915050565b6000602082840312156132cc576132cb613254565b5b60006132da848285016132a1565b91505092915050565b60008115159050919050565b6132f8816132e3565b82525050565b600060208201905061331360008301846132ef565b92915050565b600081519050919050565b600082825260208201905092915050565b60005b83811015613353578082015181840152602081019050613338565b83811115613362576000848401525b50505050565b6000601f19601f8301169050919050565b600061338482613319565b61338e8185613324565b935061339e818560208601613335565b6133a781613368565b840191505092915050565b600060208201905081810360008301526133cc8184613379565b905092915050565b6000819050919050565b6133e7816133d4565b81146133f257600080fd5b50565b600081359050613404816133de565b92915050565b6000602082840312156134205761341f613254565b5b600061342e848285016133f5565b91505092915050565b600073ffffffffffffffffffffffffffffffffffffffff82169050919050565b600061346282613437565b9050919050565b61347281613457565b82525050565b600060208201905061348d6000830184613469565b92915050565b61349c81613457565b81146134a757600080fd5b50565b6000813590506134b981613493565b92915050565b600080604083850312156134d6576134d5613254565b5b60006134e4858286016134aa565b92505060206134f5858286016133f5565b9150509250929050565b613508816133d4565b82525050565b600060208201905061352360008301846134ff565b92915050565b60008060006060848603121561354257613541613254565b5b6000613550868287016134aa565b9350506020613561868287016134aa565b9250506040613572868287016133f5565b9150509250925092565b6000819050919050565b61358f8161357c565b811461359a57600080fd5b50565b6000813590506135ac81613586565b92915050565b6000602082840312156135c8576135c7613254565b5b60006135d68482850161359d565b91505092915050565b6135e88161357c565b82525050565b600060208201905061360360008301846135df565b92915050565b600080604083850312156136205761361f613254565b5b600061362e858286016133f5565b925050602061363f858286016133f5565b9150509250929050565b600060408201905061365e6000830185613469565b61366b60208301846134ff565b9392505050565b6000806040838503121561368957613688613254565b5b60006136978582860161359d565b92505060206136a8858286016134aa565b9150509250929050565b600060ff82169050919050565b6136c8816136b2565b81146136d357600080fd5b50565b6000813590506136e5816136bf565b92915050565b60006020828403121561370157613700613254565b5b600061370f848285016136d6565b91505092915050565b600080fd5b600080fd5b7f4e487b7100000000000000000000000000000000000000000000000000000000600052604160045260246000fd5b61375a82613368565b810181811067ffffffffffffffff8211171561377957613778613722565b5b80604052505050565b600061378c61324a565b90506137988282613751565b919050565b600067ffffffffffffffff8211156137b8576137b7613722565b5b6137c182613368565b9050602081019050919050565b82818337600083830152505050565b60006137f06137eb8461379d565b613782565b90508281526020810184848401111561380c5761380b61371d565b5b6138178482856137ce565b509392505050565b600082601f83011261383457613833613718565b5b81356138448482602086016137dd565b91505092915050565b60006020828403121561386357613862613254565b5b600082013567ffffffffffffffff81111561388157613880613259565b5b61388d8482850161381f565b91505092915050565b6000602082840312156138ac576138ab613254565b5b60006138ba848285016134aa565b91505092915050565b6138cc816136b2565b82525050565b60006020820190506138e760008301846138c3565b92915050565b6138f6816132e3565b811461390157600080fd5b50565b600081359050613913816138ed565b92915050565b600080604083850312156139305761392f613254565b5b600061393e858286016134aa565b925050602061394f85828601613904565b9150509250929050565b600067ffffffffffffffff82111561397457613973613722565b5b61397d82613368565b9050602081019050919050565b600061399d61399884613959565b613782565b9050828152602081018484840111156139b9576139b861371d565b5b6139c48482856137ce565b509392505050565b600082601f8301126139e1576139e0613718565b5b81356139f184826020860161398a565b91505092915050565b60008060008060808587031215613a1457613a13613254565b5b6000613a22878288016134aa565b9450506020613a33878288016134aa565b9350506040613a44878288016133f5565b925050606085013567ffffffffffffffff811115613a6557613a64613259565b5b613a71878288016139cc565b91505092959194509250565b60006bffffffffffffffffffffffff82169050919050565b613a9e81613a7d565b8114613aa957600080fd5b50565b600081359050613abb81613a95565b92915050565b60008060408385031215613ad857613ad7613254565b5b6000613ae6858286016134aa565b9250506020613af785828601613aac565b9150509250929050565b60008060408385031215613b1857613b17613254565b5b6000613b26858286016134aa565b9250506020613b37858286016134aa565b9150509250929050565b7f4e487b7100000000000000000000000000000000000000000000000000000000600052602260045260246000fd5b60006002820490506001821680613b8857607f821691505b602082108103613b9b57613b9a613b41565b5b50919050565b7f4552433732313a20617070726f76656420717565727920666f72206e6f6e657860008201527f697374656e7420746f6b656e0000000000000000000000000000000000000000602082015250565b6000613bfd602c83613324565b9150613c0882613ba1565b604082019050919050565b60006020820190508181036000830152613c2c81613bf0565b9050919050565b7f4552433732313a20617070726f76616c20746f2063757272656e74206f776e6560008201527f7200000000000000000000000000000000000000000000000000000000000000602082015250565b6000613c8f602183613324565b9150613c9a82613c33565b604082019050919050565b60006020820190508181036000830152613cbe81613c82565b9050919050565b7f4552433732313a20617070726f76652063616c6c6572206973206e6f74206f7760008201527f6e6572206e6f7220617070726f76656420666f7220616c6c0000000000000000602082015250565b6000613d21603883613324565b9150613d2c82613cc5565b604082019050919050565b60006020820190508181036000830152613d5081613d14565b9050919050565b7f4552433732313a207472616e736665722063616c6c6572206973206e6f74206f60008201527f776e6572206e6f7220617070726f766564000000000000000000000000000000602082015250565b6000613db3603183613324565b9150613dbe82613d57565b604082019050919050565b60006020820190508181036000830152613de281613da6565b9050919050565b7f4e487b7100000000000000000000000000000000000000000000000000000000600052601160045260246000fd5b6000613e23826133d4565b9150613e2e836133d4565b9250817fffffffffffffffffffffffffffffffffffffffffffffffffffffffffffffffff0483118215151615613e6757613e66613de9565b5b828202905092915050565b7f4e487b7100000000000000000000000000000000000000000000000000000000600052601260045260246000fd5b6000613eac826133d4565b9150613eb7836133d4565b925082613ec757613ec6613e72565b5b828204905092915050565b7f416363657373436f6e74726f6c3a2063616e206f6e6c792072656e6f756e636560008201527f20726f6c657320666f722073656c660000000000000000000000000000000000602082015250565b6000613f2e602f83613324565b9150613f3982613ed2565b604082019050919050565b60006020820190508181036000830152613f5d81613f21565b9050919050565b7f5552492068617320616c7265616479206265656e2072657665616c6564000000600082015250565b6000613f9a601d83613324565b9150613fa582613f64565b602082019050919050565b60006020820190508181036000830152613fc981613f8d565b9050919050565b7f4552433732313a206f776e657220717565727920666f72206e6f6e657869737460008201527f656e7420746f6b656e0000000000000000000000000000000000000000000000602082015250565b600061402c602983613324565b915061403782613fd0565b604082019050919050565b6000602082019050818103600083015261405b8161401f565b9050919050565b7f4552433732313a2062616c616e636520717565727920666f7220746865207a6560008201527f726f206164647265737300000000000000000000000000000000000000000000602082015250565b60006140be602a83613324565b91506140c982614062565b604082019050919050565b600060208201905081810360008301526140ed816140b1565b9050919050565b7f4f776e61626c653a2063616c6c6572206973206e6f7420746865206f776e6572600082015250565b600061412a602083613324565b9150614135826140f4565b602082019050919050565b600060208201905081810360008301526141598161411d565b9050919050565b7f5265656e7472616e637947756172643a207265656e7472616e742063616c6c00600082015250565b6000614196601f83613324565b91506141a182614160565b602082019050919050565b600060208201905081810360008301526141c581614189565b9050919050565b6000819050919050565b60006141f16141ec6141e7846136b2565b6141cc565b6133d4565b9050919050565b614201816141d6565b82525050565b600060408201905061421c60008301856134ff565b61422960208301846141f8565b9392505050565b600061423b826133d4565b9150614246836133d4565b9250827fffffffffffffffffffffffffffffffffffffffffffffffffffffffffffffffff0382111561427b5761427a613de9565b5b828201905092915050565b600060408201905061429b60008301856134ff565b6142a860208301846134ff565b9392505050565b60006142ba826133d4565b91507fffffffffffffffffffffffffffffffffffffffffffffffffffffffffffffffff82036142ec576142eb613de9565b5b600182019050919050565b6000614302826133d4565b915061430d836133d4565b9250828210156143205761431f613de9565b5b828203905092915050565b600081905092915050565b50565b600061434660008361432b565b915061435182614336565b600082019050919050565b600061436782614339565b9150819050919050565b7f4552433732314d657461646174613a2055524920717565727920666f72206e6f60008201527f6e6578697374656e7420746f6b656e0000000000000000000000000000000000602082015250565b60006143cd602f83613324565b91506143d882614371565b604082019050919050565b600060208201905081810360008301526143fc816143c0565b9050919050565b600081905092915050565b600061441982613319565b6144238185614403565b9350614433818560208601613335565b80840191505092915050565b600061444b828561440e565b9150614457828461440e565b91508190509392505050565b7f4f776e61626c653a206e6577206f776e657220697320746865207a65726f206160008201527f6464726573730000000000000000000000000000000000000000000000000000602082015250565b60006144bf602683613324565b91506144ca82614463565b604082019050919050565b600060208201905081810360008301526144ee816144b2565b9050919050565b7f4552433732313a206f70657261746f7220717565727920666f72206e6f6e657860008201527f697374656e7420746f6b656e0000000000000000000000000000000000000000602082015250565b6000614551602c83613324565b915061455c826144f5565b604082019050919050565b6000602082019050818103600083015261458081614544565b9050919050565b7f4552433732313a207472616e736665722066726f6d20696e636f72726563742060008201527f6f776e6572000000000000000000000000000000000000000000000000000000602082015250565b60006145e3602583613324565b91506145ee82614587565b604082019050919050565b60006020820190508181036000830152614612816145d6565b9050919050565b7f4552433732313a207472616e7366657220746f20746865207a65726f2061646460008201527f7265737300000000000000000000000000000000000000000000000000000000602082015250565b6000614675602483613324565b915061468082614619565b604082019050919050565b600060208201905081810360008301526146a481614668565b9050919050565b7f416464726573733a20696e73756666696369656e742062616c616e6365000000600082015250565b60006146e1601d83613324565b91506146ec826146ab565b602082019050919050565b60006020820190508181036000830152614710816146d4565b9050919050565b7f416464726573733a20756e61626c6520746f2073656e642076616c75652c207260008201527f6563697069656e74206d61792068617665207265766572746564000000000000602082015250565b6000614773603a83613324565b915061477e82614717565b604082019050919050565b600060208201905081810360008301526147a281614766565b9050919050565b7f4552433732313a20617070726f766520746f2063616c6c657200000000000000600082015250565b60006147df601983613324565b91506147ea826147a9565b602082019050919050565b6000602082019050818103600083015261480e816147d2565b9050919050565b7f4552433732313a207472616e7366657220746f206e6f6e20455243373231526560008201527f63656976657220696d706c656d656e7465720000000000000000000000000000602082015250565b6000614871603283613324565b915061487c82614815565b604082019050919050565b600060208201905081810360008301526148a081614864565b9050919050565b7f455243323938313a20726f79616c7479206665652077696c6c2065786365656460008201527f2073616c65507269636500000000000000000000000000000000000000000000602082015250565b6000614903602a83613324565b915061490e826148a7565b604082019050919050565b60006020820190508181036000830152614932816148f6565b9050919050565b7f455243323938313a20696e76616c696420726563656976657200000000000000600082015250565b600061496f601983613324565b915061497a82614939565b602082019050919050565b6000602082019050818103600083015261499e81614962565b9050919050565b60006149b0826133d4565b91506149bb836133d4565b9250826149cb576149ca613e72565b5b828206905092915050565b7f4e487b7100000000000000000000000000000000000000000000000000000000600052603260045260246000fd5b7f416363657373436f6e74726f6c3a206163636f756e7420000000000000000000600082015250565b6000614a3b601783614403565b9150614a4682614a05565b601782019050919050565b7f206973206d697373696e6720726f6c6520000000000000000000000000000000600082015250565b6000614a87601183614403565b9150614a9282614a51565b601182019050919050565b6000614aa882614a2e565b9150614ab4828561440e565b9150614abf82614a7a565b9150614acb828461440e565b91508190509392505050565b600081519050919050565b600082825260208201905092915050565b6000614afe82614ad7565b614b088185614ae2565b9350614b18818560208601613335565b614b2181613368565b840191505092915050565b6000608082019050614b416000830187613469565b614b4e6020830186613469565b614b5b60408301856134ff565b8181036060830152614b6d8184614af3565b905095945050505050565b600081519050614b878161328a565b92915050565b600060208284031215614ba357614ba2613254565b5b6000614bb184828501614b78565b91505092915050565b6000614bc5826133d4565b915060008203614bd857614bd7613de9565b5b600182039050919050565b7f537472696e67733a20686578206c656e67746820696e73756666696369656e74600082015250565b6000614c19602083613324565b9150614c2482614be3565b602082019050919050565b60006020820190508181036000830152614c4881614c0c565b9050919050565b7f4552433732313a206d696e7420746f20746865207a65726f2061646472657373600082015250565b6000614c85602083613324565b9150614c9082614c4f565b602082019050919050565b60006020820190508181036000830152614cb481614c78565b9050919050565b7f4552433732313a20746f6b656e20616c7265616479206d696e74656400000000600082015250565b6000614cf1601c83613324565b9150614cfc82614cbb565b602082019050919050565b60006020820190508181036000830152614d2081614ce4565b905091905056fea2646970667358221220e460cb0c3f9eaf2ad1aec47d7e86408010ac6e2ed012fcf607181dc24b61776e64736f6c634300080d0033",
  "immutableReferences": {
    "2486": [
      {
        "length": 32,
        "start": 6344
      }
    ]
  },
  "source": "// SPDX-License-Identifier: MIT\npragma solidity 0.8.13;\n\nimport \"@openzeppelin/contracts/access/AccessControl.sol\";\nimport \"@openzeppelin/contracts/access/Ownable.sol\";\nimport \"@openzeppelin/contracts/security/ReentrancyGuard.sol\";\nimport \"@openzeppelin/contracts/token/common/ERC2981.sol\";\nimport \"@openzeppelin/contracts/token/ERC721/ERC721.sol\";\nimport \"@openzeppelin/contracts/utils/Address.sol\";\nimport \"@openzeppelin/contracts/utils/Counters.sol\";\n\n/// Name of contract cannot be empty.\nerror NameIsEmpty();\n/// Base URI of tokens to be minted cannot be empty.\nerror BaseURIIsEmpty();\n/// Too many tokens requested: `quantity` requested but maximum allowed is `maxTokenPurchase`.\n/// @param quantity requested amount.\n/// @param maxTokenPurchase maximum amount available per transaction.\nerror MaxTokenRequestExceeded(uint256 quantity, uint256 maxTokenPurchase);\n/// Request would exceed max supply: `quantity` requested but maximum allowed is `maxSupply`.\n/// @param quantity requested amount.\n/// @param maxSupply maximum amount available.\nerror MaxSupplyExceeded(uint256 quantity, uint256 maxSupply);\n/// Insufficient funds sent: `sent` ether but `required` is required.\n/// @param sent total ether sent with transaction.\n/// @param required total ether required to purchase.\nerror InsufficientFunds(uint256 sent, uint256 required);\n/// Sale is not active at this time.\nerror InactiveSale();\n/// Max supply is less than max \n/// @param maxSupply maximum number of tokens that will ever be available for this collection\n/// @param maxTokenRequest maximum number of tokens that can be minted at any one time\nerror InvalidMaxSupply(uint256 maxSupply, uint8 maxTokenRequest);\n\ncontract ERC721UserMintable is ERC721, ERC2981, AccessControl, Ownable, ReentrancyGuard {\n    using Address for address;\n    using Counters for Counters.Counter;\n    /// @dev Counter auto-incrementating NFT tokenIds, default: 0\n    Counters.Counter private _tokenIdCounter;\n\n    bool private _isRevealed;\n    bool private _saleIsActive;\n    uint8 private _maxTokenRequest;\n    uint256 private immutable _maxSupply;\n    uint256 private _price;\n    string private _tokenBaseURI;\n\n    constructor(\n        string memory name_,\n        string memory symbol_,\n        string memory baseURI_,\n        uint256 maxSupply_,\n        uint256 price_,\n        uint8 maxTokenRequest_\n    ) ERC721(name_, symbol_) {\n        if (!(bytes(name_).length > 1)) {\n            revert NameIsEmpty();\n        }\n        if (maxSupply_ < maxTokenRequest_) {\n            revert InvalidMaxSupply({maxSupply: maxSupply_, maxTokenRequest: maxTokenRequest_});\n        }\n        _tokenBaseURI = baseURI_;\n        _maxSupply = maxSupply_;\n        _maxTokenRequest = maxTokenRequest_;\n        _price = price_;\n        _grantRole(DEFAULT_ADMIN_ROLE, msg.sender);\n    }\n\n    ///#if_succeeds quantity_ <= old(maxTokenRequest());\n    ///#if_succeeds totalSupply() <= old(maxSupply());\n    ///#if_succeeds old(totalSupply()) + quantity_ == totalSupply();\n    function reserve(uint256 quantity_) external onlyRole(DEFAULT_ADMIN_ROLE) nonReentrant {\n        if (quantity_ > maxTokenRequest()) {\n            revert MaxTokenRequestExceeded({\n                quantity: quantity_,\n                maxTokenPurchase: maxTokenRequest()\n            });\n        }\n        if (totalSupply() + quantity_ > maxSupply()) {\n            revert MaxSupplyExceeded({\n                quantity: quantity_,\n                maxSupply: maxSupply()\n            });\n        }\n\n        for (uint256 i = 0; i < quantity_; i++) {\n            uint256 tokenId = _tokenIdCounter.current();\n            _tokenIdCounter.increment();\n            _safeMint(msg.sender, tokenId);\n        }\n    }\n\n    ///#if_succeeds old(_saleIsActive);\n    ///#if_succeeds quantity_ <= old(maxTokenRequest());\n    ///#if_succeeds totalSupply() <= old(maxSupply());\n    ///#if_succeeds msg.value >= old(price()) * quantity_;\n    ///#if_succeeds old(totalSupply()) + quantity_ == totalSupply();\n    function mint(uint256 quantity_) public payable nonReentrant {\n        if (!_saleIsActive) {\n            revert InactiveSale();\n        }\n        if (quantity_ > maxTokenRequest()) {\n            revert MaxTokenRequestExceeded({\n                quantity: quantity_,\n                maxTokenPurchase: maxTokenRequest()\n            });\n        }\n        if (totalSupply() + quantity_ > maxSupply()) {\n            revert MaxSupplyExceeded({\n                quantity: quantity_,\n                maxSupply: maxSupply()\n            });\n        }\n        uint256 totalCost = price() * quantity_;\n        if (msg.value < totalCost) {\n            revert InsufficientFunds({\n                sent: msg.value,\n                required: price() * quantity_\n            });\n        }\n        for (uint256 i = 0; i < quantity_; i++) {\n            uint256 tokenId = _tokenIdCounter.current();\n            _tokenIdCounter.increment();\n            _safeMint(msg.sender, tokenId);\n        }\n        if (msg.value > totalCost) {\n            uint256 toRefund = msg.value - totalCost;\n            (bool sent,) = msg.sender.call{value: toRefund}(\"\");\n        }\n    }\n\n    function contractURI() public view returns (string memory) {\n        return _tokenBaseURI;\n    }\n\n    function isSaleActive() public view returns (bool) {\n        return _saleIsActive;\n    }\n\n    function maxSupply() public view returns (uint256) {\n        return _maxSupply;\n    }\n\n    function maxTokenRequest() public view returns (uint8) {\n        return _maxTokenRequest;\n    }\n\n    function price() public view returns (uint256) {\n        return _price;\n    }\n\n    ///#if_succeeds old(_isRevealed) == false;\n    ///#if_succeeds _isRevealed == true;\n    ///#if_succeeds (keccak256(abi.encodePacked((_tokenBaseURI))) != keccak256(abi.encodePacked((\"\"))));\n    ///#if_succeeds (keccak256(abi.encodePacked((_tokenBaseURI))) == keccak256(abi.encodePacked((baseURI_))));\n    function reveal(string memory baseURI_)\n        external\n        onlyRole(DEFAULT_ADMIN_ROLE)\n    {\n        require(!_isRevealed, \"URI has already been revealed\");\n        if (!(bytes(baseURI_).length > 1)) {\n            revert BaseURIIsEmpty();\n        }\n        _tokenBaseURI = baseURI_;\n        _isRevealed = true;\n    }\n\n    ///#if_succeeds (keccak256(abi.encodePacked((_tokenBaseURI))) != keccak256(abi.encodePacked((\"\"))));\n    ///#if_succeeds (keccak256(abi.encodePacked((_tokenBaseURI))) == keccak256(abi.encodePacked((baseURI_))));\n    function setBaseURI(string memory baseURI_)\n        external\n        onlyRole(DEFAULT_ADMIN_ROLE)\n    {\n        if (!(bytes(baseURI_).length > 1)) {\n            revert BaseURIIsEmpty();\n        }\n        _tokenBaseURI = baseURI_;\n    }\n\n    ///#if_succeeds _maxTokenRequest == maxTokenRequest_;\n    function setMaxTokenRequest(uint8 maxTokenRequest_) external onlyRole(DEFAULT_ADMIN_ROLE) {\n        _maxTokenRequest = maxTokenRequest_;\n    }\n\n    ///#if_succeeds _price == price_;\n    function setPrice(uint256 price_) external onlyRole(DEFAULT_ADMIN_ROLE) {\n        _price = price_;\n    }\n\n    ///#if_succeeds let receiver, _ := royaltyInfo(0, 10000) in receiver == receiver_;\n    function setRoyalties(address receiver_, uint96 feeNumerator_)\n        external\n        onlyRole(DEFAULT_ADMIN_ROLE)\n    {\n        _setDefaultRoyalty(receiver_, feeNumerator_);\n    }\n\n    ///#if_succeeds old(_saleIsActive) == !_saleIsActive;\n    function toggleSale() external onlyRole(DEFAULT_ADMIN_ROLE) {\n        _saleIsActive = !_saleIsActive;\n    }\n\n    function totalSupply() public view returns (uint256) {\n        return _tokenIdCounter.current();\n    }\n\n    ///#if_succeeds address(this).balance == 0;\n    function withdraw() external onlyRole(DEFAULT_ADMIN_ROLE) {\n        uint256 balance = address(this).balance;\n        Address.sendValue(payable(msg.sender), balance);\n    }\n\n    function _baseURI() internal view override(ERC721) returns (string memory) {\n        return _tokenBaseURI;\n    }\n\n    function supportsInterface(bytes4 interfaceId_)\n        public\n        view\n        override(ERC721, ERC2981, AccessControl)\n        returns (bool)\n    {\n        return super.supportsInterface(interfaceId_);\n    }\n}\n",
  "sourcePath": "/Users/fermincarranza/consensys/sdk-contracts/contracts/ERC721UserMintable.sol",
  "compiler": {
    "name": "solc",
    "version": "0.8.13+commit.abaa5c0e.Emscripten.clang"
  },
  "schemaVersion": "3.4.7",
  "updatedAt": "2022-07-21T22:22:08.667Z",
  "devdoc": {
    "errors": {
      "InsufficientFunds(uint256,uint256)": [
        {
          "params": {
            "required": "total ether required to purchase.",
            "sent": "total ether sent with transaction."
          }
        }
      ],
      "InvalidMaxSupply(uint256,uint8)": [
        {
          "params": {
            "maxSupply": "maximum number of tokens that will ever be available for this collection",
            "maxTokenRequest": "maximum number of tokens that can be minted at any one time"
          }
        }
      ],
      "MaxSupplyExceeded(uint256,uint256)": [
        {
          "params": {
            "maxSupply": "maximum amount available.",
            "quantity": "requested amount."
          }
        }
      ],
      "MaxTokenRequestExceeded(uint256,uint256)": [
        {
          "params": {
            "maxTokenPurchase": "maximum amount available per transaction.",
            "quantity": "requested amount."
          }
        }
      ]
    },
    "kind": "dev",
    "methods": {
      "approve(address,uint256)": {
        "details": "See {IERC721-approve}."
      },
      "balanceOf(address)": {
        "details": "See {IERC721-balanceOf}."
      },
      "getApproved(uint256)": {
        "details": "See {IERC721-getApproved}."
      },
      "getRoleAdmin(bytes32)": {
        "details": "Returns the admin role that controls `role`. See {grantRole} and {revokeRole}. To change a role's admin, use {_setRoleAdmin}."
      },
      "grantRole(bytes32,address)": {
        "details": "Grants `role` to `account`. If `account` had not been already granted `role`, emits a {RoleGranted} event. Requirements: - the caller must have ``role``'s admin role."
      },
      "hasRole(bytes32,address)": {
        "details": "Returns `true` if `account` has been granted `role`."
      },
      "isApprovedForAll(address,address)": {
        "details": "See {IERC721-isApprovedForAll}."
      },
      "name()": {
        "details": "See {IERC721Metadata-name}."
      },
      "owner()": {
        "details": "Returns the address of the current owner."
      },
      "ownerOf(uint256)": {
        "details": "See {IERC721-ownerOf}."
      },
      "renounceOwnership()": {
        "details": "Leaves the contract without owner. It will not be possible to call `onlyOwner` functions anymore. Can only be called by the current owner. NOTE: Renouncing ownership will leave the contract without an owner, thereby removing any functionality that is only available to the owner."
      },
      "renounceRole(bytes32,address)": {
        "details": "Revokes `role` from the calling account. Roles are often managed via {grantRole} and {revokeRole}: this function's purpose is to provide a mechanism for accounts to lose their privileges if they are compromised (such as when a trusted device is misplaced). If the calling account had been revoked `role`, emits a {RoleRevoked} event. Requirements: - the caller must be `account`."
      },
      "revokeRole(bytes32,address)": {
        "details": "Revokes `role` from `account`. If `account` had been granted `role`, emits a {RoleRevoked} event. Requirements: - the caller must have ``role``'s admin role."
      },
      "royaltyInfo(uint256,uint256)": {
        "details": "Returns how much royalty is owed and to whom, based on a sale price that may be denominated in any unit of exchange. The royalty amount is denominated and should be paid in that same unit of exchange."
      },
      "safeTransferFrom(address,address,uint256)": {
        "details": "See {IERC721-safeTransferFrom}."
      },
      "safeTransferFrom(address,address,uint256,bytes)": {
        "details": "See {IERC721-safeTransferFrom}."
      },
      "setApprovalForAll(address,bool)": {
        "details": "See {IERC721-setApprovalForAll}."
      },
      "symbol()": {
        "details": "See {IERC721Metadata-symbol}."
      },
      "tokenURI(uint256)": {
        "details": "See {IERC721Metadata-tokenURI}."
      },
      "transferFrom(address,address,uint256)": {
        "details": "See {IERC721-transferFrom}."
      },
      "transferOwnership(address)": {
        "details": "Transfers ownership of the contract to a new account (`newOwner`). Can only be called by the current owner."
      }
    },
    "stateVariables": {
      "_tokenIdCounter": {
        "details": "Counter auto-incrementating NFT tokenIds, default: 0"
      }
    },
    "version": 1
  },
  "userdoc": {
    "errors": {
      "BaseURIIsEmpty()": [
        {
          "notice": "Base URI of tokens to be minted cannot be empty."
        }
      ],
      "InactiveSale()": [
        {
          "notice": "Sale is not active at this time."
        }
      ],
      "InsufficientFunds(uint256,uint256)": [
        {
          "notice": "Insufficient funds sent: `sent` ether but `required` is required."
        }
      ],
      "InvalidMaxSupply(uint256,uint8)": [
        {
          "notice": "Max supply is less than max "
        }
      ],
      "MaxSupplyExceeded(uint256,uint256)": [
        {
          "notice": "Request would exceed max supply: `quantity` requested but maximum allowed is `maxSupply`."
        }
      ],
      "MaxTokenRequestExceeded(uint256,uint256)": [
        {
          "notice": "Too many tokens requested: `quantity` requested but maximum allowed is `maxTokenPurchase`."
        }
      ],
      "NameIsEmpty()": [
        {
          "notice": "Name of contract cannot be empty."
        }
      ]
    },
    "kind": "user",
    "methods": {
      "mint(uint256)": {
        "notice": "#if_succeeds old(_saleIsActive); #if_succeeds quantity_ <= old(maxTokenRequest()); #if_succeeds totalSupply() <= old(maxSupply()); #if_succeeds msg.value >= old(price()) * quantity_; #if_succeeds old(totalSupply()) + quantity_ == totalSupply();"
      },
      "reserve(uint256)": {
        "notice": "#if_succeeds quantity_ <= old(maxTokenRequest()); #if_succeeds totalSupply() <= old(maxSupply()); #if_succeeds old(totalSupply()) + quantity_ == totalSupply();"
      },
      "reveal(string)": {
        "notice": "#if_succeeds old(_isRevealed) == false; #if_succeeds _isRevealed == true; #if_succeeds (keccak256(abi.encodePacked((_tokenBaseURI))) != keccak256(abi.encodePacked((\"\")))); #if_succeeds (keccak256(abi.encodePacked((_tokenBaseURI))) == keccak256(abi.encodePacked((baseURI_))));"
      },
      "setBaseURI(string)": {
        "notice": "#if_succeeds (keccak256(abi.encodePacked((_tokenBaseURI))) != keccak256(abi.encodePacked((\"\")))); #if_succeeds (keccak256(abi.encodePacked((_tokenBaseURI))) == keccak256(abi.encodePacked((baseURI_))));"
      },
      "setMaxTokenRequest(uint8)": {
        "notice": "#if_succeeds _maxTokenRequest == maxTokenRequest_;"
      },
      "setPrice(uint256)": {
        "notice": "#if_succeeds _price == price_;"
      },
      "setRoyalties(address,uint96)": {
        "notice": "#if_succeeds let receiver, _ := royaltyInfo(0, 10000) in receiver == receiver_;"
      },
      "toggleSale()": {
        "notice": "#if_succeeds old(_saleIsActive) == !_saleIsActive;"
      },
      "withdraw()": {
        "notice": "#if_succeeds address(this).balance == 0;"
      }
    },
    "version": 1
  },
  "db": {
    "callBytecode": {
      "id": "0x4a7a7930f4533a8611fc8bbfae0e4765bb740d2b33c5bec5b9377e592c64a44b"
    },
    "createBytecode": {
      "id": "0x0a05b0859fe3f90662fd7c0aeec65af0683c726f205e3a1a6e60d23c7bb16f12"
    },
    "contract": {
      "id": "0x8bd63ff1c34b9d9d1fe63ebe3949d6ffe13c04939f54a3eaf4c1c73d649244ec"
    }
  }
}