{
  "contractName": "ERC721UserMintable",
  "abi": [
    {
      "inputs": [
        {
          "internalType": "string",
          "name": "name_",
          "type": "string"
        },
        {
          "internalType": "string",
          "name": "symbol_",
          "type": "string"
        },
        {
          "internalType": "string",
          "name": "baseURI_",
          "type": "string"
        },
        {
          "internalType": "uint256",
          "name": "maxSupply_",
          "type": "uint256"
        },
        {
          "internalType": "uint256",
          "name": "price_",
          "type": "uint256"
        }
      ],
      "stateMutability": "nonpayable",
      "type": "constructor"
    },
    {
      "inputs": [],
      "name": "BaseURIIsEmpty",
      "type": "error"
    },
    {
      "inputs": [],
      "name": "InactiveSale",
      "type": "error"
    },
    {
      "inputs": [
        {
          "internalType": "uint256",
          "name": "sent",
          "type": "uint256"
        },
        {
          "internalType": "uint256",
          "name": "required",
          "type": "uint256"
        }
      ],
      "name": "InsufficientFunds",
      "type": "error"
    },
    {
      "inputs": [
        {
          "internalType": "uint256",
          "name": "quantity",
          "type": "uint256"
        },
        {
          "internalType": "uint256",
          "name": "maxSupply",
          "type": "uint256"
        }
      ],
      "name": "MaxSupplyExceeded",
      "type": "error"
    },
    {
      "inputs": [
        {
          "internalType": "uint256",
          "name": "quantity",
          "type": "uint256"
        },
        {
          "internalType": "uint256",
          "name": "maxTokenPurchase",
          "type": "uint256"
        }
      ],
      "name": "MaxTokenRequestExceeded",
      "type": "error"
    },
    {
      "inputs": [],
      "name": "NameIsEmpty",
      "type": "error"
    },
    {
      "anonymous": false,
      "inputs": [
        {
          "indexed": true,
          "internalType": "address",
          "name": "owner",
          "type": "address"
        },
        {
          "indexed": true,
          "internalType": "address",
          "name": "approved",
          "type": "address"
        },
        {
          "indexed": true,
          "internalType": "uint256",
          "name": "tokenId",
          "type": "uint256"
        }
      ],
      "name": "Approval",
      "type": "event"
    },
    {
      "anonymous": false,
      "inputs": [
        {
          "indexed": true,
          "internalType": "address",
          "name": "owner",
          "type": "address"
        },
        {
          "indexed": true,
          "internalType": "address",
          "name": "operator",
          "type": "address"
        },
        {
          "indexed": false,
          "internalType": "bool",
          "name": "approved",
          "type": "bool"
        }
      ],
      "name": "ApprovalForAll",
      "type": "event"
    },
    {
      "anonymous": false,
      "inputs": [
        {
          "indexed": false,
          "internalType": "address",
          "name": "contractAddress_",
          "type": "address"
        }
      ],
      "name": "ContractDeployed",
      "type": "event"
    },
    {
      "anonymous": false,
      "inputs": [
        {
          "indexed": true,
          "internalType": "address",
          "name": "previousOwner",
          "type": "address"
        },
        {
          "indexed": true,
          "internalType": "address",
          "name": "newOwner",
          "type": "address"
        }
      ],
      "name": "OwnershipTransferred",
      "type": "event"
    },
    {
      "anonymous": false,
      "inputs": [
        {
          "indexed": true,
          "internalType": "address",
          "name": "from",
          "type": "address"
        },
        {
          "indexed": true,
          "internalType": "address",
          "name": "to",
          "type": "address"
        },
        {
          "indexed": true,
          "internalType": "uint256",
          "name": "tokenId",
          "type": "uint256"
        }
      ],
      "name": "Transfer",
      "type": "event"
    },
    {
      "inputs": [
        {
          "internalType": "address",
          "name": "to",
          "type": "address"
        },
        {
          "internalType": "uint256",
          "name": "tokenId",
          "type": "uint256"
        }
      ],
      "name": "approve",
      "outputs": [],
      "stateMutability": "nonpayable",
      "type": "function"
    },
    {
      "inputs": [
        {
          "internalType": "address",
          "name": "owner",
          "type": "address"
        }
      ],
      "name": "balanceOf",
      "outputs": [
        {
          "internalType": "uint256",
          "name": "",
          "type": "uint256"
        }
      ],
      "stateMutability": "view",
      "type": "function"
    },
    {
      "inputs": [
        {
          "internalType": "uint256",
          "name": "tokenId",
          "type": "uint256"
        }
      ],
      "name": "getApproved",
      "outputs": [
        {
          "internalType": "address",
          "name": "",
          "type": "address"
        }
      ],
      "stateMutability": "view",
      "type": "function"
    },
    {
      "inputs": [
        {
          "internalType": "address",
          "name": "owner",
          "type": "address"
        },
        {
          "internalType": "address",
          "name": "operator",
          "type": "address"
        }
      ],
      "name": "isApprovedForAll",
      "outputs": [
        {
          "internalType": "bool",
          "name": "",
          "type": "bool"
        }
      ],
      "stateMutability": "view",
      "type": "function"
    },
    {
      "inputs": [],
      "name": "name",
      "outputs": [
        {
          "internalType": "string",
          "name": "",
          "type": "string"
        }
      ],
      "stateMutability": "view",
      "type": "function"
    },
    {
      "inputs": [],
      "name": "owner",
      "outputs": [
        {
          "internalType": "address",
          "name": "",
          "type": "address"
        }
      ],
      "stateMutability": "view",
      "type": "function"
    },
    {
      "inputs": [
        {
          "internalType": "uint256",
          "name": "tokenId",
          "type": "uint256"
        }
      ],
      "name": "ownerOf",
      "outputs": [
        {
          "internalType": "address",
          "name": "",
          "type": "address"
        }
      ],
      "stateMutability": "view",
      "type": "function"
    },
    {
      "inputs": [],
      "name": "renounceOwnership",
      "outputs": [],
      "stateMutability": "nonpayable",
      "type": "function"
    },
    {
      "inputs": [
        {
          "internalType": "uint256",
          "name": "_tokenId",
          "type": "uint256"
        },
        {
          "internalType": "uint256",
          "name": "_salePrice",
          "type": "uint256"
        }
      ],
      "name": "royaltyInfo",
      "outputs": [
        {
          "internalType": "address",
          "name": "",
          "type": "address"
        },
        {
          "internalType": "uint256",
          "name": "",
          "type": "uint256"
        }
      ],
      "stateMutability": "view",
      "type": "function"
    },
    {
      "inputs": [
        {
          "internalType": "address",
          "name": "from",
          "type": "address"
        },
        {
          "internalType": "address",
          "name": "to",
          "type": "address"
        },
        {
          "internalType": "uint256",
          "name": "tokenId",
          "type": "uint256"
        }
      ],
      "name": "safeTransferFrom",
      "outputs": [],
      "stateMutability": "nonpayable",
      "type": "function"
    },
    {
      "inputs": [
        {
          "internalType": "address",
          "name": "from",
          "type": "address"
        },
        {
          "internalType": "address",
          "name": "to",
          "type": "address"
        },
        {
          "internalType": "uint256",
          "name": "tokenId",
          "type": "uint256"
        },
        {
          "internalType": "bytes",
          "name": "_data",
          "type": "bytes"
        }
      ],
      "name": "safeTransferFrom",
      "outputs": [],
      "stateMutability": "nonpayable",
      "type": "function"
    },
    {
      "inputs": [
        {
          "internalType": "address",
          "name": "operator",
          "type": "address"
        },
        {
          "internalType": "bool",
          "name": "approved",
          "type": "bool"
        }
      ],
      "name": "setApprovalForAll",
      "outputs": [],
      "stateMutability": "nonpayable",
      "type": "function"
    },
    {
      "inputs": [],
      "name": "symbol",
      "outputs": [
        {
          "internalType": "string",
          "name": "",
          "type": "string"
        }
      ],
      "stateMutability": "view",
      "type": "function"
    },
    {
      "inputs": [
        {
          "internalType": "uint256",
          "name": "tokenId",
          "type": "uint256"
        }
      ],
      "name": "tokenURI",
      "outputs": [
        {
          "internalType": "string",
          "name": "",
          "type": "string"
        }
      ],
      "stateMutability": "view",
      "type": "function"
    },
    {
      "inputs": [
        {
          "internalType": "address",
          "name": "from",
          "type": "address"
        },
        {
          "internalType": "address",
          "name": "to",
          "type": "address"
        },
        {
          "internalType": "uint256",
          "name": "tokenId",
          "type": "uint256"
        }
      ],
      "name": "transferFrom",
      "outputs": [],
      "stateMutability": "nonpayable",
      "type": "function"
    },
    {
      "inputs": [
        {
          "internalType": "address",
          "name": "newOwner",
          "type": "address"
        }
      ],
      "name": "transferOwnership",
      "outputs": [],
      "stateMutability": "nonpayable",
      "type": "function"
    },
    {
      "inputs": [
        {
          "internalType": "uint256",
          "name": "quantity_",
          "type": "uint256"
        }
      ],
      "name": "reserve",
      "outputs": [],
      "stateMutability": "nonpayable",
      "type": "function"
    },
    {
      "inputs": [
        {
          "internalType": "uint256",
          "name": "quantity_",
          "type": "uint256"
        }
      ],
      "name": "mint",
      "outputs": [],
      "stateMutability": "payable",
      "type": "function"
    },
    {
      "inputs": [],
      "name": "contractURI",
      "outputs": [
        {
          "internalType": "string",
          "name": "",
          "type": "string"
        }
      ],
      "stateMutability": "view",
      "type": "function"
    },
    {
      "inputs": [],
      "name": "isSaleActive",
      "outputs": [
        {
          "internalType": "bool",
          "name": "",
          "type": "bool"
        }
      ],
      "stateMutability": "view",
      "type": "function"
    },
    {
      "inputs": [],
      "name": "maxSupply",
      "outputs": [
        {
          "internalType": "uint256",
          "name": "",
          "type": "uint256"
        }
      ],
      "stateMutability": "view",
      "type": "function"
    },
    {
      "inputs": [],
      "name": "maxTokenRequest",
      "outputs": [
        {
          "internalType": "uint8",
          "name": "",
          "type": "uint8"
        }
      ],
      "stateMutability": "pure",
      "type": "function"
    },
    {
      "inputs": [],
      "name": "price",
      "outputs": [
        {
          "internalType": "uint256",
          "name": "",
          "type": "uint256"
        }
      ],
      "stateMutability": "view",
      "type": "function"
    },
    {
      "inputs": [
        {
          "internalType": "string",
          "name": "baseURI_",
          "type": "string"
        }
      ],
      "name": "reveal",
      "outputs": [],
      "stateMutability": "nonpayable",
      "type": "function"
    },
    {
      "inputs": [
        {
          "internalType": "string",
          "name": "baseURI_",
          "type": "string"
        }
      ],
      "name": "setBaseURI",
      "outputs": [],
      "stateMutability": "nonpayable",
      "type": "function"
    },
    {
      "inputs": [
        {
          "internalType": "uint256",
          "name": "price_",
          "type": "uint256"
        }
      ],
      "name": "setPrice",
      "outputs": [],
      "stateMutability": "nonpayable",
      "type": "function"
    },
    {
      "inputs": [
        {
          "internalType": "address",
          "name": "receiver_",
          "type": "address"
        },
        {
          "internalType": "uint96",
          "name": "feeNumerator_",
          "type": "uint96"
        }
      ],
      "name": "setRoyalties",
      "outputs": [],
      "stateMutability": "nonpayable",
      "type": "function"
    },
    {
      "inputs": [],
      "name": "toggleSale",
      "outputs": [],
      "stateMutability": "nonpayable",
      "type": "function"
    },
    {
      "inputs": [],
      "name": "totalSupply",
      "outputs": [
        {
          "internalType": "uint256",
          "name": "",
          "type": "uint256"
        }
      ],
      "stateMutability": "view",
      "type": "function"
    },
    {
      "inputs": [],
      "name": "withdraw",
      "outputs": [],
      "stateMutability": "nonpayable",
      "type": "function"
    },
    {
      "inputs": [
        {
          "internalType": "bytes4",
          "name": "interfaceId_",
          "type": "bytes4"
        }
      ],
      "name": "supportsInterface",
      "outputs": [
        {
          "internalType": "bool",
          "name": "",
          "type": "bool"
        }
      ],
      "stateMutability": "view",
      "type": "function"
    }
  ],
  "bytecode": "0x60806040523480156200001157600080fd5b506040516200490f3803806200490f83398181016040528101906200003791906200048a565b848481600090805190602001906200005192919062000202565b5080600190805190602001906200006a92919062000202565b5050506200008d620000816200013460201b60201c565b6200013c60201b60201c565b6001855111620000c9576040517fbeafaea000000000000000000000000000000000000000000000000000000000815260040160405180910390fd5b82600d9080519060200190620000e192919062000202565b5081600b8190555080600c819055507f8ffcdc15a283d706d38281f500270d8b5a656918f555de0913d7455e3e6bc1bf30604051620001219190620005b4565b60405180910390a1505050505062000635565b600033905090565b6000600860009054906101000a900473ffffffffffffffffffffffffffffffffffffffff16905081600860006101000a81548173ffffffffffffffffffffffffffffffffffffffff021916908373ffffffffffffffffffffffffffffffffffffffff1602179055508173ffffffffffffffffffffffffffffffffffffffff168173ffffffffffffffffffffffffffffffffffffffff167f8be0079c531659141344cd1fd0a4f28419497f9722a3daafe3b4186f6b6457e060405160405180910390a35050565b828054620002109062000600565b90600052602060002090601f01602090048101928262000234576000855562000280565b82601f106200024f57805160ff191683800117855562000280565b8280016001018555821562000280579182015b828111156200027f57825182559160200191906001019062000262565b5b5090506200028f919062000293565b5090565b5b80821115620002ae57600081600090555060010162000294565b5090565b6000604051905090565b600080fd5b600080fd5b600080fd5b600080fd5b6000601f19601f8301169050919050565b7f4e487b7100000000000000000000000000000000000000000000000000000000600052604160045260246000fd5b6200031b82620002d0565b810181811067ffffffffffffffff821117156200033d576200033c620002e1565b5b80604052505050565b600062000352620002b2565b905062000360828262000310565b919050565b600067ffffffffffffffff821115620003835762000382620002e1565b5b6200038e82620002d0565b9050602081019050919050565b60005b83811015620003bb5780820151818401526020810190506200039e565b83811115620003cb576000848401525b50505050565b6000620003e8620003e28462000365565b62000346565b905082815260208101848484011115620004075762000406620002cb565b5b620004148482856200039b565b509392505050565b600082601f830112620004345762000433620002c6565b5b815162000446848260208601620003d1565b91505092915050565b6000819050919050565b62000464816200044f565b81146200047057600080fd5b50565b600081519050620004848162000459565b92915050565b600080600080600060a08688031215620004a957620004a8620002bc565b5b600086015167ffffffffffffffff811115620004ca57620004c9620002c1565b5b620004d8888289016200041c565b955050602086015167ffffffffffffffff811115620004fc57620004fb620002c1565b5b6200050a888289016200041c565b945050604086015167ffffffffffffffff8111156200052e576200052d620002c1565b5b6200053c888289016200041c565b93505060606200054f8882890162000473565b9250506080620005628882890162000473565b9150509295509295909350565b600073ffffffffffffffffffffffffffffffffffffffff82169050919050565b60006200059c826200056f565b9050919050565b620005ae816200058f565b82525050565b6000602082019050620005cb6000830184620005a3565b92915050565b7f4e487b7100000000000000000000000000000000000000000000000000000000600052602260045260246000fd5b600060028204905060018216806200061957607f821691505b6020821081036200062f576200062e620005d1565b5b50919050565b6142ca80620006456000396000f3fe6080604052600436106101d85760003560e01c80637d8966e411610102578063a22cb46511610095578063d5abeb0111610064578063d5abeb0114610674578063e8a3d4851461069f578063e985e9c5146106ca578063f2fde38b14610707576101d8565b8063a22cb465146105bc578063b88d4fde146105e5578063c21b471b1461060e578063c87b56dd14610637576101d8565b806391b7f5ed116100d157806391b7f5ed1461052157806395d89b411461054a578063a035b1fe14610575578063a0712d68146105a0576101d8565b80637d8966e41461048b578063819b25ba146104a25780638da5cb5b146104cb5780638dd94904146104f6576101d8565b80633ccfd60b1161017a578063564566a811610149578063564566a8146103cf5780636352211e146103fa57806370a0823114610437578063715018a614610474576101d8565b80633ccfd60b1461033d57806342842e0e146103545780634c2612471461037d57806355f804b3146103a6576101d8565b8063095ea7b3116101b6578063095ea7b31461028257806318160ddd146102ab57806323b872dd146102d65780632a55205a146102ff576101d8565b806301ffc9a7146101dd57806306fdde031461021a578063081812fc14610245575b600080fd5b3480156101e957600080fd5b5061020460048036038101906101ff9190612bae565b610730565b6040516102119190612bf6565b60405180910390f35b34801561022657600080fd5b5061022f610742565b60405161023c9190612caa565b60405180910390f35b34801561025157600080fd5b5061026c60048036038101906102679190612d02565b6107d4565b6040516102799190612d70565b60405180910390f35b34801561028e57600080fd5b506102a960048036038101906102a49190612db7565b610859565b005b3480156102b757600080fd5b506102c0610970565b6040516102cd9190612e06565b60405180910390f35b3480156102e257600080fd5b506102fd60048036038101906102f89190612e21565b610981565b005b34801561030b57600080fd5b5061032660048036038101906103219190612e74565b6109e1565b604051610334929190612eb4565b60405180910390f35b34801561034957600080fd5b50610352610bcb565b005b34801561036057600080fd5b5061037b60048036038101906103769190612e21565b610c60565b005b34801561038957600080fd5b506103a4600480360381019061039f9190613012565b610c80565b005b3480156103b257600080fd5b506103cd60048036038101906103c89190613012565b610dbc565b005b3480156103db57600080fd5b506103e4610e8d565b6040516103f19190612bf6565b60405180910390f35b34801561040657600080fd5b50610421600480360381019061041c9190612d02565b610ea4565b60405161042e9190612d70565b60405180910390f35b34801561044357600080fd5b5061045e6004803603810190610459919061305b565b610f55565b60405161046b9190612e06565b60405180910390f35b34801561048057600080fd5b5061048961100c565b005b34801561049757600080fd5b506104a0611094565b005b3480156104ae57600080fd5b506104c960048036038101906104c49190612d02565b61113c565b005b3480156104d757600080fd5b506104e06112c3565b6040516104ed9190612d70565b60405180910390f35b34801561050257600080fd5b5061050b6112ed565b60405161051891906130a4565b60405180910390f35b34801561052d57600080fd5b5061054860048036038101906105439190612d02565b6112f6565b005b34801561055657600080fd5b5061055f61137c565b60405161056c9190612caa565b60405180910390f35b34801561058157600080fd5b5061058a61140e565b6040516105979190612e06565b60405180910390f35b6105ba60048036038101906105b59190612d02565b611418565b005b3480156105c857600080fd5b506105e360048036038101906105de91906130eb565b6115d4565b005b3480156105f157600080fd5b5061060c600480360381019061060791906131cc565b6115ea565b005b34801561061a57600080fd5b5061063560048036038101906106309190613293565b61164c565b005b34801561064357600080fd5b5061065e60048036038101906106599190612d02565b6116d6565b60405161066b9190612caa565b60405180910390f35b34801561068057600080fd5b5061068961177d565b6040516106969190612e06565b60405180910390f35b3480156106ab57600080fd5b506106b4611787565b6040516106c19190612caa565b60405180910390f35b3480156106d657600080fd5b506106f160048036038101906106ec91906132d3565b611819565b6040516106fe9190612bf6565b60405180910390f35b34801561071357600080fd5b5061072e6004803603810190610729919061305b565b6118ad565b005b600061073b826119a4565b9050919050565b60606000805461075190613342565b80601f016020809104026020016040519081016040528092919081815260200182805461077d90613342565b80156107ca5780601f1061079f576101008083540402835291602001916107ca565b820191906000526020600020905b8154815290600101906020018083116107ad57829003601f168201915b5050505050905090565b60006107df82611a1e565b61081e576040517f08c379a0000000000000000000000000000000000000000000000000000000008152600401610815906133e5565b60405180910390fd5b6004600083815260200190815260200160002060009054906101000a900473ffffffffffffffffffffffffffffffffffffffff169050919050565b600061086482610ea4565b90508073ffffffffffffffffffffffffffffffffffffffff168373ffffffffffffffffffffffffffffffffffffffff16036108d4576040517f08c379a00000000000000000000000000000000000000000000000000000000081526004016108cb90613477565b60405180910390fd5b8073ffffffffffffffffffffffffffffffffffffffff166108f3611a8a565b73ffffffffffffffffffffffffffffffffffffffff16148061092257506109218161091c611a8a565b611819565b5b610961576040517f08c379a000000000000000000000000000000000000000000000000000000000815260040161095890613509565b60405180910390fd5b61096b8383611a92565b505050565b600061097c6009611b4b565b905090565b61099261098c611a8a565b82611b59565b6109d1576040517f08c379a00000000000000000000000000000000000000000000000000000000081526004016109c89061359b565b60405180910390fd5b6109dc838383611c37565b505050565b6000806000600760008681526020019081526020016000206040518060400160405290816000820160009054906101000a900473ffffffffffffffffffffffffffffffffffffffff1673ffffffffffffffffffffffffffffffffffffffff1673ffffffffffffffffffffffffffffffffffffffff1681526020016000820160149054906101000a90046bffffffffffffffffffffffff166bffffffffffffffffffffffff166bffffffffffffffffffffffff16815250509050600073ffffffffffffffffffffffffffffffffffffffff16816000015173ffffffffffffffffffffffffffffffffffffffff1603610b765760066040518060400160405290816000820160009054906101000a900473ffffffffffffffffffffffffffffffffffffffff1673ffffffffffffffffffffffffffffffffffffffff1673ffffffffffffffffffffffffffffffffffffffff1681526020016000820160149054906101000a90046bffffffffffffffffffffffff166bffffffffffffffffffffffff166bffffffffffffffffffffffff168152505090505b6000610b80611e9d565b6bffffffffffffffffffffffff1682602001516bffffffffffffffffffffffff1686610bac91906135ea565b610bb69190613673565b90508160000151819350935050509250929050565b610bd3611a8a565b73ffffffffffffffffffffffffffffffffffffffff16610bf16112c3565b73ffffffffffffffffffffffffffffffffffffffff1614610c47576040517f08c379a0000000000000000000000000000000000000000000000000000000008152600401610c3e906136f0565b60405180910390fd5b6000479050610c5d610c57611a8a565b82611ea7565b50565b610c7b838383604051806020016040528060008152506115ea565b505050565b610c88611a8a565b73ffffffffffffffffffffffffffffffffffffffff16610ca66112c3565b73ffffffffffffffffffffffffffffffffffffffff1614610cfc576040517f08c379a0000000000000000000000000000000000000000000000000000000008152600401610cf3906136f0565b60405180910390fd5b600a60009054906101000a900460ff1615610d4c576040517f08c379a0000000000000000000000000000000000000000000000000000000008152600401610d439061375c565b60405180910390fd5b6001815111610d87576040517f51a4769e00000000000000000000000000000000000000000000000000000000815260040160405180910390fd5b80600d9080519060200190610d9d929190612a9f565b506001600a60006101000a81548160ff02191690831515021790555050565b610dc4611a8a565b73ffffffffffffffffffffffffffffffffffffffff16610de26112c3565b73ffffffffffffffffffffffffffffffffffffffff1614610e38576040517f08c379a0000000000000000000000000000000000000000000000000000000008152600401610e2f906136f0565b60405180910390fd5b6001815111610e73576040517f51a4769e00000000000000000000000000000000000000000000000000000000815260040160405180910390fd5b80600d9080519060200190610e89929190612a9f565b5050565b6000600a60019054906101000a900460ff16905090565b6000806002600084815260200190815260200160002060009054906101000a900473ffffffffffffffffffffffffffffffffffffffff169050600073ffffffffffffffffffffffffffffffffffffffff168173ffffffffffffffffffffffffffffffffffffffff1603610f4c576040517f08c379a0000000000000000000000000000000000000000000000000000000008152600401610f43906137ee565b60405180910390fd5b80915050919050565b60008073ffffffffffffffffffffffffffffffffffffffff168273ffffffffffffffffffffffffffffffffffffffff1603610fc5576040517f08c379a0000000000000000000000000000000000000000000000000000000008152600401610fbc90613880565b60405180910390fd5b600360008373ffffffffffffffffffffffffffffffffffffffff1673ffffffffffffffffffffffffffffffffffffffff168152602001908152602001600020549050919050565b611014611a8a565b73ffffffffffffffffffffffffffffffffffffffff166110326112c3565b73ffffffffffffffffffffffffffffffffffffffff1614611088576040517f08c379a000000000000000000000000000000000000000000000000000000000815260040161107f906136f0565b60405180910390fd5b6110926000611f9b565b565b61109c611a8a565b73ffffffffffffffffffffffffffffffffffffffff166110ba6112c3565b73ffffffffffffffffffffffffffffffffffffffff1614611110576040517f08c379a0000000000000000000000000000000000000000000000000000000008152600401611107906136f0565b60405180910390fd5b600a60019054906101000a900460ff1615600a60016101000a81548160ff021916908315150217905550565b611144611a8a565b73ffffffffffffffffffffffffffffffffffffffff166111626112c3565b73ffffffffffffffffffffffffffffffffffffffff16146111b8576040517f08c379a00000000000000000000000000000000000000000000000000000000081526004016111af906136f0565b60405180910390fd5b6111c06112ed565b60ff1681111561121057806111d36112ed565b6040517f6f4d333f0000000000000000000000000000000000000000000000000000000081526004016112079291906138db565b60405180910390fd5b61121861177d565b81611221610970565b61122b9190613904565b1115611277578061123a61177d565b6040517fea05824600000000000000000000000000000000000000000000000000000000815260040161126e92919061395a565b60405180910390fd5b60005b818110156112bf57600061128e6009611b4b565b905061129a6009612061565b6112ab6112a5611a8a565b82612077565b5080806112b790613983565b91505061127a565b5050565b6000600860009054906101000a900473ffffffffffffffffffffffffffffffffffffffff16905090565b60006014905090565b6112fe611a8a565b73ffffffffffffffffffffffffffffffffffffffff1661131c6112c3565b73ffffffffffffffffffffffffffffffffffffffff1614611372576040517f08c379a0000000000000000000000000000000000000000000000000000000008152600401611369906136f0565b60405180910390fd5b80600c8190555050565b60606001805461138b90613342565b80601f01602080910402602001604051908101604052809291908181526020018280546113b790613342565b80156114045780601f106113d957610100808354040283529160200191611404565b820191906000526020600020905b8154815290600101906020018083116113e757829003601f168201915b5050505050905090565b6000600c54905090565b600a60019054906101000a900460ff1661145e576040517f84b3602400000000000000000000000000000000000000000000000000000000815260040160405180910390fd5b6114666112ed565b60ff168111156114b657806114796112ed565b6040517f6f4d333f0000000000000000000000000000000000000000000000000000000081526004016114ad9291906138db565b60405180910390fd5b6114be61177d565b816114c7610970565b6114d19190613904565b111561151d57806114e061177d565b6040517fea05824600000000000000000000000000000000000000000000000000000000815260040161151492919061395a565b60405180910390fd5b8061152661140e565b61153091906135ea565b34101561158857348161154161140e565b61154b91906135ea565b6040517f03eb8b5400000000000000000000000000000000000000000000000000000000815260040161157f92919061395a565b60405180910390fd5b60005b818110156115d057600061159f6009611b4b565b90506115ab6009612061565b6115bc6115b6611a8a565b82612077565b5080806115c890613983565b91505061158b565b5050565b6115e66115df611a8a565b8383612250565b5050565b6115fb6115f5611a8a565b83611b59565b61163a576040517f08c379a00000000000000000000000000000000000000000000000000000000081526004016116319061359b565b60405180910390fd5b611646848484846123bc565b50505050565b611654611a8a565b73ffffffffffffffffffffffffffffffffffffffff166116726112c3565b73ffffffffffffffffffffffffffffffffffffffff16146116c8576040517f08c379a00000000000000000000000000000000000000000000000000000000081526004016116bf906136f0565b60405180910390fd5b6116d28282612418565b5050565b60606116e182611a1e565b611720576040517f08c379a000000000000000000000000000000000000000000000000000000000815260040161171790613a3d565b60405180910390fd5b600061172a6125ad565b9050600081511161174a5760405180602001604052806000815250611775565b806117548461263f565b604051602001611765929190613a99565b6040516020818303038152906040525b915050919050565b6000600b54905090565b6060600d805461179690613342565b80601f01602080910402602001604051908101604052809291908181526020018280546117c290613342565b801561180f5780601f106117e45761010080835404028352916020019161180f565b820191906000526020600020905b8154815290600101906020018083116117f257829003601f168201915b5050505050905090565b6000600560008473ffffffffffffffffffffffffffffffffffffffff1673ffffffffffffffffffffffffffffffffffffffff16815260200190815260200160002060008373ffffffffffffffffffffffffffffffffffffffff1673ffffffffffffffffffffffffffffffffffffffff16815260200190815260200160002060009054906101000a900460ff16905092915050565b6118b5611a8a565b73ffffffffffffffffffffffffffffffffffffffff166118d36112c3565b73ffffffffffffffffffffffffffffffffffffffff1614611929576040517f08c379a0000000000000000000000000000000000000000000000000000000008152600401611920906136f0565b60405180910390fd5b600073ffffffffffffffffffffffffffffffffffffffff168173ffffffffffffffffffffffffffffffffffffffff1603611998576040517f08c379a000000000000000000000000000000000000000000000000000000000815260040161198f90613b2f565b60405180910390fd5b6119a181611f9b565b50565b60007f2a55205a000000000000000000000000000000000000000000000000000000007bffffffffffffffffffffffffffffffffffffffffffffffffffffffff1916827bffffffffffffffffffffffffffffffffffffffffffffffffffffffff19161480611a175750611a168261279f565b5b9050919050565b60008073ffffffffffffffffffffffffffffffffffffffff166002600084815260200190815260200160002060009054906101000a900473ffffffffffffffffffffffffffffffffffffffff1673ffffffffffffffffffffffffffffffffffffffff1614159050919050565b600033905090565b816004600083815260200190815260200160002060006101000a81548173ffffffffffffffffffffffffffffffffffffffff021916908373ffffffffffffffffffffffffffffffffffffffff160217905550808273ffffffffffffffffffffffffffffffffffffffff16611b0583610ea4565b73ffffffffffffffffffffffffffffffffffffffff167f8c5be1e5ebec7d5bd14f71427d1e84f3dd0314c0f7b2291e5b200ac8c7c3b92560405160405180910390a45050565b600081600001549050919050565b6000611b6482611a1e565b611ba3576040517f08c379a0000000000000000000000000000000000000000000000000000000008152600401611b9a90613bc1565b60405180910390fd5b6000611bae83610ea4565b90508073ffffffffffffffffffffffffffffffffffffffff168473ffffffffffffffffffffffffffffffffffffffff161480611bf05750611bef8185611819565b5b80611c2e57508373ffffffffffffffffffffffffffffffffffffffff16611c16846107d4565b73ffffffffffffffffffffffffffffffffffffffff16145b91505092915050565b8273ffffffffffffffffffffffffffffffffffffffff16611c5782610ea4565b73ffffffffffffffffffffffffffffffffffffffff1614611cad576040517f08c379a0000000000000000000000000000000000000000000000000000000008152600401611ca490613c53565b60405180910390fd5b600073ffffffffffffffffffffffffffffffffffffffff168273ffffffffffffffffffffffffffffffffffffffff1603611d1c576040517f08c379a0000000000000000000000000000000000000000000000000000000008152600401611d1390613ce5565b60405180910390fd5b611d27838383612881565b611d32600082611a92565b6001600360008573ffffffffffffffffffffffffffffffffffffffff1673ffffffffffffffffffffffffffffffffffffffff1681526020019081526020016000206000828254611d829190613d05565b925050819055506001600360008473ffffffffffffffffffffffffffffffffffffffff1673ffffffffffffffffffffffffffffffffffffffff1681526020019081526020016000206000828254611dd99190613904565b92505081905550816002600083815260200190815260200160002060006101000a81548173ffffffffffffffffffffffffffffffffffffffff021916908373ffffffffffffffffffffffffffffffffffffffff160217905550808273ffffffffffffffffffffffffffffffffffffffff168473ffffffffffffffffffffffffffffffffffffffff167fddf252ad1be2c89b69c2b068fc378daa952ba7f163c4a11628f55a4df523b3ef60405160405180910390a4611e98838383612886565b505050565b6000612710905090565b80471015611eea576040517f08c379a0000000000000000000000000000000000000000000000000000000008152600401611ee190613d85565b60405180910390fd5b60008273ffffffffffffffffffffffffffffffffffffffff1682604051611f1090613dd6565b60006040518083038185875af1925050503d8060008114611f4d576040519150601f19603f3d011682016040523d82523d6000602084013e611f52565b606091505b5050905080611f96576040517f08c379a0000000000000000000000000000000000000000000000000000000008152600401611f8d90613e5d565b60405180910390fd5b505050565b6000600860009054906101000a900473ffffffffffffffffffffffffffffffffffffffff16905081600860006101000a81548173ffffffffffffffffffffffffffffffffffffffff021916908373ffffffffffffffffffffffffffffffffffffffff1602179055508173ffffffffffffffffffffffffffffffffffffffff168173ffffffffffffffffffffffffffffffffffffffff167f8be0079c531659141344cd1fd0a4f28419497f9722a3daafe3b4186f6b6457e060405160405180910390a35050565b6001816000016000828254019250508190555050565b600073ffffffffffffffffffffffffffffffffffffffff168273ffffffffffffffffffffffffffffffffffffffff16036120e6576040517f08c379a00000000000000000000000000000000000000000000000000000000081526004016120dd90613ec9565b60405180910390fd5b6120ef81611a1e565b1561212f576040517f08c379a000000000000000000000000000000000000000000000000000000000815260040161212690613f35565b60405180910390fd5b61213b60008383612881565b6001600360008473ffffffffffffffffffffffffffffffffffffffff1673ffffffffffffffffffffffffffffffffffffffff168152602001908152602001600020600082825461218b9190613904565b92505081905550816002600083815260200190815260200160002060006101000a81548173ffffffffffffffffffffffffffffffffffffffff021916908373ffffffffffffffffffffffffffffffffffffffff160217905550808273ffffffffffffffffffffffffffffffffffffffff16600073ffffffffffffffffffffffffffffffffffffffff167fddf252ad1be2c89b69c2b068fc378daa952ba7f163c4a11628f55a4df523b3ef60405160405180910390a461224c60008383612886565b5050565b8173ffffffffffffffffffffffffffffffffffffffff168373ffffffffffffffffffffffffffffffffffffffff16036122be576040517f08c379a00000000000000000000000000000000000000000000000000000000081526004016122b590613fa1565b60405180910390fd5b80600560008573ffffffffffffffffffffffffffffffffffffffff1673ffffffffffffffffffffffffffffffffffffffff16815260200190815260200160002060008473ffffffffffffffffffffffffffffffffffffffff1673ffffffffffffffffffffffffffffffffffffffff16815260200190815260200160002060006101000a81548160ff0219169083151502179055508173ffffffffffffffffffffffffffffffffffffffff168373ffffffffffffffffffffffffffffffffffffffff167f17307eab39ab6107e8899845ad3d59bd9653f200f220920489ca2b5937696c31836040516123af9190612bf6565b60405180910390a3505050565b6123c7848484611c37565b6123d38484848461288b565b612412576040517f08c379a000000000000000000000000000000000000000000000000000000000815260040161240990614033565b60405180910390fd5b50505050565b612420611e9d565b6bffffffffffffffffffffffff16816bffffffffffffffffffffffff16111561247e576040517f08c379a0000000000000000000000000000000000000000000000000000000008152600401612475906140c5565b60405180910390fd5b600073ffffffffffffffffffffffffffffffffffffffff168273ffffffffffffffffffffffffffffffffffffffff16036124ed576040517f08c379a00000000000000000000000000000000000000000000000000000000081526004016124e490614131565b60405180910390fd5b60405180604001604052808373ffffffffffffffffffffffffffffffffffffffff168152602001826bffffffffffffffffffffffff16815250600660008201518160000160006101000a81548173ffffffffffffffffffffffffffffffffffffffff021916908373ffffffffffffffffffffffffffffffffffffffff16021790555060208201518160000160146101000a8154816bffffffffffffffffffffffff02191690836bffffffffffffffffffffffff1602179055509050505050565b6060600d80546125bc90613342565b80601f01602080910402602001604051908101604052809291908181526020018280546125e890613342565b80156126355780601f1061260a57610100808354040283529160200191612635565b820191906000526020600020905b81548152906001019060200180831161261857829003601f168201915b5050505050905090565b606060008203612686576040518060400160405280600181526020017f3000000000000000000000000000000000000000000000000000000000000000815250905061279a565b600082905060005b600082146126b85780806126a190613983565b915050600a826126b19190613673565b915061268e565b60008167ffffffffffffffff8111156126d4576126d3612ee7565b5b6040519080825280601f01601f1916602001820160405280156127065781602001600182028036833780820191505090505b5090505b600085146127935760018261271f9190613d05565b9150600a8561272e9190614151565b603061273a9190613904565b60f81b8183815181106127505761274f614182565b5b60200101907effffffffffffffffffffffffffffffffffffffffffffffffffffffffffffff1916908160001a905350600a8561278c9190613673565b945061270a565b8093505050505b919050565b60007f80ac58cd000000000000000000000000000000000000000000000000000000007bffffffffffffffffffffffffffffffffffffffffffffffffffffffff1916827bffffffffffffffffffffffffffffffffffffffffffffffffffffffff1916148061286a57507f5b5e139f000000000000000000000000000000000000000000000000000000007bffffffffffffffffffffffffffffffffffffffffffffffffffffffff1916827bffffffffffffffffffffffffffffffffffffffffffffffffffffffff1916145b8061287a575061287982612a12565b5b9050919050565b505050565b505050565b60006128ac8473ffffffffffffffffffffffffffffffffffffffff16612a7c565b15612a05578373ffffffffffffffffffffffffffffffffffffffff1663150b7a026128d5611a8a565b8786866040518563ffffffff1660e01b81526004016128f79493929190614206565b6020604051808303816000875af192505050801561293357506040513d601f19601f820116820180604052508101906129309190614267565b60015b6129b5573d8060008114612963576040519150601f19603f3d011682016040523d82523d6000602084013e612968565b606091505b5060008151036129ad576040517f08c379a00000000000000000000000000000000000000000000000000000000081526004016129a490614033565b60405180910390fd5b805181602001fd5b63150b7a0260e01b7bffffffffffffffffffffffffffffffffffffffffffffffffffffffff1916817bffffffffffffffffffffffffffffffffffffffffffffffffffffffff191614915050612a0a565b600190505b949350505050565b60007f01ffc9a7000000000000000000000000000000000000000000000000000000007bffffffffffffffffffffffffffffffffffffffffffffffffffffffff1916827bffffffffffffffffffffffffffffffffffffffffffffffffffffffff1916149050919050565b6000808273ffffffffffffffffffffffffffffffffffffffff163b119050919050565b828054612aab90613342565b90600052602060002090601f016020900481019282612acd5760008555612b14565b82601f10612ae657805160ff1916838001178555612b14565b82800160010185558215612b14579182015b82811115612b13578251825591602001919060010190612af8565b5b509050612b219190612b25565b5090565b5b80821115612b3e576000816000905550600101612b26565b5090565b6000604051905090565b600080fd5b600080fd5b60007fffffffff0000000000000000000000000000000000000000000000000000000082169050919050565b612b8b81612b56565b8114612b9657600080fd5b50565b600081359050612ba881612b82565b92915050565b600060208284031215612bc457612bc3612b4c565b5b6000612bd284828501612b99565b91505092915050565b60008115159050919050565b612bf081612bdb565b82525050565b6000602082019050612c0b6000830184612be7565b92915050565b600081519050919050565b600082825260208201905092915050565b60005b83811015612c4b578082015181840152602081019050612c30565b83811115612c5a576000848401525b50505050565b6000601f19601f8301169050919050565b6000612c7c82612c11565b612c868185612c1c565b9350612c96818560208601612c2d565b612c9f81612c60565b840191505092915050565b60006020820190508181036000830152612cc48184612c71565b905092915050565b6000819050919050565b612cdf81612ccc565b8114612cea57600080fd5b50565b600081359050612cfc81612cd6565b92915050565b600060208284031215612d1857612d17612b4c565b5b6000612d2684828501612ced565b91505092915050565b600073ffffffffffffffffffffffffffffffffffffffff82169050919050565b6000612d5a82612d2f565b9050919050565b612d6a81612d4f565b82525050565b6000602082019050612d856000830184612d61565b92915050565b612d9481612d4f565b8114612d9f57600080fd5b50565b600081359050612db181612d8b565b92915050565b60008060408385031215612dce57612dcd612b4c565b5b6000612ddc85828601612da2565b9250506020612ded85828601612ced565b9150509250929050565b612e0081612ccc565b82525050565b6000602082019050612e1b6000830184612df7565b92915050565b600080600060608486031215612e3a57612e39612b4c565b5b6000612e4886828701612da2565b9350506020612e5986828701612da2565b9250506040612e6a86828701612ced565b9150509250925092565b60008060408385031215612e8b57612e8a612b4c565b5b6000612e9985828601612ced565b9250506020612eaa85828601612ced565b9150509250929050565b6000604082019050612ec96000830185612d61565b612ed66020830184612df7565b9392505050565b600080fd5b600080fd5b7f4e487b7100000000000000000000000000000000000000000000000000000000600052604160045260246000fd5b612f1f82612c60565b810181811067ffffffffffffffff82111715612f3e57612f3d612ee7565b5b80604052505050565b6000612f51612b42565b9050612f5d8282612f16565b919050565b600067ffffffffffffffff821115612f7d57612f7c612ee7565b5b612f8682612c60565b9050602081019050919050565b82818337600083830152505050565b6000612fb5612fb084612f62565b612f47565b905082815260208101848484011115612fd157612fd0612ee2565b5b612fdc848285612f93565b509392505050565b600082601f830112612ff957612ff8612edd565b5b8135613009848260208601612fa2565b91505092915050565b60006020828403121561302857613027612b4c565b5b600082013567ffffffffffffffff81111561304657613045612b51565b5b61305284828501612fe4565b91505092915050565b60006020828403121561307157613070612b4c565b5b600061307f84828501612da2565b91505092915050565b600060ff82169050919050565b61309e81613088565b82525050565b60006020820190506130b96000830184613095565b92915050565b6130c881612bdb565b81146130d357600080fd5b50565b6000813590506130e5816130bf565b92915050565b6000806040838503121561310257613101612b4c565b5b600061311085828601612da2565b9250506020613121858286016130d6565b9150509250929050565b600067ffffffffffffffff82111561314657613145612ee7565b5b61314f82612c60565b9050602081019050919050565b600061316f61316a8461312b565b612f47565b90508281526020810184848401111561318b5761318a612ee2565b5b613196848285612f93565b509392505050565b600082601f8301126131b3576131b2612edd565b5b81356131c384826020860161315c565b91505092915050565b600080600080608085870312156131e6576131e5612b4c565b5b60006131f487828801612da2565b945050602061320587828801612da2565b935050604061321687828801612ced565b925050606085013567ffffffffffffffff81111561323757613236612b51565b5b6132438782880161319e565b91505092959194509250565b60006bffffffffffffffffffffffff82169050919050565b6132708161324f565b811461327b57600080fd5b50565b60008135905061328d81613267565b92915050565b600080604083850312156132aa576132a9612b4c565b5b60006132b885828601612da2565b92505060206132c98582860161327e565b9150509250929050565b600080604083850312156132ea576132e9612b4c565b5b60006132f885828601612da2565b925050602061330985828601612da2565b9150509250929050565b7f4e487b7100000000000000000000000000000000000000000000000000000000600052602260045260246000fd5b6000600282049050600182168061335a57607f821691505b60208210810361336d5761336c613313565b5b50919050565b7f4552433732313a20617070726f76656420717565727920666f72206e6f6e657860008201527f697374656e7420746f6b656e0000000000000000000000000000000000000000602082015250565b60006133cf602c83612c1c565b91506133da82613373565b604082019050919050565b600060208201905081810360008301526133fe816133c2565b9050919050565b7f4552433732313a20617070726f76616c20746f2063757272656e74206f776e6560008201527f7200000000000000000000000000000000000000000000000000000000000000602082015250565b6000613461602183612c1c565b915061346c82613405565b604082019050919050565b6000602082019050818103600083015261349081613454565b9050919050565b7f4552433732313a20617070726f76652063616c6c6572206973206e6f74206f7760008201527f6e6572206e6f7220617070726f76656420666f7220616c6c0000000000000000602082015250565b60006134f3603883612c1c565b91506134fe82613497565b604082019050919050565b60006020820190508181036000830152613522816134e6565b9050919050565b7f4552433732313a207472616e736665722063616c6c6572206973206e6f74206f60008201527f776e6572206e6f7220617070726f766564000000000000000000000000000000602082015250565b6000613585603183612c1c565b915061359082613529565b604082019050919050565b600060208201905081810360008301526135b481613578565b9050919050565b7f4e487b7100000000000000000000000000000000000000000000000000000000600052601160045260246000fd5b60006135f582612ccc565b915061360083612ccc565b9250817fffffffffffffffffffffffffffffffffffffffffffffffffffffffffffffffff0483118215151615613639576136386135bb565b5b828202905092915050565b7f4e487b7100000000000000000000000000000000000000000000000000000000600052601260045260246000fd5b600061367e82612ccc565b915061368983612ccc565b92508261369957613698613644565b5b828204905092915050565b7f4f776e61626c653a2063616c6c6572206973206e6f7420746865206f776e6572600082015250565b60006136da602083612c1c565b91506136e5826136a4565b602082019050919050565b60006020820190508181036000830152613709816136cd565b9050919050565b7f5552492068617320616c7265616479206265656e2072657665616c6564000000600082015250565b6000613746601d83612c1c565b915061375182613710565b602082019050919050565b6000602082019050818103600083015261377581613739565b9050919050565b7f4552433732313a206f776e657220717565727920666f72206e6f6e657869737460008201527f656e7420746f6b656e0000000000000000000000000000000000000000000000602082015250565b60006137d8602983612c1c565b91506137e38261377c565b604082019050919050565b60006020820190508181036000830152613807816137cb565b9050919050565b7f4552433732313a2062616c616e636520717565727920666f7220746865207a6560008201527f726f206164647265737300000000000000000000000000000000000000000000602082015250565b600061386a602a83612c1c565b91506138758261380e565b604082019050919050565b600060208201905081810360008301526138998161385d565b9050919050565b6000819050919050565b60006138c56138c06138bb84613088565b6138a0565b612ccc565b9050919050565b6138d5816138aa565b82525050565b60006040820190506138f06000830185612df7565b6138fd60208301846138cc565b9392505050565b600061390f82612ccc565b915061391a83612ccc565b9250827fffffffffffffffffffffffffffffffffffffffffffffffffffffffffffffffff0382111561394f5761394e6135bb565b5b828201905092915050565b600060408201905061396f6000830185612df7565b61397c6020830184612df7565b9392505050565b600061398e82612ccc565b91507fffffffffffffffffffffffffffffffffffffffffffffffffffffffffffffffff82036139c0576139bf6135bb565b5b600182019050919050565b7f4552433732314d657461646174613a2055524920717565727920666f72206e6f60008201527f6e6578697374656e7420746f6b656e0000000000000000000000000000000000602082015250565b6000613a27602f83612c1c565b9150613a32826139cb565b604082019050919050565b60006020820190508181036000830152613a5681613a1a565b9050919050565b600081905092915050565b6000613a7382612c11565b613a7d8185613a5d565b9350613a8d818560208601612c2d565b80840191505092915050565b6000613aa58285613a68565b9150613ab18284613a68565b91508190509392505050565b7f4f776e61626c653a206e6577206f776e657220697320746865207a65726f206160008201527f6464726573730000000000000000000000000000000000000000000000000000602082015250565b6000613b19602683612c1c565b9150613b2482613abd565b604082019050919050565b60006020820190508181036000830152613b4881613b0c565b9050919050565b7f4552433732313a206f70657261746f7220717565727920666f72206e6f6e657860008201527f697374656e7420746f6b656e0000000000000000000000000000000000000000602082015250565b6000613bab602c83612c1c565b9150613bb682613b4f565b604082019050919050565b60006020820190508181036000830152613bda81613b9e565b9050919050565b7f4552433732313a207472616e736665722066726f6d20696e636f72726563742060008201527f6f776e6572000000000000000000000000000000000000000000000000000000602082015250565b6000613c3d602583612c1c565b9150613c4882613be1565b604082019050919050565b60006020820190508181036000830152613c6c81613c30565b9050919050565b7f4552433732313a207472616e7366657220746f20746865207a65726f2061646460008201527f7265737300000000000000000000000000000000000000000000000000000000602082015250565b6000613ccf602483612c1c565b9150613cda82613c73565b604082019050919050565b60006020820190508181036000830152613cfe81613cc2565b9050919050565b6000613d1082612ccc565b9150613d1b83612ccc565b925082821015613d2e57613d2d6135bb565b5b828203905092915050565b7f416464726573733a20696e73756666696369656e742062616c616e6365000000600082015250565b6000613d6f601d83612c1c565b9150613d7a82613d39565b602082019050919050565b60006020820190508181036000830152613d9e81613d62565b9050919050565b600081905092915050565b50565b6000613dc0600083613da5565b9150613dcb82613db0565b600082019050919050565b6000613de182613db3565b9150819050919050565b7f416464726573733a20756e61626c6520746f2073656e642076616c75652c207260008201527f6563697069656e74206d61792068617665207265766572746564000000000000602082015250565b6000613e47603a83612c1c565b9150613e5282613deb565b604082019050919050565b60006020820190508181036000830152613e7681613e3a565b9050919050565b7f4552433732313a206d696e7420746f20746865207a65726f2061646472657373600082015250565b6000613eb3602083612c1c565b9150613ebe82613e7d565b602082019050919050565b60006020820190508181036000830152613ee281613ea6565b9050919050565b7f4552433732313a20746f6b656e20616c7265616479206d696e74656400000000600082015250565b6000613f1f601c83612c1c565b9150613f2a82613ee9565b602082019050919050565b60006020820190508181036000830152613f4e81613f12565b9050919050565b7f4552433732313a20617070726f766520746f2063616c6c657200000000000000600082015250565b6000613f8b601983612c1c565b9150613f9682613f55565b602082019050919050565b60006020820190508181036000830152613fba81613f7e565b9050919050565b7f4552433732313a207472616e7366657220746f206e6f6e20455243373231526560008201527f63656976657220696d706c656d656e7465720000000000000000000000000000602082015250565b600061401d603283612c1c565b915061402882613fc1565b604082019050919050565b6000602082019050818103600083015261404c81614010565b9050919050565b7f455243323938313a20726f79616c7479206665652077696c6c2065786365656460008201527f2073616c65507269636500000000000000000000000000000000000000000000602082015250565b60006140af602a83612c1c565b91506140ba82614053565b604082019050919050565b600060208201905081810360008301526140de816140a2565b9050919050565b7f455243323938313a20696e76616c696420726563656976657200000000000000600082015250565b600061411b601983612c1c565b9150614126826140e5565b602082019050919050565b6000602082019050818103600083015261414a8161410e565b9050919050565b600061415c82612ccc565b915061416783612ccc565b92508261417757614176613644565b5b828206905092915050565b7f4e487b7100000000000000000000000000000000000000000000000000000000600052603260045260246000fd5b600081519050919050565b600082825260208201905092915050565b60006141d8826141b1565b6141e281856141bc565b93506141f2818560208601612c2d565b6141fb81612c60565b840191505092915050565b600060808201905061421b6000830187612d61565b6142286020830186612d61565b6142356040830185612df7565b818103606083015261424781846141cd565b905095945050505050565b60008151905061426181612b82565b92915050565b60006020828403121561427d5761427c612b4c565b5b600061428b84828501614252565b9150509291505056fea2646970667358221220b61198967f0053b6edc22f2d7e2306ff7019a1195c94b920914f08ec92ad932664736f6c634300080d0033",
  "immutableReferences": {},
  "source": "// SPDX-License-Identifier: MIT\npragma solidity 0.8.13;\n\nimport \"@openzeppelin/contracts/access/Ownable.sol\";\nimport \"@openzeppelin/contracts/token/common/ERC2981.sol\";\nimport \"@openzeppelin/contracts/token/ERC721/ERC721.sol\";\nimport \"@openzeppelin/contracts/utils/Address.sol\";\nimport \"@openzeppelin/contracts/utils/Counters.sol\";\n\n/// Name of contract cannot be empty.\nerror NameIsEmpty();\n/// Base URI of tokens to be minted cannot be empty.\nerror BaseURIIsEmpty();\n/// Too many tokens requested: `quantity` requested but maximum allowed is `maxTokenPurchase`.\n/// @param quantity requested amount.\n/// @param maxTokenPurchase maximum amount available per transaction.\nerror MaxTokenRequestExceeded(uint256 quantity, uint256 maxTokenPurchase);\n/// Request would exceed max supply: `quantity` requested but maximum allowed is `maxSupply`.\n/// @param quantity requested amount.\n/// @param maxSupply maximum amount available.\nerror MaxSupplyExceeded(uint256 quantity, uint256 maxSupply);\n/// Insufficient funds sent: `sent` ether but `required` is required.\n/// @param sent total ether sent with transaction.\n/// @param required total ether required to purchase.\nerror InsufficientFunds(uint256 sent, uint256 required);\n/// Sale is not active at this time.\nerror InactiveSale();\n\ncontract ERC721UserMintable is ERC721, ERC2981, Ownable {\n    using Address for address;\n    using Counters for Counters.Counter;\n    /// @dev Counter auto-incrementating NFT tokenIds, default: 0\n    Counters.Counter private _tokenIdCounter;\n\n    bool private _isRevealed;\n    bool private _saleIsActive;\n    uint8 private constant MAX_TOKEN_REQUEST = 20;\n    uint256 private _maxSupply;\n    uint256 private _price;\n    string private _tokenBaseURI;\n\n    event ContractDeployed(address contractAddress_);\n\n    constructor(\n        string memory name_,\n        string memory symbol_,\n        string memory baseURI_,\n        uint256 maxSupply_,\n        uint256 price_\n    ) ERC721(name_, symbol_) {\n        if (!(bytes(name_).length > 1)) {\n            revert NameIsEmpty();\n        }\n        _tokenBaseURI = baseURI_;\n        _maxSupply = maxSupply_;\n        _price = price_;\n\n        emit ContractDeployed(address(this));\n    }\n\n    ///#if_succeeds quantity_ <= old(maxTokenRequest());\n    ///#if_succeeds totalSupply() <= old(maxSupply());\n    ///#if_succeeds old(totalSupply()) + quantity_ == totalSupply();\n    function reserve(uint256 quantity_) external onlyOwner {\n        if (quantity_ > maxTokenRequest()) {\n            revert MaxTokenRequestExceeded({\n                quantity: quantity_,\n                maxTokenPurchase: maxTokenRequest()\n            });\n        }\n        if (totalSupply() + quantity_ > maxSupply()) {\n            revert MaxSupplyExceeded({\n                quantity: quantity_,\n                maxSupply: maxSupply()\n            });\n        }\n\n        for (uint256 i = 0; i < quantity_; i++) {\n            uint256 tokenId = _tokenIdCounter.current();\n            _tokenIdCounter.increment();\n            _mint(_msgSender(), tokenId);\n        }\n    }\n\n    ///#if_succeeds old(_saleIsActive);\n    ///#if_succeeds quantity_ <= old(maxTokenRequest());\n    ///#if_succeeds totalSupply() <= old(maxSupply());\n    ///#if_succeeds msg.value >= old(price()) * quantity_;\n    ///#if_succeeds old(totalSupply()) + quantity_ == totalSupply();\n    function mint(uint256 quantity_) public payable {\n        if (!_saleIsActive) {\n            revert InactiveSale();\n        }\n        if (quantity_ > maxTokenRequest()) {\n            revert MaxTokenRequestExceeded({\n                quantity: quantity_,\n                maxTokenPurchase: maxTokenRequest()\n            });\n        }\n        if (totalSupply() + quantity_ > maxSupply()) {\n            revert MaxSupplyExceeded({\n                quantity: quantity_,\n                maxSupply: maxSupply()\n            });\n        }\n        if (msg.value < price() * quantity_) {\n            revert InsufficientFunds({\n                sent: msg.value,\n                required: price() * quantity_\n            });\n        }\n        for (uint256 i = 0; i < quantity_; i++) {\n            uint256 tokenId = _tokenIdCounter.current();\n            _tokenIdCounter.increment();\n            _mint(_msgSender(), tokenId);\n        }\n    }\n\n    function contractURI() public view returns (string memory) {\n        return _tokenBaseURI;\n    }\n\n    function isSaleActive() public view returns (bool) {\n        return _saleIsActive;\n    }\n\n    function maxSupply() public view returns (uint256) {\n        return _maxSupply;\n    }\n\n    function maxTokenRequest() public pure returns (uint8) {\n        return MAX_TOKEN_REQUEST;\n    }\n\n    function price() public view returns (uint256) {\n        return _price;\n    }\n\n    ///#if_succeeds old(_isRevealed) == false;\n    ///#if_succeeds _isRevealed == true;\n    ///#if_succeeds (keccak256(abi.encodePacked((_tokenBaseURI))) != keccak256(abi.encodePacked((\"\"))));\n    ///#if_succeeds (keccak256(abi.encodePacked((_tokenBaseURI))) == keccak256(abi.encodePacked((baseURI_))));\n    function reveal(string memory baseURI_) external onlyOwner {\n        require(!_isRevealed, \"URI has already been revealed\");\n        if (!(bytes(baseURI_).length > 1)) {\n            revert BaseURIIsEmpty();\n        }\n        _tokenBaseURI = baseURI_;\n        _isRevealed = true;\n    }\n\n    ///#if_succeeds (keccak256(abi.encodePacked((_tokenBaseURI))) != keccak256(abi.encodePacked((\"\"))));\n    ///#if_succeeds (keccak256(abi.encodePacked((_tokenBaseURI))) == keccak256(abi.encodePacked((baseURI_))));\n    function setBaseURI(string memory baseURI_) external onlyOwner {\n        if (!(bytes(baseURI_).length > 1)) {\n            revert BaseURIIsEmpty();\n        }\n        _tokenBaseURI = baseURI_;\n    }\n\n    ///#if_succeeds _price == price_;\n    function setPrice(uint256 price_) external onlyOwner {\n        _price = price_;\n    }\n\n    ///#if_succeeds let receiver, _ := royaltyInfo(0, 10000) in receiver == receiver_;\n    function setRoyalties(address receiver_, uint96 feeNumerator_)\n        external\n        onlyOwner\n    {\n        _setDefaultRoyalty(receiver_, feeNumerator_);\n    }\n\n    ///#if_succeeds old(_saleIsActive) == !_saleIsActive;\n    function toggleSale() external onlyOwner {\n        _saleIsActive = !_saleIsActive;\n    }\n\n    function totalSupply() public view returns (uint256) {\n        return _tokenIdCounter.current();\n    }\n\n    ///#if_succeeds address(this).balance == 0;\n    function withdraw() external onlyOwner {\n        uint256 balance = address(this).balance;\n        Address.sendValue(payable(_msgSender()), balance);\n    }\n\n    function _baseURI() internal view override(ERC721) returns (string memory) {\n        return _tokenBaseURI;\n    }\n\n    function supportsInterface(bytes4 interfaceId_)\n        public\n        view\n        override(ERC721, ERC2981)\n        returns (bool)\n    {\n        return super.supportsInterface(interfaceId_);\n    }\n}\n",
  "sourcePath": "/Users/fermincarranza/consensys/sdk-contracts/contracts/ERC721UserMintable.sol",
  "compiler": {
    "name": "solc",
    "version": "0.8.13+commit.abaa5c0e.Emscripten.clang"
  },
  "schemaVersion": "3.4.7",
  "updatedAt": "2022-07-06T14:30:00.702Z",
  "devdoc": {
    "errors": {
      "InsufficientFunds(uint256,uint256)": [
        {
          "params": {
            "required": "total ether required to purchase.",
            "sent": "total ether sent with transaction."
          }
        }
      ],
      "MaxSupplyExceeded(uint256,uint256)": [
        {
          "params": {
            "maxSupply": "maximum amount available.",
            "quantity": "requested amount."
          }
        }
      ],
      "MaxTokenRequestExceeded(uint256,uint256)": [
        {
          "params": {
            "maxTokenPurchase": "maximum amount available per transaction.",
            "quantity": "requested amount."
          }
        }
      ]
    },
    "kind": "dev",
    "methods": {
      "approve(address,uint256)": {
        "details": "See {IERC721-approve}."
      },
      "balanceOf(address)": {
        "details": "See {IERC721-balanceOf}."
      },
      "getApproved(uint256)": {
        "details": "See {IERC721-getApproved}."
      },
      "isApprovedForAll(address,address)": {
        "details": "See {IERC721-isApprovedForAll}."
      },
      "name()": {
        "details": "See {IERC721Metadata-name}."
      },
      "owner()": {
        "details": "Returns the address of the current owner."
      },
      "ownerOf(uint256)": {
        "details": "See {IERC721-ownerOf}."
      },
      "renounceOwnership()": {
        "details": "Leaves the contract without owner. It will not be possible to call `onlyOwner` functions anymore. Can only be called by the current owner. NOTE: Renouncing ownership will leave the contract without an owner, thereby removing any functionality that is only available to the owner."
      },
      "royaltyInfo(uint256,uint256)": {
        "details": "Returns how much royalty is owed and to whom, based on a sale price that may be denominated in any unit of exchange. The royalty amount is denominated and should be paid in that same unit of exchange."
      },
      "safeTransferFrom(address,address,uint256)": {
        "details": "See {IERC721-safeTransferFrom}."
      },
      "safeTransferFrom(address,address,uint256,bytes)": {
        "details": "See {IERC721-safeTransferFrom}."
      },
      "setApprovalForAll(address,bool)": {
        "details": "See {IERC721-setApprovalForAll}."
      },
      "symbol()": {
        "details": "See {IERC721Metadata-symbol}."
      },
      "tokenURI(uint256)": {
        "details": "See {IERC721Metadata-tokenURI}."
      },
      "transferFrom(address,address,uint256)": {
        "details": "See {IERC721-transferFrom}."
      },
      "transferOwnership(address)": {
        "details": "Transfers ownership of the contract to a new account (`newOwner`). Can only be called by the current owner."
      }
    },
    "stateVariables": {
      "_tokenIdCounter": {
        "details": "Counter auto-incrementating NFT tokenIds, default: 0"
      }
    },
    "version": 1
  },
  "userdoc": {
    "errors": {
      "BaseURIIsEmpty()": [
        {
          "notice": "Base URI of tokens to be minted cannot be empty."
        }
      ],
      "InactiveSale()": [
        {
          "notice": "Sale is not active at this time."
        }
      ],
      "InsufficientFunds(uint256,uint256)": [
        {
          "notice": "Insufficient funds sent: `sent` ether but `required` is required."
        }
      ],
      "MaxSupplyExceeded(uint256,uint256)": [
        {
          "notice": "Request would exceed max supply: `quantity` requested but maximum allowed is `maxSupply`."
        }
      ],
      "MaxTokenRequestExceeded(uint256,uint256)": [
        {
          "notice": "Too many tokens requested: `quantity` requested but maximum allowed is `maxTokenPurchase`."
        }
      ],
      "NameIsEmpty()": [
        {
          "notice": "Name of contract cannot be empty."
        }
      ]
    },
    "kind": "user",
    "methods": {
      "mint(uint256)": {
        "notice": "#if_succeeds old(_saleIsActive); #if_succeeds quantity_ <= old(maxTokenRequest()); #if_succeeds totalSupply() <= old(maxSupply()); #if_succeeds msg.value >= old(price()) * quantity_; #if_succeeds old(totalSupply()) + quantity_ == totalSupply();"
      },
      "reserve(uint256)": {
        "notice": "#if_succeeds quantity_ <= old(maxTokenRequest()); #if_succeeds totalSupply() <= old(maxSupply()); #if_succeeds old(totalSupply()) + quantity_ == totalSupply();"
      },
      "reveal(string)": {
        "notice": "#if_succeeds old(_isRevealed) == false; #if_succeeds _isRevealed == true; #if_succeeds (keccak256(abi.encodePacked((_tokenBaseURI))) != keccak256(abi.encodePacked((\"\")))); #if_succeeds (keccak256(abi.encodePacked((_tokenBaseURI))) == keccak256(abi.encodePacked((baseURI_))));"
      },
      "setBaseURI(string)": {
        "notice": "#if_succeeds (keccak256(abi.encodePacked((_tokenBaseURI))) != keccak256(abi.encodePacked((\"\")))); #if_succeeds (keccak256(abi.encodePacked((_tokenBaseURI))) == keccak256(abi.encodePacked((baseURI_))));"
      },
      "setPrice(uint256)": {
        "notice": "#if_succeeds _price == price_;"
      },
      "setRoyalties(address,uint96)": {
        "notice": "#if_succeeds let receiver, _ := royaltyInfo(0, 10000) in receiver == receiver_;"
      },
      "toggleSale()": {
        "notice": "#if_succeeds old(_saleIsActive) == !_saleIsActive;"
      },
      "withdraw()": {
        "notice": "#if_succeeds address(this).balance == 0;"
      }
    },
    "version": 1
  },
  "db": {
    "callBytecode": {
      "id": "0x95a54e5aac34f5ff1d5f2a0b738e20c917220270d13e3745dae45a59fdc540ac"
    },
    "createBytecode": {
      "id": "0x6174fcd23e4cae2e96791a7ec38616a76771c71ec7ec4f0170aa03b0e3abc0d7"
    },
    "contract": {
      "id": "0x9dc0ad853171fe4572b9b86c21957fee4f3da037d989fb42e87559dde45b9711"
    }
  }
}