{
  "contractName": "NFT",
  "abi": [
    {
      "inputs": [
        {
          "internalType": "string",
          "name": "name_",
          "type": "string"
        },
        {
          "internalType": "string",
          "name": "symbol_",
          "type": "string"
        },
        {
          "internalType": "string",
          "name": "contractURI_",
          "type": "string"
        }
      ],
      "stateMutability": "nonpayable",
      "type": "constructor"
    },
    {
      "anonymous": false,
      "inputs": [
        {
          "indexed": true,
          "internalType": "address",
          "name": "owner",
          "type": "address"
        },
        {
          "indexed": true,
          "internalType": "address",
          "name": "approved",
          "type": "address"
        },
        {
          "indexed": true,
          "internalType": "uint256",
          "name": "tokenId",
          "type": "uint256"
        }
      ],
      "name": "Approval",
      "type": "event"
    },
    {
      "anonymous": false,
      "inputs": [
        {
          "indexed": true,
          "internalType": "address",
          "name": "owner",
          "type": "address"
        },
        {
          "indexed": true,
          "internalType": "address",
          "name": "operator",
          "type": "address"
        },
        {
          "indexed": false,
          "internalType": "bool",
          "name": "approved",
          "type": "bool"
        }
      ],
      "name": "ApprovalForAll",
      "type": "event"
    },
    {
      "anonymous": false,
      "inputs": [
        {
          "indexed": true,
          "internalType": "address",
          "name": "previousOwner",
          "type": "address"
        },
        {
          "indexed": true,
          "internalType": "address",
          "name": "newOwner",
          "type": "address"
        }
      ],
      "name": "OwnershipTransferred",
      "type": "event"
    },
    {
      "anonymous": false,
      "inputs": [
        {
          "indexed": true,
          "internalType": "bytes32",
          "name": "role",
          "type": "bytes32"
        },
        {
          "indexed": true,
          "internalType": "bytes32",
          "name": "previousAdminRole",
          "type": "bytes32"
        },
        {
          "indexed": true,
          "internalType": "bytes32",
          "name": "newAdminRole",
          "type": "bytes32"
        }
      ],
      "name": "RoleAdminChanged",
      "type": "event"
    },
    {
      "anonymous": false,
      "inputs": [
        {
          "indexed": true,
          "internalType": "bytes32",
          "name": "role",
          "type": "bytes32"
        },
        {
          "indexed": true,
          "internalType": "address",
          "name": "account",
          "type": "address"
        },
        {
          "indexed": true,
          "internalType": "address",
          "name": "sender",
          "type": "address"
        }
      ],
      "name": "RoleGranted",
      "type": "event"
    },
    {
      "anonymous": false,
      "inputs": [
        {
          "indexed": true,
          "internalType": "bytes32",
          "name": "role",
          "type": "bytes32"
        },
        {
          "indexed": true,
          "internalType": "address",
          "name": "account",
          "type": "address"
        },
        {
          "indexed": true,
          "internalType": "address",
          "name": "sender",
          "type": "address"
        }
      ],
      "name": "RoleRevoked",
      "type": "event"
    },
    {
      "anonymous": false,
      "inputs": [
        {
          "indexed": true,
          "internalType": "address",
          "name": "from",
          "type": "address"
        },
        {
          "indexed": true,
          "internalType": "address",
          "name": "to",
          "type": "address"
        },
        {
          "indexed": true,
          "internalType": "uint256",
          "name": "tokenId",
          "type": "uint256"
        }
      ],
      "name": "Transfer",
      "type": "event"
    },
    {
      "inputs": [],
      "name": "DEFAULT_ADMIN_ROLE",
      "outputs": [
        {
          "internalType": "bytes32",
          "name": "",
          "type": "bytes32"
        }
      ],
      "stateMutability": "view",
      "type": "function"
    },
    {
      "inputs": [],
      "name": "MINTER_ROLE",
      "outputs": [
        {
          "internalType": "bytes32",
          "name": "",
          "type": "bytes32"
        }
      ],
      "stateMutability": "view",
      "type": "function"
    },
    {
      "inputs": [
        {
          "internalType": "address",
          "name": "to",
          "type": "address"
        },
        {
          "internalType": "uint256",
          "name": "tokenId",
          "type": "uint256"
        }
      ],
      "name": "approve",
      "outputs": [],
      "stateMutability": "nonpayable",
      "type": "function"
    },
    {
      "inputs": [
        {
          "internalType": "address",
          "name": "owner",
          "type": "address"
        }
      ],
      "name": "balanceOf",
      "outputs": [
        {
          "internalType": "uint256",
          "name": "",
          "type": "uint256"
        }
      ],
      "stateMutability": "view",
      "type": "function"
    },
    {
      "inputs": [
        {
          "internalType": "uint256",
          "name": "tokenId",
          "type": "uint256"
        }
      ],
      "name": "getApproved",
      "outputs": [
        {
          "internalType": "address",
          "name": "",
          "type": "address"
        }
      ],
      "stateMutability": "view",
      "type": "function"
    },
    {
      "inputs": [
        {
          "internalType": "bytes32",
          "name": "role",
          "type": "bytes32"
        }
      ],
      "name": "getRoleAdmin",
      "outputs": [
        {
          "internalType": "bytes32",
          "name": "",
          "type": "bytes32"
        }
      ],
      "stateMutability": "view",
      "type": "function"
    },
    {
      "inputs": [
        {
          "internalType": "bytes32",
          "name": "role",
          "type": "bytes32"
        },
        {
          "internalType": "address",
          "name": "account",
          "type": "address"
        }
      ],
      "name": "grantRole",
      "outputs": [],
      "stateMutability": "nonpayable",
      "type": "function"
    },
    {
      "inputs": [
        {
          "internalType": "bytes32",
          "name": "role",
          "type": "bytes32"
        },
        {
          "internalType": "address",
          "name": "account",
          "type": "address"
        }
      ],
      "name": "hasRole",
      "outputs": [
        {
          "internalType": "bool",
          "name": "",
          "type": "bool"
        }
      ],
      "stateMutability": "view",
      "type": "function"
    },
    {
      "inputs": [
        {
          "internalType": "address",
          "name": "owner",
          "type": "address"
        },
        {
          "internalType": "address",
          "name": "operator",
          "type": "address"
        }
      ],
      "name": "isApprovedForAll",
      "outputs": [
        {
          "internalType": "bool",
          "name": "",
          "type": "bool"
        }
      ],
      "stateMutability": "view",
      "type": "function"
    },
    {
      "inputs": [],
      "name": "name",
      "outputs": [
        {
          "internalType": "string",
          "name": "",
          "type": "string"
        }
      ],
      "stateMutability": "view",
      "type": "function"
    },
    {
      "inputs": [],
      "name": "owner",
      "outputs": [
        {
          "internalType": "address",
          "name": "",
          "type": "address"
        }
      ],
      "stateMutability": "view",
      "type": "function"
    },
    {
      "inputs": [
        {
          "internalType": "uint256",
          "name": "tokenId",
          "type": "uint256"
        }
      ],
      "name": "ownerOf",
      "outputs": [
        {
          "internalType": "address",
          "name": "",
          "type": "address"
        }
      ],
      "stateMutability": "view",
      "type": "function"
    },
    {
      "inputs": [],
      "name": "renounceOwnership",
      "outputs": [],
      "stateMutability": "nonpayable",
      "type": "function"
    },
    {
      "inputs": [
        {
          "internalType": "bytes32",
          "name": "role",
          "type": "bytes32"
        },
        {
          "internalType": "address",
          "name": "account",
          "type": "address"
        }
      ],
      "name": "renounceRole",
      "outputs": [],
      "stateMutability": "nonpayable",
      "type": "function"
    },
    {
      "inputs": [
        {
          "internalType": "bytes32",
          "name": "role",
          "type": "bytes32"
        },
        {
          "internalType": "address",
          "name": "account",
          "type": "address"
        }
      ],
      "name": "revokeRole",
      "outputs": [],
      "stateMutability": "nonpayable",
      "type": "function"
    },
    {
      "inputs": [
        {
          "internalType": "address",
          "name": "from",
          "type": "address"
        },
        {
          "internalType": "address",
          "name": "to",
          "type": "address"
        },
        {
          "internalType": "uint256",
          "name": "tokenId",
          "type": "uint256"
        }
      ],
      "name": "safeTransferFrom",
      "outputs": [],
      "stateMutability": "nonpayable",
      "type": "function"
    },
    {
      "inputs": [
        {
          "internalType": "address",
          "name": "from",
          "type": "address"
        },
        {
          "internalType": "address",
          "name": "to",
          "type": "address"
        },
        {
          "internalType": "uint256",
          "name": "tokenId",
          "type": "uint256"
        },
        {
          "internalType": "bytes",
          "name": "_data",
          "type": "bytes"
        }
      ],
      "name": "safeTransferFrom",
      "outputs": [],
      "stateMutability": "nonpayable",
      "type": "function"
    },
    {
      "inputs": [
        {
          "internalType": "address",
          "name": "operator",
          "type": "address"
        },
        {
          "internalType": "bool",
          "name": "approved",
          "type": "bool"
        }
      ],
      "name": "setApprovalForAll",
      "outputs": [],
      "stateMutability": "nonpayable",
      "type": "function"
    },
    {
      "inputs": [],
      "name": "symbol",
      "outputs": [
        {
          "internalType": "string",
          "name": "",
          "type": "string"
        }
      ],
      "stateMutability": "view",
      "type": "function"
    },
    {
      "inputs": [
        {
          "internalType": "uint256",
          "name": "tokenId",
          "type": "uint256"
        }
      ],
      "name": "tokenURI",
      "outputs": [
        {
          "internalType": "string",
          "name": "",
          "type": "string"
        }
      ],
      "stateMutability": "view",
      "type": "function"
    },
    {
      "inputs": [
        {
          "internalType": "address",
          "name": "from",
          "type": "address"
        },
        {
          "internalType": "address",
          "name": "to",
          "type": "address"
        },
        {
          "internalType": "uint256",
          "name": "tokenId",
          "type": "uint256"
        }
      ],
      "name": "transferFrom",
      "outputs": [],
      "stateMutability": "nonpayable",
      "type": "function"
    },
    {
      "inputs": [
        {
          "internalType": "address",
          "name": "newOwner",
          "type": "address"
        }
      ],
      "name": "transferOwnership",
      "outputs": [],
      "stateMutability": "nonpayable",
      "type": "function"
    },
    {
      "inputs": [
        {
          "internalType": "address",
          "name": "to_",
          "type": "address"
        },
        {
          "internalType": "string",
          "name": "tokenURI_",
          "type": "string"
        }
      ],
      "name": "mintWithTokenURI",
      "outputs": [
        {
          "internalType": "bool",
          "name": "",
          "type": "bool"
        }
      ],
      "stateMutability": "nonpayable",
      "type": "function"
    },
    {
      "inputs": [
        {
          "internalType": "uint256",
          "name": "tokenId_",
          "type": "uint256"
        }
      ],
      "name": "burn",
      "outputs": [],
      "stateMutability": "nonpayable",
      "type": "function"
    },
    {
      "inputs": [],
      "name": "contractURI",
      "outputs": [
        {
          "internalType": "string",
          "name": "",
          "type": "string"
        }
      ],
      "stateMutability": "view",
      "type": "function"
    },
    {
      "inputs": [
        {
          "internalType": "string",
          "name": "contractURI_",
          "type": "string"
        }
      ],
      "name": "setContractURI",
      "outputs": [],
      "stateMutability": "nonpayable",
      "type": "function"
    },
    {
      "inputs": [
        {
          "internalType": "bytes4",
          "name": "interfaceId_",
          "type": "bytes4"
        }
      ],
      "name": "supportsInterface",
      "outputs": [
        {
          "internalType": "bool",
          "name": "",
          "type": "bool"
        }
      ],
      "stateMutability": "view",
      "type": "function"
    }
  ],
  "bytecode": "0x60806040523480156200001157600080fd5b50604051620047d6380380620047d683398181016040528101906200003791906200058c565b82828160009080519060200190620000519291906200033f565b5080600190805190602001906200006a9291906200033f565b5050506200008d620000816200011460201b60201c565b6200011c60201b60201c565b80600a9080519060200190620000a59291906200033f565b50620000ca6000801b620000be6200011460201b60201c565b620001e260201b60201c565b6200010b7f9f2df0fed2c77648de5860a4cc508cd0818c85b8b8a1ab4ceeef8d981c8956a6620000ff6200011460201b60201c565b620001e260201b60201c565b505050620006a9565b600033905090565b6000600860009054906101000a900473ffffffffffffffffffffffffffffffffffffffff16905081600860006101000a81548173ffffffffffffffffffffffffffffffffffffffff021916908373ffffffffffffffffffffffffffffffffffffffff1602179055508173ffffffffffffffffffffffffffffffffffffffff168173ffffffffffffffffffffffffffffffffffffffff167f8be0079c531659141344cd1fd0a4f28419497f9722a3daafe3b4186f6b6457e060405160405180910390a35050565b620001f48282620002d460201b60201c565b620002d05760016007600084815260200190815260200160002060000160008373ffffffffffffffffffffffffffffffffffffffff1673ffffffffffffffffffffffffffffffffffffffff16815260200190815260200160002060006101000a81548160ff021916908315150217905550620002756200011460201b60201c565b73ffffffffffffffffffffffffffffffffffffffff168173ffffffffffffffffffffffffffffffffffffffff16837f2f8788117e7eff1d82e926ec794901d17c78024a50270940304540a733656f0d60405160405180910390a45b5050565b60006007600084815260200190815260200160002060000160008373ffffffffffffffffffffffffffffffffffffffff1673ffffffffffffffffffffffffffffffffffffffff16815260200190815260200160002060009054906101000a900460ff16905092915050565b8280546200034d9062000674565b90600052602060002090601f016020900481019282620003715760008555620003bd565b82601f106200038c57805160ff1916838001178555620003bd565b82800160010185558215620003bd579182015b82811115620003bc5782518255916020019190600101906200039f565b5b509050620003cc9190620003d0565b5090565b5b80821115620003eb576000816000905550600101620003d1565b5090565b6000604051905090565b600080fd5b600080fd5b600080fd5b600080fd5b6000601f19601f8301169050919050565b7f4e487b7100000000000000000000000000000000000000000000000000000000600052604160045260246000fd5b62000458826200040d565b810181811067ffffffffffffffff821117156200047a57620004796200041e565b5b80604052505050565b60006200048f620003ef565b90506200049d82826200044d565b919050565b600067ffffffffffffffff821115620004c057620004bf6200041e565b5b620004cb826200040d565b9050602081019050919050565b60005b83811015620004f8578082015181840152602081019050620004db565b8381111562000508576000848401525b50505050565b6000620005256200051f84620004a2565b62000483565b90508281526020810184848401111562000544576200054362000408565b5b62000551848285620004d8565b509392505050565b600082601f83011262000571576200057062000403565b5b8151620005838482602086016200050e565b91505092915050565b600080600060608486031215620005a857620005a7620003f9565b5b600084015167ffffffffffffffff811115620005c957620005c8620003fe565b5b620005d78682870162000559565b935050602084015167ffffffffffffffff811115620005fb57620005fa620003fe565b5b620006098682870162000559565b925050604084015167ffffffffffffffff8111156200062d576200062c620003fe565b5b6200063b8682870162000559565b9150509250925092565b7f4e487b7100000000000000000000000000000000000000000000000000000000600052602260045260246000fd5b600060028204905060018216806200068d57607f821691505b602082108103620006a357620006a262000645565b5b50919050565b61411d80620006b96000396000f3fe608060405234801561001057600080fd5b50600436106101a95760003560e01c8063715018a6116100f9578063b88d4fde11610097578063d547741f11610071578063d547741f146104ca578063e8a3d485146104e6578063e985e9c514610504578063f2fde38b14610534576101a9565b8063b88d4fde14610460578063c87b56dd1461047c578063d5391393146104ac576101a9565b8063938e3d7b116100d3578063938e3d7b146103ec57806395d89b4114610408578063a217fddf14610426578063a22cb46514610444576101a9565b8063715018a6146103945780638da5cb5b1461039e57806391d14854146103bc576101a9565b80632f2ff15d1161016657806342966c681161014057806342966c68146102e857806345c17782146103045780636352211e1461033457806370a0823114610364576101a9565b80632f2ff15d1461029457806336568abe146102b057806342842e0e146102cc576101a9565b806301ffc9a7146101ae57806306fdde03146101de578063081812fc146101fc578063095ea7b31461022c57806323b872dd14610248578063248a9ca314610264575b600080fd5b6101c860048036038101906101c391906128b0565b610550565b6040516101d591906128f8565b60405180910390f35b6101e6610562565b6040516101f391906129ac565b60405180910390f35b61021660048036038101906102119190612a04565b6105f4565b6040516102239190612a72565b60405180910390f35b61024660048036038101906102419190612ab9565b610679565b005b610262600480360381019061025d9190612af9565b610790565b005b61027e60048036038101906102799190612b82565b6107f0565b60405161028b9190612bbe565b60405180910390f35b6102ae60048036038101906102a99190612bd9565b610810565b005b6102ca60048036038101906102c59190612bd9565b610831565b005b6102e660048036038101906102e19190612af9565b6108b4565b005b61030260048036038101906102fd9190612a04565b6108d4565b005b61031e60048036038101906103199190612d4e565b610963565b60405161032b91906128f8565b60405180910390f35b61034e60048036038101906103499190612a04565b610a0b565b60405161035b9190612a72565b60405180910390f35b61037e60048036038101906103799190612daa565b610abc565b60405161038b9190612de6565b60405180910390f35b61039c610b73565b005b6103a6610bfb565b6040516103b39190612a72565b60405180910390f35b6103d660048036038101906103d19190612bd9565b610c25565b6040516103e391906128f8565b60405180910390f35b61040660048036038101906104019190612e01565b610c90565b005b610410610cfc565b60405161041d91906129ac565b60405180910390f35b61042e610d8e565b60405161043b9190612bbe565b60405180910390f35b61045e60048036038101906104599190612e76565b610d95565b005b61047a60048036038101906104759190612f57565b610dab565b005b61049660048036038101906104919190612a04565b610e0d565b6040516104a391906129ac565b60405180910390f35b6104b4610f5e565b6040516104c19190612bbe565b60405180910390f35b6104e460048036038101906104df9190612bd9565b610f82565b005b6104ee610fa3565b6040516104fb91906129ac565b60405180910390f35b61051e60048036038101906105199190612fda565b611035565b60405161052b91906128f8565b60405180910390f35b61054e60048036038101906105499190612daa565b6110c9565b005b600061055b826111c0565b9050919050565b60606000805461057190613049565b80601f016020809104026020016040519081016040528092919081815260200182805461059d90613049565b80156105ea5780601f106105bf576101008083540402835291602001916105ea565b820191906000526020600020905b8154815290600101906020018083116105cd57829003601f168201915b5050505050905090565b60006105ff8261123a565b61063e576040517f08c379a0000000000000000000000000000000000000000000000000000000008152600401610635906130ec565b60405180910390fd5b6004600083815260200190815260200160002060009054906101000a900473ffffffffffffffffffffffffffffffffffffffff169050919050565b600061068482610a0b565b90508073ffffffffffffffffffffffffffffffffffffffff168373ffffffffffffffffffffffffffffffffffffffff16036106f4576040517f08c379a00000000000000000000000000000000000000000000000000000000081526004016106eb9061317e565b60405180910390fd5b8073ffffffffffffffffffffffffffffffffffffffff166107136112a6565b73ffffffffffffffffffffffffffffffffffffffff16148061074257506107418161073c6112a6565b611035565b5b610781576040517f08c379a000000000000000000000000000000000000000000000000000000000815260040161077890613210565b60405180910390fd5b61078b83836112ae565b505050565b6107a161079b6112a6565b82611367565b6107e0576040517f08c379a00000000000000000000000000000000000000000000000000000000081526004016107d7906132a2565b60405180910390fd5b6107eb838383611445565b505050565b600060076000838152602001908152602001600020600101549050919050565b610819826107f0565b610822816116ab565b61082c83836116bf565b505050565b6108396112a6565b73ffffffffffffffffffffffffffffffffffffffff168173ffffffffffffffffffffffffffffffffffffffff16146108a6576040517f08c379a000000000000000000000000000000000000000000000000000000000815260040161089d90613334565b60405180910390fd5b6108b082826117a0565b5050565b6108cf83838360405180602001604052806000815250610dab565b505050565b60006108df82610a0b565b90506108e96112a6565b73ffffffffffffffffffffffffffffffffffffffff168173ffffffffffffffffffffffffffffffffffffffff1614610956576040517f08c379a000000000000000000000000000000000000000000000000000000000815260040161094d906133c6565b60405180910390fd5b61095f82611882565b5050565b60007f9f2df0fed2c77648de5860a4cc508cd0818c85b8b8a1ab4ceeef8d981c8956a661098f816116ab565b60018351116109d3576040517f08c379a00000000000000000000000000000000000000000000000000000000081526004016109ca90613432565b60405180910390fd5b60006109df60096118d5565b90506109eb60096118e3565b6109f585826118f9565b6109ff8185611917565b60019250505092915050565b6000806002600084815260200190815260200160002060009054906101000a900473ffffffffffffffffffffffffffffffffffffffff169050600073ffffffffffffffffffffffffffffffffffffffff168173ffffffffffffffffffffffffffffffffffffffff1603610ab3576040517f08c379a0000000000000000000000000000000000000000000000000000000008152600401610aaa906134c4565b60405180910390fd5b80915050919050565b60008073ffffffffffffffffffffffffffffffffffffffff168273ffffffffffffffffffffffffffffffffffffffff1603610b2c576040517f08c379a0000000000000000000000000000000000000000000000000000000008152600401610b2390613556565b60405180910390fd5b600360008373ffffffffffffffffffffffffffffffffffffffff1673ffffffffffffffffffffffffffffffffffffffff168152602001908152602001600020549050919050565b610b7b6112a6565b73ffffffffffffffffffffffffffffffffffffffff16610b99610bfb565b73ffffffffffffffffffffffffffffffffffffffff1614610bef576040517f08c379a0000000000000000000000000000000000000000000000000000000008152600401610be6906135c2565b60405180910390fd5b610bf9600061198b565b565b6000600860009054906101000a900473ffffffffffffffffffffffffffffffffffffffff16905090565b60006007600084815260200190815260200160002060000160008373ffffffffffffffffffffffffffffffffffffffff1673ffffffffffffffffffffffffffffffffffffffff16815260200190815260200160002060009054906101000a900460ff16905092915050565b6000801b610c9d816116ab565b6001825111610ce1576040517f08c379a0000000000000000000000000000000000000000000000000000000008152600401610cd89061362e565b60405180910390fd5b81600a9080519060200190610cf7929190612761565b505050565b606060018054610d0b90613049565b80601f0160208091040260200160405190810160405280929190818152602001828054610d3790613049565b8015610d845780601f10610d5957610100808354040283529160200191610d84565b820191906000526020600020905b815481529060010190602001808311610d6757829003601f168201915b5050505050905090565b6000801b81565b610da7610da06112a6565b8383611a51565b5050565b610dbc610db66112a6565b83611367565b610dfb576040517f08c379a0000000000000000000000000000000000000000000000000000000008152600401610df2906132a2565b60405180910390fd5b610e0784848484611bbd565b50505050565b6060610e188261123a565b610e57576040517f08c379a0000000000000000000000000000000000000000000000000000000008152600401610e4e906136c0565b60405180910390fd5b6000600660008481526020019081526020016000208054610e7790613049565b80601f0160208091040260200160405190810160405280929190818152602001828054610ea390613049565b8015610ef05780601f10610ec557610100808354040283529160200191610ef0565b820191906000526020600020905b815481529060010190602001808311610ed357829003601f168201915b505050505090506000610f01611c19565b90506000815103610f16578192505050610f59565b600082511115610f4b578082604051602001610f3392919061371c565b60405160208183030381529060405292505050610f59565b610f5484611c30565b925050505b919050565b7f9f2df0fed2c77648de5860a4cc508cd0818c85b8b8a1ab4ceeef8d981c8956a681565b610f8b826107f0565b610f94816116ab565b610f9e83836117a0565b505050565b6060600a8054610fb290613049565b80601f0160208091040260200160405190810160405280929190818152602001828054610fde90613049565b801561102b5780601f106110005761010080835404028352916020019161102b565b820191906000526020600020905b81548152906001019060200180831161100e57829003601f168201915b5050505050905090565b6000600560008473ffffffffffffffffffffffffffffffffffffffff1673ffffffffffffffffffffffffffffffffffffffff16815260200190815260200160002060008373ffffffffffffffffffffffffffffffffffffffff1673ffffffffffffffffffffffffffffffffffffffff16815260200190815260200160002060009054906101000a900460ff16905092915050565b6110d16112a6565b73ffffffffffffffffffffffffffffffffffffffff166110ef610bfb565b73ffffffffffffffffffffffffffffffffffffffff1614611145576040517f08c379a000000000000000000000000000000000000000000000000000000000815260040161113c906135c2565b60405180910390fd5b600073ffffffffffffffffffffffffffffffffffffffff168173ffffffffffffffffffffffffffffffffffffffff16036111b4576040517f08c379a00000000000000000000000000000000000000000000000000000000081526004016111ab906137b2565b60405180910390fd5b6111bd8161198b565b50565b60007f7965db0b000000000000000000000000000000000000000000000000000000007bffffffffffffffffffffffffffffffffffffffffffffffffffffffff1916827bffffffffffffffffffffffffffffffffffffffffffffffffffffffff19161480611233575061123282611cd7565b5b9050919050565b60008073ffffffffffffffffffffffffffffffffffffffff166002600084815260200190815260200160002060009054906101000a900473ffffffffffffffffffffffffffffffffffffffff1673ffffffffffffffffffffffffffffffffffffffff1614159050919050565b600033905090565b816004600083815260200190815260200160002060006101000a81548173ffffffffffffffffffffffffffffffffffffffff021916908373ffffffffffffffffffffffffffffffffffffffff160217905550808273ffffffffffffffffffffffffffffffffffffffff1661132183610a0b565b73ffffffffffffffffffffffffffffffffffffffff167f8c5be1e5ebec7d5bd14f71427d1e84f3dd0314c0f7b2291e5b200ac8c7c3b92560405160405180910390a45050565b60006113728261123a565b6113b1576040517f08c379a00000000000000000000000000000000000000000000000000000000081526004016113a890613844565b60405180910390fd5b60006113bc83610a0b565b90508073ffffffffffffffffffffffffffffffffffffffff168473ffffffffffffffffffffffffffffffffffffffff1614806113fe57506113fd8185611035565b5b8061143c57508373ffffffffffffffffffffffffffffffffffffffff16611424846105f4565b73ffffffffffffffffffffffffffffffffffffffff16145b91505092915050565b8273ffffffffffffffffffffffffffffffffffffffff1661146582610a0b565b73ffffffffffffffffffffffffffffffffffffffff16146114bb576040517f08c379a00000000000000000000000000000000000000000000000000000000081526004016114b2906138d6565b60405180910390fd5b600073ffffffffffffffffffffffffffffffffffffffff168273ffffffffffffffffffffffffffffffffffffffff160361152a576040517f08c379a000000000000000000000000000000000000000000000000000000000815260040161152190613968565b60405180910390fd5b611535838383611db9565b6115406000826112ae565b6001600360008573ffffffffffffffffffffffffffffffffffffffff1673ffffffffffffffffffffffffffffffffffffffff168152602001908152602001600020600082825461159091906139b7565b925050819055506001600360008473ffffffffffffffffffffffffffffffffffffffff1673ffffffffffffffffffffffffffffffffffffffff16815260200190815260200160002060008282546115e791906139eb565b92505081905550816002600083815260200190815260200160002060006101000a81548173ffffffffffffffffffffffffffffffffffffffff021916908373ffffffffffffffffffffffffffffffffffffffff160217905550808273ffffffffffffffffffffffffffffffffffffffff168473ffffffffffffffffffffffffffffffffffffffff167fddf252ad1be2c89b69c2b068fc378daa952ba7f163c4a11628f55a4df523b3ef60405160405180910390a46116a6838383611dbe565b505050565b6116bc816116b76112a6565b611dc3565b50565b6116c98282610c25565b61179c5760016007600084815260200190815260200160002060000160008373ffffffffffffffffffffffffffffffffffffffff1673ffffffffffffffffffffffffffffffffffffffff16815260200190815260200160002060006101000a81548160ff0219169083151502179055506117416112a6565b73ffffffffffffffffffffffffffffffffffffffff168173ffffffffffffffffffffffffffffffffffffffff16837f2f8788117e7eff1d82e926ec794901d17c78024a50270940304540a733656f0d60405160405180910390a45b5050565b6117aa8282610c25565b1561187e5760006007600084815260200190815260200160002060000160008373ffffffffffffffffffffffffffffffffffffffff1673ffffffffffffffffffffffffffffffffffffffff16815260200190815260200160002060006101000a81548160ff0219169083151502179055506118236112a6565b73ffffffffffffffffffffffffffffffffffffffff168173ffffffffffffffffffffffffffffffffffffffff16837ff6391f5c32d9c69d2a47ea670b442974b53935d1edc7fd64eb21e047a839171b60405160405180910390a45b5050565b61188b81611e60565b60006006600083815260200190815260200160002080546118ab90613049565b9050146118d2576006600082815260200190815260200160002060006118d191906127e7565b5b50565b600081600001549050919050565b6001816000016000828254019250508190555050565b611913828260405180602001604052806000815250611f7d565b5050565b6119208261123a565b61195f576040517f08c379a000000000000000000000000000000000000000000000000000000000815260040161195690613ab3565b60405180910390fd5b80600660008481526020019081526020016000209080519060200190611986929190612761565b505050565b6000600860009054906101000a900473ffffffffffffffffffffffffffffffffffffffff16905081600860006101000a81548173ffffffffffffffffffffffffffffffffffffffff021916908373ffffffffffffffffffffffffffffffffffffffff1602179055508173ffffffffffffffffffffffffffffffffffffffff168173ffffffffffffffffffffffffffffffffffffffff167f8be0079c531659141344cd1fd0a4f28419497f9722a3daafe3b4186f6b6457e060405160405180910390a35050565b8173ffffffffffffffffffffffffffffffffffffffff168373ffffffffffffffffffffffffffffffffffffffff1603611abf576040517f08c379a0000000000000000000000000000000000000000000000000000000008152600401611ab690613b1f565b60405180910390fd5b80600560008573ffffffffffffffffffffffffffffffffffffffff1673ffffffffffffffffffffffffffffffffffffffff16815260200190815260200160002060008473ffffffffffffffffffffffffffffffffffffffff1673ffffffffffffffffffffffffffffffffffffffff16815260200190815260200160002060006101000a81548160ff0219169083151502179055508173ffffffffffffffffffffffffffffffffffffffff168373ffffffffffffffffffffffffffffffffffffffff167f17307eab39ab6107e8899845ad3d59bd9653f200f220920489ca2b5937696c3183604051611bb091906128f8565b60405180910390a3505050565b611bc8848484611445565b611bd484848484611fd8565b611c13576040517f08c379a0000000000000000000000000000000000000000000000000000000008152600401611c0a90613bb1565b60405180910390fd5b50505050565b606060405180602001604052806000815250905090565b6060611c3b8261123a565b611c7a576040517f08c379a0000000000000000000000000000000000000000000000000000000008152600401611c7190613c43565b60405180910390fd5b6000611c84611c19565b90506000815111611ca45760405180602001604052806000815250611ccf565b80611cae8461215f565b604051602001611cbf92919061371c565b6040516020818303038152906040525b915050919050565b60007f80ac58cd000000000000000000000000000000000000000000000000000000007bffffffffffffffffffffffffffffffffffffffffffffffffffffffff1916827bffffffffffffffffffffffffffffffffffffffffffffffffffffffff19161480611da257507f5b5e139f000000000000000000000000000000000000000000000000000000007bffffffffffffffffffffffffffffffffffffffffffffffffffffffff1916827bffffffffffffffffffffffffffffffffffffffffffffffffffffffff1916145b80611db25750611db1826122bf565b5b9050919050565b505050565b505050565b611dcd8282610c25565b611e5c57611df28173ffffffffffffffffffffffffffffffffffffffff166014612329565b611e008360001c6020612329565b604051602001611e11929190613cfb565b6040516020818303038152906040526040517f08c379a0000000000000000000000000000000000000000000000000000000008152600401611e5391906129ac565b60405180910390fd5b5050565b6000611e6b82610a0b565b9050611e7981600084611db9565b611e846000836112ae565b6001600360008373ffffffffffffffffffffffffffffffffffffffff1673ffffffffffffffffffffffffffffffffffffffff1681526020019081526020016000206000828254611ed491906139b7565b925050819055506002600083815260200190815260200160002060006101000a81549073ffffffffffffffffffffffffffffffffffffffff021916905581600073ffffffffffffffffffffffffffffffffffffffff168273ffffffffffffffffffffffffffffffffffffffff167fddf252ad1be2c89b69c2b068fc378daa952ba7f163c4a11628f55a4df523b3ef60405160405180910390a4611f7981600084611dbe565b5050565b611f878383612565565b611f946000848484611fd8565b611fd3576040517f08c379a0000000000000000000000000000000000000000000000000000000008152600401611fca90613bb1565b60405180910390fd5b505050565b6000611ff98473ffffffffffffffffffffffffffffffffffffffff1661273e565b15612152578373ffffffffffffffffffffffffffffffffffffffff1663150b7a026120226112a6565b8786866040518563ffffffff1660e01b81526004016120449493929190613d8a565b6020604051808303816000875af192505050801561208057506040513d601f19601f8201168201806040525081019061207d9190613deb565b60015b612102573d80600081146120b0576040519150601f19603f3d011682016040523d82523d6000602084013e6120b5565b606091505b5060008151036120fa576040517f08c379a00000000000000000000000000000000000000000000000000000000081526004016120f190613bb1565b60405180910390fd5b805181602001fd5b63150b7a0260e01b7bffffffffffffffffffffffffffffffffffffffffffffffffffffffff1916817bffffffffffffffffffffffffffffffffffffffffffffffffffffffff191614915050612157565b600190505b949350505050565b6060600082036121a6576040518060400160405280600181526020017f300000000000000000000000000000000000000000000000000000000000000081525090506122ba565b600082905060005b600082146121d85780806121c190613e18565b915050600a826121d19190613e8f565b91506121ae565b60008167ffffffffffffffff8111156121f4576121f3612c23565b5b6040519080825280601f01601f1916602001820160405280156122265781602001600182028036833780820191505090505b5090505b600085146122b35760018261223f91906139b7565b9150600a8561224e9190613ec0565b603061225a91906139eb565b60f81b8183815181106122705761226f613ef1565b5b60200101907effffffffffffffffffffffffffffffffffffffffffffffffffffffffffffff1916908160001a905350600a856122ac9190613e8f565b945061222a565b8093505050505b919050565b60007f01ffc9a7000000000000000000000000000000000000000000000000000000007bffffffffffffffffffffffffffffffffffffffffffffffffffffffff1916827bffffffffffffffffffffffffffffffffffffffffffffffffffffffff1916149050919050565b60606000600283600261233c9190613f20565b61234691906139eb565b67ffffffffffffffff81111561235f5761235e612c23565b5b6040519080825280601f01601f1916602001820160405280156123915781602001600182028036833780820191505090505b5090507f3000000000000000000000000000000000000000000000000000000000000000816000815181106123c9576123c8613ef1565b5b60200101907effffffffffffffffffffffffffffffffffffffffffffffffffffffffffffff1916908160001a9053507f78000000000000000000000000000000000000000000000000000000000000008160018151811061242d5761242c613ef1565b5b60200101907effffffffffffffffffffffffffffffffffffffffffffffffffffffffffffff1916908160001a9053506000600184600261246d9190613f20565b61247791906139eb565b90505b6001811115612517577f3031323334353637383961626364656600000000000000000000000000000000600f8616601081106124b9576124b8613ef1565b5b1a60f81b8282815181106124d0576124cf613ef1565b5b60200101907effffffffffffffffffffffffffffffffffffffffffffffffffffffffffffff1916908160001a905350600485901c94508061251090613f7a565b905061247a565b506000841461255b576040517f08c379a000000000000000000000000000000000000000000000000000000000815260040161255290613fef565b60405180910390fd5b8091505092915050565b600073ffffffffffffffffffffffffffffffffffffffff168273ffffffffffffffffffffffffffffffffffffffff16036125d4576040517f08c379a00000000000000000000000000000000000000000000000000000000081526004016125cb9061405b565b60405180910390fd5b6125dd8161123a565b1561261d576040517f08c379a0000000000000000000000000000000000000000000000000000000008152600401612614906140c7565b60405180910390fd5b61262960008383611db9565b6001600360008473ffffffffffffffffffffffffffffffffffffffff1673ffffffffffffffffffffffffffffffffffffffff168152602001908152602001600020600082825461267991906139eb565b92505081905550816002600083815260200190815260200160002060006101000a81548173ffffffffffffffffffffffffffffffffffffffff021916908373ffffffffffffffffffffffffffffffffffffffff160217905550808273ffffffffffffffffffffffffffffffffffffffff16600073ffffffffffffffffffffffffffffffffffffffff167fddf252ad1be2c89b69c2b068fc378daa952ba7f163c4a11628f55a4df523b3ef60405160405180910390a461273a60008383611dbe565b5050565b6000808273ffffffffffffffffffffffffffffffffffffffff163b119050919050565b82805461276d90613049565b90600052602060002090601f01602090048101928261278f57600085556127d6565b82601f106127a857805160ff19168380011785556127d6565b828001600101855582156127d6579182015b828111156127d55782518255916020019190600101906127ba565b5b5090506127e39190612827565b5090565b5080546127f390613049565b6000825580601f106128055750612824565b601f0160209004906000526020600020908101906128239190612827565b5b50565b5b80821115612840576000816000905550600101612828565b5090565b6000604051905090565b600080fd5b600080fd5b60007fffffffff0000000000000000000000000000000000000000000000000000000082169050919050565b61288d81612858565b811461289857600080fd5b50565b6000813590506128aa81612884565b92915050565b6000602082840312156128c6576128c561284e565b5b60006128d48482850161289b565b91505092915050565b60008115159050919050565b6128f2816128dd565b82525050565b600060208201905061290d60008301846128e9565b92915050565b600081519050919050565b600082825260208201905092915050565b60005b8381101561294d578082015181840152602081019050612932565b8381111561295c576000848401525b50505050565b6000601f19601f8301169050919050565b600061297e82612913565b612988818561291e565b935061299881856020860161292f565b6129a181612962565b840191505092915050565b600060208201905081810360008301526129c68184612973565b905092915050565b6000819050919050565b6129e1816129ce565b81146129ec57600080fd5b50565b6000813590506129fe816129d8565b92915050565b600060208284031215612a1a57612a1961284e565b5b6000612a28848285016129ef565b91505092915050565b600073ffffffffffffffffffffffffffffffffffffffff82169050919050565b6000612a5c82612a31565b9050919050565b612a6c81612a51565b82525050565b6000602082019050612a876000830184612a63565b92915050565b612a9681612a51565b8114612aa157600080fd5b50565b600081359050612ab381612a8d565b92915050565b60008060408385031215612ad057612acf61284e565b5b6000612ade85828601612aa4565b9250506020612aef858286016129ef565b9150509250929050565b600080600060608486031215612b1257612b1161284e565b5b6000612b2086828701612aa4565b9350506020612b3186828701612aa4565b9250506040612b42868287016129ef565b9150509250925092565b6000819050919050565b612b5f81612b4c565b8114612b6a57600080fd5b50565b600081359050612b7c81612b56565b92915050565b600060208284031215612b9857612b9761284e565b5b6000612ba684828501612b6d565b91505092915050565b612bb881612b4c565b82525050565b6000602082019050612bd36000830184612baf565b92915050565b60008060408385031215612bf057612bef61284e565b5b6000612bfe85828601612b6d565b9250506020612c0f85828601612aa4565b9150509250929050565b600080fd5b600080fd5b7f4e487b7100000000000000000000000000000000000000000000000000000000600052604160045260246000fd5b612c5b82612962565b810181811067ffffffffffffffff82111715612c7a57612c79612c23565b5b80604052505050565b6000612c8d612844565b9050612c998282612c52565b919050565b600067ffffffffffffffff821115612cb957612cb8612c23565b5b612cc282612962565b9050602081019050919050565b82818337600083830152505050565b6000612cf1612cec84612c9e565b612c83565b905082815260208101848484011115612d0d57612d0c612c1e565b5b612d18848285612ccf565b509392505050565b600082601f830112612d3557612d34612c19565b5b8135612d45848260208601612cde565b91505092915050565b60008060408385031215612d6557612d6461284e565b5b6000612d7385828601612aa4565b925050602083013567ffffffffffffffff811115612d9457612d93612853565b5b612da085828601612d20565b9150509250929050565b600060208284031215612dc057612dbf61284e565b5b6000612dce84828501612aa4565b91505092915050565b612de0816129ce565b82525050565b6000602082019050612dfb6000830184612dd7565b92915050565b600060208284031215612e1757612e1661284e565b5b600082013567ffffffffffffffff811115612e3557612e34612853565b5b612e4184828501612d20565b91505092915050565b612e53816128dd565b8114612e5e57600080fd5b50565b600081359050612e7081612e4a565b92915050565b60008060408385031215612e8d57612e8c61284e565b5b6000612e9b85828601612aa4565b9250506020612eac85828601612e61565b9150509250929050565b600067ffffffffffffffff821115612ed157612ed0612c23565b5b612eda82612962565b9050602081019050919050565b6000612efa612ef584612eb6565b612c83565b905082815260208101848484011115612f1657612f15612c1e565b5b612f21848285612ccf565b509392505050565b600082601f830112612f3e57612f3d612c19565b5b8135612f4e848260208601612ee7565b91505092915050565b60008060008060808587031215612f7157612f7061284e565b5b6000612f7f87828801612aa4565b9450506020612f9087828801612aa4565b9350506040612fa1878288016129ef565b925050606085013567ffffffffffffffff811115612fc257612fc1612853565b5b612fce87828801612f29565b91505092959194509250565b60008060408385031215612ff157612ff061284e565b5b6000612fff85828601612aa4565b925050602061301085828601612aa4565b9150509250929050565b7f4e487b7100000000000000000000000000000000000000000000000000000000600052602260045260246000fd5b6000600282049050600182168061306157607f821691505b6020821081036130745761307361301a565b5b50919050565b7f4552433732313a20617070726f76656420717565727920666f72206e6f6e657860008201527f697374656e7420746f6b656e0000000000000000000000000000000000000000602082015250565b60006130d6602c8361291e565b91506130e18261307a565b604082019050919050565b60006020820190508181036000830152613105816130c9565b9050919050565b7f4552433732313a20617070726f76616c20746f2063757272656e74206f776e6560008201527f7200000000000000000000000000000000000000000000000000000000000000602082015250565b600061316860218361291e565b91506131738261310c565b604082019050919050565b600060208201905081810360008301526131978161315b565b9050919050565b7f4552433732313a20617070726f76652063616c6c6572206973206e6f74206f7760008201527f6e6572206e6f7220617070726f76656420666f7220616c6c0000000000000000602082015250565b60006131fa60388361291e565b91506132058261319e565b604082019050919050565b60006020820190508181036000830152613229816131ed565b9050919050565b7f4552433732313a207472616e736665722063616c6c6572206973206e6f74206f60008201527f776e6572206e6f7220617070726f766564000000000000000000000000000000602082015250565b600061328c60318361291e565b915061329782613230565b604082019050919050565b600060208201905081810360008301526132bb8161327f565b9050919050565b7f416363657373436f6e74726f6c3a2063616e206f6e6c792072656e6f756e636560008201527f20726f6c657320666f722073656c660000000000000000000000000000000000602082015250565b600061331e602f8361291e565b9150613329826132c2565b604082019050919050565b6000602082019050818103600083015261334d81613311565b9050919050565b7f4f6e6c79206f776e6572206f6620746f6b656e20697320616c6c6f776564207460008201527f6f206275726e0000000000000000000000000000000000000000000000000000602082015250565b60006133b060268361291e565b91506133bb82613354565b604082019050919050565b600060208201905081810360008301526133df816133a3565b9050919050565b7f4d657461646174615552492063616e6e6f7420626520656d7074790000000000600082015250565b600061341c601b8361291e565b9150613427826133e6565b602082019050919050565b6000602082019050818103600083015261344b8161340f565b9050919050565b7f4552433732313a206f776e657220717565727920666f72206e6f6e657869737460008201527f656e7420746f6b656e0000000000000000000000000000000000000000000000602082015250565b60006134ae60298361291e565b91506134b982613452565b604082019050919050565b600060208201905081810360008301526134dd816134a1565b9050919050565b7f4552433732313a2062616c616e636520717565727920666f7220746865207a6560008201527f726f206164647265737300000000000000000000000000000000000000000000602082015250565b6000613540602a8361291e565b915061354b826134e4565b604082019050919050565b6000602082019050818103600083015261356f81613533565b9050919050565b7f4f776e61626c653a2063616c6c6572206973206e6f7420746865206f776e6572600082015250565b60006135ac60208361291e565b91506135b782613576565b602082019050919050565b600060208201905081810360008301526135db8161359f565b9050919050565b7f436f6e74726163745552492063616e6e6f7420626520656d7074790000000000600082015250565b6000613618601b8361291e565b9150613623826135e2565b602082019050919050565b600060208201905081810360008301526136478161360b565b9050919050565b7f45524337323155524953746f726167653a2055524920717565727920666f722060008201527f6e6f6e6578697374656e7420746f6b656e000000000000000000000000000000602082015250565b60006136aa60318361291e565b91506136b58261364e565b604082019050919050565b600060208201905081810360008301526136d98161369d565b9050919050565b600081905092915050565b60006136f682612913565b61370081856136e0565b935061371081856020860161292f565b80840191505092915050565b600061372882856136eb565b915061373482846136eb565b91508190509392505050565b7f4f776e61626c653a206e6577206f776e657220697320746865207a65726f206160008201527f6464726573730000000000000000000000000000000000000000000000000000602082015250565b600061379c60268361291e565b91506137a782613740565b604082019050919050565b600060208201905081810360008301526137cb8161378f565b9050919050565b7f4552433732313a206f70657261746f7220717565727920666f72206e6f6e657860008201527f697374656e7420746f6b656e0000000000000000000000000000000000000000602082015250565b600061382e602c8361291e565b9150613839826137d2565b604082019050919050565b6000602082019050818103600083015261385d81613821565b9050919050565b7f4552433732313a207472616e736665722066726f6d20696e636f72726563742060008201527f6f776e6572000000000000000000000000000000000000000000000000000000602082015250565b60006138c060258361291e565b91506138cb82613864565b604082019050919050565b600060208201905081810360008301526138ef816138b3565b9050919050565b7f4552433732313a207472616e7366657220746f20746865207a65726f2061646460008201527f7265737300000000000000000000000000000000000000000000000000000000602082015250565b600061395260248361291e565b915061395d826138f6565b604082019050919050565b6000602082019050818103600083015261398181613945565b9050919050565b7f4e487b7100000000000000000000000000000000000000000000000000000000600052601160045260246000fd5b60006139c2826129ce565b91506139cd836129ce565b9250828210156139e0576139df613988565b5b828203905092915050565b60006139f6826129ce565b9150613a01836129ce565b9250827fffffffffffffffffffffffffffffffffffffffffffffffffffffffffffffffff03821115613a3657613a35613988565b5b828201905092915050565b7f45524337323155524953746f726167653a2055524920736574206f66206e6f6e60008201527f6578697374656e7420746f6b656e000000000000000000000000000000000000602082015250565b6000613a9d602e8361291e565b9150613aa882613a41565b604082019050919050565b60006020820190508181036000830152613acc81613a90565b9050919050565b7f4552433732313a20617070726f766520746f2063616c6c657200000000000000600082015250565b6000613b0960198361291e565b9150613b1482613ad3565b602082019050919050565b60006020820190508181036000830152613b3881613afc565b9050919050565b7f4552433732313a207472616e7366657220746f206e6f6e20455243373231526560008201527f63656976657220696d706c656d656e7465720000000000000000000000000000602082015250565b6000613b9b60328361291e565b9150613ba682613b3f565b604082019050919050565b60006020820190508181036000830152613bca81613b8e565b9050919050565b7f4552433732314d657461646174613a2055524920717565727920666f72206e6f60008201527f6e6578697374656e7420746f6b656e0000000000000000000000000000000000602082015250565b6000613c2d602f8361291e565b9150613c3882613bd1565b604082019050919050565b60006020820190508181036000830152613c5c81613c20565b9050919050565b7f416363657373436f6e74726f6c3a206163636f756e7420000000000000000000600082015250565b6000613c996017836136e0565b9150613ca482613c63565b601782019050919050565b7f206973206d697373696e6720726f6c6520000000000000000000000000000000600082015250565b6000613ce56011836136e0565b9150613cf082613caf565b601182019050919050565b6000613d0682613c8c565b9150613d1282856136eb565b9150613d1d82613cd8565b9150613d2982846136eb565b91508190509392505050565b600081519050919050565b600082825260208201905092915050565b6000613d5c82613d35565b613d668185613d40565b9350613d7681856020860161292f565b613d7f81612962565b840191505092915050565b6000608082019050613d9f6000830187612a63565b613dac6020830186612a63565b613db96040830185612dd7565b8181036060830152613dcb8184613d51565b905095945050505050565b600081519050613de581612884565b92915050565b600060208284031215613e0157613e0061284e565b5b6000613e0f84828501613dd6565b91505092915050565b6000613e23826129ce565b91507fffffffffffffffffffffffffffffffffffffffffffffffffffffffffffffffff8203613e5557613e54613988565b5b600182019050919050565b7f4e487b7100000000000000000000000000000000000000000000000000000000600052601260045260246000fd5b6000613e9a826129ce565b9150613ea5836129ce565b925082613eb557613eb4613e60565b5b828204905092915050565b6000613ecb826129ce565b9150613ed6836129ce565b925082613ee657613ee5613e60565b5b828206905092915050565b7f4e487b7100000000000000000000000000000000000000000000000000000000600052603260045260246000fd5b6000613f2b826129ce565b9150613f36836129ce565b9250817fffffffffffffffffffffffffffffffffffffffffffffffffffffffffffffffff0483118215151615613f6f57613f6e613988565b5b828202905092915050565b6000613f85826129ce565b915060008203613f9857613f97613988565b5b600182039050919050565b7f537472696e67733a20686578206c656e67746820696e73756666696369656e74600082015250565b6000613fd960208361291e565b9150613fe482613fa3565b602082019050919050565b6000602082019050818103600083015261400881613fcc565b9050919050565b7f4552433732313a206d696e7420746f20746865207a65726f2061646472657373600082015250565b600061404560208361291e565b91506140508261400f565b602082019050919050565b6000602082019050818103600083015261407481614038565b9050919050565b7f4552433732313a20746f6b656e20616c7265616479206d696e74656400000000600082015250565b60006140b1601c8361291e565b91506140bc8261407b565b602082019050919050565b600060208201905081810360008301526140e0816140a4565b905091905056fea2646970667358221220b27966352a88aaf0d07ac3f9a78aa63c17f07d45f926c8ea7032ca0038ace7e164736f6c634300080d0033",
  "immutableReferences": {},
  "source": "// SPDX-License-Identifier: MIT\npragma solidity 0.8.13;\n\nimport \"@openzeppelin/contracts/access/AccessControl.sol\";\nimport \"@openzeppelin/contracts/access/Ownable.sol\";\nimport \"@openzeppelin/contracts/token/ERC721/extensions/ERC721URIStorage.sol\";\nimport \"@openzeppelin/contracts/utils/Counters.sol\";\n\ncontract NFT is ERC721URIStorage, AccessControl, Ownable {\n    using Counters for Counters.Counter;\n    /// @dev Counter auto-incrementating NFT tokenIds, default: 0\n    Counters.Counter private _tokenIdCounter;\n    string private _contractURI;\n\n    bytes32 public constant MINTER_ROLE = keccak256(\"MINTER_ROLE\");\n\n    /// @notice Contract initiation:\n    /// @notice The account deploying the contract will have the minter role and will be able to grand other accounts\n    /// @notice The contract is built with only a name & a symbol as metadata. Each NFT metadata will be given at mint time\n    constructor(string memory name_, string memory symbol_, string memory contractURI_) ERC721(name_, symbol_) {\n        _contractURI = contractURI_;\n        _grantRole(DEFAULT_ADMIN_ROLE, _msgSender());\n        _grantRole(MINTER_ROLE, _msgSender());\n    }\n\n    /// @notice NFT minting with metadata i.e tokenURI\n    /// @notice Each mint will increment the tokenId, starting from 0\n    function mintWithTokenURI(address to_, string memory tokenURI_) public onlyRole(MINTER_ROLE) returns (bool) {\n        require(bytes(tokenURI_).length > 1, \"MetadataURI cannot be empty\");\n        uint256 tokenId = _tokenIdCounter.current();\n        _tokenIdCounter.increment();\n        _safeMint(to_, tokenId);\n        _setTokenURI(tokenId, tokenURI_);\n        return true;\n    }\n\n    function burn(uint256 tokenId_) external {\n        address owner = ERC721.ownerOf(tokenId_);\n        require(owner == _msgSender(), \"Only owner of token is allowed to burn\");\n        _burn(tokenId_);\n    }\n\n    function contractURI() public view returns (string memory) {\n        return _contractURI;\n    }\n\n    function setContractURI(string memory contractURI_) public onlyRole(DEFAULT_ADMIN_ROLE) {\n        require(bytes(contractURI_).length > 1, \"ContractURI cannot be empty\");\n        _contractURI = contractURI_;\n    }\n\n    // Overrides\n\n    function supportsInterface(bytes4 interfaceId_) public view override(ERC721, AccessControl) returns (bool) {\n        return super.supportsInterface(interfaceId_);\n    }\n}\n",
  "sourcePath": "/Users/fermincarranza/consensys/sdk-contracts/contracts/NFT.sol",
  "compiler": {
    "name": "solc",
    "version": "0.8.13+commit.abaa5c0e.Emscripten.clang"
  },
  "schemaVersion": "3.4.7",
  "updatedAt": "2022-05-16T18:38:36.800Z",
  "devdoc": {
    "kind": "dev",
    "methods": {
      "approve(address,uint256)": {
        "details": "See {IERC721-approve}."
      },
      "balanceOf(address)": {
        "details": "See {IERC721-balanceOf}."
      },
      "getApproved(uint256)": {
        "details": "See {IERC721-getApproved}."
      },
      "getRoleAdmin(bytes32)": {
        "details": "Returns the admin role that controls `role`. See {grantRole} and {revokeRole}. To change a role's admin, use {_setRoleAdmin}."
      },
      "grantRole(bytes32,address)": {
        "details": "Grants `role` to `account`. If `account` had not been already granted `role`, emits a {RoleGranted} event. Requirements: - the caller must have ``role``'s admin role."
      },
      "hasRole(bytes32,address)": {
        "details": "Returns `true` if `account` has been granted `role`."
      },
      "isApprovedForAll(address,address)": {
        "details": "See {IERC721-isApprovedForAll}."
      },
      "name()": {
        "details": "See {IERC721Metadata-name}."
      },
      "owner()": {
        "details": "Returns the address of the current owner."
      },
      "ownerOf(uint256)": {
        "details": "See {IERC721-ownerOf}."
      },
      "renounceOwnership()": {
        "details": "Leaves the contract without owner. It will not be possible to call `onlyOwner` functions anymore. Can only be called by the current owner. NOTE: Renouncing ownership will leave the contract without an owner, thereby removing any functionality that is only available to the owner."
      },
      "renounceRole(bytes32,address)": {
        "details": "Revokes `role` from the calling account. Roles are often managed via {grantRole} and {revokeRole}: this function's purpose is to provide a mechanism for accounts to lose their privileges if they are compromised (such as when a trusted device is misplaced). If the calling account had been revoked `role`, emits a {RoleRevoked} event. Requirements: - the caller must be `account`."
      },
      "revokeRole(bytes32,address)": {
        "details": "Revokes `role` from `account`. If `account` had been granted `role`, emits a {RoleRevoked} event. Requirements: - the caller must have ``role``'s admin role."
      },
      "safeTransferFrom(address,address,uint256)": {
        "details": "See {IERC721-safeTransferFrom}."
      },
      "safeTransferFrom(address,address,uint256,bytes)": {
        "details": "See {IERC721-safeTransferFrom}."
      },
      "setApprovalForAll(address,bool)": {
        "details": "See {IERC721-setApprovalForAll}."
      },
      "symbol()": {
        "details": "See {IERC721Metadata-symbol}."
      },
      "tokenURI(uint256)": {
        "details": "See {IERC721Metadata-tokenURI}."
      },
      "transferFrom(address,address,uint256)": {
        "details": "See {IERC721-transferFrom}."
      },
      "transferOwnership(address)": {
        "details": "Transfers ownership of the contract to a new account (`newOwner`). Can only be called by the current owner."
      }
    },
    "stateVariables": {
      "_tokenIdCounter": {
        "details": "Counter auto-incrementating NFT tokenIds, default: 0"
      }
    },
    "version": 1
  },
  "userdoc": {
    "kind": "user",
    "methods": {
      "constructor": {
        "notice": "Contract initiation:The account deploying the contract will have the minter role and will be able to grand other accountsThe contract is built with only a name & a symbol as metadata. Each NFT metadata will be given at mint time"
      },
      "mintWithTokenURI(address,string)": {
        "notice": "NFT minting with metadata i.e tokenURIEach mint will increment the tokenId, starting from 0"
      }
    },
    "version": 1
  }
}