{
  "contractName": "NFT",
  "abi": [
    {
      "inputs": [
        {
          "internalType": "string",
          "name": "name_",
          "type": "string"
        },
        {
          "internalType": "string",
          "name": "symbol_",
          "type": "string"
        },
        {
          "internalType": "string",
          "name": "contractMetadataURI_",
          "type": "string"
        }
      ],
      "stateMutability": "nonpayable",
      "type": "constructor"
    },
    {
      "anonymous": false,
      "inputs": [
        {
          "indexed": true,
          "internalType": "address",
          "name": "owner",
          "type": "address"
        },
        {
          "indexed": true,
          "internalType": "address",
          "name": "approved",
          "type": "address"
        },
        {
          "indexed": true,
          "internalType": "uint256",
          "name": "tokenId",
          "type": "uint256"
        }
      ],
      "name": "Approval",
      "type": "event"
    },
    {
      "anonymous": false,
      "inputs": [
        {
          "indexed": true,
          "internalType": "address",
          "name": "owner",
          "type": "address"
        },
        {
          "indexed": true,
          "internalType": "address",
          "name": "operator",
          "type": "address"
        },
        {
          "indexed": false,
          "internalType": "bool",
          "name": "approved",
          "type": "bool"
        }
      ],
      "name": "ApprovalForAll",
      "type": "event"
    },
    {
      "anonymous": false,
      "inputs": [
        {
          "indexed": true,
          "internalType": "address",
          "name": "previousOwner",
          "type": "address"
        },
        {
          "indexed": true,
          "internalType": "address",
          "name": "newOwner",
          "type": "address"
        }
      ],
      "name": "OwnershipTransferred",
      "type": "event"
    },
    {
      "anonymous": false,
      "inputs": [
        {
          "indexed": false,
          "internalType": "address",
          "name": "account",
          "type": "address"
        }
      ],
      "name": "Paused",
      "type": "event"
    },
    {
      "anonymous": false,
      "inputs": [
        {
          "indexed": true,
          "internalType": "bytes32",
          "name": "role",
          "type": "bytes32"
        },
        {
          "indexed": true,
          "internalType": "bytes32",
          "name": "previousAdminRole",
          "type": "bytes32"
        },
        {
          "indexed": true,
          "internalType": "bytes32",
          "name": "newAdminRole",
          "type": "bytes32"
        }
      ],
      "name": "RoleAdminChanged",
      "type": "event"
    },
    {
      "anonymous": false,
      "inputs": [
        {
          "indexed": true,
          "internalType": "bytes32",
          "name": "role",
          "type": "bytes32"
        },
        {
          "indexed": true,
          "internalType": "address",
          "name": "account",
          "type": "address"
        },
        {
          "indexed": true,
          "internalType": "address",
          "name": "sender",
          "type": "address"
        }
      ],
      "name": "RoleGranted",
      "type": "event"
    },
    {
      "anonymous": false,
      "inputs": [
        {
          "indexed": true,
          "internalType": "bytes32",
          "name": "role",
          "type": "bytes32"
        },
        {
          "indexed": true,
          "internalType": "address",
          "name": "account",
          "type": "address"
        },
        {
          "indexed": true,
          "internalType": "address",
          "name": "sender",
          "type": "address"
        }
      ],
      "name": "RoleRevoked",
      "type": "event"
    },
    {
      "anonymous": false,
      "inputs": [
        {
          "indexed": true,
          "internalType": "address",
          "name": "from",
          "type": "address"
        },
        {
          "indexed": true,
          "internalType": "address",
          "name": "to",
          "type": "address"
        },
        {
          "indexed": true,
          "internalType": "uint256",
          "name": "tokenId",
          "type": "uint256"
        }
      ],
      "name": "Transfer",
      "type": "event"
    },
    {
      "anonymous": false,
      "inputs": [
        {
          "indexed": false,
          "internalType": "address",
          "name": "account",
          "type": "address"
        }
      ],
      "name": "Unpaused",
      "type": "event"
    },
    {
      "inputs": [],
      "name": "BURNER_ROLE",
      "outputs": [
        {
          "internalType": "bytes32",
          "name": "",
          "type": "bytes32"
        }
      ],
      "stateMutability": "view",
      "type": "function"
    },
    {
      "inputs": [],
      "name": "DEFAULT_ADMIN_ROLE",
      "outputs": [
        {
          "internalType": "bytes32",
          "name": "",
          "type": "bytes32"
        }
      ],
      "stateMutability": "view",
      "type": "function"
    },
    {
      "inputs": [],
      "name": "MINTER_ROLE",
      "outputs": [
        {
          "internalType": "bytes32",
          "name": "",
          "type": "bytes32"
        }
      ],
      "stateMutability": "view",
      "type": "function"
    },
    {
      "inputs": [],
      "name": "PAUSER_ROLE",
      "outputs": [
        {
          "internalType": "bytes32",
          "name": "",
          "type": "bytes32"
        }
      ],
      "stateMutability": "view",
      "type": "function"
    },
    {
      "inputs": [
        {
          "internalType": "address",
          "name": "owner",
          "type": "address"
        }
      ],
      "name": "balanceOf",
      "outputs": [
        {
          "internalType": "uint256",
          "name": "",
          "type": "uint256"
        }
      ],
      "stateMutability": "view",
      "type": "function"
    },
    {
      "inputs": [
        {
          "internalType": "uint256",
          "name": "tokenId",
          "type": "uint256"
        }
      ],
      "name": "getApproved",
      "outputs": [
        {
          "internalType": "address",
          "name": "",
          "type": "address"
        }
      ],
      "stateMutability": "view",
      "type": "function"
    },
    {
      "inputs": [
        {
          "internalType": "bytes32",
          "name": "role",
          "type": "bytes32"
        }
      ],
      "name": "getRoleAdmin",
      "outputs": [
        {
          "internalType": "bytes32",
          "name": "",
          "type": "bytes32"
        }
      ],
      "stateMutability": "view",
      "type": "function"
    },
    {
      "inputs": [
        {
          "internalType": "bytes32",
          "name": "role",
          "type": "bytes32"
        },
        {
          "internalType": "address",
          "name": "account",
          "type": "address"
        }
      ],
      "name": "hasRole",
      "outputs": [
        {
          "internalType": "bool",
          "name": "",
          "type": "bool"
        }
      ],
      "stateMutability": "view",
      "type": "function"
    },
    {
      "inputs": [
        {
          "internalType": "address",
          "name": "owner",
          "type": "address"
        },
        {
          "internalType": "address",
          "name": "operator",
          "type": "address"
        }
      ],
      "name": "isApprovedForAll",
      "outputs": [
        {
          "internalType": "bool",
          "name": "",
          "type": "bool"
        }
      ],
      "stateMutability": "view",
      "type": "function"
    },
    {
      "inputs": [],
      "name": "name",
      "outputs": [
        {
          "internalType": "string",
          "name": "",
          "type": "string"
        }
      ],
      "stateMutability": "view",
      "type": "function"
    },
    {
      "inputs": [],
      "name": "owner",
      "outputs": [
        {
          "internalType": "address",
          "name": "",
          "type": "address"
        }
      ],
      "stateMutability": "view",
      "type": "function"
    },
    {
      "inputs": [
        {
          "internalType": "uint256",
          "name": "tokenId",
          "type": "uint256"
        }
      ],
      "name": "ownerOf",
      "outputs": [
        {
          "internalType": "address",
          "name": "",
          "type": "address"
        }
      ],
      "stateMutability": "view",
      "type": "function"
    },
    {
      "inputs": [],
      "name": "paused",
      "outputs": [
        {
          "internalType": "bool",
          "name": "",
          "type": "bool"
        }
      ],
      "stateMutability": "view",
      "type": "function"
    },
    {
      "inputs": [
        {
          "internalType": "address",
          "name": "from",
          "type": "address"
        },
        {
          "internalType": "address",
          "name": "to",
          "type": "address"
        },
        {
          "internalType": "uint256",
          "name": "tokenId",
          "type": "uint256"
        }
      ],
      "name": "safeTransferFrom",
      "outputs": [],
      "stateMutability": "nonpayable",
      "type": "function"
    },
    {
      "inputs": [
        {
          "internalType": "address",
          "name": "from",
          "type": "address"
        },
        {
          "internalType": "address",
          "name": "to",
          "type": "address"
        },
        {
          "internalType": "uint256",
          "name": "tokenId",
          "type": "uint256"
        },
        {
          "internalType": "bytes",
          "name": "_data",
          "type": "bytes"
        }
      ],
      "name": "safeTransferFrom",
      "outputs": [],
      "stateMutability": "nonpayable",
      "type": "function"
    },
    {
      "inputs": [],
      "name": "symbol",
      "outputs": [
        {
          "internalType": "string",
          "name": "",
          "type": "string"
        }
      ],
      "stateMutability": "view",
      "type": "function"
    },
    {
      "inputs": [
        {
          "internalType": "uint256",
          "name": "tokenId",
          "type": "uint256"
        }
      ],
      "name": "tokenURI",
      "outputs": [
        {
          "internalType": "string",
          "name": "",
          "type": "string"
        }
      ],
      "stateMutability": "view",
      "type": "function"
    },
    {
      "inputs": [
        {
          "internalType": "address",
          "name": "from",
          "type": "address"
        },
        {
          "internalType": "address",
          "name": "to",
          "type": "address"
        },
        {
          "internalType": "uint256",
          "name": "tokenId",
          "type": "uint256"
        }
      ],
      "name": "transferFrom",
      "outputs": [],
      "stateMutability": "nonpayable",
      "type": "function"
    },
    {
      "inputs": [],
      "name": "pause",
      "outputs": [],
      "stateMutability": "nonpayable",
      "type": "function"
    },
    {
      "inputs": [],
      "name": "unpause",
      "outputs": [],
      "stateMutability": "nonpayable",
      "type": "function"
    },
    {
      "inputs": [
        {
          "internalType": "address",
          "name": "to_",
          "type": "address"
        },
        {
          "internalType": "string",
          "name": "metadataURI_",
          "type": "string"
        }
      ],
      "name": "mintWithTokenURI",
      "outputs": [
        {
          "internalType": "bool",
          "name": "",
          "type": "bool"
        }
      ],
      "stateMutability": "nonpayable",
      "type": "function"
    },
    {
      "inputs": [
        {
          "internalType": "uint256",
          "name": "tokenId_",
          "type": "uint256"
        }
      ],
      "name": "burn",
      "outputs": [],
      "stateMutability": "nonpayable",
      "type": "function"
    },
    {
      "inputs": [],
      "name": "contractURI",
      "outputs": [
        {
          "internalType": "string",
          "name": "",
          "type": "string"
        }
      ],
      "stateMutability": "view",
      "type": "function"
    },
    {
      "inputs": [
        {
          "internalType": "string",
          "name": "contractURI_",
          "type": "string"
        }
      ],
      "name": "setContractURI",
      "outputs": [],
      "stateMutability": "nonpayable",
      "type": "function"
    },
    {
      "inputs": [
        {
          "internalType": "address",
          "name": "to_",
          "type": "address"
        },
        {
          "internalType": "uint256",
          "name": "tokenId_",
          "type": "uint256"
        }
      ],
      "name": "approve",
      "outputs": [],
      "stateMutability": "nonpayable",
      "type": "function"
    },
    {
      "inputs": [
        {
          "internalType": "bytes32",
          "name": "role_",
          "type": "bytes32"
        },
        {
          "internalType": "address",
          "name": "account_",
          "type": "address"
        }
      ],
      "name": "grantRole",
      "outputs": [],
      "stateMutability": "nonpayable",
      "type": "function"
    },
    {
      "inputs": [
        {
          "internalType": "bytes32",
          "name": "role_",
          "type": "bytes32"
        },
        {
          "internalType": "address",
          "name": "account_",
          "type": "address"
        }
      ],
      "name": "revokeRole",
      "outputs": [],
      "stateMutability": "nonpayable",
      "type": "function"
    },
    {
      "inputs": [
        {
          "internalType": "bytes32",
          "name": "role_",
          "type": "bytes32"
        },
        {
          "internalType": "address",
          "name": "account_",
          "type": "address"
        }
      ],
      "name": "renounceRole",
      "outputs": [],
      "stateMutability": "nonpayable",
      "type": "function"
    },
    {
      "inputs": [],
      "name": "renounceOwnership",
      "outputs": [],
      "stateMutability": "nonpayable",
      "type": "function"
    },
    {
      "inputs": [
        {
          "internalType": "address",
          "name": "newOwner_",
          "type": "address"
        }
      ],
      "name": "transferOwnership",
      "outputs": [],
      "stateMutability": "nonpayable",
      "type": "function"
    },
    {
      "inputs": [
        {
          "internalType": "address",
          "name": "operator_",
          "type": "address"
        },
        {
          "internalType": "bool",
          "name": "approved_",
          "type": "bool"
        }
      ],
      "name": "setApprovalForAll",
      "outputs": [],
      "stateMutability": "nonpayable",
      "type": "function"
    },
    {
      "inputs": [
        {
          "internalType": "bytes4",
          "name": "interfaceId_",
          "type": "bytes4"
        }
      ],
      "name": "supportsInterface",
      "outputs": [
        {
          "internalType": "bool",
          "name": "",
          "type": "bool"
        }
      ],
      "stateMutability": "view",
      "type": "function"
    }
  ],
  "bytecode": "0x60806040523480156200001157600080fd5b5060405162004f1238038062004f12833981810160405281019062000037919062000629565b8282816000908051906020019062000051929190620003dc565b5080600190805190602001906200006a929190620003dc565b5050506000600860006101000a81548160ff021916908315150217905550620000a86200009c620001b160201b60201c565b620001b960201b60201c565b80600a9080519060200190620000c0929190620003dc565b50620000e56000801b620000d9620001b160201b60201c565b6200027f60201b60201c565b620001267f9f2df0fed2c77648de5860a4cc508cd0818c85b8b8a1ab4ceeef8d981c8956a66200011a620001b160201b60201c565b6200027f60201b60201c565b620001677f3c11d16cbaffd01df69ce1c404f6340ee057498f5f00246190ea54220576a8486200015b620001b160201b60201c565b6200027f60201b60201c565b620001a87f65d7a28e3265b37a6474929f336521b332c1681b933f6cb9f3376673440d862a6200019c620001b160201b60201c565b6200027f60201b60201c565b50505062000746565b600033905090565b6000600860019054906101000a900473ffffffffffffffffffffffffffffffffffffffff16905081600860016101000a81548173ffffffffffffffffffffffffffffffffffffffff021916908373ffffffffffffffffffffffffffffffffffffffff1602179055508173ffffffffffffffffffffffffffffffffffffffff168173ffffffffffffffffffffffffffffffffffffffff167f8be0079c531659141344cd1fd0a4f28419497f9722a3daafe3b4186f6b6457e060405160405180910390a35050565b6200029182826200037160201b60201c565b6200036d5760016007600084815260200190815260200160002060000160008373ffffffffffffffffffffffffffffffffffffffff1673ffffffffffffffffffffffffffffffffffffffff16815260200190815260200160002060006101000a81548160ff02191690831515021790555062000312620001b160201b60201c565b73ffffffffffffffffffffffffffffffffffffffff168173ffffffffffffffffffffffffffffffffffffffff16837f2f8788117e7eff1d82e926ec794901d17c78024a50270940304540a733656f0d60405160405180910390a45b5050565b60006007600084815260200190815260200160002060000160008373ffffffffffffffffffffffffffffffffffffffff1673ffffffffffffffffffffffffffffffffffffffff16815260200190815260200160002060009054906101000a900460ff16905092915050565b828054620003ea9062000711565b90600052602060002090601f0160209004810192826200040e57600085556200045a565b82601f106200042957805160ff19168380011785556200045a565b828001600101855582156200045a579182015b82811115620004595782518255916020019190600101906200043c565b5b5090506200046991906200046d565b5090565b5b80821115620004885760008160009055506001016200046e565b5090565b6000604051905090565b600080fd5b600080fd5b600080fd5b600080fd5b6000601f19601f8301169050919050565b7f4e487b7100000000000000000000000000000000000000000000000000000000600052604160045260246000fd5b620004f582620004aa565b810181811067ffffffffffffffff82111715620005175762000516620004bb565b5b80604052505050565b60006200052c6200048c565b90506200053a8282620004ea565b919050565b600067ffffffffffffffff8211156200055d576200055c620004bb565b5b6200056882620004aa565b9050602081019050919050565b60005b838110156200059557808201518184015260208101905062000578565b83811115620005a5576000848401525b50505050565b6000620005c2620005bc846200053f565b62000520565b905082815260208101848484011115620005e157620005e0620004a5565b5b620005ee84828562000575565b509392505050565b600082601f8301126200060e576200060d620004a0565b5b815162000620848260208601620005ab565b91505092915050565b60008060006060848603121562000645576200064462000496565b5b600084015167ffffffffffffffff8111156200066657620006656200049b565b5b6200067486828701620005f6565b935050602084015167ffffffffffffffff8111156200069857620006976200049b565b5b620006a686828701620005f6565b925050604084015167ffffffffffffffff811115620006ca57620006c96200049b565b5b620006d886828701620005f6565b9150509250925092565b7f4e487b7100000000000000000000000000000000000000000000000000000000600052602260045260246000fd5b600060028204905060018216806200072a57607f821691505b60208210810362000740576200073f620006e2565b5b50919050565b6147bc80620007566000396000f3fe608060405234801561001057600080fd5b50600436106101f05760003560e01c8063715018a61161010f578063b88d4fde116100a2578063e63ab1e911610071578063e63ab1e91461057d578063e8a3d4851461059b578063e985e9c5146105b9578063f2fde38b146105e9576101f0565b8063b88d4fde146104f7578063c87b56dd14610513578063d539139314610543578063d547741f14610561576101f0565b8063938e3d7b116100de578063938e3d7b1461048357806395d89b411461049f578063a217fddf146104bd578063a22cb465146104db576101f0565b8063715018a6146104215780638456cb591461042b5780638da5cb5b1461043557806391d1485414610453576101f0565b806336568abe1161018757806345c177821161015657806345c17782146103735780635c975abb146103a35780636352211e146103c157806370a08231146103f1576101f0565b806336568abe146103155780633f4ba83a1461033157806342842e0e1461033b57806342966c6814610357576101f0565b806323b872dd116101c357806323b872dd1461028f578063248a9ca3146102ab578063282c51f3146102db5780632f2ff15d146102f9576101f0565b806301ffc9a7146101f557806306fdde0314610225578063081812fc14610243578063095ea7b314610273575b600080fd5b61020f600480360381019061020a9190612f75565b610605565b60405161021c9190612fbd565b60405180910390f35b61022d610617565b60405161023a9190613071565b60405180910390f35b61025d600480360381019061025891906130c9565b6106a9565b60405161026a9190613137565b60405180910390f35b61028d6004803603810190610288919061317e565b61072e565b005b6102a960048036038101906102a491906131be565b610784565b005b6102c560048036038101906102c09190613247565b6107e4565b6040516102d29190613283565b60405180910390f35b6102e3610804565b6040516102f09190613283565b60405180910390f35b610313600480360381019061030e919061329e565b610828565b005b61032f600480360381019061032a919061329e565b610891565b005b6103396108e7565b005b610355600480360381019061035091906131be565b61091c565b005b610371600480360381019061036c91906130c9565b61093c565b005b61038d60048036038101906103889190613413565b6109bb565b60405161039a9190612fbd565b60405180910390f35b6103ab610a63565b6040516103b89190612fbd565b60405180910390f35b6103db60048036038101906103d691906130c9565b610a7a565b6040516103e89190613137565b60405180910390f35b61040b6004803603810190610406919061346f565b610b2b565b60405161041891906134ab565b60405180910390f35b610429610be2565b005b610433610cb0565b005b61043d610ce5565b60405161044a9190613137565b60405180910390f35b61046d6004803603810190610468919061329e565b610d0f565b60405161047a9190612fbd565b60405180910390f35b61049d600480360381019061049891906134c6565b610d7a565b005b6104a7610e2e565b6040516104b49190613071565b60405180910390f35b6104c5610ec0565b6040516104d29190613283565b60405180910390f35b6104f560048036038101906104f0919061353b565b610ec7565b005b610511600480360381019061050c919061361c565b610f1d565b005b61052d600480360381019061052891906130c9565b610f7f565b60405161053a9190613071565b60405180910390f35b61054b6110d0565b6040516105589190613283565b60405180910390f35b61057b6004803603810190610576919061329e565b6110f4565b005b61058561115d565b6040516105929190613283565b60405180910390f35b6105a3611181565b6040516105b09190613071565b60405180910390f35b6105d360048036038101906105ce919061369f565b611213565b6040516105e09190612fbd565b60405180910390f35b61060360048036038101906105fe919061346f565b6112a7565b005b600061061082611377565b9050919050565b6060600080546106269061370e565b80601f01602080910402602001604051908101604052809291908181526020018280546106529061370e565b801561069f5780601f106106745761010080835404028352916020019161069f565b820191906000526020600020905b81548152906001019060200180831161068257829003601f168201915b5050505050905090565b60006106b4826113f1565b6106f3576040517f08c379a00000000000000000000000000000000000000000000000000000000081526004016106ea906137b1565b60405180910390fd5b6004600083815260200190815260200160002060009054906101000a900473ffffffffffffffffffffffffffffffffffffffff169050919050565b610736610a63565b15610776576040517f08c379a000000000000000000000000000000000000000000000000000000000815260040161076d9061381d565b60405180910390fd5b610780828261145d565b5050565b61079561078f611574565b8261157c565b6107d4576040517f08c379a00000000000000000000000000000000000000000000000000000000081526004016107cb906138af565b60405180910390fd5b6107df83838361165a565b505050565b600060076000838152602001908152602001600020600101549050919050565b7f3c11d16cbaffd01df69ce1c404f6340ee057498f5f00246190ea54220576a84881565b610830610a63565b15610870576040517f08c379a00000000000000000000000000000000000000000000000000000000081526004016108679061381d565b60405180910390fd5b610879826107e4565b610882816118c0565b61088c83836118d4565b505050565b610899610a63565b156108d9576040517f08c379a00000000000000000000000000000000000000000000000000000000081526004016108d09061381d565b60405180910390fd5b6108e382826118f5565b5050565b7f65d7a28e3265b37a6474929f336521b332c1681b933f6cb9f3376673440d862a610911816118c0565b610919611978565b50565b61093783838360405180602001604052806000815250610f1d565b505050565b7f3c11d16cbaffd01df69ce1c404f6340ee057498f5f00246190ea54220576a848610966816118c0565b61096e610a63565b156109ae576040517f08c379a00000000000000000000000000000000000000000000000000000000081526004016109a59061381d565b60405180910390fd5b6109b782611a1a565b5050565b60007f9f2df0fed2c77648de5860a4cc508cd0818c85b8b8a1ab4ceeef8d981c8956a66109e7816118c0565b6001835111610a2b576040517f08c379a0000000000000000000000000000000000000000000000000000000008152600401610a229061391b565b60405180910390fd5b6000610a376009611a6d565b9050610a436009611a7b565b610a4d8582611a91565b610a578185611aaf565b60019250505092915050565b6000600860009054906101000a900460ff16905090565b6000806002600084815260200190815260200160002060009054906101000a900473ffffffffffffffffffffffffffffffffffffffff169050600073ffffffffffffffffffffffffffffffffffffffff168173ffffffffffffffffffffffffffffffffffffffff1603610b22576040517f08c379a0000000000000000000000000000000000000000000000000000000008152600401610b19906139ad565b60405180910390fd5b80915050919050565b60008073ffffffffffffffffffffffffffffffffffffffff168273ffffffffffffffffffffffffffffffffffffffff1603610b9b576040517f08c379a0000000000000000000000000000000000000000000000000000000008152600401610b9290613a3f565b60405180910390fd5b600360008373ffffffffffffffffffffffffffffffffffffffff1673ffffffffffffffffffffffffffffffffffffffff168152602001908152602001600020549050919050565b610bea610a63565b15610c2a576040517f08c379a0000000000000000000000000000000000000000000000000000000008152600401610c219061381d565b60405180910390fd5b610c32611574565b73ffffffffffffffffffffffffffffffffffffffff16610c50610ce5565b73ffffffffffffffffffffffffffffffffffffffff1614610ca6576040517f08c379a0000000000000000000000000000000000000000000000000000000008152600401610c9d90613aab565b60405180910390fd5b610cae611b23565b565b7f65d7a28e3265b37a6474929f336521b332c1681b933f6cb9f3376673440d862a610cda816118c0565b610ce2611bab565b50565b6000600860019054906101000a900473ffffffffffffffffffffffffffffffffffffffff16905090565b60006007600084815260200190815260200160002060000160008373ffffffffffffffffffffffffffffffffffffffff1673ffffffffffffffffffffffffffffffffffffffff16815260200190815260200160002060009054906101000a900460ff16905092915050565b6000801b610d87816118c0565b610d8f610a63565b15610dcf576040517f08c379a0000000000000000000000000000000000000000000000000000000008152600401610dc69061381d565b60405180910390fd5b6001825111610e13576040517f08c379a0000000000000000000000000000000000000000000000000000000008152600401610e0a9061391b565b60405180910390fd5b81600a9080519060200190610e29929190612e26565b505050565b606060018054610e3d9061370e565b80601f0160208091040260200160405190810160405280929190818152602001828054610e699061370e565b8015610eb65780601f10610e8b57610100808354040283529160200191610eb6565b820191906000526020600020905b815481529060010190602001808311610e9957829003601f168201915b5050505050905090565b6000801b81565b610ecf610a63565b15610f0f576040517f08c379a0000000000000000000000000000000000000000000000000000000008152600401610f069061381d565b60405180910390fd5b610f198282611c4e565b5050565b610f2e610f28611574565b8361157c565b610f6d576040517f08c379a0000000000000000000000000000000000000000000000000000000008152600401610f64906138af565b60405180910390fd5b610f7984848484611c64565b50505050565b6060610f8a826113f1565b610fc9576040517f08c379a0000000000000000000000000000000000000000000000000000000008152600401610fc090613b3d565b60405180910390fd5b6000600660008481526020019081526020016000208054610fe99061370e565b80601f01602080910402602001604051908101604052809291908181526020018280546110159061370e565b80156110625780601f1061103757610100808354040283529160200191611062565b820191906000526020600020905b81548152906001019060200180831161104557829003601f168201915b505050505090506000611073611cc0565b905060008151036110885781925050506110cb565b6000825111156110bd5780826040516020016110a5929190613b99565b604051602081830303815290604052925050506110cb565b6110c684611cd7565b925050505b919050565b7f9f2df0fed2c77648de5860a4cc508cd0818c85b8b8a1ab4ceeef8d981c8956a681565b6110fc610a63565b1561113c576040517f08c379a00000000000000000000000000000000000000000000000000000000081526004016111339061381d565b60405180910390fd5b611145826107e4565b61114e816118c0565b6111588383611d7e565b505050565b7f65d7a28e3265b37a6474929f336521b332c1681b933f6cb9f3376673440d862a81565b6060600a80546111909061370e565b80601f01602080910402602001604051908101604052809291908181526020018280546111bc9061370e565b80156112095780601f106111de57610100808354040283529160200191611209565b820191906000526020600020905b8154815290600101906020018083116111ec57829003601f168201915b5050505050905090565b6000600560008473ffffffffffffffffffffffffffffffffffffffff1673ffffffffffffffffffffffffffffffffffffffff16815260200190815260200160002060008373ffffffffffffffffffffffffffffffffffffffff1673ffffffffffffffffffffffffffffffffffffffff16815260200190815260200160002060009054906101000a900460ff16905092915050565b6112af610a63565b156112ef576040517f08c379a00000000000000000000000000000000000000000000000000000000081526004016112e69061381d565b60405180910390fd5b6112f7611574565b73ffffffffffffffffffffffffffffffffffffffff16611315610ce5565b73ffffffffffffffffffffffffffffffffffffffff161461136b576040517f08c379a000000000000000000000000000000000000000000000000000000000815260040161136290613aab565b60405180910390fd5b61137481611d9f565b50565b60007f7965db0b000000000000000000000000000000000000000000000000000000007bffffffffffffffffffffffffffffffffffffffffffffffffffffffff1916827bffffffffffffffffffffffffffffffffffffffffffffffffffffffff191614806113ea57506113e982611e96565b5b9050919050565b60008073ffffffffffffffffffffffffffffffffffffffff166002600084815260200190815260200160002060009054906101000a900473ffffffffffffffffffffffffffffffffffffffff1673ffffffffffffffffffffffffffffffffffffffff1614159050919050565b600061146882610a7a565b90508073ffffffffffffffffffffffffffffffffffffffff168373ffffffffffffffffffffffffffffffffffffffff16036114d8576040517f08c379a00000000000000000000000000000000000000000000000000000000081526004016114cf90613c2f565b60405180910390fd5b8073ffffffffffffffffffffffffffffffffffffffff166114f7611574565b73ffffffffffffffffffffffffffffffffffffffff161480611526575061152581611520611574565b611213565b5b611565576040517f08c379a000000000000000000000000000000000000000000000000000000000815260040161155c90613cc1565b60405180910390fd5b61156f8383611f78565b505050565b600033905090565b6000611587826113f1565b6115c6576040517f08c379a00000000000000000000000000000000000000000000000000000000081526004016115bd90613d53565b60405180910390fd5b60006115d183610a7a565b90508073ffffffffffffffffffffffffffffffffffffffff168473ffffffffffffffffffffffffffffffffffffffff16148061161357506116128185611213565b5b8061165157508373ffffffffffffffffffffffffffffffffffffffff16611639846106a9565b73ffffffffffffffffffffffffffffffffffffffff16145b91505092915050565b8273ffffffffffffffffffffffffffffffffffffffff1661167a82610a7a565b73ffffffffffffffffffffffffffffffffffffffff16146116d0576040517f08c379a00000000000000000000000000000000000000000000000000000000081526004016116c790613de5565b60405180910390fd5b600073ffffffffffffffffffffffffffffffffffffffff168273ffffffffffffffffffffffffffffffffffffffff160361173f576040517f08c379a000000000000000000000000000000000000000000000000000000000815260040161173690613e77565b60405180910390fd5b61174a838383612031565b611755600082611f78565b6001600360008573ffffffffffffffffffffffffffffffffffffffff1673ffffffffffffffffffffffffffffffffffffffff16815260200190815260200160002060008282546117a59190613ec6565b925050819055506001600360008473ffffffffffffffffffffffffffffffffffffffff1673ffffffffffffffffffffffffffffffffffffffff16815260200190815260200160002060008282546117fc9190613efa565b92505081905550816002600083815260200190815260200160002060006101000a81548173ffffffffffffffffffffffffffffffffffffffff021916908373ffffffffffffffffffffffffffffffffffffffff160217905550808273ffffffffffffffffffffffffffffffffffffffff168473ffffffffffffffffffffffffffffffffffffffff167fddf252ad1be2c89b69c2b068fc378daa952ba7f163c4a11628f55a4df523b3ef60405160405180910390a46118bb838383612089565b505050565b6118d1816118cc611574565b61208e565b50565b6118dd826107e4565b6118e6816118c0565b6118f0838361212b565b505050565b6118fd611574565b73ffffffffffffffffffffffffffffffffffffffff168173ffffffffffffffffffffffffffffffffffffffff161461196a576040517f08c379a000000000000000000000000000000000000000000000000000000000815260040161196190613fc2565b60405180910390fd5b611974828261220c565b5050565b611980610a63565b6119bf576040517f08c379a00000000000000000000000000000000000000000000000000000000081526004016119b69061402e565b60405180910390fd5b6000600860006101000a81548160ff0219169083151502179055507f5db9ee0a495bf2e6ff9c91a7834c1ba4fdd244a5e8aa4e537bd38aeae4b073aa611a03611574565b604051611a109190613137565b60405180910390a1565b611a23816122ee565b6000600660008381526020019081526020016000208054611a439061370e565b905014611a6a57600660008281526020019081526020016000206000611a699190612eac565b5b50565b600081600001549050919050565b6001816000016000828254019250508190555050565b611aab82826040518060200160405280600081525061240b565b5050565b611ab8826113f1565b611af7576040517f08c379a0000000000000000000000000000000000000000000000000000000008152600401611aee906140c0565b60405180910390fd5b80600660008481526020019081526020016000209080519060200190611b1e929190612e26565b505050565b611b2b611574565b73ffffffffffffffffffffffffffffffffffffffff16611b49610ce5565b73ffffffffffffffffffffffffffffffffffffffff1614611b9f576040517f08c379a0000000000000000000000000000000000000000000000000000000008152600401611b9690613aab565b60405180910390fd5b611ba96000612466565b565b611bb3610a63565b15611bf3576040517f08c379a0000000000000000000000000000000000000000000000000000000008152600401611bea9061381d565b60405180910390fd5b6001600860006101000a81548160ff0219169083151502179055507f62e78cea01bee320cd4e420270b5ea74000d11b0c9f74754ebdbfc544b05a258611c37611574565b604051611c449190613137565b60405180910390a1565b611c60611c59611574565b838361252c565b5050565b611c6f84848461165a565b611c7b84848484612698565b611cba576040517f08c379a0000000000000000000000000000000000000000000000000000000008152600401611cb190614152565b60405180910390fd5b50505050565b606060405180602001604052806000815250905090565b6060611ce2826113f1565b611d21576040517f08c379a0000000000000000000000000000000000000000000000000000000008152600401611d18906141e4565b60405180910390fd5b6000611d2b611cc0565b90506000815111611d4b5760405180602001604052806000815250611d76565b80611d558461281f565b604051602001611d66929190613b99565b6040516020818303038152906040525b915050919050565b611d87826107e4565b611d90816118c0565b611d9a838361220c565b505050565b611da7611574565b73ffffffffffffffffffffffffffffffffffffffff16611dc5610ce5565b73ffffffffffffffffffffffffffffffffffffffff1614611e1b576040517f08c379a0000000000000000000000000000000000000000000000000000000008152600401611e1290613aab565b60405180910390fd5b600073ffffffffffffffffffffffffffffffffffffffff168173ffffffffffffffffffffffffffffffffffffffff1603611e8a576040517f08c379a0000000000000000000000000000000000000000000000000000000008152600401611e8190614276565b60405180910390fd5b611e9381612466565b50565b60007f80ac58cd000000000000000000000000000000000000000000000000000000007bffffffffffffffffffffffffffffffffffffffffffffffffffffffff1916827bffffffffffffffffffffffffffffffffffffffffffffffffffffffff19161480611f6157507f5b5e139f000000000000000000000000000000000000000000000000000000007bffffffffffffffffffffffffffffffffffffffffffffffffffffffff1916827bffffffffffffffffffffffffffffffffffffffffffffffffffffffff1916145b80611f715750611f708261297f565b5b9050919050565b816004600083815260200190815260200160002060006101000a81548173ffffffffffffffffffffffffffffffffffffffff021916908373ffffffffffffffffffffffffffffffffffffffff160217905550808273ffffffffffffffffffffffffffffffffffffffff16611feb83610a7a565b73ffffffffffffffffffffffffffffffffffffffff167f8c5be1e5ebec7d5bd14f71427d1e84f3dd0314c0f7b2291e5b200ac8c7c3b92560405160405180910390a45050565b612039610a63565b15612079576040517f08c379a00000000000000000000000000000000000000000000000000000000081526004016120709061381d565b60405180910390fd5b6120848383836129e9565b505050565b505050565b6120988282610d0f565b612127576120bd8173ffffffffffffffffffffffffffffffffffffffff1660146129ee565b6120cb8360001c60206129ee565b6040516020016120dc92919061432e565b6040516020818303038152906040526040517f08c379a000000000000000000000000000000000000000000000000000000000815260040161211e9190613071565b60405180910390fd5b5050565b6121358282610d0f565b6122085760016007600084815260200190815260200160002060000160008373ffffffffffffffffffffffffffffffffffffffff1673ffffffffffffffffffffffffffffffffffffffff16815260200190815260200160002060006101000a81548160ff0219169083151502179055506121ad611574565b73ffffffffffffffffffffffffffffffffffffffff168173ffffffffffffffffffffffffffffffffffffffff16837f2f8788117e7eff1d82e926ec794901d17c78024a50270940304540a733656f0d60405160405180910390a45b5050565b6122168282610d0f565b156122ea5760006007600084815260200190815260200160002060000160008373ffffffffffffffffffffffffffffffffffffffff1673ffffffffffffffffffffffffffffffffffffffff16815260200190815260200160002060006101000a81548160ff02191690831515021790555061228f611574565b73ffffffffffffffffffffffffffffffffffffffff168173ffffffffffffffffffffffffffffffffffffffff16837ff6391f5c32d9c69d2a47ea670b442974b53935d1edc7fd64eb21e047a839171b60405160405180910390a45b5050565b60006122f982610a7a565b905061230781600084612031565b612312600083611f78565b6001600360008373ffffffffffffffffffffffffffffffffffffffff1673ffffffffffffffffffffffffffffffffffffffff16815260200190815260200160002060008282546123629190613ec6565b925050819055506002600083815260200190815260200160002060006101000a81549073ffffffffffffffffffffffffffffffffffffffff021916905581600073ffffffffffffffffffffffffffffffffffffffff168273ffffffffffffffffffffffffffffffffffffffff167fddf252ad1be2c89b69c2b068fc378daa952ba7f163c4a11628f55a4df523b3ef60405160405180910390a461240781600084612089565b5050565b6124158383612c2a565b6124226000848484612698565b612461576040517f08c379a000000000000000000000000000000000000000000000000000000000815260040161245890614152565b60405180910390fd5b505050565b6000600860019054906101000a900473ffffffffffffffffffffffffffffffffffffffff16905081600860016101000a81548173ffffffffffffffffffffffffffffffffffffffff021916908373ffffffffffffffffffffffffffffffffffffffff1602179055508173ffffffffffffffffffffffffffffffffffffffff168173ffffffffffffffffffffffffffffffffffffffff167f8be0079c531659141344cd1fd0a4f28419497f9722a3daafe3b4186f6b6457e060405160405180910390a35050565b8173ffffffffffffffffffffffffffffffffffffffff168373ffffffffffffffffffffffffffffffffffffffff160361259a576040517f08c379a0000000000000000000000000000000000000000000000000000000008152600401612591906143b4565b60405180910390fd5b80600560008573ffffffffffffffffffffffffffffffffffffffff1673ffffffffffffffffffffffffffffffffffffffff16815260200190815260200160002060008473ffffffffffffffffffffffffffffffffffffffff1673ffffffffffffffffffffffffffffffffffffffff16815260200190815260200160002060006101000a81548160ff0219169083151502179055508173ffffffffffffffffffffffffffffffffffffffff168373ffffffffffffffffffffffffffffffffffffffff167f17307eab39ab6107e8899845ad3d59bd9653f200f220920489ca2b5937696c318360405161268b9190612fbd565b60405180910390a3505050565b60006126b98473ffffffffffffffffffffffffffffffffffffffff16612e03565b15612812578373ffffffffffffffffffffffffffffffffffffffff1663150b7a026126e2611574565b8786866040518563ffffffff1660e01b81526004016127049493929190614429565b6020604051808303816000875af192505050801561274057506040513d601f19601f8201168201806040525081019061273d919061448a565b60015b6127c2573d8060008114612770576040519150601f19603f3d011682016040523d82523d6000602084013e612775565b606091505b5060008151036127ba576040517f08c379a00000000000000000000000000000000000000000000000000000000081526004016127b190614152565b60405180910390fd5b805181602001fd5b63150b7a0260e01b7bffffffffffffffffffffffffffffffffffffffffffffffffffffffff1916817bffffffffffffffffffffffffffffffffffffffffffffffffffffffff191614915050612817565b600190505b949350505050565b606060008203612866576040518060400160405280600181526020017f3000000000000000000000000000000000000000000000000000000000000000815250905061297a565b600082905060005b60008214612898578080612881906144b7565b915050600a82612891919061452e565b915061286e565b60008167ffffffffffffffff8111156128b4576128b36132e8565b5b6040519080825280601f01601f1916602001820160405280156128e65781602001600182028036833780820191505090505b5090505b60008514612973576001826128ff9190613ec6565b9150600a8561290e919061455f565b603061291a9190613efa565b60f81b8183815181106129305761292f614590565b5b60200101907effffffffffffffffffffffffffffffffffffffffffffffffffffffffffffff1916908160001a905350600a8561296c919061452e565b94506128ea565b8093505050505b919050565b60007f01ffc9a7000000000000000000000000000000000000000000000000000000007bffffffffffffffffffffffffffffffffffffffffffffffffffffffff1916827bffffffffffffffffffffffffffffffffffffffffffffffffffffffff1916149050919050565b505050565b606060006002836002612a0191906145bf565b612a0b9190613efa565b67ffffffffffffffff811115612a2457612a236132e8565b5b6040519080825280601f01601f191660200182016040528015612a565781602001600182028036833780820191505090505b5090507f300000000000000000000000000000000000000000000000000000000000000081600081518110612a8e57612a8d614590565b5b60200101907effffffffffffffffffffffffffffffffffffffffffffffffffffffffffffff1916908160001a9053507f780000000000000000000000000000000000000000000000000000000000000081600181518110612af257612af1614590565b5b60200101907effffffffffffffffffffffffffffffffffffffffffffffffffffffffffffff1916908160001a90535060006001846002612b3291906145bf565b612b3c9190613efa565b90505b6001811115612bdc577f3031323334353637383961626364656600000000000000000000000000000000600f861660108110612b7e57612b7d614590565b5b1a60f81b828281518110612b9557612b94614590565b5b60200101907effffffffffffffffffffffffffffffffffffffffffffffffffffffffffffff1916908160001a905350600485901c945080612bd590614619565b9050612b3f565b5060008414612c20576040517f08c379a0000000000000000000000000000000000000000000000000000000008152600401612c179061468e565b60405180910390fd5b8091505092915050565b600073ffffffffffffffffffffffffffffffffffffffff168273ffffffffffffffffffffffffffffffffffffffff1603612c99576040517f08c379a0000000000000000000000000000000000000000000000000000000008152600401612c90906146fa565b60405180910390fd5b612ca2816113f1565b15612ce2576040517f08c379a0000000000000000000000000000000000000000000000000000000008152600401612cd990614766565b60405180910390fd5b612cee60008383612031565b6001600360008473ffffffffffffffffffffffffffffffffffffffff1673ffffffffffffffffffffffffffffffffffffffff1681526020019081526020016000206000828254612d3e9190613efa565b92505081905550816002600083815260200190815260200160002060006101000a81548173ffffffffffffffffffffffffffffffffffffffff021916908373ffffffffffffffffffffffffffffffffffffffff160217905550808273ffffffffffffffffffffffffffffffffffffffff16600073ffffffffffffffffffffffffffffffffffffffff167fddf252ad1be2c89b69c2b068fc378daa952ba7f163c4a11628f55a4df523b3ef60405160405180910390a4612dff60008383612089565b5050565b6000808273ffffffffffffffffffffffffffffffffffffffff163b119050919050565b828054612e329061370e565b90600052602060002090601f016020900481019282612e545760008555612e9b565b82601f10612e6d57805160ff1916838001178555612e9b565b82800160010185558215612e9b579182015b82811115612e9a578251825591602001919060010190612e7f565b5b509050612ea89190612eec565b5090565b508054612eb89061370e565b6000825580601f10612eca5750612ee9565b601f016020900490600052602060002090810190612ee89190612eec565b5b50565b5b80821115612f05576000816000905550600101612eed565b5090565b6000604051905090565b600080fd5b600080fd5b60007fffffffff0000000000000000000000000000000000000000000000000000000082169050919050565b612f5281612f1d565b8114612f5d57600080fd5b50565b600081359050612f6f81612f49565b92915050565b600060208284031215612f8b57612f8a612f13565b5b6000612f9984828501612f60565b91505092915050565b60008115159050919050565b612fb781612fa2565b82525050565b6000602082019050612fd26000830184612fae565b92915050565b600081519050919050565b600082825260208201905092915050565b60005b83811015613012578082015181840152602081019050612ff7565b83811115613021576000848401525b50505050565b6000601f19601f8301169050919050565b600061304382612fd8565b61304d8185612fe3565b935061305d818560208601612ff4565b61306681613027565b840191505092915050565b6000602082019050818103600083015261308b8184613038565b905092915050565b6000819050919050565b6130a681613093565b81146130b157600080fd5b50565b6000813590506130c38161309d565b92915050565b6000602082840312156130df576130de612f13565b5b60006130ed848285016130b4565b91505092915050565b600073ffffffffffffffffffffffffffffffffffffffff82169050919050565b6000613121826130f6565b9050919050565b61313181613116565b82525050565b600060208201905061314c6000830184613128565b92915050565b61315b81613116565b811461316657600080fd5b50565b60008135905061317881613152565b92915050565b6000806040838503121561319557613194612f13565b5b60006131a385828601613169565b92505060206131b4858286016130b4565b9150509250929050565b6000806000606084860312156131d7576131d6612f13565b5b60006131e586828701613169565b93505060206131f686828701613169565b9250506040613207868287016130b4565b9150509250925092565b6000819050919050565b61322481613211565b811461322f57600080fd5b50565b6000813590506132418161321b565b92915050565b60006020828403121561325d5761325c612f13565b5b600061326b84828501613232565b91505092915050565b61327d81613211565b82525050565b60006020820190506132986000830184613274565b92915050565b600080604083850312156132b5576132b4612f13565b5b60006132c385828601613232565b92505060206132d485828601613169565b9150509250929050565b600080fd5b600080fd5b7f4e487b7100000000000000000000000000000000000000000000000000000000600052604160045260246000fd5b61332082613027565b810181811067ffffffffffffffff8211171561333f5761333e6132e8565b5b80604052505050565b6000613352612f09565b905061335e8282613317565b919050565b600067ffffffffffffffff82111561337e5761337d6132e8565b5b61338782613027565b9050602081019050919050565b82818337600083830152505050565b60006133b66133b184613363565b613348565b9050828152602081018484840111156133d2576133d16132e3565b5b6133dd848285613394565b509392505050565b600082601f8301126133fa576133f96132de565b5b813561340a8482602086016133a3565b91505092915050565b6000806040838503121561342a57613429612f13565b5b600061343885828601613169565b925050602083013567ffffffffffffffff81111561345957613458612f18565b5b613465858286016133e5565b9150509250929050565b60006020828403121561348557613484612f13565b5b600061349384828501613169565b91505092915050565b6134a581613093565b82525050565b60006020820190506134c0600083018461349c565b92915050565b6000602082840312156134dc576134db612f13565b5b600082013567ffffffffffffffff8111156134fa576134f9612f18565b5b613506848285016133e5565b91505092915050565b61351881612fa2565b811461352357600080fd5b50565b6000813590506135358161350f565b92915050565b6000806040838503121561355257613551612f13565b5b600061356085828601613169565b925050602061357185828601613526565b9150509250929050565b600067ffffffffffffffff821115613596576135956132e8565b5b61359f82613027565b9050602081019050919050565b60006135bf6135ba8461357b565b613348565b9050828152602081018484840111156135db576135da6132e3565b5b6135e6848285613394565b509392505050565b600082601f830112613603576136026132de565b5b81356136138482602086016135ac565b91505092915050565b6000806000806080858703121561363657613635612f13565b5b600061364487828801613169565b945050602061365587828801613169565b9350506040613666878288016130b4565b925050606085013567ffffffffffffffff81111561368757613686612f18565b5b613693878288016135ee565b91505092959194509250565b600080604083850312156136b6576136b5612f13565b5b60006136c485828601613169565b92505060206136d585828601613169565b9150509250929050565b7f4e487b7100000000000000000000000000000000000000000000000000000000600052602260045260246000fd5b6000600282049050600182168061372657607f821691505b602082108103613739576137386136df565b5b50919050565b7f4552433732313a20617070726f76656420717565727920666f72206e6f6e657860008201527f697374656e7420746f6b656e0000000000000000000000000000000000000000602082015250565b600061379b602c83612fe3565b91506137a68261373f565b604082019050919050565b600060208201905081810360008301526137ca8161378e565b9050919050565b7f5061757361626c653a2070617573656400000000000000000000000000000000600082015250565b6000613807601083612fe3565b9150613812826137d1565b602082019050919050565b60006020820190508181036000830152613836816137fa565b9050919050565b7f4552433732313a207472616e736665722063616c6c6572206973206e6f74206f60008201527f776e6572206e6f7220617070726f766564000000000000000000000000000000602082015250565b6000613899603183612fe3565b91506138a48261383d565b604082019050919050565b600060208201905081810360008301526138c88161388c565b9050919050565b7f4d657461646174615552492063616e6e6f7420626520656d7074790000000000600082015250565b6000613905601b83612fe3565b9150613910826138cf565b602082019050919050565b60006020820190508181036000830152613934816138f8565b9050919050565b7f4552433732313a206f776e657220717565727920666f72206e6f6e657869737460008201527f656e7420746f6b656e0000000000000000000000000000000000000000000000602082015250565b6000613997602983612fe3565b91506139a28261393b565b604082019050919050565b600060208201905081810360008301526139c68161398a565b9050919050565b7f4552433732313a2062616c616e636520717565727920666f7220746865207a6560008201527f726f206164647265737300000000000000000000000000000000000000000000602082015250565b6000613a29602a83612fe3565b9150613a34826139cd565b604082019050919050565b60006020820190508181036000830152613a5881613a1c565b9050919050565b7f4f776e61626c653a2063616c6c6572206973206e6f7420746865206f776e6572600082015250565b6000613a95602083612fe3565b9150613aa082613a5f565b602082019050919050565b60006020820190508181036000830152613ac481613a88565b9050919050565b7f45524337323155524953746f726167653a2055524920717565727920666f722060008201527f6e6f6e6578697374656e7420746f6b656e000000000000000000000000000000602082015250565b6000613b27603183612fe3565b9150613b3282613acb565b604082019050919050565b60006020820190508181036000830152613b5681613b1a565b9050919050565b600081905092915050565b6000613b7382612fd8565b613b7d8185613b5d565b9350613b8d818560208601612ff4565b80840191505092915050565b6000613ba58285613b68565b9150613bb18284613b68565b91508190509392505050565b7f4552433732313a20617070726f76616c20746f2063757272656e74206f776e6560008201527f7200000000000000000000000000000000000000000000000000000000000000602082015250565b6000613c19602183612fe3565b9150613c2482613bbd565b604082019050919050565b60006020820190508181036000830152613c4881613c0c565b9050919050565b7f4552433732313a20617070726f76652063616c6c6572206973206e6f74206f7760008201527f6e6572206e6f7220617070726f76656420666f7220616c6c0000000000000000602082015250565b6000613cab603883612fe3565b9150613cb682613c4f565b604082019050919050565b60006020820190508181036000830152613cda81613c9e565b9050919050565b7f4552433732313a206f70657261746f7220717565727920666f72206e6f6e657860008201527f697374656e7420746f6b656e0000000000000000000000000000000000000000602082015250565b6000613d3d602c83612fe3565b9150613d4882613ce1565b604082019050919050565b60006020820190508181036000830152613d6c81613d30565b9050919050565b7f4552433732313a207472616e736665722066726f6d20696e636f72726563742060008201527f6f776e6572000000000000000000000000000000000000000000000000000000602082015250565b6000613dcf602583612fe3565b9150613dda82613d73565b604082019050919050565b60006020820190508181036000830152613dfe81613dc2565b9050919050565b7f4552433732313a207472616e7366657220746f20746865207a65726f2061646460008201527f7265737300000000000000000000000000000000000000000000000000000000602082015250565b6000613e61602483612fe3565b9150613e6c82613e05565b604082019050919050565b60006020820190508181036000830152613e9081613e54565b9050919050565b7f4e487b7100000000000000000000000000000000000000000000000000000000600052601160045260246000fd5b6000613ed182613093565b9150613edc83613093565b925082821015613eef57613eee613e97565b5b828203905092915050565b6000613f0582613093565b9150613f1083613093565b9250827fffffffffffffffffffffffffffffffffffffffffffffffffffffffffffffffff03821115613f4557613f44613e97565b5b828201905092915050565b7f416363657373436f6e74726f6c3a2063616e206f6e6c792072656e6f756e636560008201527f20726f6c657320666f722073656c660000000000000000000000000000000000602082015250565b6000613fac602f83612fe3565b9150613fb782613f50565b604082019050919050565b60006020820190508181036000830152613fdb81613f9f565b9050919050565b7f5061757361626c653a206e6f7420706175736564000000000000000000000000600082015250565b6000614018601483612fe3565b915061402382613fe2565b602082019050919050565b600060208201905081810360008301526140478161400b565b9050919050565b7f45524337323155524953746f726167653a2055524920736574206f66206e6f6e60008201527f6578697374656e7420746f6b656e000000000000000000000000000000000000602082015250565b60006140aa602e83612fe3565b91506140b58261404e565b604082019050919050565b600060208201905081810360008301526140d98161409d565b9050919050565b7f4552433732313a207472616e7366657220746f206e6f6e20455243373231526560008201527f63656976657220696d706c656d656e7465720000000000000000000000000000602082015250565b600061413c603283612fe3565b9150614147826140e0565b604082019050919050565b6000602082019050818103600083015261416b8161412f565b9050919050565b7f4552433732314d657461646174613a2055524920717565727920666f72206e6f60008201527f6e6578697374656e7420746f6b656e0000000000000000000000000000000000602082015250565b60006141ce602f83612fe3565b91506141d982614172565b604082019050919050565b600060208201905081810360008301526141fd816141c1565b9050919050565b7f4f776e61626c653a206e6577206f776e657220697320746865207a65726f206160008201527f6464726573730000000000000000000000000000000000000000000000000000602082015250565b6000614260602683612fe3565b915061426b82614204565b604082019050919050565b6000602082019050818103600083015261428f81614253565b9050919050565b7f416363657373436f6e74726f6c3a206163636f756e7420000000000000000000600082015250565b60006142cc601783613b5d565b91506142d782614296565b601782019050919050565b7f206973206d697373696e6720726f6c6520000000000000000000000000000000600082015250565b6000614318601183613b5d565b9150614323826142e2565b601182019050919050565b6000614339826142bf565b91506143458285613b68565b91506143508261430b565b915061435c8284613b68565b91508190509392505050565b7f4552433732313a20617070726f766520746f2063616c6c657200000000000000600082015250565b600061439e601983612fe3565b91506143a982614368565b602082019050919050565b600060208201905081810360008301526143cd81614391565b9050919050565b600081519050919050565b600082825260208201905092915050565b60006143fb826143d4565b61440581856143df565b9350614415818560208601612ff4565b61441e81613027565b840191505092915050565b600060808201905061443e6000830187613128565b61444b6020830186613128565b614458604083018561349c565b818103606083015261446a81846143f0565b905095945050505050565b60008151905061448481612f49565b92915050565b6000602082840312156144a05761449f612f13565b5b60006144ae84828501614475565b91505092915050565b60006144c282613093565b91507fffffffffffffffffffffffffffffffffffffffffffffffffffffffffffffffff82036144f4576144f3613e97565b5b600182019050919050565b7f4e487b7100000000000000000000000000000000000000000000000000000000600052601260045260246000fd5b600061453982613093565b915061454483613093565b925082614554576145536144ff565b5b828204905092915050565b600061456a82613093565b915061457583613093565b925082614585576145846144ff565b5b828206905092915050565b7f4e487b7100000000000000000000000000000000000000000000000000000000600052603260045260246000fd5b60006145ca82613093565b91506145d583613093565b9250817fffffffffffffffffffffffffffffffffffffffffffffffffffffffffffffffff048311821515161561460e5761460d613e97565b5b828202905092915050565b600061462482613093565b91506000820361463757614636613e97565b5b600182039050919050565b7f537472696e67733a20686578206c656e67746820696e73756666696369656e74600082015250565b6000614678602083612fe3565b915061468382614642565b602082019050919050565b600060208201905081810360008301526146a78161466b565b9050919050565b7f4552433732313a206d696e7420746f20746865207a65726f2061646472657373600082015250565b60006146e4602083612fe3565b91506146ef826146ae565b602082019050919050565b60006020820190508181036000830152614713816146d7565b9050919050565b7f4552433732313a20746f6b656e20616c7265616479206d696e74656400000000600082015250565b6000614750601c83612fe3565b915061475b8261471a565b602082019050919050565b6000602082019050818103600083015261477f81614743565b905091905056fea2646970667358221220f3dac72b921b284c87f7900998291ef372c794e939c44d60d13cf0d97b972bd864736f6c634300080d0033",
  "immutableReferences": {},
  "source": "// SPDX-License-Identifier: MIT\npragma solidity 0.8.13;\n\nimport \"@openzeppelin/contracts/access/AccessControl.sol\";\nimport \"@openzeppelin/contracts/access/Ownable.sol\";\nimport \"@openzeppelin/contracts/security/Pausable.sol\";\nimport \"@openzeppelin/contracts/token/ERC721/extensions/ERC721URIStorage.sol\";\nimport \"@openzeppelin/contracts/utils/Counters.sol\";\n\ncontract NFT is ERC721URIStorage, AccessControl, Pausable, Ownable {\n    using Counters for Counters.Counter;\n    /// @dev Counter auto-incrementating NFT tokenIds, default: 0\n    Counters.Counter private _tokenIdCounter;\n    string private _contractMetadataURI;\n\n    bytes32 public constant MINTER_ROLE = keccak256(\"MINTER_ROLE\");\n    bytes32 public constant BURNER_ROLE = keccak256(\"BURNER_ROLE\");\n    bytes32 public constant PAUSER_ROLE = keccak256(\"PAUSER_ROLE\");\n\n    /// @notice Contract initiation:\n    /// @notice The account deploying the contract will have the minter role and will be able to grand other accounts\n    /// @notice The contract is built with only a name & a symbol as metadata. Each NFT metadata will be given at mint time\n    constructor(string memory name_, string memory symbol_, string memory contractMetadataURI_) ERC721(name_, symbol_) {\n        _contractMetadataURI = contractMetadataURI_;\n        _grantRole(DEFAULT_ADMIN_ROLE, _msgSender());\n        _grantRole(MINTER_ROLE, _msgSender());\n        _grantRole(BURNER_ROLE, _msgSender());\n        _grantRole(PAUSER_ROLE, _msgSender());\n    }\n\n    function pause() public onlyRole(PAUSER_ROLE) {\n        _pause();\n    }\n\n    function unpause() public onlyRole(PAUSER_ROLE) {\n        _unpause();\n    }\n\n    /// @notice NFT minting with metadata i.e tokenURI\n    /// @notice Each mint will increment the tokenId, starting from 0\n    function mintWithTokenURI(address to_, string memory metadataURI_) public onlyRole(MINTER_ROLE) returns (bool) {\n        require(bytes(metadataURI_).length > 1, \"MetadataURI cannot be empty\");\n        uint256 tokenId = _tokenIdCounter.current();\n        _tokenIdCounter.increment();\n        _safeMint(to_, tokenId);\n        _setTokenURI(tokenId, metadataURI_);\n        return true;\n    }\n\n    function burn(uint256 tokenId_) external onlyRole(BURNER_ROLE) whenNotPaused {\n        _burn(tokenId_);\n    }\n\n    function contractURI() public view returns (string memory) {\n        return _contractMetadataURI;\n    }\n\n    function setContractURI(string memory contractURI_) public onlyRole(DEFAULT_ADMIN_ROLE) whenNotPaused {\n        require(bytes(contractURI_).length > 1, \"MetadataURI cannot be empty\");\n        _contractMetadataURI = contractURI_;\n    }\n\n    // Overrides: add whenNotPaused modifier\n\n    function _beforeTokenTransfer(address from_, address to_, uint256 tokenId_)\n        internal\n        whenNotPaused\n        override\n    {\n        super._beforeTokenTransfer(from_, to_, tokenId_);\n    }\n\n    function approve(address to_, uint256 tokenId_) public whenNotPaused override {\n        super.approve(to_, tokenId_);\n    }\n\n    function grantRole(bytes32 role_, address account_) public whenNotPaused override onlyRole(getRoleAdmin(role_)) {\n        super.grantRole(role_, account_);\n    }\n\n    function revokeRole(bytes32 role_, address account_) public whenNotPaused override onlyRole(getRoleAdmin(role_)) {\n        super.revokeRole(role_, account_);\n    }\n\n    function renounceRole(bytes32 role_, address account_) public whenNotPaused override {\n        super.renounceRole(role_, account_);\n    }\n\n    function renounceOwnership() public whenNotPaused onlyOwner override {\n        super.renounceOwnership();\n    }\n\n    function transferOwnership(address newOwner_) public whenNotPaused onlyOwner override {\n        super.transferOwnership(newOwner_);\n    }\n\n    function setApprovalForAll(address operator_, bool approved_) public whenNotPaused override {\n        super.setApprovalForAll(operator_, approved_);\n    }\n\n    function supportsInterface(bytes4 interfaceId_) public view override(ERC721, AccessControl) returns (bool) {\n        return super.supportsInterface(interfaceId_);\n    }\n}\n",
  "sourcePath": "/Users/fermincarranza/consensys/sdk-contracts/contracts/BasicNFT.sol",
  "compiler": {
    "name": "solc",
    "version": "0.8.13+commit.abaa5c0e.Emscripten.clang"
  },
  "schemaVersion": "3.4.7",
  "updatedAt": "2022-05-13T19:34:05.041Z",
  "devdoc": {
    "kind": "dev",
    "methods": {
      "balanceOf(address)": {
        "details": "See {IERC721-balanceOf}."
      },
      "getApproved(uint256)": {
        "details": "See {IERC721-getApproved}."
      },
      "getRoleAdmin(bytes32)": {
        "details": "Returns the admin role that controls `role`. See {grantRole} and {revokeRole}. To change a role's admin, use {_setRoleAdmin}."
      },
      "hasRole(bytes32,address)": {
        "details": "Returns `true` if `account` has been granted `role`."
      },
      "isApprovedForAll(address,address)": {
        "details": "See {IERC721-isApprovedForAll}."
      },
      "name()": {
        "details": "See {IERC721Metadata-name}."
      },
      "owner()": {
        "details": "Returns the address of the current owner."
      },
      "ownerOf(uint256)": {
        "details": "See {IERC721-ownerOf}."
      },
      "paused()": {
        "details": "Returns true if the contract is paused, and false otherwise."
      },
      "renounceOwnership()": {
        "details": "Leaves the contract without owner. It will not be possible to call `onlyOwner` functions anymore. Can only be called by the current owner. NOTE: Renouncing ownership will leave the contract without an owner, thereby removing any functionality that is only available to the owner."
      },
      "safeTransferFrom(address,address,uint256)": {
        "details": "See {IERC721-safeTransferFrom}."
      },
      "safeTransferFrom(address,address,uint256,bytes)": {
        "details": "See {IERC721-safeTransferFrom}."
      },
      "symbol()": {
        "details": "See {IERC721Metadata-symbol}."
      },
      "tokenURI(uint256)": {
        "details": "See {IERC721Metadata-tokenURI}."
      },
      "transferFrom(address,address,uint256)": {
        "details": "See {IERC721-transferFrom}."
      }
    },
    "stateVariables": {
      "_tokenIdCounter": {
        "details": "Counter auto-incrementating NFT tokenIds, default: 0"
      }
    },
    "version": 1
  },
  "userdoc": {
    "kind": "user",
    "methods": {
      "constructor": {
        "notice": "Contract initiation:The account deploying the contract will have the minter role and will be able to grand other accountsThe contract is built with only a name & a symbol as metadata. Each NFT metadata will be given at mint time"
      },
      "mintWithTokenURI(address,string)": {
        "notice": "NFT minting with metadata i.e tokenURIEach mint will increment the tokenId, starting from 0"
      }
    },
    "version": 1
  }
}