{
  "contractName": "NFTContractUnlimited",
  "abi": [
    {
      "inputs": [
        {
          "internalType": "string",
          "name": "name_",
          "type": "string"
        },
        {
          "internalType": "string",
          "name": "symbol_",
          "type": "string"
        },
        {
          "internalType": "string",
          "name": "contractURI_",
          "type": "string"
        }
      ],
      "stateMutability": "nonpayable",
      "type": "constructor"
    },
    {
      "inputs": [],
      "name": "ContractURIIsEmpty",
      "type": "error"
    },
    {
      "inputs": [],
      "name": "NameIsEmpty",
      "type": "error"
    },
    {
      "inputs": [],
      "name": "TokenURIIsEmpty",
      "type": "error"
    },
    {
      "anonymous": false,
      "inputs": [
        {
          "indexed": true,
          "internalType": "address",
          "name": "owner",
          "type": "address"
        },
        {
          "indexed": true,
          "internalType": "address",
          "name": "approved",
          "type": "address"
        },
        {
          "indexed": true,
          "internalType": "uint256",
          "name": "tokenId",
          "type": "uint256"
        }
      ],
      "name": "Approval",
      "type": "event"
    },
    {
      "anonymous": false,
      "inputs": [
        {
          "indexed": true,
          "internalType": "address",
          "name": "owner",
          "type": "address"
        },
        {
          "indexed": true,
          "internalType": "address",
          "name": "operator",
          "type": "address"
        },
        {
          "indexed": false,
          "internalType": "bool",
          "name": "approved",
          "type": "bool"
        }
      ],
      "name": "ApprovalForAll",
      "type": "event"
    },
    {
      "anonymous": false,
      "inputs": [
        {
          "indexed": false,
          "internalType": "address",
          "name": "contractAddress_",
          "type": "address"
        }
      ],
      "name": "ContractDeployed",
      "type": "event"
    },
    {
      "anonymous": false,
      "inputs": [
        {
          "indexed": true,
          "internalType": "address",
          "name": "previousOwner",
          "type": "address"
        },
        {
          "indexed": true,
          "internalType": "address",
          "name": "newOwner",
          "type": "address"
        }
      ],
      "name": "OwnershipTransferred",
      "type": "event"
    },
    {
      "anonymous": false,
      "inputs": [
        {
          "indexed": true,
          "internalType": "bytes32",
          "name": "role",
          "type": "bytes32"
        },
        {
          "indexed": true,
          "internalType": "bytes32",
          "name": "previousAdminRole",
          "type": "bytes32"
        },
        {
          "indexed": true,
          "internalType": "bytes32",
          "name": "newAdminRole",
          "type": "bytes32"
        }
      ],
      "name": "RoleAdminChanged",
      "type": "event"
    },
    {
      "anonymous": false,
      "inputs": [
        {
          "indexed": true,
          "internalType": "bytes32",
          "name": "role",
          "type": "bytes32"
        },
        {
          "indexed": true,
          "internalType": "address",
          "name": "account",
          "type": "address"
        },
        {
          "indexed": true,
          "internalType": "address",
          "name": "sender",
          "type": "address"
        }
      ],
      "name": "RoleGranted",
      "type": "event"
    },
    {
      "anonymous": false,
      "inputs": [
        {
          "indexed": true,
          "internalType": "bytes32",
          "name": "role",
          "type": "bytes32"
        },
        {
          "indexed": true,
          "internalType": "address",
          "name": "account",
          "type": "address"
        },
        {
          "indexed": true,
          "internalType": "address",
          "name": "sender",
          "type": "address"
        }
      ],
      "name": "RoleRevoked",
      "type": "event"
    },
    {
      "anonymous": false,
      "inputs": [
        {
          "indexed": true,
          "internalType": "address",
          "name": "from",
          "type": "address"
        },
        {
          "indexed": true,
          "internalType": "address",
          "name": "to",
          "type": "address"
        },
        {
          "indexed": true,
          "internalType": "uint256",
          "name": "tokenId",
          "type": "uint256"
        }
      ],
      "name": "Transfer",
      "type": "event"
    },
    {
      "inputs": [],
      "name": "DEFAULT_ADMIN_ROLE",
      "outputs": [
        {
          "internalType": "bytes32",
          "name": "",
          "type": "bytes32"
        }
      ],
      "stateMutability": "view",
      "type": "function"
    },
    {
      "inputs": [],
      "name": "MINTER_ROLE",
      "outputs": [
        {
          "internalType": "bytes32",
          "name": "",
          "type": "bytes32"
        }
      ],
      "stateMutability": "view",
      "type": "function"
    },
    {
      "inputs": [
        {
          "internalType": "address",
          "name": "to",
          "type": "address"
        },
        {
          "internalType": "uint256",
          "name": "tokenId",
          "type": "uint256"
        }
      ],
      "name": "approve",
      "outputs": [],
      "stateMutability": "nonpayable",
      "type": "function"
    },
    {
      "inputs": [
        {
          "internalType": "address",
          "name": "owner",
          "type": "address"
        }
      ],
      "name": "balanceOf",
      "outputs": [
        {
          "internalType": "uint256",
          "name": "",
          "type": "uint256"
        }
      ],
      "stateMutability": "view",
      "type": "function"
    },
    {
      "inputs": [
        {
          "internalType": "uint256",
          "name": "tokenId",
          "type": "uint256"
        }
      ],
      "name": "getApproved",
      "outputs": [
        {
          "internalType": "address",
          "name": "",
          "type": "address"
        }
      ],
      "stateMutability": "view",
      "type": "function"
    },
    {
      "inputs": [
        {
          "internalType": "bytes32",
          "name": "role",
          "type": "bytes32"
        }
      ],
      "name": "getRoleAdmin",
      "outputs": [
        {
          "internalType": "bytes32",
          "name": "",
          "type": "bytes32"
        }
      ],
      "stateMutability": "view",
      "type": "function"
    },
    {
      "inputs": [
        {
          "internalType": "bytes32",
          "name": "role",
          "type": "bytes32"
        },
        {
          "internalType": "address",
          "name": "account",
          "type": "address"
        }
      ],
      "name": "grantRole",
      "outputs": [],
      "stateMutability": "nonpayable",
      "type": "function"
    },
    {
      "inputs": [
        {
          "internalType": "bytes32",
          "name": "role",
          "type": "bytes32"
        },
        {
          "internalType": "address",
          "name": "account",
          "type": "address"
        }
      ],
      "name": "hasRole",
      "outputs": [
        {
          "internalType": "bool",
          "name": "",
          "type": "bool"
        }
      ],
      "stateMutability": "view",
      "type": "function"
    },
    {
      "inputs": [
        {
          "internalType": "address",
          "name": "owner",
          "type": "address"
        },
        {
          "internalType": "address",
          "name": "operator",
          "type": "address"
        }
      ],
      "name": "isApprovedForAll",
      "outputs": [
        {
          "internalType": "bool",
          "name": "",
          "type": "bool"
        }
      ],
      "stateMutability": "view",
      "type": "function"
    },
    {
      "inputs": [],
      "name": "name",
      "outputs": [
        {
          "internalType": "string",
          "name": "",
          "type": "string"
        }
      ],
      "stateMutability": "view",
      "type": "function"
    },
    {
      "inputs": [],
      "name": "owner",
      "outputs": [
        {
          "internalType": "address",
          "name": "",
          "type": "address"
        }
      ],
      "stateMutability": "view",
      "type": "function"
    },
    {
      "inputs": [
        {
          "internalType": "uint256",
          "name": "tokenId",
          "type": "uint256"
        }
      ],
      "name": "ownerOf",
      "outputs": [
        {
          "internalType": "address",
          "name": "",
          "type": "address"
        }
      ],
      "stateMutability": "view",
      "type": "function"
    },
    {
      "inputs": [],
      "name": "renounceOwnership",
      "outputs": [],
      "stateMutability": "nonpayable",
      "type": "function"
    },
    {
      "inputs": [
        {
          "internalType": "bytes32",
          "name": "role",
          "type": "bytes32"
        },
        {
          "internalType": "address",
          "name": "account",
          "type": "address"
        }
      ],
      "name": "renounceRole",
      "outputs": [],
      "stateMutability": "nonpayable",
      "type": "function"
    },
    {
      "inputs": [
        {
          "internalType": "bytes32",
          "name": "role",
          "type": "bytes32"
        },
        {
          "internalType": "address",
          "name": "account",
          "type": "address"
        }
      ],
      "name": "revokeRole",
      "outputs": [],
      "stateMutability": "nonpayable",
      "type": "function"
    },
    {
      "inputs": [
        {
          "internalType": "address",
          "name": "from",
          "type": "address"
        },
        {
          "internalType": "address",
          "name": "to",
          "type": "address"
        },
        {
          "internalType": "uint256",
          "name": "tokenId",
          "type": "uint256"
        }
      ],
      "name": "safeTransferFrom",
      "outputs": [],
      "stateMutability": "nonpayable",
      "type": "function"
    },
    {
      "inputs": [
        {
          "internalType": "address",
          "name": "from",
          "type": "address"
        },
        {
          "internalType": "address",
          "name": "to",
          "type": "address"
        },
        {
          "internalType": "uint256",
          "name": "tokenId",
          "type": "uint256"
        },
        {
          "internalType": "bytes",
          "name": "_data",
          "type": "bytes"
        }
      ],
      "name": "safeTransferFrom",
      "outputs": [],
      "stateMutability": "nonpayable",
      "type": "function"
    },
    {
      "inputs": [
        {
          "internalType": "address",
          "name": "operator",
          "type": "address"
        },
        {
          "internalType": "bool",
          "name": "approved",
          "type": "bool"
        }
      ],
      "name": "setApprovalForAll",
      "outputs": [],
      "stateMutability": "nonpayable",
      "type": "function"
    },
    {
      "inputs": [],
      "name": "symbol",
      "outputs": [
        {
          "internalType": "string",
          "name": "",
          "type": "string"
        }
      ],
      "stateMutability": "view",
      "type": "function"
    },
    {
      "inputs": [
        {
          "internalType": "uint256",
          "name": "tokenId",
          "type": "uint256"
        }
      ],
      "name": "tokenURI",
      "outputs": [
        {
          "internalType": "string",
          "name": "",
          "type": "string"
        }
      ],
      "stateMutability": "view",
      "type": "function"
    },
    {
      "inputs": [
        {
          "internalType": "address",
          "name": "from",
          "type": "address"
        },
        {
          "internalType": "address",
          "name": "to",
          "type": "address"
        },
        {
          "internalType": "uint256",
          "name": "tokenId",
          "type": "uint256"
        }
      ],
      "name": "transferFrom",
      "outputs": [],
      "stateMutability": "nonpayable",
      "type": "function"
    },
    {
      "inputs": [
        {
          "internalType": "address",
          "name": "newOwner",
          "type": "address"
        }
      ],
      "name": "transferOwnership",
      "outputs": [],
      "stateMutability": "nonpayable",
      "type": "function"
    },
    {
      "inputs": [
        {
          "internalType": "address",
          "name": "to_",
          "type": "address"
        },
        {
          "internalType": "string",
          "name": "tokenURI_",
          "type": "string"
        }
      ],
      "name": "mintWithTokenURI",
      "outputs": [
        {
          "internalType": "bool",
          "name": "",
          "type": "bool"
        }
      ],
      "stateMutability": "nonpayable",
      "type": "function"
    },
    {
      "inputs": [],
      "name": "contractURI",
      "outputs": [
        {
          "internalType": "string",
          "name": "",
          "type": "string"
        }
      ],
      "stateMutability": "view",
      "type": "function"
    },
    {
      "inputs": [
        {
          "internalType": "string",
          "name": "contractURI_",
          "type": "string"
        }
      ],
      "name": "setContractURI",
      "outputs": [],
      "stateMutability": "nonpayable",
      "type": "function"
    },
    {
      "inputs": [
        {
          "internalType": "bytes4",
          "name": "interfaceId_",
          "type": "bytes4"
        }
      ],
      "name": "supportsInterface",
      "outputs": [
        {
          "internalType": "bool",
          "name": "",
          "type": "bool"
        }
      ],
      "stateMutability": "view",
      "type": "function"
    }
  ],
  "bytecode": "0x60806040523480156200001157600080fd5b50604051620044bb380380620044bb833981810160405281019062000037919062000601565b8282816000908051906020019062000051929190620003b4565b5080600190805190602001906200006a929190620003b4565b5050506200008d620000816200018960201b60201c565b6200019160201b60201c565b6001835111620000c9576040517fbeafaea000000000000000000000000000000000000000000000000000000000815260040160405180910390fd5b80600a9080519060200190620000e1929190620003b4565b50620001066000801b620000fa6200018960201b60201c565b6200025760201b60201c565b620001477f9f2df0fed2c77648de5860a4cc508cd0818c85b8b8a1ab4ceeef8d981c8956a66200013b6200018960201b60201c565b6200025760201b60201c565b7f8ffcdc15a283d706d38281f500270d8b5a656918f555de0913d7455e3e6bc1bf30604051620001789190620006ff565b60405180910390a150505062000780565b600033905090565b6000600860009054906101000a900473ffffffffffffffffffffffffffffffffffffffff16905081600860006101000a81548173ffffffffffffffffffffffffffffffffffffffff021916908373ffffffffffffffffffffffffffffffffffffffff1602179055508173ffffffffffffffffffffffffffffffffffffffff168173ffffffffffffffffffffffffffffffffffffffff167f8be0079c531659141344cd1fd0a4f28419497f9722a3daafe3b4186f6b6457e060405160405180910390a35050565b6200026982826200034960201b60201c565b620003455760016007600084815260200190815260200160002060000160008373ffffffffffffffffffffffffffffffffffffffff1673ffffffffffffffffffffffffffffffffffffffff16815260200190815260200160002060006101000a81548160ff021916908315150217905550620002ea6200018960201b60201c565b73ffffffffffffffffffffffffffffffffffffffff168173ffffffffffffffffffffffffffffffffffffffff16837f2f8788117e7eff1d82e926ec794901d17c78024a50270940304540a733656f0d60405160405180910390a45b5050565b60006007600084815260200190815260200160002060000160008373ffffffffffffffffffffffffffffffffffffffff1673ffffffffffffffffffffffffffffffffffffffff16815260200190815260200160002060009054906101000a900460ff16905092915050565b828054620003c2906200074b565b90600052602060002090601f016020900481019282620003e6576000855562000432565b82601f106200040157805160ff191683800117855562000432565b8280016001018555821562000432579182015b828111156200043157825182559160200191906001019062000414565b5b50905062000441919062000445565b5090565b5b808211156200046057600081600090555060010162000446565b5090565b6000604051905090565b600080fd5b600080fd5b600080fd5b600080fd5b6000601f19601f8301169050919050565b7f4e487b7100000000000000000000000000000000000000000000000000000000600052604160045260246000fd5b620004cd8262000482565b810181811067ffffffffffffffff82111715620004ef57620004ee62000493565b5b80604052505050565b60006200050462000464565b9050620005128282620004c2565b919050565b600067ffffffffffffffff82111562000535576200053462000493565b5b620005408262000482565b9050602081019050919050565b60005b838110156200056d57808201518184015260208101905062000550565b838111156200057d576000848401525b50505050565b60006200059a620005948462000517565b620004f8565b905082815260208101848484011115620005b957620005b86200047d565b5b620005c68482856200054d565b509392505050565b600082601f830112620005e657620005e562000478565b5b8151620005f884826020860162000583565b91505092915050565b6000806000606084860312156200061d576200061c6200046e565b5b600084015167ffffffffffffffff8111156200063e576200063d62000473565b5b6200064c86828701620005ce565b935050602084015167ffffffffffffffff81111562000670576200066f62000473565b5b6200067e86828701620005ce565b925050604084015167ffffffffffffffff811115620006a257620006a162000473565b5b620006b086828701620005ce565b9150509250925092565b600073ffffffffffffffffffffffffffffffffffffffff82169050919050565b6000620006e782620006ba565b9050919050565b620006f981620006da565b82525050565b6000602082019050620007166000830184620006ee565b92915050565b7f4e487b7100000000000000000000000000000000000000000000000000000000600052602260045260246000fd5b600060028204905060018216806200076457607f821691505b6020821081036200077a57620007796200071c565b5b50919050565b613d2b80620007906000396000f3fe608060405234801561001057600080fd5b506004361061018e5760003560e01c80638da5cb5b116100de578063b88d4fde11610097578063d547741f11610071578063d547741f14610493578063e8a3d485146104af578063e985e9c5146104cd578063f2fde38b146104fd5761018e565b8063b88d4fde14610429578063c87b56dd14610445578063d5391393146104755761018e565b80638da5cb5b1461036757806391d1485414610385578063938e3d7b146103b557806395d89b41146103d1578063a217fddf146103ef578063a22cb4651461040d5761018e565b80632f2ff15d1161014b57806345c177821161012557806345c17782146102cd5780636352211e146102fd57806370a082311461032d578063715018a61461035d5761018e565b80632f2ff15d1461027957806336568abe1461029557806342842e0e146102b15761018e565b806301ffc9a71461019357806306fdde03146101c3578063081812fc146101e1578063095ea7b31461021157806323b872dd1461022d578063248a9ca314610249575b600080fd5b6101ad60048036038101906101a89190612628565b610519565b6040516101ba9190612670565b60405180910390f35b6101cb61052b565b6040516101d89190612724565b60405180910390f35b6101fb60048036038101906101f6919061277c565b6105bd565b60405161020891906127ea565b60405180910390f35b61022b60048036038101906102269190612831565b610642565b005b61024760048036038101906102429190612871565b610759565b005b610263600480360381019061025e91906128fa565b6107b9565b6040516102709190612936565b60405180910390f35b610293600480360381019061028e9190612951565b6107d9565b005b6102af60048036038101906102aa9190612951565b6107fa565b005b6102cb60048036038101906102c69190612871565b61087d565b005b6102e760048036038101906102e29190612ac6565b61089d565b6040516102f49190612670565b60405180910390f35b6103176004803603810190610312919061277c565b61093c565b60405161032491906127ea565b60405180910390f35b61034760048036038101906103429190612b22565b6109ed565b6040516103549190612b5e565b60405180910390f35b610365610aa4565b005b61036f610b2c565b60405161037c91906127ea565b60405180910390f35b61039f600480360381019061039a9190612951565b610b56565b6040516103ac9190612670565b60405180910390f35b6103cf60048036038101906103ca9190612b79565b610bc1565b005b6103d9610c24565b6040516103e69190612724565b60405180910390f35b6103f7610cb6565b6040516104049190612936565b60405180910390f35b61042760048036038101906104229190612bee565b610cbd565b005b610443600480360381019061043e9190612ccf565b610cd3565b005b61045f600480360381019061045a919061277c565b610d35565b60405161046c9190612724565b60405180910390f35b61047d610e86565b60405161048a9190612936565b60405180910390f35b6104ad60048036038101906104a89190612951565b610eaa565b005b6104b7610ecb565b6040516104c49190612724565b60405180910390f35b6104e760048036038101906104e29190612d52565b610f5d565b6040516104f49190612670565b60405180910390f35b61051760048036038101906105129190612b22565b610ff1565b005b6000610524826110e8565b9050919050565b60606000805461053a90612dc1565b80601f016020809104026020016040519081016040528092919081815260200182805461056690612dc1565b80156105b35780601f10610588576101008083540402835291602001916105b3565b820191906000526020600020905b81548152906001019060200180831161059657829003601f168201915b5050505050905090565b60006105c882611162565b610607576040517f08c379a00000000000000000000000000000000000000000000000000000000081526004016105fe90612e64565b60405180910390fd5b6004600083815260200190815260200160002060009054906101000a900473ffffffffffffffffffffffffffffffffffffffff169050919050565b600061064d8261093c565b90508073ffffffffffffffffffffffffffffffffffffffff168373ffffffffffffffffffffffffffffffffffffffff16036106bd576040517f08c379a00000000000000000000000000000000000000000000000000000000081526004016106b490612ef6565b60405180910390fd5b8073ffffffffffffffffffffffffffffffffffffffff166106dc6111ce565b73ffffffffffffffffffffffffffffffffffffffff16148061070b575061070a816107056111ce565b610f5d565b5b61074a576040517f08c379a000000000000000000000000000000000000000000000000000000000815260040161074190612f88565b60405180910390fd5b61075483836111d6565b505050565b61076a6107646111ce565b8261128f565b6107a9576040517f08c379a00000000000000000000000000000000000000000000000000000000081526004016107a09061301a565b60405180910390fd5b6107b483838361136d565b505050565b600060076000838152602001908152602001600020600101549050919050565b6107e2826107b9565b6107eb816115d3565b6107f583836115e7565b505050565b6108026111ce565b73ffffffffffffffffffffffffffffffffffffffff168173ffffffffffffffffffffffffffffffffffffffff161461086f576040517f08c379a0000000000000000000000000000000000000000000000000000000008152600401610866906130ac565b60405180910390fd5b61087982826116c8565b5050565b61089883838360405180602001604052806000815250610cd3565b505050565b60007f9f2df0fed2c77648de5860a4cc508cd0818c85b8b8a1ab4ceeef8d981c8956a66108c9816115d3565b6001835111610904576040517ff2364a6b00000000000000000000000000000000000000000000000000000000815260040160405180910390fd5b600061091060096117aa565b905061091c60096117b8565b61092685826117ce565b61093081856117ec565b60019250505092915050565b6000806002600084815260200190815260200160002060009054906101000a900473ffffffffffffffffffffffffffffffffffffffff169050600073ffffffffffffffffffffffffffffffffffffffff168173ffffffffffffffffffffffffffffffffffffffff16036109e4576040517f08c379a00000000000000000000000000000000000000000000000000000000081526004016109db9061313e565b60405180910390fd5b80915050919050565b60008073ffffffffffffffffffffffffffffffffffffffff168273ffffffffffffffffffffffffffffffffffffffff1603610a5d576040517f08c379a0000000000000000000000000000000000000000000000000000000008152600401610a54906131d0565b60405180910390fd5b600360008373ffffffffffffffffffffffffffffffffffffffff1673ffffffffffffffffffffffffffffffffffffffff168152602001908152602001600020549050919050565b610aac6111ce565b73ffffffffffffffffffffffffffffffffffffffff16610aca610b2c565b73ffffffffffffffffffffffffffffffffffffffff1614610b20576040517f08c379a0000000000000000000000000000000000000000000000000000000008152600401610b179061323c565b60405180910390fd5b610b2a6000611860565b565b6000600860009054906101000a900473ffffffffffffffffffffffffffffffffffffffff16905090565b60006007600084815260200190815260200160002060000160008373ffffffffffffffffffffffffffffffffffffffff1673ffffffffffffffffffffffffffffffffffffffff16815260200190815260200160002060009054906101000a900460ff16905092915050565b6000801b610bce816115d3565b6001825111610c09576040517f542ea76200000000000000000000000000000000000000000000000000000000815260040160405180910390fd5b81600a9080519060200190610c1f929190612519565b505050565b606060018054610c3390612dc1565b80601f0160208091040260200160405190810160405280929190818152602001828054610c5f90612dc1565b8015610cac5780601f10610c8157610100808354040283529160200191610cac565b820191906000526020600020905b815481529060010190602001808311610c8f57829003601f168201915b5050505050905090565b6000801b81565b610ccf610cc86111ce565b8383611926565b5050565b610ce4610cde6111ce565b8361128f565b610d23576040517f08c379a0000000000000000000000000000000000000000000000000000000008152600401610d1a9061301a565b60405180910390fd5b610d2f84848484611a92565b50505050565b6060610d4082611162565b610d7f576040517f08c379a0000000000000000000000000000000000000000000000000000000008152600401610d76906132ce565b60405180910390fd5b6000600660008481526020019081526020016000208054610d9f90612dc1565b80601f0160208091040260200160405190810160405280929190818152602001828054610dcb90612dc1565b8015610e185780601f10610ded57610100808354040283529160200191610e18565b820191906000526020600020905b815481529060010190602001808311610dfb57829003601f168201915b505050505090506000610e29611aee565b90506000815103610e3e578192505050610e81565b600082511115610e73578082604051602001610e5b92919061332a565b60405160208183030381529060405292505050610e81565b610e7c84611b05565b925050505b919050565b7f9f2df0fed2c77648de5860a4cc508cd0818c85b8b8a1ab4ceeef8d981c8956a681565b610eb3826107b9565b610ebc816115d3565b610ec683836116c8565b505050565b6060600a8054610eda90612dc1565b80601f0160208091040260200160405190810160405280929190818152602001828054610f0690612dc1565b8015610f535780601f10610f2857610100808354040283529160200191610f53565b820191906000526020600020905b815481529060010190602001808311610f3657829003601f168201915b5050505050905090565b6000600560008473ffffffffffffffffffffffffffffffffffffffff1673ffffffffffffffffffffffffffffffffffffffff16815260200190815260200160002060008373ffffffffffffffffffffffffffffffffffffffff1673ffffffffffffffffffffffffffffffffffffffff16815260200190815260200160002060009054906101000a900460ff16905092915050565b610ff96111ce565b73ffffffffffffffffffffffffffffffffffffffff16611017610b2c565b73ffffffffffffffffffffffffffffffffffffffff161461106d576040517f08c379a00000000000000000000000000000000000000000000000000000000081526004016110649061323c565b60405180910390fd5b600073ffffffffffffffffffffffffffffffffffffffff168173ffffffffffffffffffffffffffffffffffffffff16036110dc576040517f08c379a00000000000000000000000000000000000000000000000000000000081526004016110d3906133c0565b60405180910390fd5b6110e581611860565b50565b60007f7965db0b000000000000000000000000000000000000000000000000000000007bffffffffffffffffffffffffffffffffffffffffffffffffffffffff1916827bffffffffffffffffffffffffffffffffffffffffffffffffffffffff1916148061115b575061115a82611bac565b5b9050919050565b60008073ffffffffffffffffffffffffffffffffffffffff166002600084815260200190815260200160002060009054906101000a900473ffffffffffffffffffffffffffffffffffffffff1673ffffffffffffffffffffffffffffffffffffffff1614159050919050565b600033905090565b816004600083815260200190815260200160002060006101000a81548173ffffffffffffffffffffffffffffffffffffffff021916908373ffffffffffffffffffffffffffffffffffffffff160217905550808273ffffffffffffffffffffffffffffffffffffffff166112498361093c565b73ffffffffffffffffffffffffffffffffffffffff167f8c5be1e5ebec7d5bd14f71427d1e84f3dd0314c0f7b2291e5b200ac8c7c3b92560405160405180910390a45050565b600061129a82611162565b6112d9576040517f08c379a00000000000000000000000000000000000000000000000000000000081526004016112d090613452565b60405180910390fd5b60006112e48361093c565b90508073ffffffffffffffffffffffffffffffffffffffff168473ffffffffffffffffffffffffffffffffffffffff16148061132657506113258185610f5d565b5b8061136457508373ffffffffffffffffffffffffffffffffffffffff1661134c846105bd565b73ffffffffffffffffffffffffffffffffffffffff16145b91505092915050565b8273ffffffffffffffffffffffffffffffffffffffff1661138d8261093c565b73ffffffffffffffffffffffffffffffffffffffff16146113e3576040517f08c379a00000000000000000000000000000000000000000000000000000000081526004016113da906134e4565b60405180910390fd5b600073ffffffffffffffffffffffffffffffffffffffff168273ffffffffffffffffffffffffffffffffffffffff1603611452576040517f08c379a000000000000000000000000000000000000000000000000000000000815260040161144990613576565b60405180910390fd5b61145d838383611c8e565b6114686000826111d6565b6001600360008573ffffffffffffffffffffffffffffffffffffffff1673ffffffffffffffffffffffffffffffffffffffff16815260200190815260200160002060008282546114b891906135c5565b925050819055506001600360008473ffffffffffffffffffffffffffffffffffffffff1673ffffffffffffffffffffffffffffffffffffffff168152602001908152602001600020600082825461150f91906135f9565b92505081905550816002600083815260200190815260200160002060006101000a81548173ffffffffffffffffffffffffffffffffffffffff021916908373ffffffffffffffffffffffffffffffffffffffff160217905550808273ffffffffffffffffffffffffffffffffffffffff168473ffffffffffffffffffffffffffffffffffffffff167fddf252ad1be2c89b69c2b068fc378daa952ba7f163c4a11628f55a4df523b3ef60405160405180910390a46115ce838383611c93565b505050565b6115e4816115df6111ce565b611c98565b50565b6115f18282610b56565b6116c45760016007600084815260200190815260200160002060000160008373ffffffffffffffffffffffffffffffffffffffff1673ffffffffffffffffffffffffffffffffffffffff16815260200190815260200160002060006101000a81548160ff0219169083151502179055506116696111ce565b73ffffffffffffffffffffffffffffffffffffffff168173ffffffffffffffffffffffffffffffffffffffff16837f2f8788117e7eff1d82e926ec794901d17c78024a50270940304540a733656f0d60405160405180910390a45b5050565b6116d28282610b56565b156117a65760006007600084815260200190815260200160002060000160008373ffffffffffffffffffffffffffffffffffffffff1673ffffffffffffffffffffffffffffffffffffffff16815260200190815260200160002060006101000a81548160ff02191690831515021790555061174b6111ce565b73ffffffffffffffffffffffffffffffffffffffff168173ffffffffffffffffffffffffffffffffffffffff16837ff6391f5c32d9c69d2a47ea670b442974b53935d1edc7fd64eb21e047a839171b60405160405180910390a45b5050565b600081600001549050919050565b6001816000016000828254019250508190555050565b6117e8828260405180602001604052806000815250611d35565b5050565b6117f582611162565b611834576040517f08c379a000000000000000000000000000000000000000000000000000000000815260040161182b906136c1565b60405180910390fd5b8060066000848152602001908152602001600020908051906020019061185b929190612519565b505050565b6000600860009054906101000a900473ffffffffffffffffffffffffffffffffffffffff16905081600860006101000a81548173ffffffffffffffffffffffffffffffffffffffff021916908373ffffffffffffffffffffffffffffffffffffffff1602179055508173ffffffffffffffffffffffffffffffffffffffff168173ffffffffffffffffffffffffffffffffffffffff167f8be0079c531659141344cd1fd0a4f28419497f9722a3daafe3b4186f6b6457e060405160405180910390a35050565b8173ffffffffffffffffffffffffffffffffffffffff168373ffffffffffffffffffffffffffffffffffffffff1603611994576040517f08c379a000000000000000000000000000000000000000000000000000000000815260040161198b9061372d565b60405180910390fd5b80600560008573ffffffffffffffffffffffffffffffffffffffff1673ffffffffffffffffffffffffffffffffffffffff16815260200190815260200160002060008473ffffffffffffffffffffffffffffffffffffffff1673ffffffffffffffffffffffffffffffffffffffff16815260200190815260200160002060006101000a81548160ff0219169083151502179055508173ffffffffffffffffffffffffffffffffffffffff168373ffffffffffffffffffffffffffffffffffffffff167f17307eab39ab6107e8899845ad3d59bd9653f200f220920489ca2b5937696c3183604051611a859190612670565b60405180910390a3505050565b611a9d84848461136d565b611aa984848484611d90565b611ae8576040517f08c379a0000000000000000000000000000000000000000000000000000000008152600401611adf906137bf565b60405180910390fd5b50505050565b606060405180602001604052806000815250905090565b6060611b1082611162565b611b4f576040517f08c379a0000000000000000000000000000000000000000000000000000000008152600401611b4690613851565b60405180910390fd5b6000611b59611aee565b90506000815111611b795760405180602001604052806000815250611ba4565b80611b8384611f17565b604051602001611b9492919061332a565b6040516020818303038152906040525b915050919050565b60007f80ac58cd000000000000000000000000000000000000000000000000000000007bffffffffffffffffffffffffffffffffffffffffffffffffffffffff1916827bffffffffffffffffffffffffffffffffffffffffffffffffffffffff19161480611c7757507f5b5e139f000000000000000000000000000000000000000000000000000000007bffffffffffffffffffffffffffffffffffffffffffffffffffffffff1916827bffffffffffffffffffffffffffffffffffffffffffffffffffffffff1916145b80611c875750611c8682612077565b5b9050919050565b505050565b505050565b611ca28282610b56565b611d3157611cc78173ffffffffffffffffffffffffffffffffffffffff1660146120e1565b611cd58360001c60206120e1565b604051602001611ce6929190613909565b6040516020818303038152906040526040517f08c379a0000000000000000000000000000000000000000000000000000000008152600401611d289190612724565b60405180910390fd5b5050565b611d3f838361231d565b611d4c6000848484611d90565b611d8b576040517f08c379a0000000000000000000000000000000000000000000000000000000008152600401611d82906137bf565b60405180910390fd5b505050565b6000611db18473ffffffffffffffffffffffffffffffffffffffff166124f6565b15611f0a578373ffffffffffffffffffffffffffffffffffffffff1663150b7a02611dda6111ce565b8786866040518563ffffffff1660e01b8152600401611dfc9493929190613998565b6020604051808303816000875af1925050508015611e3857506040513d601f19601f82011682018060405250810190611e3591906139f9565b60015b611eba573d8060008114611e68576040519150601f19603f3d011682016040523d82523d6000602084013e611e6d565b606091505b506000815103611eb2576040517f08c379a0000000000000000000000000000000000000000000000000000000008152600401611ea9906137bf565b60405180910390fd5b805181602001fd5b63150b7a0260e01b7bffffffffffffffffffffffffffffffffffffffffffffffffffffffff1916817bffffffffffffffffffffffffffffffffffffffffffffffffffffffff191614915050611f0f565b600190505b949350505050565b606060008203611f5e576040518060400160405280600181526020017f30000000000000000000000000000000000000000000000000000000000000008152509050612072565b600082905060005b60008214611f90578080611f7990613a26565b915050600a82611f899190613a9d565b9150611f66565b60008167ffffffffffffffff811115611fac57611fab61299b565b5b6040519080825280601f01601f191660200182016040528015611fde5781602001600182028036833780820191505090505b5090505b6000851461206b57600182611ff791906135c5565b9150600a856120069190613ace565b603061201291906135f9565b60f81b81838151811061202857612027613aff565b5b60200101907effffffffffffffffffffffffffffffffffffffffffffffffffffffffffffff1916908160001a905350600a856120649190613a9d565b9450611fe2565b8093505050505b919050565b60007f01ffc9a7000000000000000000000000000000000000000000000000000000007bffffffffffffffffffffffffffffffffffffffffffffffffffffffff1916827bffffffffffffffffffffffffffffffffffffffffffffffffffffffff1916149050919050565b6060600060028360026120f49190613b2e565b6120fe91906135f9565b67ffffffffffffffff8111156121175761211661299b565b5b6040519080825280601f01601f1916602001820160405280156121495781602001600182028036833780820191505090505b5090507f30000000000000000000000000000000000000000000000000000000000000008160008151811061218157612180613aff565b5b60200101907effffffffffffffffffffffffffffffffffffffffffffffffffffffffffffff1916908160001a9053507f7800000000000000000000000000000000000000000000000000000000000000816001815181106121e5576121e4613aff565b5b60200101907effffffffffffffffffffffffffffffffffffffffffffffffffffffffffffff1916908160001a905350600060018460026122259190613b2e565b61222f91906135f9565b90505b60018111156122cf577f3031323334353637383961626364656600000000000000000000000000000000600f86166010811061227157612270613aff565b5b1a60f81b82828151811061228857612287613aff565b5b60200101907effffffffffffffffffffffffffffffffffffffffffffffffffffffffffffff1916908160001a905350600485901c9450806122c890613b88565b9050612232565b5060008414612313576040517f08c379a000000000000000000000000000000000000000000000000000000000815260040161230a90613bfd565b60405180910390fd5b8091505092915050565b600073ffffffffffffffffffffffffffffffffffffffff168273ffffffffffffffffffffffffffffffffffffffff160361238c576040517f08c379a000000000000000000000000000000000000000000000000000000000815260040161238390613c69565b60405180910390fd5b61239581611162565b156123d5576040517f08c379a00000000000000000000000000000000000000000000000000000000081526004016123cc90613cd5565b60405180910390fd5b6123e160008383611c8e565b6001600360008473ffffffffffffffffffffffffffffffffffffffff1673ffffffffffffffffffffffffffffffffffffffff168152602001908152602001600020600082825461243191906135f9565b92505081905550816002600083815260200190815260200160002060006101000a81548173ffffffffffffffffffffffffffffffffffffffff021916908373ffffffffffffffffffffffffffffffffffffffff160217905550808273ffffffffffffffffffffffffffffffffffffffff16600073ffffffffffffffffffffffffffffffffffffffff167fddf252ad1be2c89b69c2b068fc378daa952ba7f163c4a11628f55a4df523b3ef60405160405180910390a46124f260008383611c93565b5050565b6000808273ffffffffffffffffffffffffffffffffffffffff163b119050919050565b82805461252590612dc1565b90600052602060002090601f016020900481019282612547576000855561258e565b82601f1061256057805160ff191683800117855561258e565b8280016001018555821561258e579182015b8281111561258d578251825591602001919060010190612572565b5b50905061259b919061259f565b5090565b5b808211156125b85760008160009055506001016125a0565b5090565b6000604051905090565b600080fd5b600080fd5b60007fffffffff0000000000000000000000000000000000000000000000000000000082169050919050565b612605816125d0565b811461261057600080fd5b50565b600081359050612622816125fc565b92915050565b60006020828403121561263e5761263d6125c6565b5b600061264c84828501612613565b91505092915050565b60008115159050919050565b61266a81612655565b82525050565b60006020820190506126856000830184612661565b92915050565b600081519050919050565b600082825260208201905092915050565b60005b838110156126c55780820151818401526020810190506126aa565b838111156126d4576000848401525b50505050565b6000601f19601f8301169050919050565b60006126f68261268b565b6127008185612696565b93506127108185602086016126a7565b612719816126da565b840191505092915050565b6000602082019050818103600083015261273e81846126eb565b905092915050565b6000819050919050565b61275981612746565b811461276457600080fd5b50565b60008135905061277681612750565b92915050565b600060208284031215612792576127916125c6565b5b60006127a084828501612767565b91505092915050565b600073ffffffffffffffffffffffffffffffffffffffff82169050919050565b60006127d4826127a9565b9050919050565b6127e4816127c9565b82525050565b60006020820190506127ff60008301846127db565b92915050565b61280e816127c9565b811461281957600080fd5b50565b60008135905061282b81612805565b92915050565b60008060408385031215612848576128476125c6565b5b60006128568582860161281c565b925050602061286785828601612767565b9150509250929050565b60008060006060848603121561288a576128896125c6565b5b60006128988682870161281c565b93505060206128a98682870161281c565b92505060406128ba86828701612767565b9150509250925092565b6000819050919050565b6128d7816128c4565b81146128e257600080fd5b50565b6000813590506128f4816128ce565b92915050565b6000602082840312156129105761290f6125c6565b5b600061291e848285016128e5565b91505092915050565b612930816128c4565b82525050565b600060208201905061294b6000830184612927565b92915050565b60008060408385031215612968576129676125c6565b5b6000612976858286016128e5565b92505060206129878582860161281c565b9150509250929050565b600080fd5b600080fd5b7f4e487b7100000000000000000000000000000000000000000000000000000000600052604160045260246000fd5b6129d3826126da565b810181811067ffffffffffffffff821117156129f2576129f161299b565b5b80604052505050565b6000612a056125bc565b9050612a1182826129ca565b919050565b600067ffffffffffffffff821115612a3157612a3061299b565b5b612a3a826126da565b9050602081019050919050565b82818337600083830152505050565b6000612a69612a6484612a16565b6129fb565b905082815260208101848484011115612a8557612a84612996565b5b612a90848285612a47565b509392505050565b600082601f830112612aad57612aac612991565b5b8135612abd848260208601612a56565b91505092915050565b60008060408385031215612add57612adc6125c6565b5b6000612aeb8582860161281c565b925050602083013567ffffffffffffffff811115612b0c57612b0b6125cb565b5b612b1885828601612a98565b9150509250929050565b600060208284031215612b3857612b376125c6565b5b6000612b468482850161281c565b91505092915050565b612b5881612746565b82525050565b6000602082019050612b736000830184612b4f565b92915050565b600060208284031215612b8f57612b8e6125c6565b5b600082013567ffffffffffffffff811115612bad57612bac6125cb565b5b612bb984828501612a98565b91505092915050565b612bcb81612655565b8114612bd657600080fd5b50565b600081359050612be881612bc2565b92915050565b60008060408385031215612c0557612c046125c6565b5b6000612c138582860161281c565b9250506020612c2485828601612bd9565b9150509250929050565b600067ffffffffffffffff821115612c4957612c4861299b565b5b612c52826126da565b9050602081019050919050565b6000612c72612c6d84612c2e565b6129fb565b905082815260208101848484011115612c8e57612c8d612996565b5b612c99848285612a47565b509392505050565b600082601f830112612cb657612cb5612991565b5b8135612cc6848260208601612c5f565b91505092915050565b60008060008060808587031215612ce957612ce86125c6565b5b6000612cf78782880161281c565b9450506020612d088782880161281c565b9350506040612d1987828801612767565b925050606085013567ffffffffffffffff811115612d3a57612d396125cb565b5b612d4687828801612ca1565b91505092959194509250565b60008060408385031215612d6957612d686125c6565b5b6000612d778582860161281c565b9250506020612d888582860161281c565b9150509250929050565b7f4e487b7100000000000000000000000000000000000000000000000000000000600052602260045260246000fd5b60006002820490506001821680612dd957607f821691505b602082108103612dec57612deb612d92565b5b50919050565b7f4552433732313a20617070726f76656420717565727920666f72206e6f6e657860008201527f697374656e7420746f6b656e0000000000000000000000000000000000000000602082015250565b6000612e4e602c83612696565b9150612e5982612df2565b604082019050919050565b60006020820190508181036000830152612e7d81612e41565b9050919050565b7f4552433732313a20617070726f76616c20746f2063757272656e74206f776e6560008201527f7200000000000000000000000000000000000000000000000000000000000000602082015250565b6000612ee0602183612696565b9150612eeb82612e84565b604082019050919050565b60006020820190508181036000830152612f0f81612ed3565b9050919050565b7f4552433732313a20617070726f76652063616c6c6572206973206e6f74206f7760008201527f6e6572206e6f7220617070726f76656420666f7220616c6c0000000000000000602082015250565b6000612f72603883612696565b9150612f7d82612f16565b604082019050919050565b60006020820190508181036000830152612fa181612f65565b9050919050565b7f4552433732313a207472616e736665722063616c6c6572206973206e6f74206f60008201527f776e6572206e6f7220617070726f766564000000000000000000000000000000602082015250565b6000613004603183612696565b915061300f82612fa8565b604082019050919050565b6000602082019050818103600083015261303381612ff7565b9050919050565b7f416363657373436f6e74726f6c3a2063616e206f6e6c792072656e6f756e636560008201527f20726f6c657320666f722073656c660000000000000000000000000000000000602082015250565b6000613096602f83612696565b91506130a18261303a565b604082019050919050565b600060208201905081810360008301526130c581613089565b9050919050565b7f4552433732313a206f776e657220717565727920666f72206e6f6e657869737460008201527f656e7420746f6b656e0000000000000000000000000000000000000000000000602082015250565b6000613128602983612696565b9150613133826130cc565b604082019050919050565b600060208201905081810360008301526131578161311b565b9050919050565b7f4552433732313a2062616c616e636520717565727920666f7220746865207a6560008201527f726f206164647265737300000000000000000000000000000000000000000000602082015250565b60006131ba602a83612696565b91506131c58261315e565b604082019050919050565b600060208201905081810360008301526131e9816131ad565b9050919050565b7f4f776e61626c653a2063616c6c6572206973206e6f7420746865206f776e6572600082015250565b6000613226602083612696565b9150613231826131f0565b602082019050919050565b6000602082019050818103600083015261325581613219565b9050919050565b7f45524337323155524953746f726167653a2055524920717565727920666f722060008201527f6e6f6e6578697374656e7420746f6b656e000000000000000000000000000000602082015250565b60006132b8603183612696565b91506132c38261325c565b604082019050919050565b600060208201905081810360008301526132e7816132ab565b9050919050565b600081905092915050565b60006133048261268b565b61330e81856132ee565b935061331e8185602086016126a7565b80840191505092915050565b600061333682856132f9565b915061334282846132f9565b91508190509392505050565b7f4f776e61626c653a206e6577206f776e657220697320746865207a65726f206160008201527f6464726573730000000000000000000000000000000000000000000000000000602082015250565b60006133aa602683612696565b91506133b58261334e565b604082019050919050565b600060208201905081810360008301526133d98161339d565b9050919050565b7f4552433732313a206f70657261746f7220717565727920666f72206e6f6e657860008201527f697374656e7420746f6b656e0000000000000000000000000000000000000000602082015250565b600061343c602c83612696565b9150613447826133e0565b604082019050919050565b6000602082019050818103600083015261346b8161342f565b9050919050565b7f4552433732313a207472616e736665722066726f6d20696e636f72726563742060008201527f6f776e6572000000000000000000000000000000000000000000000000000000602082015250565b60006134ce602583612696565b91506134d982613472565b604082019050919050565b600060208201905081810360008301526134fd816134c1565b9050919050565b7f4552433732313a207472616e7366657220746f20746865207a65726f2061646460008201527f7265737300000000000000000000000000000000000000000000000000000000602082015250565b6000613560602483612696565b915061356b82613504565b604082019050919050565b6000602082019050818103600083015261358f81613553565b9050919050565b7f4e487b7100000000000000000000000000000000000000000000000000000000600052601160045260246000fd5b60006135d082612746565b91506135db83612746565b9250828210156135ee576135ed613596565b5b828203905092915050565b600061360482612746565b915061360f83612746565b9250827fffffffffffffffffffffffffffffffffffffffffffffffffffffffffffffffff0382111561364457613643613596565b5b828201905092915050565b7f45524337323155524953746f726167653a2055524920736574206f66206e6f6e60008201527f6578697374656e7420746f6b656e000000000000000000000000000000000000602082015250565b60006136ab602e83612696565b91506136b68261364f565b604082019050919050565b600060208201905081810360008301526136da8161369e565b9050919050565b7f4552433732313a20617070726f766520746f2063616c6c657200000000000000600082015250565b6000613717601983612696565b9150613722826136e1565b602082019050919050565b600060208201905081810360008301526137468161370a565b9050919050565b7f4552433732313a207472616e7366657220746f206e6f6e20455243373231526560008201527f63656976657220696d706c656d656e7465720000000000000000000000000000602082015250565b60006137a9603283612696565b91506137b48261374d565b604082019050919050565b600060208201905081810360008301526137d88161379c565b9050919050565b7f4552433732314d657461646174613a2055524920717565727920666f72206e6f60008201527f6e6578697374656e7420746f6b656e0000000000000000000000000000000000602082015250565b600061383b602f83612696565b9150613846826137df565b604082019050919050565b6000602082019050818103600083015261386a8161382e565b9050919050565b7f416363657373436f6e74726f6c3a206163636f756e7420000000000000000000600082015250565b60006138a76017836132ee565b91506138b282613871565b601782019050919050565b7f206973206d697373696e6720726f6c6520000000000000000000000000000000600082015250565b60006138f36011836132ee565b91506138fe826138bd565b601182019050919050565b60006139148261389a565b915061392082856132f9565b915061392b826138e6565b915061393782846132f9565b91508190509392505050565b600081519050919050565b600082825260208201905092915050565b600061396a82613943565b613974818561394e565b93506139848185602086016126a7565b61398d816126da565b840191505092915050565b60006080820190506139ad60008301876127db565b6139ba60208301866127db565b6139c76040830185612b4f565b81810360608301526139d9818461395f565b905095945050505050565b6000815190506139f3816125fc565b92915050565b600060208284031215613a0f57613a0e6125c6565b5b6000613a1d848285016139e4565b91505092915050565b6000613a3182612746565b91507fffffffffffffffffffffffffffffffffffffffffffffffffffffffffffffffff8203613a6357613a62613596565b5b600182019050919050565b7f4e487b7100000000000000000000000000000000000000000000000000000000600052601260045260246000fd5b6000613aa882612746565b9150613ab383612746565b925082613ac357613ac2613a6e565b5b828204905092915050565b6000613ad982612746565b9150613ae483612746565b925082613af457613af3613a6e565b5b828206905092915050565b7f4e487b7100000000000000000000000000000000000000000000000000000000600052603260045260246000fd5b6000613b3982612746565b9150613b4483612746565b9250817fffffffffffffffffffffffffffffffffffffffffffffffffffffffffffffffff0483118215151615613b7d57613b7c613596565b5b828202905092915050565b6000613b9382612746565b915060008203613ba657613ba5613596565b5b600182039050919050565b7f537472696e67733a20686578206c656e67746820696e73756666696369656e74600082015250565b6000613be7602083612696565b9150613bf282613bb1565b602082019050919050565b60006020820190508181036000830152613c1681613bda565b9050919050565b7f4552433732313a206d696e7420746f20746865207a65726f2061646472657373600082015250565b6000613c53602083612696565b9150613c5e82613c1d565b602082019050919050565b60006020820190508181036000830152613c8281613c46565b9050919050565b7f4552433732313a20746f6b656e20616c7265616479206d696e74656400000000600082015250565b6000613cbf601c83612696565b9150613cca82613c89565b602082019050919050565b60006020820190508181036000830152613cee81613cb2565b905091905056fea2646970667358221220d5854b167b954f2e9d8ffa0c99d432a8577741bec6e236684983cf9d953ce01964736f6c634300080d0033",
  "immutableReferences": {},
  "source": "// SPDX-License-Identifier: MIT\npragma solidity 0.8.13;\n\nimport \"@openzeppelin/contracts/access/AccessControl.sol\";\nimport \"@openzeppelin/contracts/access/Ownable.sol\";\nimport \"@openzeppelin/contracts/token/ERC721/extensions/ERC721URIStorage.sol\";\nimport \"@openzeppelin/contracts/utils/Counters.sol\";\n\n/// Name of contract cannot be empty.\nerror NameIsEmpty();\n/// Token URI of token to be minted cannot be empty.\nerror TokenURIIsEmpty();\n/// ContractURI cannot be empty;\nerror ContractURIIsEmpty();\n\ncontract NFTContractUnlimited is ERC721URIStorage, AccessControl, Ownable {\n    using Counters for Counters.Counter;\n    /// @dev Counter auto-incrementating NFT tokenIds, default: 0\n    Counters.Counter private _tokenIdCounter;\n    string private _contractURI;\n\n    bytes32 public constant MINTER_ROLE = keccak256(\"MINTER_ROLE\");\n\n    event ContractDeployed(address contractAddress_);\n\n    /// @notice The account deploying the contract will have the minter role and will be able to grand other accounts\n    /// @notice The contract is built with only a name & a symbol as metadata. Each NFT metadata will be given at mint time\n    constructor(string memory name_, string memory symbol_, string memory contractURI_) ERC721(name_, symbol_) {\n        if (!(bytes(name_).length > 1)) {\n            revert NameIsEmpty();\n        }\n        _contractURI = contractURI_;\n        _grantRole(DEFAULT_ADMIN_ROLE, _msgSender());\n        _grantRole(MINTER_ROLE, _msgSender());\n        \n        emit ContractDeployed(address(this));\n    }\n\n    /// @notice NFT minting with metadata i.e tokenURI\n    /// @notice Each mint will increment the tokenId, starting from 0\n    function mintWithTokenURI(address to_, string memory tokenURI_) public onlyRole(MINTER_ROLE) returns (bool) {\n        if (!(bytes(tokenURI_).length > 1)) {\n            revert TokenURIIsEmpty();\n        }\n        uint256 tokenId = _tokenIdCounter.current();\n        _tokenIdCounter.increment();\n        _safeMint(to_, tokenId);\n        _setTokenURI(tokenId, tokenURI_);\n        return true;\n    }\n\n    function contractURI() public view returns (string memory) {\n        return _contractURI;\n    }\n\n    function setContractURI(string memory contractURI_) public onlyRole(DEFAULT_ADMIN_ROLE) {\n        if (!(bytes(contractURI_).length > 1)) {\n            revert ContractURIIsEmpty();\n        }\n        _contractURI = contractURI_;\n    }\n\n    // Overrides\n\n    function supportsInterface(bytes4 interfaceId_) public view override(ERC721, AccessControl) returns (bool) {\n        return super.supportsInterface(interfaceId_);\n    }\n}\n",
  "sourcePath": "/Users/fermincarranza/consensys/sdk-contracts/contracts/NFTContractUnlimited.sol",
  "compiler": {
    "name": "solc",
    "version": "0.8.13+commit.abaa5c0e.Emscripten.clang"
  },
  "schemaVersion": "3.4.7",
  "updatedAt": "2022-05-18T21:08:32.025Z",
  "devdoc": {
    "kind": "dev",
    "methods": {
      "approve(address,uint256)": {
        "details": "See {IERC721-approve}."
      },
      "balanceOf(address)": {
        "details": "See {IERC721-balanceOf}."
      },
      "getApproved(uint256)": {
        "details": "See {IERC721-getApproved}."
      },
      "getRoleAdmin(bytes32)": {
        "details": "Returns the admin role that controls `role`. See {grantRole} and {revokeRole}. To change a role's admin, use {_setRoleAdmin}."
      },
      "grantRole(bytes32,address)": {
        "details": "Grants `role` to `account`. If `account` had not been already granted `role`, emits a {RoleGranted} event. Requirements: - the caller must have ``role``'s admin role."
      },
      "hasRole(bytes32,address)": {
        "details": "Returns `true` if `account` has been granted `role`."
      },
      "isApprovedForAll(address,address)": {
        "details": "See {IERC721-isApprovedForAll}."
      },
      "name()": {
        "details": "See {IERC721Metadata-name}."
      },
      "owner()": {
        "details": "Returns the address of the current owner."
      },
      "ownerOf(uint256)": {
        "details": "See {IERC721-ownerOf}."
      },
      "renounceOwnership()": {
        "details": "Leaves the contract without owner. It will not be possible to call `onlyOwner` functions anymore. Can only be called by the current owner. NOTE: Renouncing ownership will leave the contract without an owner, thereby removing any functionality that is only available to the owner."
      },
      "renounceRole(bytes32,address)": {
        "details": "Revokes `role` from the calling account. Roles are often managed via {grantRole} and {revokeRole}: this function's purpose is to provide a mechanism for accounts to lose their privileges if they are compromised (such as when a trusted device is misplaced). If the calling account had been revoked `role`, emits a {RoleRevoked} event. Requirements: - the caller must be `account`."
      },
      "revokeRole(bytes32,address)": {
        "details": "Revokes `role` from `account`. If `account` had been granted `role`, emits a {RoleRevoked} event. Requirements: - the caller must have ``role``'s admin role."
      },
      "safeTransferFrom(address,address,uint256)": {
        "details": "See {IERC721-safeTransferFrom}."
      },
      "safeTransferFrom(address,address,uint256,bytes)": {
        "details": "See {IERC721-safeTransferFrom}."
      },
      "setApprovalForAll(address,bool)": {
        "details": "See {IERC721-setApprovalForAll}."
      },
      "symbol()": {
        "details": "See {IERC721Metadata-symbol}."
      },
      "tokenURI(uint256)": {
        "details": "See {IERC721Metadata-tokenURI}."
      },
      "transferFrom(address,address,uint256)": {
        "details": "See {IERC721-transferFrom}."
      },
      "transferOwnership(address)": {
        "details": "Transfers ownership of the contract to a new account (`newOwner`). Can only be called by the current owner."
      }
    },
    "stateVariables": {
      "_tokenIdCounter": {
        "details": "Counter auto-incrementating NFT tokenIds, default: 0"
      }
    },
    "version": 1
  },
  "userdoc": {
    "errors": {
      "ContractURIIsEmpty()": [
        {
          "notice": "ContractURI cannot be empty;"
        }
      ],
      "NameIsEmpty()": [
        {
          "notice": "Name of contract cannot be empty."
        }
      ],
      "TokenURIIsEmpty()": [
        {
          "notice": "Token URI of token to be minted cannot be empty."
        }
      ]
    },
    "kind": "user",
    "methods": {
      "constructor": {
        "notice": "The account deploying the contract will have the minter role and will be able to grand other accountsThe contract is built with only a name & a symbol as metadata. Each NFT metadata will be given at mint time"
      },
      "mintWithTokenURI(address,string)": {
        "notice": "NFT minting with metadata i.e tokenURIEach mint will increment the tokenId, starting from 0"
      }
    },
    "version": 1
  }
}